:020000040800F2
:1000000000C000209D920008E5830008E7830008F7
:10001000E9830008EB830008ED830008000000007E
:10002000000000000000000000000000EF83000856
:10003000F183000800000000F3830008F583000846
:10004000E5920008E5920008E5920008E5920008B4
:10005000E5920008E5920008E5920008E5920008A4
:10006000E5920008E5920008E5920008E592000894
:10007000E5920008E5920008E5920008E592000884
:10008000E5920008E5920008E5920008E592000874
:10009000E5920008E5920008E5920008E592000864
:1000A000E5920008E5920008E5920008E592000854
:1000B000E5920008FD830008E5920008E59200083B
:1000C000E5920008E5920008E5920008E592000834
:1000D000E5920008E5920008E5920008E592000824
:1000E000E5920008E5920008E5920008E592000814
:1000F000E5920008E5920008E5920008E592000804
:10010000E5920008E5920008E5920008E5920008F3
:10011000E5920008E5920008E5920008E5920008E3
:10012000E5920008E5920008E5920008E5920008D3
:1001300000000000000000000000000000000000BF
:1001400000000000000000000000000000000000AF
:10015000000000000000000000000000000000009F
:10016000000000000000000000000000000000008F
:10017000000000000000000000000000000000007F
:10018000000000000000000000000000000000006F
:10019000000000000000000000000000000000005F
:1001A000000000000000000000000000000000004F
:1001B000000000000000000000000000000000003F
:1001C000000000000000000000000000000000002F
:1001D000000000000000000000000000000000001F
:0401E0005FF8E0F1F3
:1001E80010B5054C237833B9044B13B10448AFF369
:1001F80000800123237010BD780700200000000054
:10020800041A010808B5034B1BB103490348AFF3AF
:10021800008008BD000000007C070020041A0108C7
:1002280081F0004102E000BF83F0004330B54FEA9F
:1002380041044FEA430594EA050F08BF90EA020F0C
:100248001FBF54EA000C55EA020C7FEA645C7FEA9F
:10025800655C00F0E2804FEA5454D4EB5555B8BFC2
:100268006D420CDD2C4480EA020281EA030382EA33
:10027800000083EA010180EA020281EA0303362DC5
:1002880088BF30BD11F0004F4FEA01314FF4801C98
:100298004CEA113102D0404261EB410113F0004FAA
:1002A8004FEA03334CEA133302D0524263EB430361
:1002B80094EA050F00F0A780A4F10104D5F1200EFF
:1002C8000DDB02FA0EFC22FA05F2801841F100015A
:1002D80003FA0EF2801843FA05F359410EE0A5F12E
:1002E80020050EF1200E012A03FA0EFC28BF4CF05F
:1002F800020C43FA05F3C01851EBE37101F0004515
:1003080007D54FF0000EDCF1000C7EEB00006EEB21
:100318000101B1F5801F1BD3B1F5001F0CD34908AB
:100328005FEA30004FEA3C0C04F101044FEA445202
:1003380012F5800F80F09A80BCF1004F08BF5FEA89
:10034800500C50F1000041EB045141EA050130BD69
:100358005FEA4C0C404141EB0101013C28BFB1F57B
:10036800801FE9D291F0000F04BF01460020B1FAC6
:1003780081F308BF2033A3F10B03B3F120020CDA99
:100388000C3208DD02F1140CC2F10C0201FA0CF077
:1003980021FA02F10CE002F11402D8BFC2F1200CDC
:1003A80001FA02F120FA0CFCDCBF41EA0C01904092
:1003B800E41AA2BF01EB0451294330BD6FEA0404DB
:1003C8001F3C1CDA0C340EDC04F11404C4F12002C6
:1003D80020FA04F001FA02F340EA030021FA04F3D8
:1003E80045EA030130BDC4F10C04C4F1200220FA2F
:1003F80002F001FA04F340EA0300294630BD21FA6D
:1004080004F0294630BD94F0000F83F4801306BF32
:1004180081F480110134013D4EE77FEA645C18BF26
:100428007FEA655C29D094EA050F08BF90EA020FBD
:1004380005D054EA000C04BF1946104630BD91EAB5
:10044800030F1EBF0021002030BD5FEA545C05D1B8
:100458004000494128BF41F0004130BD14F58004F7
:100468003CBF01F5801130BD01F0004545F0FE416B
:1004780041F470014FF0000030BD7FEA645C1ABFA0
:10048800194610467FEA655C1CBF0B46024650EAD7
:10049800013406BF52EA033591EA030F41F4002103
:1004A80030BD00BF90F0000F04BF0021704730B589
:1004B8004FF4806404F132044FF000054FF000015E
:1004C80050E700BF90F0000F04BF0021704730B51F
:1004D8004FF4806404F1320410F0004548BF4042F4
:1004E8004FF000013EE700BF42004FEAE2014FEA49
:1004F80031014FEA02701FBF12F07F4393F07F4F24
:1005080081F06051704732F07F4208BF704793F026
:100518007F4F04BF41F40021704730B54FF4607439
:1005280001F0004521F000411CE700BF50EA01023C
:1005380008BF704730B54FF000050AE050EA0102E5
:1005480008BF704730B511F0004502D5404261EB55
:1005580041014FF4806404F132045FEA915C3FF496
:10056800D8AE4FF003025FEADC0C18BF03325FEA33
:10057800DC0C18BF033202EBDC02C2F1200300FAE4
:1005880003FC20FA02F001FA03FE40EA0E0021FA09
:1005980002F11444BDE600BF4FF0FF3C06E000BF87
:1005A8004FF0010C02E000BF4FF0010C4DF804CDF4
:1005B8004FEA410C7FEA6C5C4FEA430C18BF7FEAB4
:1005C8006C5C1BD001B050EA410C0CBF52EA430CE2
:1005D80091EA030F02BF90EA020F0020704710F162
:1005E800000F91EA030F58BF994208BF90422CBFF1
:1005F800D8176FEAE37040F0010070474FEA410CEA
:100608007FEA6C5C02D150EA013C07D14FEA430C07
:100618007FEA6C5CD6D152EA033CD3D05DF8040B78
:10062800704700BF8446104662468C4619466346AA
:1006380000E000BF01B5FFF7B7FF002848BF10F181
:10064800000F01BD4DF808EDFFF7F4FF0CBF0120C6
:1006580000205DF808FB00BF4DF808EDFFF7EAFF42
:1006680034BF012000205DF808FB00BF4DF808EDFD
:10067800FFF7E0FF94BF012000205DF808FB00BFF2
:100688004DF808EDFFF7CEFF94BF012000205DF87C
:1006980008FB00BF4DF808EDFFF7C4FF34BF012089
:1006A80000205DF808FB00BF4A0011D212F50012C5
:1006B80011D20DD56FF47873B3EB62520ED44FEAB2
:1006C800C12343F0004343EA505323FA02F0704732
:1006D8004FF00000704750EA013002D14FF0FF3070
:1006E80070474FF00000704780F0004002E000BF04
:1006F80081F0004142001FBF5FEA410392EA030F05
:100708007FEA226C7FEA236C6AD04FEA1262D2EB4E
:100718001363C1BFD218414048404140B8BF5B4253
:10072800192B88BF704710F0004F40F4000020F0EC
:100738007F4018BF404211F0004F41F4000121F002
:100748007F4118BF494292EA030F3FD0A2F101024C
:1007580041FA03FC10EB0C00C3F1200301FA03F18A
:1007680000F0004302D5494260EB4000B0F5000FAD
:1007780013D3B0F1807F06D340084FEA310102F16C
:100788000102FE2A51D2B1F1004F40EBC25008BF1E
:1007980020F0010040EA03007047490040EB0000E8
:1007A800013A28BFB0F5000FEDD2B0FA80FCACF1E9
:1007B800080CB2EB0C0200FA0CF0AABF00EBC25016
:1007C80052421843BCBFD0401843704792F0000F04
:1007D80081F4000106BF80F400000132013BB5E757
:1007E8004FEA41037FEA226C18BF7FEA236C21D0CD
:1007F80092EA030F04D092F0000F08BF0846704732
:1008080090EA010F1CBF0020704712F07F4F04D1FF
:10081800400028BF40F00040704712F100723CBF12
:1008280000F50000704700F0004343F0FE4040F43C
:10083800000070477FEA226216BF08467FEA2363FA
:100848000146420206BF5FEA412390EA010F40F4E5
:10085800800070474FF0000304E000BF10F0004331
:1008680048BF40425FEA000C08BF704743F0964318
:1008780001464FF000001CE050EA010208BF704733
:100888004FF000030AE000BF50EA010208BF7047BA
:1008980011F0004302D5404261EB41015FEA010CCF
:1008A80002BF84460146002043F0B64308BFA3F1C7
:1008B8008053A3F50003BCFA8CF2083AA3EBC253A9
:1008C80010DB01FA02FC634400FA02FCC2F12002C8
:1008D800BCF1004F20FA02F243EB020008BF20F0FF
:1008E8000100704702F1200201FA02FCC2F1200265
:1008F80050EA4C0021FA02F243EB020008BF20EA5A
:10090800DC7070474FF0FF0C1CEAD0521EBF1CEA87
:10091800D15392EA0C0F93EA0C0F6FD01A4480EA75
:10092800010C400218BF5FEA41211ED04FF000635E
:1009380043EA501043EA5111A0FB01310CF000408A
:10094800B1F5000F3EBF490041EAD3715B0040EAB0
:10095800010062F17F02FD2A1DD8B3F1004F40EB80
:10096800C25008BF20F00100704790F0000F0CF053
:10097800004C08BF49024CEA502040EA51207F3A17
:10098800C2BFD2F1FF0340EAC250704740F40000F2
:100998004FF00003013A5DDC12F1190FDCBF00F0E3
:1009A80000407047C2F10002410021FA02F1C2F191
:1009B800200200FA02FC5FEA310040F1000053EA2D
:1009C8004C0308BF20EADC70704792F0000F00F07B
:1009D800004C02BF400010F4000F013AF9D040EA81
:1009E8000C0093F0000F01F0004C02BF490011F415
:1009F800000F013BF9D041EA0C018FE70CEAD15313
:100A080092EA0C0F18BF93EA0C0F0AD030F0004C92
:100A180018BF31F0004CD8D180EA010000F0004046
:100A2800704790F0000F17BF90F0004F084691F004
:100A3800000F91F0004F14D092EA0C0F01D142023E
:100A48000FD193EA0C0F03D14B0218BF084608D107
:100A580080EA010000F0004040F0FE4040F4000051
:100A6800704740F0FE4040F4400070474FF0FF0CE4
:100A78001CEAD0521EBF1CEAD15392EA0C0F93EA2B
:100A88000C0F69D0A2EB030280EA010C49024FEA7D
:100A9800402037D04FF0805343EA111143EA101336
:100AA8000CF000408B4238BF5B0042F17D024FF4EE
:100AB800000C8B4224BF5B1A40EA0C00B3EB510FC9
:100AC80024BFA3EB510340EA5C00B3EB910F24BFB2
:100AD800A3EB910340EA9C00B3EBD10F24BFA3EB37
:100AE800D10340EADC001B0118BF5FEA1C1CE0D1FF
:100AF800FD2A3FF650AF8B4240EBC25008BF20F0B2
:100B0800010070470CF0004C4CEA50207F32C2BF05
:100B1800D2F1FF0340EAC250704740F400004FF0A2
:100B28000003013A37E792F0000F00F0004C02BFD3
:100B3800400010F4000F013AF9D040EA0C0093F09D
:100B4800000F01F0004C02BF490011F4000F013BF7
:100B5800F9D041EA0C0195E70CEAD15392EA0C0F5F
:100B680008D142027FF47DAF93EA0C0F7FF470AF97
:100B7800084676E793EA0C0F04D14B023FF44CAFDA
:100B880008466EE730F0004C18BF31F0004CCAD16F
:100B980030F000427FF45CAF31F000437FF43CAFAB
:100BA8005FE700BF4FEA4002B2F1FE4F0FD34FF0AC
:100BB8009E03B3EB12620DD94FEA002343F00043C2
:100BC80010F0004F23FA02F018BF404270474FF070
:100BD8000000704712F1610F01D1420205D110F0F7
:100BE800004008BF6FF0004070474FF000007047AA
:100BF80042000ED2B2F1FE4F0BD34FF09E03B3EB7F
:100C0800126209D44FEA002343F0004323FA02F0AA
:100C180070474FF00000704712F1610F01D1420296
:100C280002D14FF0FF3070474FF00000704700BF0F
:100C380010F8012B11F8013B012A28BF9A42F7D07E
:100C4800D01A7047034613F8012B002AFBD1181A53
:100C58000138704770B54FF0FF0C4CF4E06C1CEA9B
:100C680011541DBF1CEA135594EA0C0F95EA0C0F9A
:100C780000F0DEF82C4481EA030621EA4C5123EA0D
:100C88004C5350EA013518BF52EA033541F480113C
:100C980043F4801338D0A0FB02CE4FF00005E1FBEF
:100CA80002E506F00042E0FB03E54FF00006E1FB39
:100CB80003569CF0000F18BF4EF0010EA4F1FF047C
:100CC800B6F5007F64F5407404D25FEA4E0E6D41BC
:100CD80046EB060642EAC62141EA55514FEAC520CD
:100CE80040EA5E504FEACE2EB4F1FD0C88BFBCF549
:100CF800E06F1ED8BEF1004F08BF5FEA500E50F1FA
:100D0800000041EB045170BD06F0004646EA0101BF
:100D180040EA020081EA0301B4EB5C04C2BFD4EBF1
:100D28000C0541EA045170BD41F480114FF0000EEA
:100D3800013C00F3AB8014F1360FDEBF002001F058
:100D4800004170BDC4F10004203C35DA0C341BDCD2
:100D580004F11404C4F1200500FA05F320FA04F0A4
:100D680001FA05F240EA020001F0004221F00041D8
:100D780010EBD37021FA04F642EB06015EEA430E4B
:100D880008BF20EAD37070BDC4F10C04C4F120057B
:100D980000FA04F320FA05F001FA04F240EA02002E
:100DA80001F0004110EBD37041F100015EEA430EFF
:100DB80008BF20EAD37070BDC4F1200500FA05F21F
:100DC8004EEA020E20FA04F301FA05F243EA02039E
:100DD80021FA04F001F0004121FA04F220EA0200AD
:100DE80000EBD3705EEA430E08BF20EAD37070BDF3
:100DF80094F0000F0FD101F00046400041EB0101D3
:100E080011F4801F08BF013CF7D041EA060195F0B4
:100E1800000F18BF704703F00046520043EB03036E
:100E280013F4801F08BF013DF7D043EA060370475B
:100E380094EA0C0F0CEA135518BF95EA0C0F0CD066
:100E480050EA410618BF52EA4306D1D181EA0301AC
:100E580001F000414FF0000070BD50EA410606BFA6
:100E68001046194652EA430619D094EA0C0F02D1EB
:100E780050EA013613D195EA0C0F05D152EA033630
:100E88001CBF104619460AD181EA030101F000414E
:100E980041F0FE4141F470014FF0000070BD41F097
:100EA800FE4141F4780170BD70B54FF0FF0C4CF471
:100EB800E06C1CEA11541DBF1CEA135594EA0C0F90
:100EC80095EA0C0F00F0A7F8A4EB050481EA030EDD
:100ED80052EA03354FEA013100F088804FEA0333C4
:100EE8004FF0805545EA131343EA12634FEA022292
:100EF80045EA111545EA10654FEA00260EF0004153
:100F08009D4208BF964244F1FD0404F5407402D2A4
:100F18005B084FEA3202B61A65EB03055B084FEA35
:100F280032024FF480104FF4002CB6EB020E75EB32
:100F3800030E22BFB61A754640EA0C005B084FEA5A
:100F48003202B6EB020E75EB030E22BFB61A7546D7
:100F580040EA5C005B084FEA3202B6EB020E75EB22
:100F6800030E22BFB61A754640EA9C005B084FEA9A
:100F78003202B6EB020E75EB030E22BFB61A7546A7
:100F880040EADC0055EA060E18D04FEA051545EA96
:100F980016754FEA06164FEAC30343EA52734FEA3F
:100FA800C2025FEA1C1CC0D111F4801F0BD141EAB8
:100FB80000014FF000004FF0004CB6E711F4801F1D
:100FC80004BF01430020B4F1FD0C88BFBCF5E06FFD
:100FD8003FF6AFAEB5EB030C04BFB6EB020C5FEA0D
:100FE800500C50F1000041EB045170BD0EF0004E62
:100FF8004EEA113114EB5C04C2BFD4EB0C0541EA94
:10100800045170BD41F480114FF0000E013C90E690
:1010180045EA060E8DE60CEA135594EA0C0F08BF54
:1010280095EA0C0F3FF43BAF94EA0C0F0AD150EA53
:1010380001347FF434AF95EA0C0F7FF425AF1046E6
:1010480019462CE795EA0C0F06D152EA03353FF40E
:10105800FDAE1046194622E750EA410618BF52EA8B
:1010680043067FF4C5AE50EA41047FF40DAF52EA5F
:1010780043057FF4EBAE12E74FEA410C7FEA6C5C64
:1010880002D150EA013C0AD14FEA430C7FEA6C5C7A
:1010980002D152EA033C02D14FF0000070474FF0F2
:1010A800010070474FEA410212F5001215D211D51E
:1010B8006FF47873B3EB625212D94FEAC12343F04D
:1010C800004343EA505311F0004F23FA02F018BFCF
:1010D800404270474FF00000704750EA013005D198
:1010E80011F0004008BF6FF0004070474FF000005B
:1010F800704700BF53B94AB9002908BF00281CBF70
:101108004FF0FF314FF0FF3000F072B9ADF1080C2D
:101118006DE904CE00F006F8DDF804E0DDE902230D
:1011280004B070472DE9F047089E0D4604468E46E8
:10113800002B4CD18A42944667D9B2FA82F353B154
:1011480002FA03FCC3F1200201FA03FE20FA02F2BC
:1011580042EA0E0E9C404FEA1C47BEFBF7F11FFA0D
:101168008CF507FB11EE01FB05F0220C42EA0E425A
:1011780090420AD91CEB020201F1FF3E80F019816E
:10118800904240F2168102396244121AB2FBF7F01B
:1011980007FB102200FB05F5A4B244EA0244A5426D
:1011A8000AD91CEB040400F1FF3280F00481A54247
:1011B80040F201816444023840EA01400021641B86
:1011C8001EB1DC400023C6E90043BDE8F0878B422E
:1011D80008D9002E00F0EA800021C6E9000508467B
:1011E800BDE8F087B3FA83F1002948D1AB4202D3B6
:1011F800824200F2F880841A65EB030201209646C9
:10120800002EE2D0C6E9004EDFE702B9FFDEB2FAEF
:1012180082F3002B40F08E80881A0121170C1FFAE8
:1012280082FEB0FBF7F507FB1500220C42EA0042EC
:101238000EFB05F0904208D91CEB020205F1FF38BD
:1012480002D2904200F2CC804546121AB2FBF7F067
:1012580007FB10220EFB00FEA4B244EA0244A64596
:1012680008D91CEB040400F1FF3202D2A64500F2B3
:10127800B4801046A4EB0E0440EA0540A0E7C1F193
:1012880020078B4022FA07FC4CEA030C25FA07FAE0
:101298004FEA1C49BAFBF9F88D4020FA07F309FB1D
:1012A80018AA1FFA8CFE2B4300FA01F508FB0EF072
:1012B8001C0C44EA0A44A04202FA01F20BD91CEBC6
:1012C800040408F1FF3A80F08680A04240F283804F
:1012D800A8F102086444241A98B2B4FBF9F309FB94
:1012E800134403FB0EFE40EA0444A64508D91CEB50
:1012F800040403F1FF306AD2A64568D9023B64446E
:1013080043EA0840A0FB0293A4EB0E049C42C846A3
:101318009E4654D351D0002E67D0B5EB080364EB3A
:101328000E04CB4004FA07F71F43CC40C6E900740B
:1013380000214AE702FA03FCC3F12000C1409D40A6
:1013480024FA00F04FEA1C472843B1FBF7F507FBE6
:1013580015111FFA8CFE020C42EA014205FB0EF140
:10136800914204FA03F408D91CEB020205F1FF3894
:101378002FD291422DD9023D6244521AB2FBF7F1A5
:1013880007FB112280B240EA024001FB0EF28242C2
:1013980008D91CEB000001F1FF3816D2824214D99B
:1013A80002396044801A41EA05413AE7314630463D
:1013B8000BE77146E9E61046FEE64D45ABD2B9EBC0
:1013C800020863EB0C0E0138A5E74146EAE703463D
:1013D80096E74546D1E7D0467DE76444023849E7B9
:1013E800023D624431E708460AE73146EDE600BFB0
:1013F800704700BF08B506F07BFC08BD10B5044671
:1014080006F09CFC230A5B00DBB2603B03F0FE00A5
:1014180006F040FD06F0D2FCE0B206F03BFD06F017
:10142800CDFC06F08BFCA12006F034FD06F0C6FCCE
:10143800002006F05DFD044606F0A0FC204610BD25
:1014480038B504460D4606F079FC230A5B00DBB28A
:10145800603B03F0FE0006F01DFD06F0AFFCE0B2B5
:1014680006F018FD06F0AAFC284606F013FD06F063
:10147800A5FC06F083FC0A2000F07EF938BD70B5A3
:101488000C46154608E0461CB6B2FFF7B7FF04F84D
:10149800010B013DADB23046002DF4D170BD70B5E1
:1014A80004460E4607E016F8011B2046FFF7C8FF62
:1014B8000134A4B22A46531E9DB2002AF3D170BD4E
:1014C80008B5052000F03AF908BD000010B586B04F
:1014D8000D4B9A6942F010029A619B6903F0100360
:1014E8000193019B09230293012403940494032389
:1014F800059302A9054807F0CDFF054BC3F88041C5
:10150800C3F88C4106B010BD001002400010014025
:101518000000224238B50D4B1A6822F470421A6056
:101528001A6842F440521A60094C0123C4F88C31FD
:10153800C4F880311E2000F001F90025C4F88C5150
:10154800FFF7BEFFC4F8805138BD00BF001001404E
:101558000000224238B50C4B1A6822F470421A6017
:101568001A6842F440521A60084C0125C4F88051A8
:101578001E2000F0E3F80023C4F88C31FFF7A0FF29
:10158800C4F88C5138BD00BF001001400000224251
:1015980010B5134B1A6822F470421A601A6842F4A4
:1015A80000421A600F4B0122C3F88C21C3F8802136
:1015B800FFF786FF00240B4BD3F80C3153B10134ED
:1015C800E4B2FA2C02D8FFF77BFFF4E7FFF7C2FF7B
:1015D800012003E00020034BC3F8800110BD00BFC9
:1015E800001001400000224238B50D4C0025C4F817
:1015F80080510C4B1A6822F470421A601A6842F43F
:1016080040521A60FFF75CFFC4F88C51FFF758FF8F
:101618000123C4F88031FFF753FFC4F8805138BD67
:10162800000022420010014070B50D4C0025C4F89E
:1016380080510C4B1A6822F470421A601A6842F4FE
:1016480040521A60FFF73CFF0126C4F88C61FFF78F
:1016580037FFC4F88061FFF733FFC4F8805170BDCD
:10166800000022420010014070B50546124B1A686E
:1016780022F470421A601A6842F440521A60002438
:101688000E4BC3F88041FFF71BFF11E0EB090B4E2F
:10169800C6F88C316D00EDB20123C6F88031FFF732
:1016A8000FFF0023C6F88031FFF70AFF0134E4B2C8
:1016B800072CEBD970BD00BF00100140000022428A
:1016C800F8B50746164B1A6822F470421A601A6871
:1016D80042F400421A601E2000F030F8002425462B
:1016E80001E00135EDB2072D11D80E4E0023C6F8E2
:1016F8008031FFF7E5FE0123C6F880319C40E4B253
:10170800D6F80C31002BECD00134E4B2E9E71FB96C
:10171800FFF78AFF2046F8BDFFF766FFFAE700BF2C
:10172800001001400000224210B50446042007F0D2
:10173800A1FE014B1C6010BD9407002010B44FF0AF
:10174800E02254690B4B1B6800FB03FC93690021E2
:1017580004E0E01A02441144614509D21A464FF0E8
:10176800E0239B699A42FAD0F3D9D21A1144F3E7DD
:1017780010BC70479407002038B50546002404E0E3
:101788004FF47A70FFF7DAFF0134A542F8D838BD74
:10179800F8B504460F461546FFF7BCFE7020FFF764
:1017A80063FFFFF7F5FEE0B2FFF75EFFFFF7F0FE1D
:1017B8000026344601E00134E4B2AC4207D2385D79
:1017C800FFF752FFFFF7E4FE06460028F3D0FFF7C5
:1017D800C1FE3046F8BD70B504460E461546FFF703
:1017E80099FE7020FFF740FFFFF7D2FEE0B2FFF747
:1017F8003BFFFFF7CDFEFFF78DFE7120FFF734FFAB
:10180800FFF7C6FE002408E0681E201A18BF012052
:10181800FFF756FF30550134E4B2AC42F4D3FFF77A
:1018280099FE70BDF0B587B0304B9A6942F010024E
:101838009A619B6903F010030093009B4FF40053D7
:10184800019301240294039403230493284F01A9CC
:10185800384607F01FFE022601960025029501A9C9
:10186800384607F017FEFFF731FE224FC7F8B4518C
:101878001420FFF781FFC7F8B4413220FFF77CFF3F
:101888008DF81450224605A92846FFF781FF224605
:1018980005A9A420FFF77CFF16238DF814302246F3
:1018A80005A98020FFF774FF0C238DF81430224619
:1018B80005A98820FFF76CFF324605A9A120FFF78C
:1018C8008AFF9DF81430302B02D0012007B0F0BDFC
:1018D8009DF81510032901D00120F7E701EB03213A
:1018E800054809F057FA2846F0E700BF0010024003
:1018F8000010014000002242201A010830B585B0CE
:101908008DF80700604B1A780132D2B21A705F4B1B
:10191800A3FB0213DB0803EB8303A2EB430313F0DF
:10192800FF0F02D0092A00F2878001220DF107017A
:101938000220FFF750FF9DF8070000F00F00002875
:101948007BD0052800F29780FF238340DB4363F0B8
:101958003F034F4A82F8203000242EE09DF80C30D7
:101968001B0203F470639DF80D201344C3F5F07354
:10197800474A211D02EB41018B809DF80E301B0266
:1019880003F470639DF80F100B4404F1080102EB97
:101998004102D3809DF80C3003F0F003802B0AD06D
:1019A8003B4B05F1080203EB42020021D1800435CC
:1019B80003EB450399800134E4B2042C2FD8344B4F
:1019C80093F820302546234113F0010FF3D0042269
:1019D80003A9304B33F81400FFF7FDFE2C4B93F8A6
:1019E800303013F0010FB9D09DF80C301B0203F40E
:1019F80070639DF80D201344254A04F1080102EB99
:101A08004101CB809DF80E301B0203F470639DF8F2
:101A18000F100B44211D02EB41029380BAE71C4BC7
:101A28009B8923B91A4BDB8A0BB98DF80730164B03
:101A380000221A70012000E000209DF8073013F002
:101A48001F0F0FD1124A92F8203092F92020002A55
:101A580013DB0F4A4FF6FF719181D18223F01F03E8
:101A680082F82030084B1B78F02B02D9064B0A224B
:101A78001A7005B030BD0020DFE703F07F03044A89
:101A880082F82030EEE700BF98070020CDCCCCCC00
:101A9800140000202C1A010882B00A4B9A6942F0FF
:101AA80020029A619A6902F020020092009A9A69CB
:101AB80042F004029A619B6903F004030193019BBD
:101AC80002B0704700100240F8B504460F461546AC
:101AD800FFF720FD2820FFF7C7FDFFF759FD200A73
:101AE800FFF7C2FDFFF754FDE0B2FFF7BDFDFFF7BA
:101AF8004FFD0026344601E00134E4B2AC4207D27F
:101B0800385DFFF7B1FDFFF743FD06460028F3D027
:101B1800FFF720FD3046F8BD00B583B000238DF8EF
:101B280004308DF8050008E00F4AD25C9DF80410D7
:101B38000A448DF804200133DBB2B72BF4D99DF8A1
:101B480004305B428DF80430B822074948F2470058
:101B5800FFF7BAFF022201A948F2FF00FFF7B4FF1E
:101B6800002003B05DF804FB601A010870B5044654
:101B78000E461546FFF7CEFC2820FFF775FDFFF748
:101B880007FD200AFFF770FDFFF702FDE0B2FFF73F
:101B98006BFDFFF7FDFCFFF7BDFC2920FFF764FD97
:101BA800FFF7F6FC002408E0681E201A18BF012081
:101BB800FFF786FD30550134E4B2AC42F4D3FFF7A9
:101BC800C9FC70BD2DE9F04188B0394B9A6942F0E3
:101BD80010029A619B6903F010030193019B4FF473
:101BE8000053029301270397049703230593314D6C
:101BF80002A9284607F04EFC022602960024039408
:101C080002A9284607F046FCFFF760FCDFF8A88029
:101C1800C8F8B4410A20FFF7AFFDC8F8B4710A202C
:101C2800FFF7AAFD02960496039402A9284607F036
:101C380031FC6420FFF7A0FD042206A948F24010F9
:101C4800FFF794FF8DF81C4006A91C4809F0A2F87C
:101C58001B4906A8FEF7ECFF18B1002008B0BDE844
:101C6800F0818DF818603A4606A948F24000FFF75F
:101C78002BFF3A4606A948F24700FFF777FF9DF881
:101C880018105F290CD90A20FFF776FD00238DF87C
:101C98001830012206A948F24000FFF715FFDCE7DB
:101CA800084809F077F83846FFF736FFEBE700BF3A
:101CB800001002400010014000002242381A0108BA
:101CC800441A01084C1A010870B584B08DF8070051
:101CD800744B1A780132D2B21A70734BA3FB0213F9
:101CE800DB0803EB8303A2EB430313F0FF0F02D0DF
:101CF800092A00F2AD8001220DF1070148F24E10C9
:101D0800FFF734FF9DF807309DF90720002A1CDBF8
:101D18009DF8070000F00F00002800F09A800528C1
:101D280000F2A680FF238340DBB28DF80B305F4AB8
:101D380092F82050DB4363F03F0382F82030938908
:101D48009382D38AD383002426E003F00F03052B64
:101D5800DED800238DF80B3001220DF10B0148F27B
:101D68004E10FFF7B1FED3E79DF80D309DF80C102B
:101D780001EB03214D4A231D02EB430399809DF893
:101D88000F309DF80E1001EB032104F1080302EB5C
:101D98004302D1800134E4B2042C2DD8434B93F88C
:101DA8002030234113F0010FF4D0042203A9404B43
:101DB80033F81400FFF7DAFE3C4B93F8303013F099
:101DC800010FD1D09DF80D309DF80C2002EB0322B5
:101DD800364904F1080301EB4303DA809DF80F301C
:101DE8009DF80E2002EB032292B2C2F54872231D21
:101DF80001EB43018A80CDE72C4B9A892D4B1B8838
:101E08009A4205D8294BDA8A2A4B5B889A421AD912
:101E18009DF8073013F00E0F09D0244BDA899A8108
:101E28001A8BDA821F4B00221A70012011E01F4B17
:101E38009A8A9A81DA8BDA8280228DF8072083F8D1
:101E48002050012005E0174B00221A70012000E005
:101E580000209DF8073003F08F03802B0AD0114B28
:101E68001B78F02B02D90F4B0A221A7004B070BDF0
:101E78000020EEE70D4A92F8203092F92020002A3F
:101E880009DB0A4A4FF6FF719181D18223F01F03C3
:101E980082F82030E3E703F07F03044A82F8203019
:101EA800DDE700BF99070020CDCCCCCC1400002082
:101EB800181B01089C07002030B587B0184B9A6999
:101EC80042F004029A619A6902F004020092009AB0
:101ED8009A6942F010029A619B6903F0100301931A
:101EE800019B0124029400230393022304930323F8
:101EF80005930C4D02A9284607F0CCFA4FF400438D
:101F08000293049402A9284607F0C4FA20230293F6
:101F1800049402A9044807F0BDFA07B030BD00BF19
:101F280000100240000801400010014008B50128D7
:101F38001AD0294B1B780BB32021284807F0CAFB7D
:101F480028B14FF40041264807F0C4FB80B90A20A5
:101F5800FFF712FC204B00221A7020211F4807F0BF
:101F6800B9FB98B9012010E01B4B01221A70E0E779
:101F780001211B4807F0AEFB0128E8D020211748B3
:101F880007F0A8FB01280FD0002008BD4FF400413E
:101F9800134807F09FFBC8B10121114807F09AFBCD
:101FA800012815D00020F0E74FF400410C4807F055
:101FB80091FB012801D00020E7E70121084807F03C
:101FC80089FB38B9044B01221A70DEE70220DCE7EE
:101FD8000320DAE70020D8E70000002000100140C5
:101FE80000080140064B4FF480725A614FF40072AA
:101FF8005A610449C8608021596119611A617047A2
:1020080000100140000C0140064B4FF480721A6129
:102018004FF400725A610449C860802159611961FE
:102028001A61704700100140000C014008B5164BBA
:102038004FF088321A605A600022DA6003F5806334
:102048004FF480721A614FF400725A6140225A614B
:102058000E4B9A8848F689139A4210D00A4B986812
:102068000B4A402111614FF4007111614FF0333276
:102078001A605A604FF6FF72DA6080B208BD01201C
:1020880007F078F9EAE700BF000C01409C07002040
:102098000010014010B50C46FFF7A4FF064B4FF4A3
:1020A80080721A614FF400725A610449CC60802131
:1020B800596119611A6110BD00100140000C0140FE
:1020C80008B5FFF78FFFFFF7B1FF08BD08B5024B52
:1020D8001889FFF787FF08BD9C0700202DE9F84FF6
:1020E80005460E469C4B9B8849F24132934220D0CC
:1020F80045F2103293421CD046F60402934259D05E
:1021080041F66312934200F0A08045F210529342C8
:1021180000F02881904B9B79012B00F06F818E4C49
:1021280029466089FFF7B6FF3146A089FFF7B2FF5D
:102138003EE0DFF824B2BBF80A00FFF753FF874CF4
:102148004FF4807AC4F810A04FF4007767612B0A27
:10215800DFF80C92C9F80C304FF08008C4F81480EE
:10216800C4F810802761C4F810A06761EDB2C9F8FF
:102178000C50C4F81480C4F810802761BBF80C0018
:10218800FFF730FFC4F810A06761330AC9F80C30B4
:10219800C4F81480C4F810802761C4F810A06761DF
:1021A800F6B2C9F80C60C4F81480C4F8108027612E
:1021B800BDE8F88F684B9B79012B3FD0DFF898B1C9
:1021C800BBF80A00FFF70EFF644C4FF4807AC4F89E
:1021D80010A04FF4007767612B0ADFF88491C9F8E3
:1021E8000C304FF08008C4F81480C4F810802761C0
:1021F800C4F810A06761EDB2C9F80C50C4F8148097
:10220800C4F810802761BBF80C00FFF7EBFEC4F898
:1022180010A06761330AC9F80C30C4F81480C4F8F8
:1022280010802761C4F810A06761F6B2C9F80C6085
:10223800C4F81480C4F810802761B9E7464B1B889E
:102248001B1A9BB2013B9DB2B8E7434B9B79002B0D
:1022580054D1414B1C88241AA4B2013CA4B2588919
:10226800FFF7C0FE3D4B4FF480751D614FF40072BF
:102278005A613B480027C7608021596119611A617A
:102288001D615A61C760596119611A611D615A61FE
:10229800270AC760596119611A611D615A61E4B260
:1022A800C460596119611A612B4FB889FFF79AFE0A
:1022B8002A4B4FF480751D614FF400725A61310A40
:1022C800274CE1608021596119611A611D615A61C9
:1022D800F6B2E660596119611A611D615A61788820
:1022E80001380612E660596119611A611D615A6167
:1022F800C0B2E060596119611A6159E7DFF8588086
:10230800B8F80A00FFF76EFE144B4FF480771F6190
:102318004FF400725A61290A114CE1608021596119
:1023280019611A611F615A61EDB2E560596119615D
:102338001A611F615A61B8F8000001380512E5609A
:10234800596119611A611F615A61C0B2E06059612F
:1023580019611A61A8E700BF9C070020001001401E
:10236800000C0140DFF8A4B0BBF80A00FFF73AFE02
:10237800274C4FF4807AC4F810A04FF400776761B7
:102388002B0ADFF89090C9F80C304FF08008C4F899
:102398001480C4F810802761BBF80A00013080B2AD
:1023A800FFF720FEC4F810A06761EDB2C9F80C5021
:1023B800C4F81480C4F810802761BBF80C00FFF73C
:1023C80011FEC4F810A06761330AC9F80C30C4F8CC
:1023D8001480C4F810802761BBF80C00013080B26B
:1023E800FFF700FEC4F810A06761F6B2C9F80C60E8
:1023F800C4F81480C4F810802761D9E6034B1B8801
:102408001B1A9BB2013B9DB289E600BF9C070020C6
:1024180000100140000C01402DE9F047804B9B79EA
:10242800012B29D02BB97E4B9A8841F663139A4227
:102438002CD07B4B9A8849F241339A423ED046F6DB
:1024480004039A423AD045F210339A4236D045F204
:1024580010539A4232D041F663139A422ED007287D
:1024680000F26081DFE810F06C01600162015E013A
:102478006401660168016A01694A928846F60401A6
:102488008A42CFD041F663118A42CBD00728D0D8F0
:10249800DFE800F0120406080A0C0E100720C8E74F
:1024A8000420C6E70520C4E70120C2E70020C0E7F2
:1024B8000320BEE70220BCE70620BAE70138062859
:1024C80005D8DFE800F01206080A0C0E10000024F8
:1024D8000CE040240AE0C02408E0202406E0602440
:1024E80004E0A02402E0E02400E0802445F2105338
:1024F8009A4200F08680362045F210339A4209D07D
:1025080045F210539A4205D041F663139A4201D01E
:1025180044F0080446F604039A4275D02146FFF7B2
:10252800B9FD3F4B9B8841F6631293420AD014F0E1
:10253800200F6CD03A4A11885288914202D238480A
:102548000280418045F2105293426FD0DFF8D0905C
:10255800B9F80A00FFF746FD324C4FF48078C4F80A
:1025680010804FF4007565612F4F4FF0000AC7F8CF
:102578000CA08026666126612561C4F8108065611B
:10258800C7F80CA0666126612561C4F810806561F2
:10259800B9F80030013B1A12FA60666126612561BC
:1025A800C4F810806561DBB2FB6066612661256155
:1025B800B9F80C00FFF716FDC4F810806561C7F87C
:1025C8000CA0666126612561C4F810806561C7F8B2
:1025D8000CA0666126612561C4F810806561B9F8B0
:1025E8000230013B1A12FA60666126612561C4F85F
:1025F80010806561DBB2FB60666126612561BDE81C
:10260800F0874FF4585077E744F0020486E7044A0D
:1026180011885288914295D901480280418091E7FA
:102628009C07002000100140000C0140484F7889A9
:10263800FFF7D8FC474C4FF48079C4F810904FF45A
:1026480000756561DFF810814FF0000AC8F80CA02A
:1026580080266661266125617889013080B2FFF79E
:10266800C1FCC4F810906561C8F80CA066612661C9
:1026780025617889023080B2FFF7B4FCC4F8109065
:1026880065613B88013B1B12C8F80C306661266106
:1026980025617889033080B2FFF7A4FCC4F8109054
:1026A80065613B88013BDBB2C8F80C306661266186
:1026B8002561B889FFF796FCC4F810906561C8F8E1
:1026C8000CA0666126612561B889013080B2FFF7E8
:1026D80089FCC4F810906561C8F80CA06661266191
:1026E8002561B889023080B2FFF77CFCC4F81090ED
:1026F80065617B88013B1B12C8F80C306661266156
:102708002561B889033080B2FFF76CFCC4F81090DB
:1027180065617B88013BDBB2C8F80C3066612661D5
:1027280025616CE700210CE010210AE0202108E077
:10273800382106E0282104E0182102E0082100E001
:10274800302141F480510320FFF7A4FC57E700BF74
:102758009C07002000100140000C014008B5FFF75D
:10276800BDFCFFF7B3FC084B4FF480721A614FF4BD
:1027780000725A61054908880549C8608021596175
:1027880019611A6108BD00BF001001409A070020B6
:10279800000C01402DE9F04F83B005460E4601922A
:1027A800C34B9B8849F24132934220D045F2103204
:1027B80093421CD045F21052934270D041F66312F6
:1027C800934200F0B88046F60402934200F0248158
:1027D800B74B9B79012B00F07181B54C2946608974
:1027E800FFF758FC3146A089FFF754FC3EE0DFF8BC
:1027F800C0B2BBF80A00FFF7F5FBAE4C4FF4807A85
:10280800C4F810A04FF4007767612B0ADFF8A8928C
:10281800C9F80C304FF08008C4F81480C4F8108050
:102828002761C4F810A06761EDB2C9F80C50C4F86C
:102838001480C4F810802761BBF80C00FFF7D2FBA6
:10284800C4F810A06761330AC9F80C30C4F81480C2
:10285800C4F810802761C4F810A06761F6B2C9F8FF
:102868000C60C4F81480C4F810802761914B4FF4B1
:1028780080745C614FF400725A618D4909898E48F1
:10288800C1608021596119611A611C615A61019CFA
:10289800C460596119611A6103B0BDE8F08FDFF8AF
:1028A80010A2BAF80A00FFF79DFB824C4FF480791A
:1028B800C4F810904FF4007767612B0ADFF8F8B17D
:1028C800CBF80C304FF08008C4F81480C4F810809E
:1028D8002761BAF80A00013080B2FFF783FBC4F819
:1028E80010906761EDB2CBF80C50C4F81480C4F8AE
:1028F80010802761BAF80C00FFF774FBC4F8109039
:102908006761330ACBF80C30C4F81480C4F810801F
:102918002761BAF80C00013080B2FFF763FBC4F8F6
:1029280010906761F6B2CBF80C60C4F81480C4F854
:10293800108027619AE75E4B9B792BB95C4B1B880B
:102948001B1A9BB2013B9DB2DFF864B1BBF80A00C9
:10295800FFF748FB574C4FF4807AC4F810A04FF4A7
:10296800007767612B0ADFF85091C9F80C304FF0F7
:102978008008C4F81480C4F810802761C4F810A037
:102988006761EDB2C9F80C50C4F81480C4F810801F
:102998002761C4F810A06761C9F80C30C4F8148026
:1029A800C4F810802761C4F810A06761C9F80C50FA
:1029B800C4F81480C4F810802761BBF80C00FFF736
:1029C80011FBC4F810A06761330AC9F80C30C4F8C9
:1029D8001480C4F810802761C4F810A06761F6B2AB
:1029E800C9F80C60C4F81480C4F810802761C4F8D2
:1029F80010A06761C9F80C30C4F81480C4F81080BE
:102A08002761C4F810A06761C9F80C60C4F8148085
:102A1800C4F81080276129E7254B9B79012B3FD00B
:102A2800DFF88CB0BBF80A00FFF7DCFA214C4FF452
:102A3800807AC4F810A04FF4007767612B0ADFF89A
:102A48007890C9F80C304FF08008C4F81480C4F8A6
:102A580010802761C4F810A06761EDB2C9F80C5066
:102A6800C4F81480C4F810802761BBF80C00FFF785
:102A7800B9FAC4F810A06761330AC9F80C30C4F871
:102A88001480C4F810802761C4F810A06761F6B2FA
:102A9800C9F80C60C4F81480C4F810802761E5E612
:102AA800034B1B881B1A9BB2013B9DB2B8E700BFC2
:102AB8009C07002000100140000C0140034B1B88BC
:102AC8001B1A9BB2013B9DB287E600BF9C07002002
:102AD8002DE9F8438146BE20FFF784FA224C4FF4D3
:102AE8008078C4F810804FF4007565611F4F052386
:102AF800FB608026666126612561C4F810806561E7
:102B08004846FDF7DFFC16A3D3E90023FEF7A2F839
:102B1800FDF7CAFDF860666126612561C4F810807A
:102B280065610123FB60666126612561C4F8108038
:102B38006561FF23FB60666126612561C4F810802A
:102B480065610023FB60666126612561C4F8108019
:102B58006561FB60666126612561BDE8F88300BF99
:102B6800666666666666044000100140000C014017
:102B780008B500285AD1604B00229A71F0221A80B9
:102B88004FF4A0725A809B8849F24132934217D081
:102B980046F60402934213D045F2103293420FD006
:102BA80045F21052934222D041F6631293422FD03D
:102BB800514B22221A8120225A8121229A8170E0C7
:102BC8004D4A2C2111812A2151812B21918146F6D0
:102BD8000402934203D045F21032934261D1464B2E
:102BE8004FF4A0721A804FF4F0725A8059E0424BA9
:102BF8004FF430521A814FF428525A814FF42C5214
:102C08009A814FF4F0721A804FF448725A8048E063
:102C1800394B2C221A812B225A812A229A814FF46D
:102C2800F0721A804FF448725A803AE0324B01220F
:102C38009A714FF4A0721A80F0225A809B8849F248
:102C48004132934217D045F21032934213D046F6E0
:102C58000402934229D045F2105293422DD041F6F6
:102C6800631293423AD0244A2221118121215181B1
:102C78002021918106E0204A2C2111812A215181AD
:102C88002B21918146F60402934203D045F210327B
:102C9800934206D1184B4FF4F0721A804FF4A07289
:102CA8005A800020FFF7B8FB08BD134A2C21118178
:102CB8002B2151812A219181E4E70F4A4FF43051A9
:102CC80011814FF4285151814FF42C5191814FF4C7
:102CD800487111804FF4F0715180D3E7064A2C21D6
:102CE80011812A2151812B2191814FF44871118042
:102CF8004FF4F0715180C5E79C0700202DE9F041A1
:102D080006461D4B1A885D8802FB05F59A8846F62B
:102D180004039A4203D1184B9B79012B07D0002159
:102D28000846FFF7DBF9FFF7D1F900221FE0124C44
:102D38000020A0712A2767814FF02B08A4F80C8087
:102D48000146FFF7CBF90123A371A4F80A80A781F4
:102D5800E9E70A4B4FF4807119614FF4007159612A
:102D6800074CE66080245C611C6119610132AA424B
:102D7800EFD3BDE8F08100BF9C07002000100140A0
:102D8800000C01402DE9F04F87B0304B9A6942F0B2
:102D980008029A619A6902F008020092009A9A69F8
:102DA80042F010029A619B6903F010030193019BA2
:102DB8004FF4F863029301240394049403230593C6
:102DC80002A9234806F066FB4FF6FF73029302A997
:102DD800204806F05FFB322006F0CCFA214600209E
:102DE800FFF758F9322006F0C5FA0020FFF768F916
:102DF800194B9880A0F1FF039BB2B3F57F4F80F089
:102E0800AA87B0F5134F00F0A687134B9B8849F2A9
:102E18004132934201F02A8046F60402934202F0BE
:102E2800768402F2A38244F23552934203F01A8266
:102E380041F2428145F20842934203F06D8045F227
:102E48001052934241F0148308E000BF0010024082
:102E580000100140000C01409C07002055214FF450
:102E68007040FFF717F9AA214FF20100FFF712F996
:102E780052214FF20200FFF70DF908214FF203002B
:102E8800FFF708F901214FF20400FFF703F90D21BC
:102E98004FF43040FFF7FEF80D214BF20100FFF729
:102EA800F9F80D214BF20200FFF7F4F834214FF442
:102EB8003640FFF7EFF834214BF20160FFF7EAF8EC
:102EC80034214BF20260FFF7E5F80D214FF4314051
:102ED800FFF7E0F80D214BF20110FFF7DBF80D21A9
:102EE8004BF20210FFF7D6F834214FF43740FFF7C2
:102EF800D1F834214BF20170FFF7CCF834214BF2B2
:102F08000270FFF7C7F800214FF43240FFF7C2F80C
:102F180000214BF20120FFF7BDF800214BF20220FF
:102F2800FFF7B8F824214FF43840FFF7B3F824210D
:102F38004BF60100FFF7AEF824214BF60200FFF72D
:102F4800A9F801214FF43F40FFF7A4F80F214FF4EF
:102F58003340FFF79FF80F214BF20130FFF79AF843
:102F68000F214BF20230FFF795F834214FF4394026
:102F7800FFF790F834214BF60110FFF78BF8342156
:102F88004BF60210FFF786F808214FF43540FFF79B
:102F980081F808214BF20150FFF77CF808214BF229
:102FA8000250FFF777F803214FF44240FFF772F819
:102FB80024214FF43A40FFF76DF824214BF6012005
:102FC800FFF768F824214BF60220FFF763F8002189
:102FD8004FF43C40FFF75EF878214BF60140FFF7CD
:102FE80059F800214BF60240FFF754F800214FF43E
:102FF8003D40FFF74FF878214BF60150FFF74AF8AC
:1030080000214BF60250FFF745F800214FF43E40EF
:10301800FFF740F864214BF60160FFF73BF8002109
:103028004FF45140FFF736F833214DF20110FFF706
:1030380031F800214DF20210FFF72CF834214DF23F
:103048000310FFF727F800214DF20410FFF722F8CC
:103058003A214DF20510FFF71DF800214DF2061038
:10306800FFF718F84A214DF20710FFF713F800216F
:103078004DF20810FFF70EF85C214DF20910FFF72A
:1030880009F800214DF20A10FFF704F881214DF2EA
:103098000B10FEF7FFFF00214DF20C10FEF7FAFFB0
:1030A800A6214DF20D10FEF7F5FF00214DF20E108E
:1030B800FEF7F0FFE5214DF20F10FEF7EBFF0121BF
:1030C8004DF21010FEF7E6FF13214DF21110FEF736
:1030D800E1FF01214DF21210FEF7DCFF54214DF201
:1030E8001310FEF7D7FF01214DF21410FEF7D2FF9F
:1030F80082214DF21510FEF7CDFF01214DF2161079
:10310800FEF7C8FFCA214DF21710FEF7C3FF0221D0
:103118004DF21810FEF7BEFF00214DF21910FEF710
:10312800B9FF02214DF21A10FEF7B4FF01214DF24A
:103138001B10FEF7AFFF02214DF21C10FEF7AAFF8D
:1031480034214DF21D10FEF7A5FF02214DF21E108D
:10315800FEF7A0FF67214DF21F10FEF79BFF02212B
:103168004DF22010FEF796FF84214DF22110FEF754
:1031780091FF02214DF22210FEF78CFFA4214DF29F
:103188002310FEF787FF02214DF22410FEF782FF7D
:10319800B7214DF22510FEF77DFF02214DF22610D2
:1031A800FEF778FFCF214DF22710FEF773FF0221BB
:1031B8004DF22810FEF76EFFDE214DF22910FEF7C2
:1031C80069FF02214DF22A10FEF764FFF2214DF249
:1031D8002B10FEF75FFF02214DF22C10FEF75AFF6D
:1031E800FE214DF22D10FEF755FF03214DF22E1052
:1031F800FEF750FF10214DF22F10FEF74BFF032171
:103208004DF23010FEF746FF33214DF23110FEF734
:1032180041FF03214DF23210FEF73CFF6D214DF2C4
:103228003310FEF737FF00214FF45240FEF732FF0C
:1032380033214DF20120FEF72DFF00214DF202202F
:10324800FEF728FF34214DF20320FEF723FF00216B
:103258004DF20420FEF71EFF3A214DF20520FEF73D
:1032680019FF00214DF20620FEF714FF4A214DF206
:103278000720FEF70FFF00214DF20820FEF70AFF96
:103288005C214DF20920FEF705FF00214DF20A20CE
:10329800FEF700FF81214DF20B20FEF7FBFE002117
:1032A8004DF20C20FEF7F6FEA6214DF20D20FEF79A
:1032B800F1FE00214DF20E20FEF7ECFEE5214DF265
:1032C8000F20FEF7E7FE01214DF21020FEF7E2FE87
:1032D80013214DF21120FEF7DDFE01214DF21220DF
:1032E800FEF7D8FE54214DF21320FEF7D3FE01213C
:1032F8004DF21420FEF7CEFE82214DF21520FEF786
:10330800C9FE01214DF21620FEF7C4FECA214DF276
:103318001720FEF7BFFE02214DF21820FEF7BAFE75
:1033280000214DF21920FEF7B5FE02214DF21A20B8
:10333800FEF7B0FE01214DF21B20FEF7ABFE022185
:103348004DF21C20FEF7A6FE34214DF21D20FEF79B
:10335800A1FE02214DF21E20FEF79CFE67214DF2D0
:103368001F20FEF797FE02214DF22020FEF792FE65
:1033780084214DF22120FEF78DFE02214DF22220FC
:10338800FEF788FEA4214DF22320FEF783FE0221DA
:103398004DF22420FEF77EFEB7214DF22520FEF7E0
:1033A80079FE02214DF22620FEF774FECF214DF260
:1033B8002720FEF76FFE02214DF22820FEF76AFE55
:1033C800DE214DF22920FEF765FE02214DF22A206A
:1033D800FEF760FEF2214DF22B20FEF75BFE022184
:1033E8004DF22C20FEF756FEFE214DF22D20FEF761
:1033F80051FE03214DF22E20FEF74CFE10214DF216
:103408002F20FEF747FE03214DF23020FEF742FE43
:1034180033214DF23120FEF73DFE03214DF23220DB
:10342800FEF738FE6D214DF23320FEF733FE002102
:103438004FF45340FEF72EFE33214DF20130FEF7D4
:1034480029FE00214DF20230FEF724FE34214DF210
:103458000330FEF71FFE00214DF20430FEF71AFE7E
:103468003A214DF20530FEF715FE00214DF20630E7
:10347800FEF710FE4A214DF20730FEF70BFE002141
:103488004DF20830FEF706FE5C214DF20930FEF7DA
:1034980001FE00214DF20A30FEF7FCFD81214DF2BC
:1034A8000B30FEF7F7FD00214DF20C30FEF7F2FD70
:1034B800A6214DF20D30FEF7EDFD00214DF20E3044
:1034C800FEF7E8FDE5214DF20F30FEF7E3FD01219F
:1034D8004DF21030FEF7DEFD13214DF21130FEF7EC
:1034E800D9FD01214DF21230FEF7D4FD54214DF2E1
:1034F8001330FEF7CFFD01214DF21430FEF7CAFD5F
:1035080082214DF21530FEF7C5FD01214DF216302E
:10351800FEF7C0FDCA214DF21730FEF7BBFD0221B0
:103528004DF21830FEF7B6FD00214DF21930FEF7C6
:10353800B1FD02214DF21A30FEF7ACFD01214DF22A
:103548001B30FEF7A7FD02214DF21C30FEF7A2FD4D
:1035580034214DF21D30FEF79DFD02214DF21E3043
:10356800FEF798FD67214DF21F30FEF793FD02210B
:103578004DF22030FEF78EFD84214DF22130FEF70A
:1035880089FD02214DF22230FEF784FDA4214DF27F
:103598002330FEF77FFD02214DF22430FEF77AFD3D
:1035A800B7214DF22530FEF775FD02214DF2263088
:1035B800FEF770FDCF214DF22730FEF76BFD02219B
:1035C8004DF22830FEF766FDDE214DF22930FEF778
:1035D80061FD02214DF22A30FEF75CFDF2214DF229
:1035E8002B30FEF757FD02214DF22C30FEF752FD2D
:1035F800FE214DF22D30FEF74DFD03214DF22E3008
:10360800FEF748FD10214DF22F30FEF743FD032150
:103618004DF23030FEF73EFD33214DF23130FEF7EA
:1036280039FD03214DF23230FEF734FD6D214DF2A4
:103638003330FEF72FFD00214FF45440FEF72AFDEA
:1036480033214DF20140FEF725FD00214DF20240E5
:10365800FEF720FD34214DF20340FEF71BFD00214B
:103668004DF20440FEF716FD3A214DF20540FEF7F3
:1036780011FD00214DF20640FEF70CFD4A214DF2E6
:103688000740FEF707FD00214DF20840FEF702FD56
:103698005C214DF20940FEF7FDFC00214DF20A4085
:1036A800FEF7F8FC81214DF20B40FEF7F3FC0021F8
:1036B8004DF20C40FEF7EEFCA6214DF20D40FEF750
:1036C800E9FC00214DF20E40FEF7E4FCE5214DF245
:1036D8000F40FEF7DFFC01214DF21040FEF7DAFC47
:1036E80013214DF21140FEF7D5FC01214DF2124095
:1036F800FEF7D0FC54214DF21340FEF7CBFC01211C
:103708004DF21440FEF7C6FC82214DF21540FEF73B
:10371800C1FC01214DF21640FEF7BCFCCA214DF256
:103728001740FEF7B7FC02214DF21840FEF7B2FC35
:1037380000214DF21940FEF7ADFC02214DF21A406E
:10374800FEF7A8FC01214DF21B40FEF7A3FC022165
:103758004DF21C40FEF79EFC34214DF21D40FEF751
:1037680099FC02214DF21E40FEF794FC67214DF2B0
:103778001F40FEF78FFC02214DF22040FEF78AFC25
:1037880084214DF22140FEF785FC02214DF22240B2
:10379800FEF780FCA4214DF22340FEF77BFC0221BA
:1037A8004DF22440FEF776FCB7214DF22540FEF796
:1037B80071FC02214DF22640FEF76CFCCF214DF240
:1037C8002740FEF767FC02214DF22840FEF762FC15
:1037D800DE214DF22940FEF75DFC02214DF22A4020
:1037E800FEF758FCF2214DF22B40FEF753FC022164
:1037F8004DF22C40FEF74EFCFE214DF22D40FEF717
:1038080049FC03214DF22E40FEF744FC10214DF2F5
:103818002F40FEF73FFC03214DF23040FEF73AFC03
:1038280033214DF23140FEF735FC03214DF2324091
:10383800FEF730FC6D214DF23340FEF72BFC0021E2
:103848004FF45540FEF726FC33214DF20150FEF7A8
:1038580021FC00214DF20250FEF71CFC34214DF2F0
:103868000350FEF717FC00214DF20450FEF712FC3E
:103878003A214DF20550FEF70DFC00214DF206509D
:10388800FEF708FC4A214DF20750FEF703FC002121
:103898004DF20850FEF7FEFB5C214DF20950FEF791
:1038A800F9FB00214DF20A50FEF7F4FB81214DF29D
:1038B8000B50FEF7EFFB00214DF20C50FEF7EAFB30
:1038C800A6214DF20D50FEF7E5FB00214DF20E50FA
:1038D800FEF7E0FBE5214DF20F50FEF7DBFB01217F
:1038E8004DF21050FEF7D6FB13214DF21150FEF7A2
:1038F800D1FB01214DF21250FEF7CCFB54214DF2C1
:103908001350FEF7C7FB01214DF21450FEF7C2FB1E
:1039180082214DF21550FEF7BDFB01214DF21650E4
:10392800FEF7B8FBCA214DF21750FEF7B3FB022190
:103938004DF21850FEF7AEFB00214DF21950FEF77C
:10394800A9FB02214DF21A50FEF7A4FB01214DF20A
:103958001B50FEF79FFB02214DF21C50FEF79AFB0D
:1039680034214DF21D50FEF795FB02214DF21E50F9
:10397800FEF790FB67214DF21F50FEF78BFB0221EB
:103988004DF22050FEF786FB84214DF22150FEF7C0
:1039980081FB02214DF22250FEF77CFBA4214DF25F
:1039A8002350FEF777FB02214DF22450FEF772FBFD
:1039B800B7214DF22550FEF76DFB02214DF226503E
:1039C800FEF768FBCF214DF22750FEF763FB02217B
:1039D8004DF22850FEF75EFBDE214DF22950FEF72E
:1039E80059FB02214DF22A50FEF754FBF2214DF209
:1039F8002B50FEF74FFB02214DF22C50FEF74AFBED
:103A0800FE214DF22D50FEF745FB03214DF22E50BD
:103A1800FEF740FB10214DF22F50FEF73BFB032130
:103A28004DF23050FEF736FB33214DF23150FEF7A0
:103A380031FB03214DF23250FEF72CFB6D214DF284
:103A48003350FEF727FB00214FF45640FEF722FBC8
:103A580033214DF20160FEF71DFB00214DF202609B
:103A6800FEF718FB34214DF20360FEF713FB00212B
:103A78004DF20460FEF70EFB3A214DF20560FEF7A9
:103A880009FB00214DF20660FEF704FB4A214DF2C6
:103A98000760FEF7FFFA00214DF20860FEF7FAFA18
:103AA8005C214DF20960FEF7F5FA00214DF20A603B
:103AB800FEF7F0FA81214DF20B60FEF7EBFA0021D8
:103AC8004DF20C60FEF7E6FAA6214DF20D60FEF706
:103AD800E1FA00214DF20E60FEF7DCFAE5214DF225
:103AE8000F60FEF7D7FA01214DF21060FEF7D2FA07
:103AF80013214DF21160FEF7CDFA01214DF212604B
:103B0800FEF7C8FA54214DF21360FEF7C3FA0121FB
:103B18004DF21460FEF7BEFA82214DF21560FEF7F1
:103B2800B9FA01214DF21660FEF7B4FACA214DF236
:103B38001760FEF7AFFA02214DF21860FEF7AAFAF5
:103B480000214DF21960FEF7A5FA02214DF21A6024
:103B5800FEF7A0FA01214DF21B60FEF79BFA022145
:103B68004DF21C60FEF796FA34214DF21D60FEF707
:103B780091FA02214DF21E60FEF78CFA67214DF290
:103B88001F60FEF787FA02214DF22060FEF782FAE5
:103B980084214DF22160FEF77DFA02214DF2226068
:103BA800FEF778FAA4214DF22360FEF773FA02219A
:103BB8004DF22460FEF76EFAB7214DF22560FEF74C
:103BC80069FA02214DF22660FEF764FACF214DF220
:103BD8002760FEF75FFA02214DF22860FEF75AFAD5
:103BE800DE214DF22960FEF755FA02214DF22A60D6
:103BF800FEF750FAF2214DF22B60FEF74BFA022144
:103C08004DF22C60FEF746FAFE214DF22D60FEF7CC
:103C180041FA03214DF22E60FEF73CFA10214DF2D5
:103C28002F60FEF737FA03214DF23060FEF732FAC3
:103C380033214DF23160FEF72DFA03214DF2326047
:103C4800FEF728FA6D214DF23360FEF723FA55216D
:103C58004FF47040FEF71EFAAA214FF20100FEF75A
:103C680019FA52214FF20200FEF714FA08214FF216
:103C78000300FEF70FFA00214FF20400FEF70AFADC
:103C8800CC214FF43140FEF705FA00214BF2011028
:103C9800FEF700FA05214FF43640FEF7FBF97021D4
:103CA8004FF43740FEF7F6F970214BF20170FEF73A
:103CB800F1F901214FF43840FEF7ECF903214BF6F6
:103CC8000100FEF7E7F903214BF60200FEF7E2F9DF
:103CD80003214BF60300FEF7DDF902214FF43C40C7
:103CE800FEF7D8F900214BF60140FEF7D3F9002181
:103CF8004BF60240FEF7CEF9D0214FF44940FEF7CB
:103D0800C9F902214CF60110FEF7C4F950214CF60E
:103D18000210FEF7BFF950214CF60310FEF7BAF96E
:103D280050214CF60410FEF7B5F900214FF4545019
:103D3800FEF7B0F955214FF46850FEF7ABF94FF490
:103D48008850FEF74FF9012005F014FB4FF424507A
:103D5800FEF748F99EE1D320FEF744F9FEF766F92D
:103D6800FEF764F9FEF762F9D14CA0800002A0804A
:103D7800FEF75CF9A388184380B2A08049F241336A
:103D880098423FF442A8BF20FEF72CF9FEF74EF9FF
:103D9800FEF74CF9FEF74AF9FEF748F9A080000251
:103DA800A080FEF743F9A388184380B2A08046F6A6
:103DB800040398423FF429A8D420FEF713F9FEF72C
:103DC80035F9FEF733F9FEF731F9A0800002A0803B
:103DD800FEF72CF9A388184380B2A08045F210336F
:103DE80098423FF412A84FF45A40FEF7FBF8FEF74A
:103DF8001DF94FF45B40FEF7F5F8FEF717F9A080C0
:103E08000002A0804FF45C40FEF7ECF8FEF70EF9D4
:103E1800A388184380B2A080B0F5004F22D0A44BED
:103E28009A8845F210539A423EF4EFAFA120FEF76C
:103E3800D9F8FEF7FBF89E4CA080FEF7F7F8A080B3
:103E48000002A080FEF7F2F8A38803439BB2A38088
:103E580045F2617293427EF4D8AF41F66312A280B4
:103E6800FEF7D3BF45F21052A280D8E7CF20FEF765
:103E7800B9F80020FEF7C8F8C120FEF7C5F83020D1
:103E8800FEF7C2F8ED20FEF7ADF86420FEF7BCF8A7
:103E98000320FEF7B9F81220FEF7B6F88120FEF7E6
:103EA800B3F8E820FEF79EF88520FEF7ADF810205D
:103EB800FEF7AAF87A20FEF7A7F8CB20FEF792F8CB
:103EC8003920FEF7A1F82C20FEF79EF80020FEF717
:103ED8009BF83420FEF798F80220FEF795F8F720B3
:103EE800FEF780F82020FEF78FF8EA20FEF77AF830
:103EF8000020FEF789F80020FEF786F8C020FEF7BC
:103F080071F81B20FEF780F8C120FEF76BF801203E
:103F1800FEF77AF8C520FEF765F83020FEF774F84A
:103F28003020FEF771F8C720FEF75CF8B720FEF7DF
:103F38006BF83620FEF756F84820FEF765F83A2069
:103F4800FEF750F85520FEF75FF8B120FEF74AF863
:103F58000020FEF759F81A20FEF756F8B620FEF7AB
:103F680041F80A20FEF750F8A220FEF74DF8F2209B
:103F7800FEF738F80020FEF747F82620FEF732F85B
:103F88000120FEF741F8E020FEF72CF80F20FEF79D
:103F98003BF82A20FEF738F82820FEF735F80820E5
:103FA800FEF732F80E20FEF72FF80820FEF72CF85F
:103FB8005420FEF729F8A920FEF726F84320FEF73B
:103FC80023F80A20FEF720F80F20FEF71DF800203E
:103FD800FEF71AF80020FEF717F80020FEF714F88D
:103FE8000020FEF711F8E120FDF7FCFF0020FEF7A6
:103FF8000BF81520FEF708F81720FEF705F807203C
:10400800FEF702F81120FDF7FFFF0620FDF7FCFF81
:104018002B20FDF7F9FF5620FDF7F6FF3C20FDF7B2
:10402800F3FF0520FDF7F0FF1020FDF7EDFF0F204F
:10403800FDF7EAFF3F20FDF7E7FF3F20FDF7E4FF2C
:104048000F20FDF7E1FF2B20FDF7CCFF0020FDF747
:10405800DBFF0020FDF7D8FF0120FDF7D5FF3F204B
:10406800FDF7D2FF2A20FDF7BDFF0020FDF7CCFFAA
:104078000020FDF7C9FF0020FDF7C6FFEF20FDF780
:10408800C3FF1120FDF7AEFF782005F073F9292052
:10409800FDF7A8FF0020FEF76BFD064B0122C3F8D1
:1040A800A8214FF6FF70FEF729FE07B0BDE8F08F94
:1040B8009C0700200000224241F66312934202F05E
:1040C800828144F23152934240F0BA8001210020AB
:1040D800FDF7E0FF0A2005F04DF941F228611020B4
:1040E800FDF7D8FF0E211220FDF7D4FF40F6392145
:1040F8001320FDF7CFFF0A2005F03CF940211120DD
:10410800FDF7C8FF50211520FDF7C4FF0A2005F070
:1041180031F91E211220FDF7BDFF0A2005F02AF90A
:104128004FF4B1511020FDF7B5FF42F639211320A5
:10413800FDF7B0FF0A2005F01DF94FF4807101204A
:10414800FDF7A8FF4FF440710220FDF7A3FF41F2ED
:1041580038010320FDF79EFF40F202210820FDF7F9
:1041680099FF08210A20FDF795FF00213020FDF76F
:1041780091FF40F202413120FDF78CFF4FF483712B
:104188003220FDF787FF40F203513320FDF782FF0D
:104198004FF482713420FDF77DFF40F20131352064
:1041A800FDF778FF40F207713620FDF773FF40F204
:1041B80005313720FDF76EFF4FF402713820FDF707
:1041C80069FF40F60B713920FDF764FF0221412099
:1041D800FDF760FF4FF41C516020FDF75BFF0121E4
:1041E8006120FDF757FF4FF404719020FDF752FF4F
:1041F8004FF485719220FDF74DFF04219320FDF7C0
:1042080049FF4FF48071A020FDF744FF01210720EA
:10421800FDF740FF21210720FDF73CFF2321072060
:10422800FDF738FF33210720FDF734FF40F2331143
:104238000720FDF72FFF0021A020FDF72BFF29E71E
:1042480041F2055293427FF425AF00210720FDF784
:1042580021FF322005F08EF84FF48E711220FDF701
:1042680019FF0121A420FDF715FF0F210820FDF7F4
:1042780011FF08210A20FDF70DFF08210D20FDF789
:1042880009FF40F207713020FDF704FF07213120B4
:10429800FDF700FF40F203613220FDF7FBFE4FF40B
:1042A800E0613320FDF7F6FE40F202213420FDF7ED
:1042B800F1FE02213520FDF7EDFE41F60F713620A3
:1042C800FDF7E8FE40F207713720FDF7E3FE002115
:1042D8003820FDF7DFFE00213920FDF7DBFE40F234
:1042E80007713A20FDF7D6FE00213B20FDF7D2FEEC
:1042F80007213C20FDF7CEFE00213D20FDF7CAFE38
:10430800322005F037F801210720FDF7C3FE01210F
:104318001720FDF7BFFE322005F02CF84FF4BD51F1
:104328001020FDF7B7FE40F217211120FDF7B2FE6D
:104338004FF48F711220FDF7ADFE4FF4706113201A
:10434800FDF7A8FE00212A20FDF7A4FE0A21292056
:10435800FDF7A0FE4FF49F711220FDF79BFE002190
:104368005020FDF797FEEF215120FDF793FE002125
:104378005220FDF78FFE40F23F115320FDF78AFED1
:104388004FF41C516020FDF785FE01216120FDF7E7
:1043980081FE00216A20FDF77DFE00218020FDF7C7
:1043A80079FE00218120FDF775FE00218220FDF7AE
:1043B80071FE00218320FDF76DFE00218420FDF7AA
:1043C80069FE00218520FDF765FE13219020FDF789
:1043D80061FE4FF440719220FDF75CFE05219320A9
:1043E800FDF758FE00219520FDF754FE0021972087
:1043F800FDF750FE00219820FDF74CFE4FF4807128
:104408000120FDF747FE4FF4E0610220FDF742FE70
:1044180041F238010320FDF73DFE00210420FDF79D
:1044280039FE00210C20FDF735FE00210F20FDF795
:1044380031FE00212020FDF72DFE00212120FDF76F
:1044480029FE21210720FDF725FE142004F092FF04
:1044580061210720FDF71EFE142004F08BFF40F2B7
:1044680073110720FDF716FE142004F083FF11E6F0
:1044780045F2103293427FF40DAEED20FDF7B2FD08
:104488000120FDF7C1FDFE20FDF7BEFDEE20FDF782
:10449800A9FDDE20FDF7B8FD2120FDF7B5FDF120CF
:1044A800FDF7A0FD0120FDF7AFFDDF20FDF79AFD28
:1044B8001020FDF7A9FDC420FDF794FD8F20FDF71E
:1044C800A3FDC620FDF78EFD0020FDF79DFDE2202F
:1044D800FDF79AFDE220FDF797FDE220FDF794FD38
:1044E800BF20FDF77FFDAA20FDF78EFDB020FDF768
:1044F80079FD0D20FDF788FD0020FDF785FD0D20D5
:10450800FDF782FD0020FDF77FFD1120FDF77CFD02
:104518000020FDF779FD1920FDF776FD0020FDF755
:1045280073FD2120FDF770FD0020FDF76DFD2D20A6
:10453800FDF76AFD0020FDF767FD3D20FDF764FDEE
:104548000020FDF761FD5D20FDF75EFD0020FDF711
:104558005BFD5D20FDF758FD0020FDF755FDB120FE
:10456800FDF740FD8020FDF74FFD0020FDF74CFDD5
:104578008B20FDF749FD0020FDF746FD9620FDF74D
:1045880043FD0020FDF740FDB220FDF72BFD002084
:10459800FDF73AFD0020FDF737FD0220FDF734FD59
:1045A8000020FDF731FD0320FDF72EFD0020FDF76B
:1045B8002BFDB320FDF716FD0020FDF725FD00209B
:1045C800FDF722FD0020FDF71FFD0020FDF71CFD73
:1045D8000020FDF719FD0020FDF716FD0020FDF76E
:1045E80013FD0020FDF710FD0020FDF70DFD002054
:1045F800FDF70AFD0020FDF707FD0020FDF704FD8B
:104608000020FDF701FD0020FDF7FEFC0020FDF76E
:10461800FBFC0020FDF7F8FC0020FDF7F5FC00206E
:10462800FDF7F2FC0020FDF7EFFC0020FDF7ECFCA5
:104638000020FDF7E9FC0020FDF7E6FC0020FDF76F
:10464800E3FC0020FDF7E0FCB420FDF7CBFC8B2059
:10465800FDF7DAFC0020FDF7D7FC9620FDF7D4FC27
:104668000020FDF7D1FCA120FDF7CEFC0020FDF7CE
:10467800CBFCB520FDF7B6FC0220FDF7C5FC0020F9
:10468800FDF7C2FC0320FDF7BFFC0020FDF7BCFCD2
:104698000420FDF7B9FC0020FDF7B6FCB620FDF7B5
:1046A800A1FC0020FDF7B0FC0020FDF7ADFCB72011
:1046B800FDF798FC0020FDF7A7FC0020FDF7A4FCFF
:1046C8003F20FDF7A1FC0020FDF79EFC5E20FDF7D2
:1046D8009BFC0020FDF798FC6420FDF795FC00206A
:1046E800FDF792FC8C20FDF78FFC0020FDF78CFC79
:1046F800AC20FDF789FC0020FDF786FCDC20FDF7E7
:1047080083FC0020FDF780FC7020FDF77DFC002075
:10471800FDF77AFC9020FDF777FC0020FDF774FC8C
:10472800EB20FDF771FC0020FDF76EFCDC20FDF7A7
:104738006BFC0020FDF768FCB820FDF753FC002057
:10474800FDF762FC0020FDF75FFC0020FDF75CFC34
:104758000020FDF759FC0020FDF756FC0020FDF76E
:1047680053FC0020FDF750FC0020FDF74DFCBA205B
:10477800FDF738FC2420FDF747FC0020FDF744FC3A
:104788000020FDF741FC0020FDF73EFCC120FDF7AD
:1047980029FC2020FDF738FC0020FDF735FC5420CB
:1047A800FDF732FC0020FDF72FFCFF20FDF72CFC65
:1047B8000020FDF729FCC220FDF714FC0A20FDF7B4
:1047C80023FC0020FDF720FC0420FDF71DFC002041
:1047D800FDF71AFCC320FDF705FC3C20FDF714FC8F
:1047E8000020FDF711FC3A20FDF70EFC0020FDF734
:1047F8000BFC3920FDF708FC0020FDF705FC3720ED
:10480800FDF702FC0020FDF7FFFB3C20FDF7FCFB59
:104818000020FDF7F9FB3620FDF7F6FB0020FDF739
:10482800F3FB3220FDF7F0FB0020FDF7EDFB2F2016
:10483800FDF7EAFB0020FDF7E7FB2C20FDF7E4FB82
:104848000020FDF7E1FB2920FDF7DEFB0020FDF746
:10485800DBFB2620FDF7D8FB0020FDF7D5FB242045
:10486800FDF7D2FB0020FDF7CFFB2420FDF7CCFBA2
:104878000020FDF7C9FB2320FDF7C6FB0020FDF74C
:10488800C3FB3C20FDF7C0FB0020FDF7BDFB362035
:10489800FDF7BAFB0020FDF7B7FB3220FDF7B4FBAC
:1048A8000020FDF7B1FB2F20FDF7AEFB0020FDF740
:1048B800ABFB2C20FDF7A8FB0020FDF7A5FB29206A
:1048C800FDF7A2FB0020FDF79FFB2620FDF79CFBD0
:1048D8000020FDF799FB2420FDF796FB0020FDF74B
:1048E80093FB2420FDF790FB0020FDF78DFB232090
:1048F800FDF78AFB0020FDF787FBC420FDF772FB5C
:104908006220FDF781FB0020FDF77EFB0520FDF707
:104918007BFB0020FDF778FB8420FDF775FB00206A
:10492800FDF772FBF020FDF76FFB0020FDF76CFB35
:104938001820FDF769FB0020FDF766FBA420FDF7B2
:1049480063FB0020FDF760FB1820FDF75DFB0020EE
:10495800FDF75AFB5020FDF757FB0020FDF754FBED
:104968000C20FDF751FB0020FDF74EFB1720FDF74B
:104978004BFB0020FDF748FB9520FDF745FB002089
:10498800FDF742FBF320FDF73FFB0020FDF73CFB62
:10499800E620FDF739FB0020FDF736FBC520FDF7C3
:1049A80021FB3220FDF730FB0020FDF72DFB4420D2
:1049B800FDF72AFB0020FDF727FB6520FDF724FB08
:1049C8000020FDF721FB7620FDF71EFB0020FDF7F8
:1049D8001BFB8820FDF718FB0020FDF715FBC62000
:1049E800FDF700FB2020FDF70FFB0020FDF70CFB77
:1049F8001720FDF709FB0020FDF706FB0120FDF756
:104A080003FB0020FDF700FBC720FDF7EBFA0020B1
:104A1800FDF7FAFA0020FDF7F7FA0020FDF7F4FA9F
:104A28000020FDF7F1FAC820FDF7DCFA0020FDF7B9
:104A3800EBFA0020FDF7E8FA0020FDF7E5FA002080
:104A4800FDF7E2FAC920FDF7CDFA0020FDF7DCFA00
:104A58000020FDF7D9FA0020FDF7D6FA0020FDF76F
:104A6800D3FA0020FDF7D0FA0020FDF7CDFA002098
:104A7800FDF7CAFA0020FDF7C7FA0020FDF7C4FACF
:104A88000020FDF7C1FA0020FDF7BEFA0020FDF76F
:104A9800BBFA0020FDF7B8FA0020FDF7B5FA0020B0
:104AA800FDF7B2FA0020FDF7AFFAE020FDF79AFA19
:104AB8001620FDF7A9FA0020FDF7A6FA1C20FDF73D
:104AC800A3FA0020FDF7A0FA2120FDF79DFA0020A7
:104AD800FDF79AFA3620FDF797FA0020FDF794FAC9
:104AE8004620FDF791FA0020FDF78EFA5220FDF7D7
:104AF8008BFA0020FDF788FA6420FDF785FA00207C
:104B0800FDF782FA7A20FDF77FFA0020FDF77CFA9C
:104B18008B20FDF779FA0020FDF776FA9920FDF74A
:104B280073FA0020FDF770FAA820FDF76DFA00204F
:104B3800FDF76AFAB920FDF767FA0020FDF764FA75
:104B4800C420FDF761FA0020FDF75EFACA20FDF7E0
:104B58005BFA0020FDF758FAD220FDF755FA00203D
:104B6800FDF752FAD920FDF74FFA0020FDF74CFA6D
:104B7800E020FDF749FA0020FDF746FAF320FDF79B
:104B880043FA0020FDF740FAE120FDF72BFA162042
:104B9800FDF73AFA0020FDF737FA1C20FDF734FA42
:104BA8000020FDF731FA2220FDF72EFA0020FDF74C
:104BB8002BFA3620FDF728FA0020FDF725FA4520C4
:104BC800FDF722FA0020FDF71FFA5220FDF71CFA24
:104BD8000020FDF719FA6420FDF716FA0020FDF70A
:104BE80013FA7A20FDF710FA0020FDF70DFA8B2052
:104BF800FDF70AFA0020FDF707FA9920FDF704FAF5
:104C08000020FDF701FAA820FDF7FEF90020FDF7C6
:104C1800FBF9B920FDF7F8F90020FDF7F5F9C420F4
:104C2800FDF7F2F90020FDF7EFF9CA20FDF7ECF9DE
:104C38000020FDF7E9F9D220FDF7E6F90020FDF79D
:104C4800E3F9D820FDF7E0F90020FDF7DDF9E020D1
:104C5800FDF7DAF90020FDF7D7F9F320FDF7D4F9CD
:104C68000020FDF7D1F9E220FDF7BCF90520FDF79A
:104C7800CBF90020FDF7C8F90B20FDF7C5F9002096
:104C8800FDF7C2F91B20FDF7BFF90020FDF7BCF9BD
:104C98003420FDF7B9F90020FDF7B6F94420FDF7F7
:104CA800B3F90020FDF7B0F94F20FDF7ADF900206A
:104CB800FDF7AAF96120FDF7A7F90020FDF7A4F98F
:104CC8007920FDF7A1F90020FDF79EF98820FDF76E
:104CD8009BF90020FDF798F99720FDF795F900203A
:104CE800FDF792F9A620FDF78FF90020FDF78CF962
:104CF800B720FDF789F90020FDF786F9C220FDF7F6
:104D080083F90020FDF780F9C720FDF77DF9002021
:104D1800FDF77AF9D120FDF777F90020FDF774F94E
:104D2800D620FDF771F90020FDF76EF9DD20FDF7BB
:104D38006BF90020FDF768F9F320FDF765F900200D
:104D4800FDF762F9E320FDF74DF90520FDF75CF961
:104D58000020FDF759F90A20FDF756F90020FDF764
:104D680053F91C20FDF750F90020FDF74DF93320C9
:104D7800FDF74AF90020FDF747F94420FDF744F90B
:104D88000020FDF741F95020FDF73EF90020FDF71E
:104D98003BF96220FDF738F90020FDF735F9782056
:104DA800FDF732F90020FDF72FF98820FDF72CF9DF
:104DB8000020FDF729F99720FDF726F90020FDF7D7
:104DC80023F9A620FDF720F90020FDF71DF9B720EB
:104DD800FDF71AF90020FDF717F9C220FDF714F9BD
:104DE8000020FDF711F9C720FDF70EF90020FDF7A7
:104DF8000BF9D120FDF708F90020FDF705F9D520BA
:104E0800FDF702F90020FDF7FFF8DD20FDF7FCF8BB
:104E18000020FDF7F9F8F320FDF7F6F80020FDF77C
:104E2800F3F8E420FDF7DEF80120FDF7EDF80020A7
:104E3800FDF7EAF80120FDF7E7F80020FDF7E4F8B0
:104E48000220FDF7E1F80020FDF7DEF82A20FDF743
:104E5800DBF80020FDF7D8F83C20FDF7D5F8002056
:104E6800FDF7D2F84B20FDF7CFF80020FDF7CCF87E
:104E78005D20FDF7C9F80020FDF7C6F87420FDF79E
:104E8800C3F80020FDF7C0F88420FDF7BDF8002026
:104E9800FDF7BAF89320FDF7B7F80020FDF7B4F84E
:104EA800A220FDF7B1F80020FDF7AEF8B320FDF71A
:104EB800ABF80020FDF7A8F8BE20FDF7A5F8002004
:104EC800FDF7A2F8C420FDF79FF80020FDF79CF835
:104ED800CD20FDF799F80020FDF796F8D320FDF7CF
:104EE80093F80020FDF790F8DD20FDF78DF80020FD
:104EF800FDF78AF8F320FDF787F80020FDF784F81E
:104F0800E520FDF76FF80020FDF77EF80020FDF79B
:104F18007BF80020FDF778F80020FDF775F80220EF
:104F2800FDF772F80020FDF76FF82920FDF76CF8FF
:104F38000020FDF769F83C20FDF766F80020FDF732
:104F480063F84B20FDF760F80020FDF75DF85D2061
:104F5800FDF75AF80020FDF757F87420FDF754F8CC
:104F68000020FDF751F88420FDF74EF80020FDF7EA
:104F78004BF89320FDF748F80020FDF745F8A220EC
:104F8800FDF742F80020FDF73FF8B320FDF73CF8A5
:104F98000020FDF739F8BE20FDF736F80020FDF7B0
:104FA80033F8C420FDF730F80020FDF72DF8CD20A8
:104FB800FDF72AF80020FDF727F8D320FDF724F89D
:104FC8000020FDF721F8DC20FDF71EF80020FDF792
:104FD8001BF8F320FDF718F80020FDF715F8E62078
:104FE800FDF700F81120FDF70FF80020FDF70CF889
:104FF8003420FDF709F80020FDF706F85620FDF7E4
:1050080003F80020FDF700F87620FCF7FDFF0020EC
:10501800FCF7FAFF7720FCF7F7FF0020FCF7F4FF16
:105028006620FCF7F1FF0020FCF7EEFF8820FCF774
:10503800EBFF0020FCF7E8FF9920FCF7E5FF0020D4
:10504800FCF7E2FFBB20FCF7DFFF0020FCF7DCFFEA
:105058009920FCF7D9FF0020FCF7D6FF6620FCF763
:10506800D3FF0020FCF7D0FF5520FCF7CDFF002030
:10507800FCF7CAFF5520FCF7C7FF0020FCF7C4FF68
:105088004520FCF7C1FF0020FCF7BEFF4320FCF7DA
:10509800BBFF0020FCF7B8FF4420FCF7B5FF002059
:1050A800FCF7B2FFE720FCF79DFF3220FCF7ACFFCE
:1050B8000020FCF7A9FF5520FCF7A6FF0020FCF70D
:1050C800A3FF7620FCF7A0FF0020FCF79DFF6620D9
:1050D800FCF79AFF0020FCF797FF6720FCF794FF86
:1050E8000020FCF791FF6720FCF78EFF0020FCF7FB
:1050F8008BFF8720FCF788FF0020FCF785FF9920AD
:10510800FCF782FF0020FCF77FFFBB20FCF77CFF49
:105118000020FCF779FF9920FCF776FF0020FCF7C8
:1051280073FF7720FCF770FF0020FCF76DFF442029
:10513800FCF76AFF0020FCF767FF5620FCF764FFC6
:105148000020FCF761FF2320FCF75EFF0020FCF73E
:105158005BFF3320FCF758FF0020FCF755FF452084
:10516800FCF752FF0020FCF74FFFE820FCF73AFF5E
:105178000020FCF749FF0020FCF746FF9920FCF7C8
:1051880043FF0020FCF740FF8720FCF73DFF00208D
:10519800FCF73AFF8820FCF737FF0020FCF734FFC4
:1051A8007720FCF731FF0020FCF72EFF6620FCF784
:1051B8002BFF0020FCF728FF8820FCF725FF0020A4
:1051C800FCF722FFAA20FCF71FFF0020FCF71CFFBA
:1051D800BB20FCF719FF0020FCF716FF9920FCF70D
:1051E80013FF0020FCF710FF6620FCF70DFF0020DE
:1051F800FCF70AFF5520FCF707FF0020FCF704FF27
:105208005520FCF701FF0020FCF7FEFE4420FCF7C8
:10521800FBFE0020FCF7F8FE4420FCF7F5FE00201A
:10522800FCF7F2FE5520FCF7EFFE0020FCF7ECFE41
:10523800E920FCF7D7FEAA20FCF7E6FE0020FCF7E1
:10524800E3FE0020FCF7E0FE0020FCF7DDFE002076
:10525800FCF7C8FEAA20FCF7D7FECF20FCF7C2FE59
:105268000020FCF7D1FE0020FCF7CEFE0020FCF762
:10527800CBFE0020FCF7C8FE0020FCF7C5FE00208E
:10528800FCF7C2FE0020FCF7BFFE0020FCF7BCFEC6
:105298000020FCF7B9FE0020FCF7B6FE0020FCF762
:1052A800B3FE0020FCF7B0FE0020FCF7ADFE0020A6
:1052B800FCF7AAFE0020FCF7A7FE0020FCF7A4FEDE
:1052C8000020FCF7A1FEF020FCF78CFE0020FCF784
:1052D8009BFE5020FCF798FE0020FCF795FE00206E
:1052E800FCF792FE0020FCF78FFEF320FCF77AFE15
:1052F8000020FCF789FEF920FCF774FE0620FCF775
:1053080083FE1020FCF780FE2920FCF77DFE00209C
:10531800FCF77AFE3A20FCF765FE5520FCF774FE90
:105328001120FCF75FFE642004F024F82920FCF724
:1053380059FE3520FCF756FE0020FCF765FE51208B
:10534800FCF750FEFF20FCF75FFE5320FCF74AFEF7
:105358002C20FCF759FE5520FCF744FE8220FCF770
:1053680053FE2C20FCF73EFEFEF794BE49F2313284
:10537800934200F2F28049F2203293422CD3A3F5F3
:105388001343203B112B3EF685AE01A252F823F0C1
:10539800015C00089D4000089D4000089D400008F1
:1053A8009D4000086B5800089D4000089D4000087B
:1053B800195A00089D4000089D4000089D400008BB
:1053C8009D4000089D4000089D4000089D40000841
:1053D8009D4000085B5D000848F6891293427EF400
:1053E80059AE01210020FCF755FE4AF6A40103201E
:1053F800FCF750FE00210C20FCF74CFE40F60C0197
:105408000D20FCF747FE4FF42C510E20FCF742FE0E
:10541800B0211E20FCF73EFE42F63F310120FCF78A
:1054280039FE4FF4C0610220FCF734FE0021102041
:10543800FCF730FE46F278011120FCF72BFE002124
:105448000520FCF727FE00210620FCF723FE4EF678
:105458001C711620FCF71EFE03211720FCF71AFE0C
:1054680040F233210720FCF715FE00210B20FCF742
:1054780011FE00210F20FCF70DFE00214120FCF752
:1054880009FE00214220FCF705FE00214820FCF718
:1054980001FE40F23F114920FCF7FCFD00214A20A3
:1054A800FCF7F8FD00214B20FCF7F4FD4FF46F41A9
:1054B8004420FCF7EFFD00214520FCF7EBFD40F20E
:1054C8003F114620FCF7E6FD40F207713020FCF75B
:1054D800E1FD4FF401713120FCF7DCFD4FF401715F
:1054E8003220FCF7D7FD40F202513320FCF7D2FD01
:1054F80040F207513420FCF7CDFD4FF401713520FF
:10550800FCF7C8FD4FF401713620FCF7C3FD40F2EB
:1055180002513720FCF7BEFD40F202313A20FCF779
:10552800B9FD40F202313B20FCF7B4FD00212320F5
:10553800FCF7B0FD00212420FCF7ACFD4FF400413E
:105548002520FCF7A7FD00214F20FCF7A3FD002133
:105558004E20FCF79FFDFEF79DBD4BF2055293428E
:1055680000F07D854CF2055293427EF493AD002104
:105578000846FCF78FFD00210846FCF78BFD142038
:1055880003F0F8FE00210846FCF784FD00210846D8
:10559800FCF780FD00210846FCF77CFD0021084649
:1055A800FCF778FD0121A420FCF774FD142003F01A
:1055B800E1FE4FF41C516020FCF76CFD40F606013B
:1055C8000820FCF767FD40F203713020FCF762FD0C
:1055D80001213120FCF75EFD04213220FCF75AFD41
:1055E8004FF481713320FCF755FD4FF4407134209E
:1055F800FCF750FD40F203113520FCF74BFD1F214D
:105608003620FCF747FD40F203713720FCF742FDD6
:1056180001213820FCF73EFD04213920FCF73AFD32
:1056280015219020FCF736FD4FF482611020FCF71D
:1056380031FD40F247211120FCF72CFD4FF4DE71BB
:105648001220FCF727FD4FF460611320FCF722FDC0
:10565800782003F08FFE4FF480710120FCF71AFDCB
:105668004FF400710220FCF715FD41F230010320D0
:10567800FCF710FD08210A20FCF70CFD00210C2086
:10568800FCF708FD20210E20FCF704FD00210F2067
:10569800FCF700FD00212020FCF7FCFC0021212064
:1056A800FCF7F8FC3D212A20FCF7F4FC142003F059
:1056B80061FE2D212920FCF7EDFC00215020FCF78C
:1056C800E9FC4DF2EF015120FCF7E4FC00215220E7
:1056D800FCF7E0FC40F23F115320FCF7DBFC002113
:1056E8006120FCF7D7FC00216A20FCF7D3FC4FF4BB
:1056F80040719220FCF7CEFC05219320FCF7CAFCF0
:105708004FF480710720FCF7C5FCFEF7C3BC1120DD
:10571800FCF768FC142003F02DFED020FCF762FC97
:105728000720FCF771FC4220FCF76EFC1D20FCF7FB
:105738006BFCD120FCF756FC0020FCF765FC1A2016
:10574800FCF762FC0920FCF75FFCD220FCF74AFC5E
:105758000120FCF759FC2220FCF756FCC020FCF77E
:1057680041FC1020FCF750FC3B20FCF74DFC0020CE
:10577800FCF74AFC0220FCF747FC1120FCF744FC2C
:10578800C520FCF72FFC0320FCF73EFCC820FCF7E3
:1057980029FC0020FCF738FC2520FCF735FC2120EB
:1057A800FCF732FC0520FCF72FFC0020FCF72CFC52
:1057B8000A20FCF729FC6520FCF726FC2520FCF7CD
:1057C80023FC7720FCF720FC5020FCF71DFC0F2061
:1057D800FCF71AFC0020FCF717FCF820FCF702FC89
:1057E8000120FCF711FCFE20FCF7FCFB0020FCF775
:1057F8000BFC0220FCF708FC2020FCF7F3FB36200A
:10580800FCF7F0FB0820FCF7FFFB3A20FCF7EAFB6B
:105818005520FCF7F9FB2B20FCF7E4FB0020FCF7F4
:10582800F3FB0020FCF7F0FB0120FCF7EDFB3F2029
:10583800FCF7EAFB2A20FCF7D5FB0020FCF7E4FB89
:105848000020FCF7E1FB0120FCF7DEFBDF20FCF782
:10585800DBFB782003F08EFD2920FCF7C3FBFEF765
:1058680019BC47F6F001E520FCF714FC4FF48071F1
:105878000120FCF70FFC4FF4E0610220FCF70AFC62
:1058880041F230010320FCF705FC00210420FCF75D
:1058980001FC40F202210820FCF7FCFB0021092052
:1058A800FCF7F8FB00210A20FCF7F4FB00210C2090
:1058B800FCF7F0FB00210D20FCF7ECFB00210F208A
:1058C800FCF7E8FB00211020FCF7E4FB072111207E
:1058D800FCF7E0FB00211220FCF7DCFB0021132081
:1058E800FCF7D8FB00210720FCF7D4FB41F29061BC
:1058F8001020FCF7CFFB40F227211120FCF7CAFB50
:105908009D211220FCF7C6FB4FF4C8511320FCF769
:10591800C1FB25212920FCF7BDFB0D212B20FCF71D
:10592800B9FB07213020FCF7B5FB40F203313120E9
:10593800FCF7B0FB03213220FCF7ACFB40F2062158
:105948003520FCF7A7FB08213620FCF7A3FB40F223
:1059580006413720FCF79EFB4FF441713820FCF7D5
:1059680099FB07213920FCF795FB40F202613C20A6
:10597800FCF790FB08213D20FCF78CFB0021502010
:10598800FCF788FBEF215120FCF784FB0021522013
:10599800FCF780FB40F23F115320FCF77BFB4FF4F0
:1059A80027416020FCF776FB01216120FCF772FBA0
:1059B80000216A20FCF76EFB00218020FCF76AFBBF
:1059C80000218120FCF766FB00218220FCF762FBA6
:1059D80000218320FCF75EFB00218420FCF75AFBA2
:1059E80000218520FCF756FB10219020FCF752FB84
:1059F8004FF4C0619220FCF74DFB40F233110720B1
:105A0800FCF748FB22210020FCF744FBFEF742BBD1
:105A180041F28F01EC20FCF73DFB41F23421EF20ED
:105A2800FCF738FB4FF480710120FCF733FB4FF48F
:105A3800E0610220FCF72EFB41F230010320FCF765
:105A480029FB00210420FCF725FB40F20221082055
:105A5800FCF720FB00210920FCF71CFB00210A2091
:105A6800FCF718FB01210C20FCF714FB00210D208A
:105A7800FCF710FB00210F20FCF70CFB0021102085
:105A8800FCF708FB07211120FCF704FB002112207A
:105A9800FCF700FB00211320FCF7FCFA012107208A
:105AA800FCF7F8FA322003F065FC41F2904110202F
:105AB800FCF7F0FA40F227211120FCF7EBFA32202C
:105AC80003F058FC8A211220FCF7E4FA322003F094
