:020000040800F2
:1000000000C00020F97100085D6400085F6400080A
:100010006164000863640008656400080000000073
:1000200000000000000000000000000067640008FD
:1000300069640008000000006B6400086D6400083B
:1000400041720008417200084172000841720008C4
:1000500041720008417200084172000841720008B4
:1000600041720008417200084172000841720008A4
:100070004172000841720008417200084172000894
:100080004172000841720008417200084172000884
:100090004172000841720008417200084172000874
:1000A0004172000841720008417200084172000864
:1000B0004172000841720008417200084172000854
:1000C0004172000841720008417200084172000844
:1000D0004172000841720008417200084172000834
:1000E00075640008417200084172000841720008FE
:1000F0004172000841720008417200084172000814
:100100004172000841720008417200084172000803
:1001100041720008417200084172000841720008F3
:1001200041720008417200084172000841720008E3
:1001300000000000000000000000000000000000BF
:1001400000000000000000000000000000000000AF
:10015000000000000000000000000000000000009F
:10016000000000000000000000000000000000008F
:10017000000000000000000000000000000000007F
:10018000000000000000000000000000000000006F
:10019000000000000000000000000000000000005F
:1001A000000000000000000000000000000000004F
:1001B000000000000000000000000000000000003F
:1001C000000000000000000000000000000000002F
:1001D000000000000000000000000000000000001F
:0401E0005FF8E0F1F3
:1001E80010B5054C237833B9044B13B10448AFF369
:1001F80000800123237010BD1007002000000000BC
:1002080040CC000808B5034B1BB103490348AFF3C2
:10021800008008BD000000001407002040CC000842
:1002280081F0004102E000BF83F0004330B54FEA9F
:1002380041044FEA430594EA050F08BF90EA020F0C
:100248001FBF54EA000C55EA020C7FEA645C7FEA9F
:10025800655C00F0E2804FEA5454D4EB5555B8BFC2
:100268006D420CDD2C4480EA020281EA030382EA33
:10027800000083EA010180EA020281EA0303362DC5
:1002880088BF30BD11F0004F4FEA01314FF4801C98
:100298004CEA113102D0404261EB410113F0004FAA
:1002A8004FEA03334CEA133302D0524263EB430361
:1002B80094EA050F00F0A780A4F10104D5F1200EFF
:1002C8000DDB02FA0EFC22FA05F2801841F100015A
:1002D80003FA0EF2801843FA05F359410EE0A5F12E
:1002E80020050EF1200E012A03FA0EFC28BF4CF05F
:1002F800020C43FA05F3C01851EBE37101F0004515
:1003080007D54FF0000EDCF1000C7EEB00006EEB21
:100318000101B1F5801F1BD3B1F5001F0CD34908AB
:100328005FEA30004FEA3C0C04F101044FEA445202
:1003380012F5800F80F09A80BCF1004F08BF5FEA89
:10034800500C50F1000041EB045141EA050130BD69
:100358005FEA4C0C404141EB0101013C28BFB1F57B
:10036800801FE9D291F0000F04BF01460020B1FAC6
:1003780081F308BF2033A3F10B03B3F120020CDA99
:100388000C3208DD02F1140CC2F10C0201FA0CF077
:1003980021FA02F10CE002F11402D8BFC2F1200CDC
:1003A80001FA02F120FA0CFCDCBF41EA0C01904092
:1003B800E41AA2BF01EB0451294330BD6FEA0404DB
:1003C8001F3C1CDA0C340EDC04F11404C4F12002C6
:1003D80020FA04F001FA02F340EA030021FA04F3D8
:1003E80045EA030130BDC4F10C04C4F1200220FA2F
:1003F80002F001FA04F340EA0300294630BD21FA6D
:1004080004F0294630BD94F0000F83F4801306BF32
:1004180081F480110134013D4EE77FEA645C18BF26
:100428007FEA655C29D094EA050F08BF90EA020FBD
:1004380005D054EA000C04BF1946104630BD91EAB5
:10044800030F1EBF0021002030BD5FEA545C05D1B8
:100458004000494128BF41F0004130BD14F58004F7
:100468003CBF01F5801130BD01F0004545F0FE416B
:1004780041F470014FF0000030BD7FEA645C1ABFA0
:10048800194610467FEA655C1CBF0B46024650EAD7
:10049800013406BF52EA033591EA030F41F4002103
:1004A80030BD00BF90F0000F04BF0021704730B589
:1004B8004FF4806404F132044FF000054FF000015E
:1004C80050E700BF90F0000F04BF0021704730B51F
:1004D8004FF4806404F1320410F0004548BF4042F4
:1004E8004FF000013EE700BF42004FEAE2014FEA49
:1004F80031014FEA02701FBF12F07F4393F07F4F24
:1005080081F06051704732F07F4208BF704793F026
:100518007F4F04BF41F40021704730B54FF4607439
:1005280001F0004521F000411CE700BF50EA01023C
:1005380008BF704730B54FF000050AE050EA0102E5
:1005480008BF704730B511F0004502D5404261EB55
:1005580041014FF4806404F132045FEA915C3FF496
:10056800D8AE4FF003025FEADC0C18BF03325FEA33
:10057800DC0C18BF033202EBDC02C2F1200300FAE4
:1005880003FC20FA02F001FA03FE40EA0E0021FA09
:1005980002F11444BDE600BF4FF0FF3C06E000BF87
:1005A8004FF0010C02E000BF4FF0010C4DF804CDF4
:1005B8004FEA410C7FEA6C5C4FEA430C18BF7FEAB4
:1005C8006C5C1BD001B050EA410C0CBF52EA430CE2
:1005D80091EA030F02BF90EA020F0020704710F162
:1005E800000F91EA030F58BF994208BF90422CBFF1
:1005F800D8176FEAE37040F0010070474FEA410CEA
:100608007FEA6C5C02D150EA013C07D14FEA430C07
:100618007FEA6C5CD6D152EA033CD3D05DF8040B78
:10062800704700BF8446104662468C4619466346AA
:1006380000E000BF01B5FFF7B7FF002848BF10F181
:10064800000F01BD4DF808EDFFF7F4FF0CBF0120C6
:1006580000205DF808FB00BF4DF808EDFFF7EAFF42
:1006680034BF012000205DF808FB00BF4DF808EDFD
:10067800FFF7E0FF94BF012000205DF808FB00BFF2
:100688004DF808EDFFF7CEFF94BF012000205DF87C
:1006980008FB00BF4DF808EDFFF7C4FF34BF012089
:1006A80000205DF808FB00BF4A0011D212F50012C5
:1006B80011D20DD56FF47873B3EB62520ED44FEAB2
:1006C800C12343F0004343EA505323FA02F0704732
:1006D8004FF00000704750EA013002D14FF0FF3070
:1006E80070474FF00000704780F0004002E000BF04
:1006F80081F0004142001FBF5FEA410392EA030F05
:100708007FEA226C7FEA236C6AD04FEA1262D2EB4E
:100718001363C1BFD218414048404140B8BF5B4253
:10072800192B88BF704710F0004F40F4000020F0EC
:100738007F4018BF404211F0004F41F4000121F002
:100748007F4118BF494292EA030F3FD0A2F101024C
:1007580041FA03FC10EB0C00C3F1200301FA03F18A
:1007680000F0004302D5494260EB4000B0F5000FAD
:1007780013D3B0F1807F06D340084FEA310102F16C
:100788000102FE2A51D2B1F1004F40EBC25008BF1E
:1007980020F0010040EA03007047490040EB0000E8
:1007A800013A28BFB0F5000FEDD2B0FA80FCACF1E9
:1007B800080CB2EB0C0200FA0CF0AABF00EBC25016
:1007C80052421843BCBFD0401843704792F0000F04
:1007D80081F4000106BF80F400000132013BB5E757
:1007E8004FEA41037FEA226C18BF7FEA236C21D0CD
:1007F80092EA030F04D092F0000F08BF0846704732
:1008080090EA010F1CBF0020704712F07F4F04D1FF
:10081800400028BF40F00040704712F100723CBF12
:1008280000F50000704700F0004343F0FE4040F43C
:10083800000070477FEA226216BF08467FEA2363FA
:100848000146420206BF5FEA412390EA010F40F4E5
:10085800800070474FF0000304E000BF10F0004331
:1008680048BF40425FEA000C08BF704743F0964318
:1008780001464FF000001CE050EA010208BF704733
:100888004FF000030AE000BF50EA010208BF7047BA
:1008980011F0004302D5404261EB41015FEA010CCF
:1008A80002BF84460146002043F0B64308BFA3F1C7
:1008B8008053A3F50003BCFA8CF2083AA3EBC253A9
:1008C80010DB01FA02FC634400FA02FCC2F12002C8
:1008D800BCF1004F20FA02F243EB020008BF20F0FF
:1008E8000100704702F1200201FA02FCC2F1200265
:1008F80050EA4C0021FA02F243EB020008BF20EA5A
:10090800DC7070474FF0FF0C1CEAD0521EBF1CEA87
:10091800D15392EA0C0F93EA0C0F6FD01A4480EA75
:10092800010C400218BF5FEA41211ED04FF000635E
:1009380043EA501043EA5111A0FB01310CF000408A
:10094800B1F5000F3EBF490041EAD3715B0040EAB0
:10095800010062F17F02FD2A1DD8B3F1004F40EB80
:10096800C25008BF20F00100704790F0000F0CF053
:10097800004C08BF49024CEA502040EA51207F3A17
:10098800C2BFD2F1FF0340EAC250704740F40000F2
:100998004FF00003013A5DDC12F1190FDCBF00F0E3
:1009A80000407047C2F10002410021FA02F1C2F191
:1009B800200200FA02FC5FEA310040F1000053EA2D
:1009C8004C0308BF20EADC70704792F0000F00F07B
:1009D800004C02BF400010F4000F013AF9D040EA81
:1009E8000C0093F0000F01F0004C02BF490011F415
:1009F800000F013BF9D041EA0C018FE70CEAD15313
:100A080092EA0C0F18BF93EA0C0F0AD030F0004C92
:100A180018BF31F0004CD8D180EA010000F0004046
:100A2800704790F0000F17BF90F0004F084691F004
:100A3800000F91F0004F14D092EA0C0F01D142023E
:100A48000FD193EA0C0F03D14B0218BF084608D107
:100A580080EA010000F0004040F0FE4040F4000051
:100A6800704740F0FE4040F4400070474FF0FF0CE4
:100A78001CEAD0521EBF1CEAD15392EA0C0F93EA2B
:100A88000C0F69D0A2EB030280EA010C49024FEA7D
:100A9800402037D04FF0805343EA111143EA101336
:100AA8000CF000408B4238BF5B0042F17D024FF4EE
:100AB800000C8B4224BF5B1A40EA0C00B3EB510FC9
:100AC80024BFA3EB510340EA5C00B3EB910F24BFB2
:100AD800A3EB910340EA9C00B3EBD10F24BFA3EB37
:100AE800D10340EADC001B0118BF5FEA1C1CE0D1FF
:100AF800FD2A3FF650AF8B4240EBC25008BF20F0B2
:100B0800010070470CF0004C4CEA50207F32C2BF05
:100B1800D2F1FF0340EAC250704740F400004FF0A2
:100B28000003013A37E792F0000F00F0004C02BFD3
:100B3800400010F4000F013AF9D040EA0C0093F09D
:100B4800000F01F0004C02BF490011F4000F013BF7
:100B5800F9D041EA0C0195E70CEAD15392EA0C0F5F
:100B680008D142027FF47DAF93EA0C0F7FF470AF97
:100B7800084676E793EA0C0F04D14B023FF44CAFDA
:100B880008466EE730F0004C18BF31F0004CCAD16F
:100B980030F000427FF45CAF31F000437FF43CAFAB
:100BA8005FE700BF4FEA4002B2F1FE4F0FD34FF0AC
:100BB8009E03B3EB12620DD94FEA002343F00043C2
:100BC80010F0004F23FA02F018BF404270474FF070
:100BD8000000704712F1610F01D1420205D110F0F7
:100BE800004008BF6FF0004070474FF000007047AA
:100BF80042000ED2B2F1FE4F0BD34FF09E03B3EB7F
:100C0800126209D44FEA002343F0004323FA02F0AA
:100C180070474FF00000704712F1610F01D1420296
:100C280002D14FF0FF3070474FF00000704700BF0F
:100C380010F8012B11F8013B012A28BF9A42F7D07E
:100C4800D01A7047034613F8012B002AFBD1181A53
:100C58000138704770B54FF0FF0C4CF4E06C1CEA9B
:100C680011541DBF1CEA135594EA0C0F95EA0C0F9A
:100C780000F0DEF82C4481EA030621EA4C5123EA0D
:100C88004C5350EA013518BF52EA033541F480113C
:100C980043F4801338D0A0FB02CE4FF00005E1FBEF
:100CA80002E506F00042E0FB03E54FF00006E1FB39
:100CB80003569CF0000F18BF4EF0010EA4F1FF047C
:100CC800B6F5007F64F5407404D25FEA4E0E6D41BC
:100CD80046EB060642EAC62141EA55514FEAC520CD
:100CE80040EA5E504FEACE2EB4F1FD0C88BFBCF549
:100CF800E06F1ED8BEF1004F08BF5FEA500E50F1FA
:100D0800000041EB045170BD06F0004646EA0101BF
:100D180040EA020081EA0301B4EB5C04C2BFD4EBF1
:100D28000C0541EA045170BD41F480114FF0000EEA
:100D3800013C00F3AB8014F1360FDEBF002001F058
:100D4800004170BDC4F10004203C35DA0C341BDCD2
:100D580004F11404C4F1200500FA05F320FA04F0A4
:100D680001FA05F240EA020001F0004221F00041D8
:100D780010EBD37021FA04F642EB06015EEA430E4B
:100D880008BF20EAD37070BDC4F10C04C4F120057B
:100D980000FA04F320FA05F001FA04F240EA02002E
:100DA80001F0004110EBD37041F100015EEA430EFF
:100DB80008BF20EAD37070BDC4F1200500FA05F21F
:100DC8004EEA020E20FA04F301FA05F243EA02039E
:100DD80021FA04F001F0004121FA04F220EA0200AD
:100DE80000EBD3705EEA430E08BF20EAD37070BDF3
:100DF80094F0000F0FD101F00046400041EB0101D3
:100E080011F4801F08BF013CF7D041EA060195F0B4
:100E1800000F18BF704703F00046520043EB03036E
:100E280013F4801F08BF013DF7D043EA060370475B
:100E380094EA0C0F0CEA135518BF95EA0C0F0CD066
:100E480050EA410618BF52EA4306D1D181EA0301AC
:100E580001F000414FF0000070BD50EA410606BFA6
:100E68001046194652EA430619D094EA0C0F02D1EB
:100E780050EA013613D195EA0C0F05D152EA033630
:100E88001CBF104619460AD181EA030101F000414E
:100E980041F0FE4141F470014FF0000070BD41F097
:100EA800FE4141F4780170BD70B54FF0FF0C4CF471
:100EB800E06C1CEA11541DBF1CEA135594EA0C0F90
:100EC80095EA0C0F00F0A7F8A4EB050481EA030EDD
:100ED80052EA03354FEA013100F088804FEA0333C4
:100EE8004FF0805545EA131343EA12634FEA022292
:100EF80045EA111545EA10654FEA00260EF0004153
:100F08009D4208BF964244F1FD0404F5407402D2A4
:100F18005B084FEA3202B61A65EB03055B084FEA35
:100F280032024FF480104FF4002CB6EB020E75EB32
:100F3800030E22BFB61A754640EA0C005B084FEA5A
:100F48003202B6EB020E75EB030E22BFB61A7546D7
:100F580040EA5C005B084FEA3202B6EB020E75EB22
:100F6800030E22BFB61A754640EA9C005B084FEA9A
:100F78003202B6EB020E75EB030E22BFB61A7546A7
:100F880040EADC0055EA060E18D04FEA051545EA96
:100F980016754FEA06164FEAC30343EA52734FEA3F
:100FA800C2025FEA1C1CC0D111F4801F0BD141EAB8
:100FB80000014FF000004FF0004CB6E711F4801F1D
:100FC80004BF01430020B4F1FD0C88BFBCF5E06FFD
:100FD8003FF6AFAEB5EB030C04BFB6EB020C5FEA0D
:100FE800500C50F1000041EB045170BD0EF0004E62
:100FF8004EEA113114EB5C04C2BFD4EB0C0541EA94
:10100800045170BD41F480114FF0000E013C90E690
:1010180045EA060E8DE60CEA135594EA0C0F08BF54
:1010280095EA0C0F3FF43BAF94EA0C0F0AD150EA53
:1010380001347FF434AF95EA0C0F7FF425AF1046E6
:1010480019462CE795EA0C0F06D152EA03353FF40E
:10105800FDAE1046194622E750EA410618BF52EA8B
:1010680043067FF4C5AE50EA41047FF40DAF52EA5F
:1010780043057FF4EBAE12E74FEA410C7FEA6C5C64
:1010880002D150EA013C0AD14FEA430C7FEA6C5C7A
:1010980002D152EA033C02D14FF0000070474FF0F2
:1010A800010070474FEA410212F5001215D211D51E
:1010B8006FF47873B3EB625212D94FEAC12343F04D
:1010C800004343EA505311F0004F23FA02F018BFCF
:1010D800404270474FF00000704750EA013005D198
:1010E80011F0004008BF6FF0004070474FF000005B
:1010F800704700BF53B94AB9002908BF00281CBF70
:101108004FF0FF314FF0FF3000F072B9ADF1080C2D
:101118006DE904CE00F006F8DDF804E0DDE902230D
:1011280004B070472DE9F047089E0D4604468E46E8
:10113800002B4CD18A42944667D9B2FA82F353B154
:1011480002FA03FCC3F1200201FA03FE20FA02F2BC
:1011580042EA0E0E9C404FEA1C47BEFBF7F11FFA0D
:101168008CF507FB11EE01FB05F0220C42EA0E425A
:1011780090420AD91CEB020201F1FF3E80F019816E
:10118800904240F2168102396244121AB2FBF7F01B
:1011980007FB102200FB05F5A4B244EA0244A5426D
:1011A8000AD91CEB040400F1FF3280F00481A54247
:1011B80040F201816444023840EA01400021641B86
:1011C8001EB1DC400023C6E90043BDE8F0878B422E
:1011D80008D9002E00F0EA800021C6E9000508467B
:1011E800BDE8F087B3FA83F1002948D1AB4202D3B6
:1011F800824200F2F880841A65EB030201209646C9
:10120800002EE2D0C6E9004EDFE702B9FFDEB2FAEF
:1012180082F3002B40F08E80881A0121170C1FFAE8
:1012280082FEB0FBF7F507FB1500220C42EA0042EC
:101238000EFB05F0904208D91CEB020205F1FF38BD
:1012480002D2904200F2CC804546121AB2FBF7F067
:1012580007FB10220EFB00FEA4B244EA0244A64596
:1012680008D91CEB040400F1FF3202D2A64500F2B3
:10127800B4801046A4EB0E0440EA0540A0E7C1F193
:1012880020078B4022FA07FC4CEA030C25FA07FAE0
:101298004FEA1C49BAFBF9F88D4020FA07F309FB1D
:1012A80018AA1FFA8CFE2B4300FA01F508FB0EF072
:1012B8001C0C44EA0A44A04202FA01F20BD91CEBC6
:1012C800040408F1FF3A80F08680A04240F283804F
:1012D800A8F102086444241A98B2B4FBF9F309FB94
:1012E800134403FB0EFE40EA0444A64508D91CEB50
:1012F800040403F1FF306AD2A64568D9023B64446E
:1013080043EA0840A0FB0293A4EB0E049C42C846A3
:101318009E4654D351D0002E67D0B5EB080364EB3A
:101328000E04CB4004FA07F71F43CC40C6E900740B
:1013380000214AE702FA03FCC3F12000C1409D40A6
:1013480024FA00F04FEA1C472843B1FBF7F507FBE6
:1013580015111FFA8CFE020C42EA014205FB0EF140
:10136800914204FA03F408D91CEB020205F1FF3894
:101378002FD291422DD9023D6244521AB2FBF7F1A5
:1013880007FB112280B240EA024001FB0EF28242C2
:1013980008D91CEB000001F1FF3816D2824214D99B
:1013A80002396044801A41EA05413AE7314630463D
:1013B8000BE77146E9E61046FEE64D45ABD2B9EBC0
:1013C800020863EB0C0E0138A5E74146EAE703463D
:1013D80096E74546D1E7D0467DE76444023849E7B9
:1013E800023D624431E708460AE73146EDE600BFB0
:1013F800704700BF08B504F0C5FC08BD10B5044629
:1014080004F0E6FC230A5B00DBB2603B03F0FE005D
:1014180004F08AFD04F01CFDE0B204F085FD04F040
:1014280017FD04F0D5FCA12004F07EFD04F010FDAA
:10143800002004F0A7FD044604F0EAFC204610BD95
:1014480038B504460D4604F0C3FC230A5B00DBB242
:10145800603B03F0FE0004F067FD04F0F9FCE0B225
:1014680004F062FD04F0F4FC284604F05DFD04F08D
:10147800EFFC04F0CDFC0A2000F07EF938BD70B511
:101488000C46154608E0461CB6B2FFF7B7FF04F84D
:10149800010B013DADB23046002DF4D170BD70B5E1
:1014A80004460E4607E016F8011B2046FFF7C8FF62
:1014B8000134A4B22A46531E9DB2002AF3D170BD4E
:1014C80008B5052000F03AF908BD000010B586B04F
:1014D8000D4B9A6942F010029A619B6903F0100360
:1014E8000193019B09230293012403940494032389
:1014F800059302A9054805F07BFF054BC3F8804119
:10150800C3F88C4106B010BD001002400010014025
:101518000000224238B50D4B1A6822F470421A6056
:101528001A6842F440521A60094C0123C4F88C31FD
:10153800C4F880311E2000F001F90025C4F88C5150
:10154800FFF7BEFFC4F8805138BD00BF001001404E
:101558000000224238B50C4B1A6822F470421A6017
:101568001A6842F440521A60084C0125C4F88051A8
:101578001E2000F0E3F80023C4F88C31FFF7A0FF29
:10158800C4F88C5138BD00BF001001400000224251
:1015980010B5134B1A6822F470421A601A6842F4A4
:1015A80000421A600F4B0122C3F88C21C3F8802136
:1015B800FFF786FF00240B4BD3F80C3153B10134ED
:1015C800E4B2FA2C02D8FFF77BFFF4E7FFF7C2FF7B
:1015D800012003E00020034BC3F8800110BD00BFC9
:1015E800001001400000224238B50D4C0025C4F817
:1015F80080510C4B1A6822F470421A601A6842F43F
:1016080040521A60FFF75CFFC4F88C51FFF758FF8F
:101618000123C4F88031FFF753FFC4F8805138BD67
:10162800000022420010014070B50D4C0025C4F89E
:1016380080510C4B1A6822F470421A601A6842F4FE
:1016480040521A60FFF73CFF0126C4F88C61FFF78F
:1016580037FFC4F88061FFF733FFC4F8805170BDCD
:10166800000022420010014070B50546124B1A686E
:1016780022F470421A601A6842F440521A60002438
:101688000E4BC3F88041FFF71BFF11E0EB090B4E2F
:10169800C6F88C316D00EDB20123C6F88031FFF732
:1016A8000FFF0023C6F88031FFF70AFF0134E4B2C8
:1016B800072CEBD970BD00BF00100140000022428A
:1016C800F8B50746164B1A6822F470421A601A6871
:1016D80042F400421A601E2000F030F8002425462B
:1016E80001E00135EDB2072D11D80E4E0023C6F8E2
:1016F8008031FFF7E5FE0123C6F880319C40E4B253
:10170800D6F80C31002BECD00134E4B2E9E71FB96C
:10171800FFF78AFF2046F8BDFFF766FFFAE700BF2C
:10172800001001400000224210B50446042005F0D4
:101738004FFE014B1C6010BD2C07002010B44FF069
:10174800E02254690B4B1B6800FB03FC93690021E2
:1017580004E0E01A02441144614509D21A464FF0E8
:10176800E0239B699A42FAD0F3D9D21A1144F3E7DD
:1017780010BC70472C07002038B50546002404E04B
:101788004FF47A70FFF7DAFF0134A542F8D838BD74
:10179800F8B504460F461546FFF7BCFE7020FFF764
:1017A80063FFFFF7F5FEE0B2FFF75EFFFFF7F0FE1D
:1017B8000026344601E00134E4B2AC4207D2385D79
:1017C800FFF752FFFFF7E4FE06460028F3D0FFF7C5
:1017D800C1FE3046F8BD70B504460E461546FFF703
:1017E80099FE7020FFF740FFFFF7D2FEE0B2FFF747
:1017F8003BFFFFF7CDFEFFF78DFE7120FFF734FFAB
:10180800FFF7C6FE002408E0681E201A18BF012052
:10181800FFF756FF30550134E4B2AC42F4D3FFF77A
:1018280099FE70BDF0B587B0304B9A6942F010024E
:101838009A619B6903F010030093009B4FF40053D7
:10184800019301240294039403230493284F01A9CC
:10185800384605F0CDFD022601960025029501A91E
:10186800384605F0C5FDFFF731FE224FC7F8B451E1
:101878001420FFF781FFC7F8B4413220FFF77CFF3F
:101888008DF81450224605A92846FFF781FF224605
:1018980005A9A420FFF77CFF16238DF814302246F3
:1018A80005A98020FFF774FF0C238DF81430224619
:1018B80005A98820FFF76CFF324605A9A120FFF78C
:1018C8008AFF9DF81430302B02D0012007B0F0BDFC
:1018D8009DF81510032901D00120F7E701EB03213A
:1018E800054806F02BFC2846F0E700BF0010024030
:1018F800001001400000224258CC000830B585B0E5
:101908008DF80700604B1A780132D2B21A705F4B1B
:10191800A3FB0213DB0803EB8303A2EB430313F0DF
:10192800FF0F02D0092A00F2878001220DF107017A
:101938000220FFF750FF9DF8070000F00F00002875
:101948007BD0052800F29780FF238340DB4363F0B8
:101958003F034F4A82F8203000242EE09DF80C30D7
:101968001B0203F470639DF80D201344C3F5F07354
:10197800474A211D02EB41018B809DF80E301B0266
:1019880003F470639DF80F100B4404F1080102EB97
:101998004102D3809DF80C3003F0F003802B0AD06D
:1019A8003B4B05F1080203EB42020021D1800435CC
:1019B80003EB450399800134E4B2042C2FD8344B4F
:1019C80093F820302546234113F0010FF3D0042269
:1019D80003A9304B33F81400FFF7FDFE2C4B93F8A6
:1019E800303013F0010FB9D09DF80C301B0203F40E
:1019F80070639DF80D201344254A04F1080102EB99
:101A08004101CB809DF80E301B0203F470639DF8F2
:101A18000F100B44211D02EB41029380BAE71C4BC7
:101A28009B8923B91A4BDB8A0BB98DF80730164B03
:101A380000221A70012000E000209DF8073013F002
:101A48001F0F0FD1124A92F8203092F92020002A55
:101A580013DB0F4A4FF6FF719181D18223F01F03E8
:101A680082F82030084B1B78F02B02D9064B0A224B
:101A78001A7005B030BD0020DFE703F07F03044A89
:101A880082F82030EEE700BF30070020CDCCCCCC68
:101A98000C00002064CC0008F8B504460F46154633
:101AA800FFF738FD2820FFF7DFFDFFF771FD200A5B
:101AB800FFF7DAFDFFF76CFDE0B2FFF7D5FDFFF7A2
:101AC80067FD0026344601E00134E4B2AC4207D297
:101AD800385DFFF7C9FDFFF75BFD06460028F3D028
:101AE800FFF738FD3046F8BD00B583B000238DF808
:101AF80004308DF8050008E00F4AD25C9DF8041008
:101B08000A448DF804200133DBB2B72BF4D99DF8D1
:101B180004305B428DF80430B822074948F2470088
:101B2800FFF7BAFF022201A948F2FF00FFF7B4FF4E
:101B3800002003B05DF804FB98CC000870B504469B
:101B48000E461546FFF7E6FC2820FFF78DFDFFF748
:101B58001FFD200AFFF788FDFFF71AFDE0B2FFF727
:101B680083FDFFF715FDFFF7D5FC2920FFF77CFD66
:101B7800FFF70EFD002408E0681E201A18BF012098
:101B8800FFF79EFD30550134E4B2AC42F4D3FFF7C1
:101B9800E1FC70BD2DE9F04188B0394B9A6942F0FB
:101BA80010029A619B6903F010030193019B4FF4A3
:101BB8000053029301270397049703230593314D9C
:101BC80002A9284605F014FC022602960024039474
:101BD80002A9284605F00CFCFFF778FCDFF8A8807E
:101BE800C8F8B4410A20FFF7C7FDC8F8B4710A2045
:101BF800FFF7C2FD02960496039402A9284605F051
:101C0800F7FB6420FFF7B8FD042206A948F240104C
:101C1800FFF794FF8DF81C4006A91C4806F08EFAC1
:101C28001B4906A8FFF704F818B1002008B0BDE862
:101C3800F0818DF818603A4606A948F24000FFF78F
:101C48002BFF3A4606A948F24700FFF777FF9DF8B1
:101C580018105F290CD90A20FFF78EFD00238DF894
:101C68001830012206A948F24000FFF715FFDCE70B
:101C7800084806F063FA3846FFF736FFEBE700BF7F
:101C880000100240001001400000224270CC000801
:101C98007CCC000884CC000870B584B08DF80700AF
:101CA800744B1A780132D2B21A70734BA3FB021329
:101CB800DB0803EB8303A2EB430313F0FF0F02D00F
:101CC800092A00F2AD8001220DF1070148F24E10F9
:101CD800FFF734FF9DF807309DF90720002A1CDB29
:101CE8009DF8070000F00F00002800F09A800528F2
:101CF80000F2A680FF238340DBB28DF80B305F4AE9
:101D080092F82050DB4363F03F0382F82030938938
:101D18009382D38AD383002426E003F00F03052B94
:101D2800DED800238DF80B3001220DF10B0148F2AB
:101D38004E10FFF7B1FED3E79DF80D309DF80C105B
:101D480001EB03214D4A231D02EB430399809DF8C3
:101D58000F309DF80E1001EB032104F1080302EB8C
:101D68004302D1800134E4B2042C2DD8434B93F8BC
:101D78002030234113F0010FF4D0042203A9404B73
:101D880033F81400FFF7DAFE3C4B93F8303013F0C9
:101D9800010FD1D09DF80D309DF80C2002EB0322E5
:101DA800364904F1080301EB4303DA809DF80F304C
:101DB8009DF80E2002EB032292B2C2F54872231D51
:101DC80001EB43018A80CDE72C4B9A892D4B1B8868
:101DD8009A4205D8294BDA8A2A4B5B889A421AD943
:101DE8009DF8073013F00E0F09D0244BDA899A8139
:101DF8001A8BDA821F4B00221A70012011E01F4B48
:101E08009A8A9A81DA8BDA8280228DF8072083F801
:101E18002050012005E0174B00221A70012000E035
:101E280000209DF8073003F08F03802B0AD0114B58
:101E38001B78F02B02D90F4B0A221A7004B070BD20
:101E48000020EEE70D4A92F8203092F92020002A6F
:101E580009DB0A4A4FF6FF719181D18223F01F03F3
:101E680082F82030E3E703F07F03044A82F8203049
:101E7800DDE700BF31070020CDCCCCCC0C00002022
:101E880050CD00083407002030B587B0184B9A6948
:101E980042F004029A619A6902F004020092009AE0
:101EA8009A6942F010029A619B6903F0100301934A
:101EB800019B012402940023039302230493032328
:101EC80005930C4D02A9284605F092FA4FF40043F9
:101ED8000293049402A9284605F08AFA2023029363
:101EE800049402A9044805F083FA07B030BD00BF86
:101EF80000100240000801400010014008B5012808
:101F08001AD0294B1B780BB32021284805F090FBE9
:101F180028B14FF40041264805F08AFB80B90A2011
:101F2800FFF72AFC204B00221A7020211F4805F0D9
:101F38007FFB98B9012010E01B4B01221A70E0E7E3
:101F480001211B4805F074FB0128E8D0202117481F
:101F580005F06EFB01280FD0002008BD4FF40041AA
:101F6800134805F065FBC8B10121114805F060FB75
:101F7800012815D00020F0E74FF400410C4805F087
:101F880057FB012801D00020E7E70121084805F0A8
:101F98004FFB38B9044B01221A70DEE70220DCE758
:101FA8000320DAE70020D8E70000002000100140F5
:101FB80000080140064B4FF480725A614FF40072DA
:101FC8005A610449C8608021596119611A617047D2
:101FD80000100140000C0140064B4FF480721A615A
:101FE8004FF400725A610449C8608021596119612F
:101FF8001A61704700100140000C014010B4104BEA
:102008004FF088321A605A600022DA6002F180428A
:1020180002F588324FF4807111614FF400715161FB
:10202800402454619868146111614FF033321A608A
:102038005A604FF6FF72DA6080B210BC704700BF7A
:10204800000C014010B50C46FFF7B4FF064B4FF4E7
:1020580080721A614FF400725A610449CC60802181
:10206800596119611A6110BD00100140000C01404E
:1020780008B5024B1889FFF79DFF08BD34070020FB
:102088002DE9F84F06460D468E4B9B8841F66312A4
:10209800934245D045F21052934200F0C780DFF8D2
:1020A80024B2BBF80A00FFF785FF874C4FF4807A0B
:1020B800C4F810A04FF400776761330ADFF80C9278
:1020C800C9F80C304FF08008C4F81480C4F81080A8
:1020D8002761C4F810A06761F6B2C9F80C60C4F8AB
:1020E8001480C4F810802761BBF80C00FFF762FF6A
:1020F800C4F810A067612B0AC9F80C30C4F8148022
:10210800C4F810802761C4F810A06761EDB2C9F85F
:102118000C50C4F81480C4F810802761BDE8F88F0B
:10212800684B9B79002B54D1664B1C88241AA4B2A7
:10213800013CA4B25889FFF73DFF634B4FF480760A
:102148001E614FF400725A6160480027C760802101
:10215800596119611A611E615A61C7605961196133
:102168001A611E615A61270AC760596119611A61AB
:102178001E615A61E4B2C460596119611A61514F14
:10218800B889FFF717FF504B4FF480761E614FF464
:1021980000725A61290A4D4CE16080215961196128
:1021A8001A611E615A61EDB2E560596119611A61DF
:1021B8001E615A61788801380512E5605961196114
:1021C8001A611E615A61C0B2E060596119611A61F1
:1021D800A4E7DFF8F080B8F80A00FFF7EBFE3A4B07
:1021E8004FF480771F614FF400725A61310A374CFF
:1021F800E1608021596119611A611F615A61F6B263
:10220800E660596119611A611F615A61B8F80000E6
:1022180001380612E660596119611A611F615A6135
:10222800C0B2E060596119611A61A8E7DFF894B09B
:10223800BBF80A00FFF7BEFE234C4FF4807AC4F8BF
:1022480010A04FF400776761330ADFF88090C9F86F
:102258000C304FF08008C4F81480C4F8108027614F
:10226800BBF80A00013080B2FFF7A4FEC4F810A042
:102278006761F6B2C9F80C60C4F81480C4F810801D
:102288002761BBF80C00FFF795FEC4F810A0676142
:102298002B0AC9F80C30C4F81480C4F810802761E0
:1022A800BBF80C00013080B2FFF784FEC4F810A020
:1022B8006761EDB2C9F80C50C4F81480C4F81080F6
:1022C80027612BE73407002000100140000C014073
:1022D8002DE9F0476A4B9B79012B10D02BB9684B3D
:1022E8009A8841F663139A420FD00138062800F203
:1022F800B880DFE800F0A8A6A4A2A09E1600604A55
:10230800918841F663129142E8D00728EDD8DFE8BA
:1023180000F0A6A4A0A206049E9C002402E080244B
:1023280000E0E024564B9B8845F21052934200F09F
:102338009A80362049F24132934203D047F289729B
:10234800934201D144F008042146FFF77BFE4C4B31
:102358009B8841F6631293420BD014F0200F00F0D3
:102368008580474A11885288914202D244480280A7
:10237800418045F21052934200F08880DFF80091C6
:10238800B9F80A00FFF716FE3E4C4FF48078C4F8FF
:1023980010804FF4007565613B4F4FF0000AC7F895
:1023A8000CA08026666126612561C4F810806561ED
:1023B800C7F80CA0666126612561C4F810806561C4
:1023C800B9F80030013B1A12FA606661266125618E
:1023D800C4F810806561DBB2FB6066612661256127
:1023E800B9F80C00FFF7E6FDC4F810806561C7F87E
:1023F8000CA0666126612561C4F810806561C7F884
:102408000CA0666126612561C4F810806561B9F881
:102418000230013B1A12FA60666126612561C4F830
:1024280010806561DBB2FB60666126612561BDE8ED
:10243800F087A02476E7602474E7202472E7C0249C
:1024480070E740246EE780246CE740246AE7C024E4
:1024580068E7202466E7602464E7E02462E7A024B4
:1024680060E700245EE74FF4585063E7044A118898
:10247800528891427FF67DAF01480280418078E71B
:102488003407002000100140000C01403D4F7889BE
:10249800FFF790FD3C4C4FF48079C4F810904FF44E
:1024A80000756561DFF8E4804FF0000AC8F80CA0F9
:1024B80080266661266125617889013080B2FFF740
:1024C80079FDC4F810906561C8F80CA066612661B2
:1024D80025617889023080B2FFF76CFDC4F810904E
:1024E80065613B88013B1B12C8F80C3066612661A8
:1024F80025617889033080B2FFF75CFDC4F810903D
:1025080065613B88013BDBB2C8F80C306661266127
:102518002561B889FFF74EFDC4F810906561C8F8C9
:102528000CA0666126612561B889013080B2FFF789
:1025380041FDC4F810906561C8F80CA06661266179
:102548002561B889023080B2FFF734FDC4F81090D5
:1025580065617B88013B1B12C8F80C3066612661F7
:102568002561B889033080B2FFF724FDC4F81090C4
:1025780065617B88013BDBB2C8F80C306661266177
:10258800256154E73407002000100140000C014089
:1025980008B5FFF775FDFFF76BFD084B4FF4807228
:1025A8001A614FF400725A61054908880549C860E4
:1025B8008021596119611A6108BD00BF00100140EE
:1025C80032070020000C01402DE9F04F83B005468A
:1025D8000E460192904B9B8845F21052934200F0B0
:1025E8008E8041F66312934240F0D5808A4B9B79E6
:1025F8002BB9894B1B881B1A9BB2013B9DB2DFF894
:102608001892B9F80A00FFF7D5FC844C4FF4807B88
:10261800C4F810B04FF4007767612B0ADFF800A206
:10262800CAF80C304FF08008C4F81480C4F8108041
:102638002761C4F810B06761EDB2CAF80C50C4F84D
:102648001480C4F810802761C4F810B06761CAF814
:102658000C30C4F81480C4F810802761C4F810B096
:102668006761CAF80C50C4F81480C4F81080276158
:10267800B9F80C00FFF79EFCC4F810B06761330A84
:10268800CAF80C30C4F81480C4F810802761C4F864
:1026980010B06761F6B2CAF80C60C4F81480C4F8C8
:1026A80010802761C4F810B06761CAF80C30C4F80C
:1026B8001480C4F810802761C4F810B06761CAF8A4
:1026C8000C60C4F81480C4F810802761534B4FF491
:1026D80080745C614FF400725A614F49098950480F
:1026E800C1608021596119611A611C615A61019C9C
:1026F800C460596119611A6103B0BDE8F08FDFF851
:1027080018B1BBF80A00FFF755FC444C4FF4807A27
:10271800C4F810A04FF4007767612B0ADFF8009126
:10272800C9F80C304FF08008C4F81480C4F8108041
:102738002761BBF80A00013080B2FFF73BFCC4F800
:1027480010A06761EDB2C9F80C50C4F81480C4F841
:1027580010802761BBF80C00FFF72CFCC4F810A010
:102768006761330AC9F80C30C4F81480C4F81080C3
:102778002761BBF80C00013080B2FFF71BFCC4F8DE
:1027880010A06761F6B2C9F80C60C4F81480C4F8E8
:10279800108027619AE7DFF88090B9F80A00FFF700
:1027A80009FC1E4C4FF4807BC4F810B04FF400773E
:1027B80067612B0ADFF868A0CAF80C304FF0800870
:1027C800C4F81480C4F810802761C4F810B0676199
:1027D800EDB2CAF80C50C4F81480C4F81080276110
:1027E800B9F80C00FFF7E6FBC4F810B06761330ACC
:1027F800CAF80C30C4F81480C4F810802761C4F8F3
:1028080010B06761F6B2CAF80C60C4F81480C4F856
:10281800108027615AE700BF3407002000100140EC
:10282800000C0140000000002DE9F8438146BE205D
:10283800FFF7C0FB224C4FF48078C4F810804FF4A7
:10284800007565611F4F0523FB6080266661266160
:102858002561C4F8108065614846FDF733FE16A36C
:10286800D3E90023FEF7F6F9FDF71EFFF86066616D
:1028780026612561C4F8108065610123FB606661EB
:1028880026612561C4F810806561FF23FB606661DD
:1028980026612561C4F8108065610023FB606661CC
:1028A80026612561C4F810806561FB606661266158
:1028B8002561BDE8F88300BF666666666666044003
:1028C80000100140000C014008B5444B98710028E5
:1028D80043D1F0221A804FF4A0725A809B8845F2A7
:1028E8001052934212D041F6631293421FD03B4AD2
:1028F8002C2111812A2151812B21918145F21032FD
:10290800934222D00020FFF7E3FC08BD334A4FF47E
:10291800305111814FF4285151814FF42C5191813C
:102928004FF4F07111804FF448715180E6E72B4A5B
:102938002C2111812B2151812A2191814FF4F07191
:1029480011804FF448715180D8E7244B4FF4A0729E
:102958001A804FF4F0725A80D4E7204B4FF4A072DB
:102968001A80F0225A809B8845F21052934216D062
:1029780041F66312934223D0184A2C2111812A214F
:1029880051812B21918145F210329342BAD1134BD8
:102998004FF4F0721A804FF4A0725A80B2E70F4ACF
:1029A8004FF4305111814FF4285151814FF42C517B
:1029B80091814FF4487111804FF4F0715180E2E732
:1029C800064A2C2111812A2151812B2191814FF412
:1029D800487111804FF4F0715180D4E7340700201A
:1029E80070B506460E4B1A885D8802FB05F5002176
:1029F8000846FFF745FBFFF73BFB00220DE0094BBC
:102A08004FF4807119614FF400715961064CE6600A
:102A180080245C611C6119610132AA42EFD370BD48
:102A28003407002000100140000C01402DE9F04F50
:102A380087B07D4B9A6942F008029A619A6902F060
:102A480008020092009A9A6942F010029A619B6902
:102A580003F010030193019B4FF4F86302930124E0
:102A6800039404940323059302A9704804F0C0FC5E
:102A78004FF6FF73029302A96D4804F0B9FC6D4A42
:102A8800536823F0E06343F0806353603220FEF71D
:102A980073FE21460020FFF7D5FA3220FEF76CFEC0
:102AA800D320FFF787FAFFF7A9FA634CA080FFF756
:102AB800A5FAA080FFF7A2FAA0800002A080FFF785
:102AC8009DFAA388184380B2A08049F24133984206
:102AD8002CD1594CA188594805F030FBA38849F2FC
:102AE8004132934200F0AE8047F28972934200F07F
:102AF800BE8145F21032934200F08C8245F21052AA
:102B0800934201F0008241F66312934202F0798108
:102B18000020FFF7D9FE4A4B0122C3F8A8214FF63F
:102B2800FF70FFF75DFF07B0BDE8F08F0420FFF7E7
:102B380041FAFFF763FAA080FFF760FAA080FFF779
:102B48005DFAA0800002A080FFF758FAA388184316
:102B580080B2A08048F2525398425DD0364B9A8892
:102B680047F289739A42B4D0D420FFF723FAFFF7CB
:102B780045FA314CA080FFF741FAA080FFF73EFAF2
:102B8800A0800002A080FFF739FAA388184380B21A
:102B9800A08045F2103398429BD04FF45A40FFF77B
:102BA80009FAFFF72BFAA0804FF45B40FFF702FA0F
:102BB800FFF724FAA0800002A0804FF45C40FFF7E2
:102BC800F9F9FFF71BFAA388184380B2A080B0F583
:102BD800004F25D0184B9A8845F210539A423FF47B
:102BE80078AFA120FFF7E6F9FFF708FA124CA080AA
:102BF800FFF704FAA0800002A080FFF7FFF9A3887E
:102C080003439BB2A38045F2617293427FF461AFA4
:102C180041F66312A2805CE747F28972A2809DE7C1
:102C280045F21052A280D5E7001002400010014082
:102C3800000C014000000140340700205CCD000872
:102C480000002242CF20FFF7B5F90020FFF7C4F9B2
:102C5800C120FFF7C1F93020FFF7BEF9ED20FFF7DB
:102C6800A9F96420FFF7B8F90320FFF7B5F9122096
:102C7800FFF7B2F98120FFF7AFF9E820FFF79AF9DB
:102C88008520FFF7A9F91020FFF7A6F97A20FFF7AA
:102C9800A3F9CB20FFF78EF93920FFF79DF92C20F7
:102CA800FFF79AF90020FFF797F93420FFF794F916
:102CB8000220FFF791F9F720FFF77CF92020FFF7B2
:102CC8008BF9EA20FFF776F90020FFF785F9002055
:102CD800FFF782F9C020FFF76DF91B20FFF77CF999
:102CE800C120FFF767F90120FFF776F9C520FFF744
:102CF80061F93020FFF770F93020FFF76DF9C72030
:102D0800FFF758F9B720FFF767F93620FFF752F9B0
:102D18004820FFF761F93A20FFF74CF95520FFF7F3
:102D28005BF9B120FFF746F90020FFF755F91A20A3
:102D3800FFF752F9B620FFF73DF90A20FFF74CF9E3
:102D4800A220FFF749F9F220FFF734F90020FFF736
:102D580043F92620FFF72EF90120FFF73DF9E0207F
:102D6800FFF728F90F20FFF737F92A20FFF734F982
:102D78002820FFF731F90820FFF72EF90E20FFF77A
:102D88002BF90820FFF728F95420FFF725F9A92087
:102D9800FFF722F94320FFF71FF90A20FFF71CF974
:102DA8000F20FFF719F90020FFF716F90020FFF7A9
:102DB80013F90020FFF710F90020FFF70DF9E120C3
:102DC800FFF7F8F80020FFF707F91520FFF704F9D7
:102DD8001720FFF701F90720FFF7FEF81120FFF78A
:102DE800FBF80620FFF7F8F82B20FFF7F5F8562038
:102DF800FFF7F2F83C20FFF7EFF80520FFF7ECF8B3
:102E08001020FFF7E9F80F20FFF7E6F83F20FFF75B
:102E1800E3F83F20FFF7E0F80F20FFF7DDF82B205D
:102E2800FFF7C8F80020FFF7D7F80020FFF7D4F81D
:102E38000120FFF7D1F83F20FFF7CEF82A20FFF74F
:102E4800B9F80020FFF7C8F80020FFF7C5F8002000
:102E5800FFF7C2F8EF20FFF7BFF81120FFF7AAF835
:102E68007820FEF789FC2920FFF7A4F850E6112006
:102E7800FFF7A0F87820FEF77FFC3620FFF79AF8D6
:102E88000020FFF7A9F83A20FFF794F80520FFF78C
:102E9800A3F8B220FFF78EF80C20FFF79DF80C205E
:102EA800FFF79AF80020FFF797F83320FFF794F818
:102EB8003320FFF791F8B720FFF77CF83520FFF7AC
:102EC8008BF8BB20FFF776F83220FFF785F8C02093
:102ED800FFF770F80C20FFF77FF8C220FFF76AF8B9
:102EE8000120FFF779F8C320FFF764F81020FFF7F7
:102EF80073F8C420FFF75EF82020FFF76DF8C620AE
:102F0800FFF758F80F20FFF767F8D020FFF752F8BF
:102F1800A420FFF761F8A120FFF75EF8E020FFF793
:102F280049F8D020FFF758F80020FFF755F802209D
:102F3800FFF752F80720FFF74FF80A20FFF74CF881
:102F48002820FFF749F83220FFF746F84420FFF71A
:102F580043F84220FFF740F80620FFF73DF80E201F
:102F6800FFF73AF81220FFF737F81420FFF734F884
:102F78001720FFF731F8E120FFF71CF8D020FFF702
:102F88002BF80020FFF728F80220FFF725F8072084
:102F9800FFF722F80A20FFF71FF82820FFF71CF890
:102FA8003120FFF719F85420FFF716F84720FFF7EC
:102FB80013F80E20FFF710F81C20FFF70DF8172064
:102FC800FFF70AF81B20FFF707F81E20FFF704F8A1
:102FD8002A20FEF7EFFF0020FEF7FEFF0020FEF795
:102FE800FBFF0020FEF7F8FFEF20FEF7F5FF2B2090
:102FF800FEF7E0FF0020FEF7EFFF0020FEF7ECFFF2
:103008000120FEF7E9FF3F20FEF7E6FF2920FEF743
:10301800D1FF7DE5ED20FEF7CDFF0120FEF7DCFFB7
:10302800FE20FEF7D9FFEE20FEF7C4FFDE20FEF7F4
:10303800D3FF2120FEF7D0FFF120FEF7BBFF0120D0
:10304800FEF7CAFFDF20FEF7B5FF1020FEF7C4FF2A
:10305800C420FEF7AFFF8F20FEF7BEFFC620FEF7A5
:10306800A9FF0020FEF7B8FFE220FEF7B5FFE22037
:10307800FEF7B2FFE220FEF7AFFFBF20FEF79AFF90
:10308800AA20FEF7A9FFB020FEF794FF0D20FEF757
:10309800A3FF0020FEF7A0FF0D20FEF79DFF0020F4
:1030A800FEF79AFF1120FEF797FF0020FEF794FF26
:1030B8001920FEF791FF0020FEF78EFF2120FEF772
:1030C8008BFF0020FEF788FF2D20FEF785FF0020EC
:1030D800FEF782FF3D20FEF77FFF0020FEF77CFF12
:1030E8005D20FEF779FF0020FEF776FF5D20FEF7F2
:1030F80073FF0020FEF770FFB120FEF75BFF802012
:10310800FEF76AFF0020FEF767FF8B20FEF764FFDB
:103118000020FEF761FF9620FEF75EFF0020FEF715
:103128005BFFB220FEF746FF0020FEF755FF0020A8
:10313800FEF752FF0220FEF74FFF0020FEF74CFF7C
:103148000320FEF749FF0020FEF746FFB320FEF7F5
:1031580031FF0020FEF740FF0020FEF73DFF002072
:10316800FEF73AFF0020FEF737FF0020FEF734FF96
:103178000020FEF731FF0020FEF72EFF0020FEF7AB
:103188002BFF0020FEF728FF0020FEF725FF002078
:10319800FEF722FF0020FEF71FFF0020FEF71CFFAE
:1031A8000020FEF719FF0020FEF716FF0020FEF7AB
:1031B80013FF0020FEF710FF0020FEF70DFF002090
:1031C800FEF70AFF0020FEF707FF0020FEF704FFC6
:1031D8000020FEF701FF0020FEF7FEFE0020FEF7AC
:1031E800FBFEB420FEF7E6FE8B20FEF7F5FE00207E
:1031F800FEF7F2FE9620FEF7EFFE0020FEF7ECFE4B
:10320800A120FEF7E9FE0020FEF7E6FEB520FEF756
:10321800D1FE0220FEF7E0FE0020FEF7DDFE0320CF
:10322800FEF7DAFE0020FEF7D7FE0420FEF7D4FEF4
:103238000020FEF7D1FEB620FEF7BCFE0020FEF708
:10324800CBFE0020FEF7C8FEB720FEF7B3FE002035
:10325800FEF7C2FE0020FEF7BFFE3F20FEF7BCFED1
:103268000020FEF7B9FE5E20FEF7B6FE0020FEF74E
:10327800B3FE6420FEF7B0FE0020FEF7ADFE8C2002
:10328800FEF7AAFE0020FEF7A7FEAC20FEF7A4FE7C
:103298000020FEF7A1FEDC20FEF79EFE0020FEF7D0
:1032A8009BFE7020FEF798FE0020FEF795FE90200A
:1032B800FEF792FE0020FEF78FFEEB20FEF78CFE55
:1032C8000020FEF789FEDC20FEF786FE0020FEF7D0
:1032D80083FEB820FEF76EFE0020FEF77DFE00207C
:1032E800FEF77AFE0020FEF777FE0020FEF774FE58
:1032F8000020FEF771FE0020FEF76EFE0020FEF7AC
:103308006BFE0020FEF768FEBA20FEF753FE24206D
:10331800FEF762FE0020FEF75FFE0020FEF75CFE6F
:103328000020FEF759FEC120FEF744FE2020FEF7DC
:1033380053FE0020FEF750FE5420FEF74DFE0020FD
:10334800FEF74AFEFF20FEF747FE0020FEF744FE88
:10335800C220FEF72FFE0A20FEF73EFE0020FEF7F1
:103368003BFE0420FEF738FE0020FEF735FEC320A2
:10337800FEF720FE3C20FEF72FFE0020FEF72CFE75
:103388003A20FEF729FE0020FEF726FE3920FEF738
:1033980023FE0020FEF720FE3720FEF71DFE00204A
:1033A800FEF71AFE3C20FEF717FE0020FEF714FE7B
:1033B8003620FEF711FE0020FEF70EFE3220FEF743
:1033C8000BFE0020FEF708FE2F20FEF705FE00206A
:1033D800FEF702FE2C20FEF7FFFD0020FEF7FCFDA5
:1033E8002920FEF7F9FD0020FEF7F6FD2620FEF75E
:1033F800F3FD0020FEF7F0FD2420FEF7EDFD002090
:10340800FEF7EAFD2420FEF7E7FD0020FEF7E4FDC5
:103418002320FEF7E1FD0020FEF7DEFD3C20FEF74D
:10342800DBFD0020FEF7D8FD3620FEF7D5FD002095
:10343800FEF7D2FD3220FEF7CFFD0020FEF7CCFDCF
:103448002F20FEF7C9FD0020FEF7C6FD2C20FEF751
:10345800C3FD0020FEF7C0FD2920FEF7BDFD0020BA
:10346800FEF7BAFD2620FEF7B7FD0020FEF7B4FDF3
:103478002420FEF7B1FD0020FEF7AEFD2420FEF764
:10348800ABFD0020FEF7A8FD2320FEF7A5FD0020D8
:10349800FEF7A2FDC420FEF78DFD6220FEF79CFD1D
:1034A8000020FEF799FD0520FEF796FD0020FEF7A7
:1034B80093FD8420FEF790FD0020FEF78DFDF0209F
:1034C800FEF78AFD0020FEF787FD1820FEF784FD31
:1034D8000020FEF781FDA420FEF77EFD0020FEF708
:1034E8007BFD1820FEF778FD0020FEF775FD5020C3
:1034F800FEF772FD0020FEF76FFD0C20FEF76CFD55
:103508000020FEF769FD1720FEF766FD0020FEF794
:1035180063FD9520FEF760FD0020FEF75DFDF320BA
:10352800FEF75AFD0020FEF757FDE620FEF754FD92
:103538000020FEF751FDC520FEF73CFD3220FEF7C6
:103548004BFD0020FEF748FD4420FEF745FD002016
:10355800FEF742FD6520FEF73FFD0020FEF73CFD2B
:103568007620FEF739FD0020FEF736FD8820FEF7AD
:1035780033FD0020FEF730FDC620FEF71BFD20209E
:10358800FEF72AFD0020FEF727FD1720FEF724FD91
:103598000020FEF721FD0120FEF71EFD0020FEF7AA
:1035A8001BFDC720FEF706FD0020FEF715FD0020D5
:1035B800FEF712FD0020FEF70FFD0020FEF70CFDC0
:1035C800C820FEF7F7FC0020FEF706FD0020FEF7F6
:1035D80003FD0020FEF700FD0020FEF7FDFCC920DA
:1035E800FEF7E8FC0020FEF7F7FC0020FEF7F4FCED
:1035F8000020FEF7F1FC0020FEF7EEFC0020FEF7AD
:10360800EBFC0020FEF7E8FC0020FEF7E5FC0020BC
:10361800FEF7E2FC0020FEF7DFFC0020FEF7DCFCF2
:103628000020FEF7D9FC0020FEF7D6FC0020FEF7AC
:10363800D3FC0020FEF7D0FC0020FEF7CDFC0020D4
:10364800FEF7CAFCE020FEF7B5FC1620FEF7C4FC26
:103658000020FEF7C1FC1C20FEF7BEFC0020FEF790
:10366800BBFC2120FEF7B8FC0020FEF7B5FC362095
:10367800FEF7B2FC0020FEF7AFFC4620FEF7ACFCDC
:103688000020FEF7A9FC5220FEF7A6FC0020FEF75A
:10369800A3FC6420FEF7A0FC0020FEF79DFC7A2026
:1036A800FEF79AFC0020FEF797FC8B20FEF794FCAF
:1036B8000020FEF791FC9920FEF78EFC0020FEF713
:1036C8008BFCA820FEF788FC0020FEF785FCB920BB
:1036D800FEF782FC0020FEF77FFCC420FEF77CFC8E
:1036E8000020FEF779FCCA20FEF776FC0020FEF7E2
:1036F80073FCD220FEF770FC0020FEF76DFCD92089
:10370800FEF76AFC0020FEF767FCE020FEF764FC89
:103718000020FEF761FCF320FEF75EFC0020FEF7B8
:103728005BFCE120FEF746FC1620FEF755FC002066
:10373800FEF752FC1C20FEF74FFC0020FEF74CFC65
:103748002220FEF749FC0020FEF746FC3620FEF753
:1037580043FC0020FEF740FC4520FEF73DFC00201E
:10376800FEF73AFC5220FEF737FC0020FEF734FC47
:103778006420FEF731FC0020FEF72EFC7A20FEF7CD
:103788002BFC0020FEF728FC8B20FEF725FC0020F0
:10379800FEF722FC9920FEF71FFC0020FEF71CFC18
:1037A800A820FEF719FC0020FEF716FCB920FEF74A
:1037B80013FC0020FEF710FCC420FEF70DFC0020CF
:1037C800FEF70AFCCA20FEF707FC0020FEF704FCFF
:1037D800D220FEF701FC0020FEF7FEFBD820FEF702
:1037E800FBFB0020FEF7F8FBE020FEF7F5FB0020CE
:1037F800FEF7F2FBF320FEF7EFFB0020FEF7ECFBF1
:10380800E220FEF7D7FB0520FEF7E6FB0020FEF7D7
:10381800E3FB0B20FEF7E0FB0020FEF7DDFB1B209F
:10382800FEF7DAFB0020FEF7D7FB3420FEF7D4FBC7
:103838000020FEF7D1FB4420FEF7CEFB0020FEF768
:10384800CBFB4F20FEF7C8FB0020FEF7C5FB61202D
:10385800FEF7C2FB0020FEF7BFFB7920FEF7BCFB9A
:103868000020FEF7B9FB8820FEF7B6FB0020FEF724
:10387800B3FB9720FEF7B0FB0020FEF7ADFBA620B8
:10388800FEF7AAFB0020FEF7A7FBB720FEF7A4FB74
:103898000020FEF7A1FBC220FEF79EFB0020FEF7EA
:1038A8009BFBC720FEF798FB0020FEF795FBD12075
:1038B800FEF792FB0020FEF78FFBD620FEF78CFB6D
:1038C8000020FEF789FBDD20FEF786FB0020FEF7CF
:1038D80083FBF320FEF780FB0020FEF77DFBE3204F
:1038E800FEF768FB0520FEF777FB0020FEF774FB68
:1038F8000A20FEF771FB0020FEF76EFB1C20FEF786
:103908006BFB0020FEF768FB3320FEF765FB002009
:10391800FEF762FB4420FEF75FFB0020FEF75CFB2E
:103928005020FEF759FB0020FEF756FB6220FEF7F9
:1039380053FB0020FEF750FB7820FEF74DFB0020DC
:10394800FEF74AFB8820FEF747FB0020FEF744FB02
:103958009720FEF741FB0020FEF73EFBA620FEF76E
:103968003BFB0020FEF738FBB720FEF735FB0020B5
:10397800FEF732FBC220FEF72FFB0020FEF72CFBE0
:10398800C720FEF729FB0020FEF726FBD120FEF713
:1039980023FB0020FEF720FBD520FEF71DFB0020AF
:1039A800FEF71AFBDD20FEF717FB0020FEF714FBDD
:1039B800F320FEF711FB0020FEF70EFBE420FEF7D4
:1039C800F9FA0120FEF708FB0020FEF705FB0120AD
:1039D800FEF702FB0020FEF7FFFA0220FEF7FCFAD2
:1039E8000020FEF7F9FA2A20FEF7F6FA0020FEF783
:1039F800F3FA3C20FEF7F0FA0020FEF7EDFA4B2030
:103A0800FEF7EAFA0020FEF7E7FA5D20FEF7E4FA8F
:103A18000020FEF7E1FA7420FEF7DEFA0020FEF738
:103A2800DBFA8420FEF7D8FA0020FEF7D5FA9320B7
:103A3800FEF7D2FA0020FEF7CFFAA220FEF7CCFA62
:103A48000020FEF7C9FAB320FEF7C6FA0020FEF7F9
:103A5800C3FABE20FEF7C0FA0020FEF7BDFAC42064
:103A6800FEF7BAFA0020FEF7B7FACD20FEF7B4FA4F
:103A78000020FEF7B1FAD320FEF7AEFA0020FEF7D9
:103A8800ABFADD20FEF7A8FA0020FEF7A5FAF3202E
:103A9800FEF7A2FA0020FEF79FFAE520FEF78AFA61
:103AA8000020FEF799FA0020FEF796FA0020FEF7AC
:103AB80093FA0020FEF790FA0220FEF78DFA002014
:103AC800FEF78AFA2920FEF787FA0020FEF784FA23
:103AD8003C20FEF781FA0020FEF77EFA4B20FEF725
:103AE8007BFA0020FEF778FA5D20FEF775FA0020D1
:103AF800FEF772FA7420FEF76FFA0020FEF76CFAF0
:103B08008420FEF769FA0020FEF766FA9320FEF794
:103B180063FA0020FEF760FAA220FEF75DFA0020A3
:103B2800FEF75AFAB320FEF757FA0020FEF754FAC8
:103B3800BE20FEF751FA0020FEF74EFAC420FEF729
:103B48004BFA0020FEF748FACD20FEF745FA002090
:103B5800FEF742FAD320FEF73FFA0020FEF73CFAC0
:103B6800DC20FEF739FA0020FEF736FAF320FEF7DC
:103B780033FA0020FEF730FAE620FEF71BFA112090
:103B8800FEF72AFA0020FEF727FA3420FEF724FA77
:103B98000020FEF721FA5620FEF71EFA0020FEF755
:103BA8001BFA7620FEF718FA0020FEF715FA7720A0
:103BB800FEF712FA0020FEF70FFA6620FEF70CFA5D
:103BC8000020FEF709FA8820FEF706FA0020FEF723
:103BD80003FA9920FEF700FA0020FEF7FDF9BB2052
:103BE800FEF7FAF90020FEF7F7F99920FEF7F4F945
:103BF8000020FEF7F1F96620FEF7EEF90020FEF747
:103C0800EBF95520FEF7E8F90020FEF7E5F9552015
:103C1800FEF7E2F90020FEF7DFF94520FEF7DCF9B0
:103C28000020FEF7D9F94320FEF7D6F90020FEF769
:103C3800D3F94420FEF7D0F90020FEF7CDF9E720AC
:103C4800FEF7B8F93220FEF7C7F90020FEF7C4F9ED
:103C58005520FEF7C1F90020FEF7BEF97620FEF7E1
:103C6800BBF90020FEF7B8F96620FEF7B5F9002089
:103C7800FEF7B2F96720FEF7AFF90020FEF7ACF9BE
:103C88006720FEF7A9F90020FEF7A6F98720FEF7BE
:103C9800A3F90020FEF7A0F99920FEF79DF900206E
:103CA800FEF79AF9BB20FEF797F90020FEF794F982
:103CB8009920FEF791F90020FEF78EF97720FEF79C
:103CC8008BF90020FEF788F94420FEF785F90020DB
:103CD800FEF782F95620FEF77FF90020FEF77CF9FF
:103CE8002320FEF779F90020FEF776F93320FEF756
:103CF80073F90020FEF770F94520FEF76DF90020F2
:103D0800FEF76AF9E820FEF755F90020FEF764F996
:103D18000020FEF761F99920FEF75EF90020FEF712
:103D28005BF98720FEF758F90020FEF755F988203F
:103D3800FEF752F90020FEF74FF97720FEF74CF90D
:103D48000020FEF749F96620FEF746F90020FEF745
:103D580043F98820FEF740F90020FEF73DF9AA2034
:103D6800FEF73AF90020FEF737F9BB20FEF734F9E1
:103D78000020FEF731F99920FEF72EF90020FEF712
:103D88002BF96620FEF728F90020FEF725F95520C3
:103D9800FEF722F90020FEF71FF95520FEF71CF95F
:103DA8000020FEF719F94420FEF716F90020FEF767
:103DB80013F94420FEF710F90020FEF70DF95520FD
:103DC800FEF70AF90020FEF707F9E920FEF7F2F8F6
:103DD800AA20FEF701F90020FEF7FEF80020FEF702
:103DE800FBF80020FEF7F8F80020FEF7E3F8AA2019
:103DF800FEF7F2F8CF20FEF7DDF80020FEF7ECF82A
:103E08000020FEF7E9F80020FEF7E6F80020FEF7AC
:103E1800E3F80020FEF7E0F80020FEF7DDF80020C8
:103E2800FEF7DAF80020FEF7D7F80020FEF7D4F8FE
:103E38000020FEF7D1F80020FEF7CEF80020FEF7AC
:103E4800CBF80020FEF7C8F80020FEF7C5F80020E0
:103E5800FEF7C2F80020FEF7BFF80020FEF7BCF816
:103E6800F020FEF7A7F80020FEF7B6F85020FEF77E
:103E7800B3F80020FEF7B0F80020FEF7ADF80020F8
:103E8800FEF7AAF8F320FEF795F80020FEF7A4F84D
:103E9800F920FEF78FF80620FEF79EF81020FEF7AF
:103EA8009BF82920FEF798F80020FEF795F83A20AD
:103EB800FEF780F85520FEF78FF81120FEF77AF804
:103EC8006420FDF759FC2920FEF774F83520FEF729
:103ED80071F80020FEF780F85120FEF76BF8FF20FC
:103EE800FEF77AF85320FEF765F82C20FEF774F8F1
:103EF8005520FEF75FF88220FEF76EF82C20FEF7BB
:103F080059F8FEF705BE55214FF47040FEF79AF8B0
:103F1800AA214FF20100FEF795F852214FF2020054
:103F2800FEF790F808214FF20300FEF78BF8012105
:103F38004FF20400FEF786F80D214FF43040FEF7EB
:103F480081F80D214BF20100FEF77CF80D214BF2B0
:103F58000200FEF777F834214FF43640FEF772F886
:103F680034214BF20160FEF76DF834214BF2026008
:103F7800FEF768F80D214FF43140FEF763F80D2184
:103F88004BF20110FEF75EF80D214BF20210FEF71E
:103F980059F834214FF43740FEF754F834214BF2E6
:103FA8000170FEF74FF834214BF20270FEF74AF821
:103FB80000214FF43240FEF745F800214BF2012072
:103FC800FEF740F800214BF20220FEF73BF82421CF
:103FD8004FF43840FEF736F824214BF60100FEF77F
:103FE80031F824214BF60200FEF72CF801214FF49A
:103FF8003F40FEF727F80F214FF43340FEF722F831
:104008000F214BF20130FEF71DF80F214BF2023061
:10401800FEF718F834214FF43940FEF713F834212D
:104028004BF60110FEF70EF834214BF60210FEF79E
:1040380009F808214FF43540FEF704F808214BF23F
:104048000150FDF7FFFF08214BF20250FDF7FAFF80
:1040580003214FF44240FDF7F5FF24214FF43A4085
:10406800FDF7F0FF24214BF60120FDF7EBFF24219B
:104078004BF60220FDF7E6FF00214FF43C40FDF728
:10408800E1FF78214BF60140FDF7DCFF00214BF6FC
:104098000240FDF7D7FF00214FF43D40FDF7D2FF66
:1040A80078214BF60150FDF7CDFF00214BF6025069
:1040B800FDF7C8FF00214FF43E40FDF7C3FF642120
:1040C8004BF60160FDF7BEFF00214FF45140FDF7AC
:1040D800B9FF33214DF20110FDF7B4FF00214DF275
:1040E8000210FDF7AFFF34214DF20310FDF7AAFFD0
:1040F80000214DF20410FDF7A5FF3A214DF20510FD
:10410800FDF7A0FF00214DF20610FDF79BFF4A21A5
:104118004DF20710FDF796FF00214DF20810FDF74C
:1041280091FF5C214DF20910FDF78CFF00214DF243
:104138000A10FDF787FF81214DF20B10FDF782FF72
:1041480000214DF20C10FDF77DFFA6214DF20D1058
:10415800FDF778FF00214DF20E10FDF773FFE52102
:104168004DF20F10FDF76EFF01214DF21010FDF713
:1041780069FF13214DF21110FDF764FF01214DF283
:104188001210FDF75FFF54214DF21310FDF75AFF8F
:1041980001214DF21410FDF755FF82214DF2151043
:1041A800FDF750FF01214DF21610FDF74BFFCA2114
:1041B8004DF21710FDF746FF02214DF21810FDF7DA
:1041C80041FF00214DF21910FDF73CFF02214DF28D
:1041D8001A10FDF737FF01214DF21B10FDF732FFD2
:1041E80002214DF21C10FDF72DFF34214DF21D1058
:1041F800FDF728FF02214DF21E10FDF723FF67216E
:104208004DF21F10FDF71EFF02214DF22010FDF7A1
:1042180019FF84214DF22110FDF714FF02214DF200
:104228002210FDF70FFFA4214DF22310FDF70AFF1E
:1042380002214DF22410FDF705FFB7214DF225109C
:10424800FDF700FF02214DF22610FDF7FBFECF21FE
:104258004DF22710FDF7F6FE02214DF22810FDF76A
:10426800F1FEDE214DF22910FDF7ECFE02214DF2A0
:104278002A10FDF7E7FEF2214DF22B10FDF7E2FEC2
:1042880002214DF22C10FDF7DDFEFE214DF22D101E
:10429800FDF7D8FE03214DF22E10FDF7D3FE1021B5
:1042A8004DF22F10FDF7CEFE03214DF23010FDF731
:1042B800C9FE33214DF23110FDF7C4FE03214DF242
:1042C8003210FDF7BFFE6D214DF23310FDF7BAFE37
:1042D80000214FF45240FDF7B5FE33214DF2012085
:1042E800FDF7B0FE00214DF20220FDF7ABFE3421B0
:1042F8004DF20320FDF7A6FE00214DF20420FDF744
:10430800A1FE3A214DF20520FDF79CFE00214DF259
:104318000620FDF797FE4A214DF20720FDF792FE91
:1043280000214DF20820FDF78DFE5C214DF2092099
:10433800FDF788FE00214DF20A20FDF783FE81215A
:104348004DF20B20FDF77EFE00214DF20C20FDF70B
:1043580079FEA6214DF20D20FDF774FE00214DF2E5
:104368000E20FDF76FFEE5214DF20F20FDF76AFEE6
:1043780001214DF21020FDF765FE13214DF21120A9
:10438800FDF760FE01214DF21220FDF75BFE54217E
:104398004DF21320FDF756FE01214DF21420FDF7D2
:1043A80051FE82214DF21520FDF74CFE01214DF200
:1043B8001620FDF747FECA214DF21720FDF742FEF1
:1043C80002214DF21820FDF73DFE00214DF2192083
:1043D800FDF738FE02214DF21A20FDF733FE0121C8
:1043E8004DF21B20FDF72EFE02214DF21C20FDF799
:1043F80029FE34214DF21D20FDF724FE02214DF245
:104408001E20FDF71FFE67214DF21F20FDF71AFE43
:1044180002214DF22020FDF715FE84214DF22120C6
:10442800FDF710FE02214DF22220FDF70BFEA4211C
:104438004DF22320FDF706FE02214DF22420FDF760
:1044480001FEB7214DF22520FDF7FCFD02214DF2BA
:104458002620FDF7F7FDCF214DF22720FDF7F2FDCD
:1044680002214DF22820FDF7EDFDDE214DF2292035
:10447800FDF7E8FD02214DF22A20FDF7E3FDF221C8
:104488004DF22B20FDF7DEFD02214DF22C20FDF729
:10449800D9FDFE214DF22D20FDF7D4FD03214DF26B
:1044A8002E20FDF7CFFD10214DF22F20FDF7CAFD7C
:1044B80003214DF23020FDF7C5FD33214DF23120A7
:1044C800FDF7C0FD03214DF23220FDF7BBFD6D2144
:1044D8004DF23320FDF7B6FD00214FF45340FDF7B0
:1044E800B1FD33214DF20130FDF7ACFD00214DF255
:1044F8000230FDF7A7FD34214DF20330FDF7A2FD90
:1045080000214DF20430FDF79DFD3A214DF20530B2
:10451800FDF798FD00214DF20630FDF793FD4A2185
:104528004DF20730FDF78EFD00214DF20830FDF702
:1045380089FD5C214DF20930FDF784FD00214DF223
:104548000A30FDF77FFD81214DF20B30FDF77AFD32
:1045580000214DF20C30FDF775FDA6214DF20D300E
:10456800FDF770FD00214DF20E30FDF76BFDE521E2
:104578004DF20F30FDF766FD01214DF21030FDF7C9
:1045880061FD13214DF21130FDF75CFD01214DF263
:104598001230FDF757FD54214DF21330FDF752FD4F
:1045A80001214DF21430FDF74DFD82214DF21530F9
:1045B800FDF748FD01214DF21630FDF743FDCA21F4
:1045C8004DF21730FDF73EFD02214DF21830FDF790
:1045D80039FD00214DF21930FDF734FD02214DF26D
:1045E8001A30FDF72FFD01214DF21B30FDF72AFD92
:1045F80002214DF21C30FDF725FD34214DF21D300E
:10460800FDF720FD02214DF21E30FDF71BFD67214D
:104618004DF21F30FDF716FD02214DF22030FDF757
:1046280011FD84214DF22130FDF70CFD02214DF2E0
:104638002230FDF707FDA4214DF22330FDF702FDDE
:1046480002214DF22430FDF7FDFCB7214DF2253053
:10465800FDF7F8FC02214DF22630FDF7F3FCCF21DF
:104668004DF22730FDF7EEFC02214DF22830FDF720
:10467800E9FCDE214DF22930FDF7E4FC02214DF280
:104688002A30FDF7DFFCF2214DF22B30FDF7DAFC82
:1046980002214DF22C30FDF7D5FCFE214DF22D30D4
:1046A800FDF7D0FC03214DF22E30FDF7CBFC102195
:1046B8004DF22F30FDF7C6FC03214DF23030FDF7E7
:1046C800C1FC33214DF23130FDF7BCFC03214DF222
:1046D8003230FDF7B7FC6D214DF23330FDF7B2FCF7
:1046E80000214FF45440FDF7ADFC33214DF2014059
:1046F800FDF7A8FC00214DF20240FDF7A3FC342190
:104708004DF20340FDF79EFC00214DF20440FDF7F9
:1047180099FC3A214DF20540FDF794FC00214DF239
:104728000640FDF78FFC4A214DF20740FDF78AFC51
:1047380000214DF20840FDF785FC5C214DF209404F
:10474800FDF780FC00214DF20A40FDF77BFC81213A
:104758004DF20B40FDF776FC00214DF20C40FDF7C1
:1047680071FCA6214DF20D40FDF76CFC00214DF2C5
:104778000E40FDF767FCE5214DF20F40FDF762FCA6
:1047880001214DF21040FDF75DFC13214DF211405F
:10479800FDF758FC01214DF21240FDF753FC54215E
:1047A8004DF21340FDF74EFC01214DF21440FDF788
:1047B80049FC82214DF21540FDF744FC01214DF2E0
:1047C8001640FDF73FFCCA214DF21740FDF73AFCB1
:1047D80002214DF21840FDF735FC00214DF2194039
:1047E800FDF730FC02214DF21A40FDF72BFC0121A8
:1047F8004DF21B40FDF726FC02214DF21C40FDF74F
:1048080021FC34214DF21D40FDF71CFC02214DF224
:104818001E40FDF717FC67214DF21F40FDF712FC03
:1048280002214DF22040FDF70DFC84214DF221407C
:10483800FDF708FC02214DF22240FDF703FCA421FC
:104848004DF22340FDF7FEFB02214DF22440FDF717
:10485800F9FBB7214DF22540FDF7F4FB02214DF29B
:104868002640FDF7EFFBCF214DF22740FDF7EAFB8D
:1048780002214DF22840FDF7E5FBDE214DF22940EB
:10488800FDF7E0FB02214DF22A40FDF7DBFBF221A8
:104898004DF22B40FDF7D6FB02214DF22C40FDF7DF
:1048A800D1FBFE214DF22D40FDF7CCFB03214DF24B
:1048B8002E40FDF7C7FB10214DF22F40FDF7C2FB3C
:1048C80003214DF23040FDF7BDFB33214DF231405D
:1048D800FDF7B8FB03214DF23240FDF7B3FB6D2124
:1048E8004DF23340FDF7AEFB00214FF45540FDF784
:1048F800A9FB33214DF20150FDF7A4FB00214DF235
:104908000250FDF79FFB34214DF20350FDF79AFB4F
:1049180000214DF20450FDF795FB3A214DF2055068
:10492800FDF790FB00214DF20650FDF78BFB4A2165
:104938004DF20750FDF786FB00214DF20850FDF7B8
:1049480081FB5C214DF20950FDF77CFB00214DF203
:104958000A50FDF777FB81214DF20B50FDF772FBF2
:1049680000214DF20C50FDF76DFBA6214DF20D50C4
:10497800FDF768FB00214DF20E50FDF763FBE521C2
:104988004DF20F50FDF75EFB01214DF21050FDF77F
:1049980059FB13214DF21150FDF754FB01214DF243
:1049A8001250FDF74FFB54214DF21350FDF74AFB0F
:1049B80001214DF21450FDF745FB82214DF21550AF
:1049C800FDF740FB01214DF21650FDF73BFBCA21D4
:1049D8004DF21750FDF736FB02214DF21850FDF746
:1049E80031FB00214DF21950FDF72CFB02214DF24D
:1049F8001A50FDF727FB01214DF21B50FDF722FB52
:104A080002214DF21C50FDF71DFB34214DF21D50C3
:104A1800FDF718FB02214DF21E50FDF713FB67212D
:104A28004DF21F50FDF70EFB02214DF22050FDF70D
:104A380009FB84214DF22150FDF704FB02214DF2C0
:104A48002250FDF7FFFAA4214DF22350FDF7FAFAA0
:104A580002214DF22450FDF7F5FAB7214DF2255009
:104A6800FDF7F0FA02214DF22650FDF7EBFACF21BF
:104A78004DF22750FDF7E6FA02214DF22850FDF7D6
:104A8800E1FADE214DF22950FDF7DCFA02214DF260
:104A98002A50FDF7D7FAF2214DF22B50FDF7D2FA42
:104AA80002214DF22C50FDF7CDFAFE214DF22D508A
:104AB800FDF7C8FA03214DF22E50FDF7C3FA102175
:104AC8004DF22F50FDF7BEFA03214DF23050FDF79D
:104AD800B9FA33214DF23150FDF7B4FA03214DF202
:104AE8003250FDF7AFFA6D214DF23350FDF7AAFAB7
:104AF80000214FF45640FDF7A5FA33214DF201602D
:104B0800FDF7A0FA00214DF20260FDF79BFA34216F
:104B18004DF20360FDF796FA00214DF20460FDF7AF
:104B280091FA3A214DF20560FDF78CFA00214DF219
:104B38000660FDF787FA4A214DF20760FDF782FA11
:104B480000214DF20860FDF77DFA5C214DF2096005
:104B5800FDF778FA00214DF20A60FDF773FA81211A
:104B68004DF20B60FDF76EFA00214DF20C60FDF777
:104B780069FAA6214DF20D60FDF764FA00214DF2A5
:104B88000E60FDF75FFAE5214DF20F60FDF75AFA66
:104B980001214DF21060FDF755FA13214DF2116015
:104BA800FDF750FA01214DF21260FDF74BFA54213E
:104BB8004DF21360FDF746FA01214DF21460FDF73E
:104BC80041FA82214DF21560FDF73CFA01214DF2C0
:104BD8001660FDF737FACA214DF21760FDF732FA71
:104BE80002214DF21860FDF72DFA00214DF21960EF
:104BF800FDF728FA02214DF21A60FDF723FA012188
:104C08004DF21B60FDF71EFA02214DF21C60FDF704
:104C180019FA34214DF21D60FDF714FA02214DF204
:104C28001E60FDF70FFA67214DF21F60FDF70AFAC3
:104C380002214DF22060FDF705FA84214DF2216032
:104C4800FDF700FA02214DF22260FDF7FBF9A421DD
:104C58004DF22360FDF7F6F902214DF22460FDF7CD
:104C6800F1F9B7214DF22560FDF7ECF902214DF27B
:104C78002660FDF7E7F9CF214DF22760FDF7E2F94D
:104C880002214DF22860FDF7DDF9DE214DF22960A1
:104C9800FDF7D8F902214DF22A60FDF7D3F9F22188
:104CA8004DF22B60FDF7CEF902214DF22C60FDF795
:104CB800C9F9FE214DF22D60FDF7C4F903214DF22B
:104CC8002E60FDF7BFF910214DF22F60FDF7BAF9FC
:104CD80003214DF23060FDF7B5F933214DF2316013
:104CE800FDF7B0F903214DF23260FDF7ABF96D2104
:104CF8004DF23360FDF7A6F955214FF47040FDF7EA
:104D0800A1F9AA214FF20100FDF79CF952214FF2B7
:104D18000200FDF797F908214FF20300FDF792F919
:104D280000214FF20400FDF78DF9CC214FF43140FA
:104D3800FDF788F900214BF20110FDF783F90521F1
:104D48004FF43640FDF77EF970214FF43740FDF7F8
:104D580079F970214BF20170FDF774F901214FF4D4
:104D68003840FDF76FF903214BF60100FDF76AF9AA
:104D780003214BF60200FDF765F903214BF603000A
:104D8800FDF760F902214FF43C40FDF75BF9002183
:104D98004BF60140FDF756F900214BF60240FDF7AE
:104DA80051F9D0214FF44940FDF74CF902214CF656
:104DB8000110FDF747F950214CF60210FDF742F9B2
:104DC80050214CF60310FDF73DF950214CF6041024
:104DD800FDF738F900214FF45450FDF733F9552108
:104DE8004FF46850FDF72EF94FF48850FDF7E2F8BC
:104DF8007820FCF7A3FC4FF42450FDF7DBF8FDF70F
:104E080087BEE220FDF7D6F8AD4C4FF48078C4F8A1
:104E180010804FF400756561AA4F1D23FB60802642
:104E2800666126612561C4F8108065610223FB6014
:104E3800666126612561C4F8108065610422FA6004
:104E48006661266125616420FCF778FCE020FDF7A7
:104E5800B1F8C4F8108065614FF0010AC7F80CA0DA
:104E68006661266125610A20FCF786FCE020FDF7D3
:104E7800A1F8C4F8108065614FF0030BC7F80CB0B7
:104E88006661266125610C20FCF776FC5046FDF72B
:104E980091F80A20FCF770FCE620FDF78BF8C4F8BF
:104EA800108065612F23FB60666126612561C4F867
:104EB80010806561FF23FB60666126612561C4F887
:104EC80010806561FB60666126612561B020FDF791
:104ED80071F8C4F8108065612023FB606661266163
:104EE8002561C4F8108065614FF00009C7F80C907F
:104EF800666126612561C4F810806561C7F80CB049
:104F0800666126612561C4F81080656140F21F332F
:104F1800FB60666126612561C4F810806561C7F889
:104F28000CA0666126612561C4F81080656140F2B5
:104F3800DF13FB60666126612561C4F81080656136
:104F4800C7F80C90666126612561B420FDF732F838
:104F5800C4F8108065610422FA60666126612561E3
:104F6800C4F81080656140F21F43FB6066612661EA
:104F78002561C4F810806561C7F80C9066612661E8
:104F88002561C4F8108065612E23FB606661266187
:104F98002561C4F810806561C7F80C9066612661C8
:104FA8002561C4F810806561C7F80C9066612661B8
:104FB8002561C4F810806561C7F80C9066612661A8
:104FC8002561C4F810806561C7F80C906661266198
:104FD8002561B620FCF7EEFFC4F810806561022356
:104FE800FB60666126612561C4F8108065614FF435
:104FF8000373FB60666126612561C4F810806561F2
:10500800C7F80C90666126612561C4F81080656157
:105018001723FB60666126612561C4F8108065610D
:105028001523FB60666126612561C4F810806561FF
:10503800C7F80C90666126612561C4F81080656127
:10504800C7F80C90666126612561F020FCF7B2FF75
:10505800C4F810806561C7F80CB0666126612561E7
:105068002920FCF7A7FFD020FCF7A4FFC4F8108084
:105078006561C7F80C90666126612561BE20FCF762
:1050880099FFC4F8108065610523FB60666126619D
:105098002561C4F810806561FE23FB6066612661A6
:1050A8002561C4F810806561C7F80CA066612661A7
:1050B8002561C4F810806561C7F80C9004E000BF52
:1050C80000100140000C0140666126612561C4F8AA
:1050D80010806561C7F80C90666126612561C4F887
:1050E80010806561C7F80C90666126612561B8205B
:1050F800FCF760FFC4F810806561C7F80CB0666102
:1051080026612561C4F810806561C7F80CA0666146
:1051180026612561BA20FCF74DFFC4F8108065614F
:10512800C7F80CA06661266125616420FDF77CFB49
:10513800FDF7EEBC2DE9F04107460E469846BDF84E
:105148001850141AA4B20134A4B214E0104A4FF44F
:10515800807313614FF4007353610E49CD60802151
:105168005161116113610CF1010C1FFA8CFCA4450B
:10517800ECD30136B6B2464508D831463846FCF776
:105188007FFFFCF775FF4FF0000CF0E7BDE8F081FA
:1051980000100140000C01402DE9F04F83B080461B
:1051A800A2EB000A8946A3EB010BBAF1000F0DDD53
:1051B80001220092BBF1000F14DD01230193DA45AF
:1051C8001CDD564600252F462C461BE0BAF1000F81
:1051D80005D0A0EB020A4FF0FF320092EAE7CDF8C3
:1051E80000A0E7E7BBF1000F05D0A1EB030B4FF0E0
:1051F800FF330193E3E7CDF804B0E0E75E46E1E76B
:105208000134A4B2731C9C4212DC1FFA89F11FFA04
:1052180088F0FDF7BDF957445D44BE4202DABF1B72
:10522800009B9844AE42EBDAAD1B019B9944E7E73B
:1052380003B0BDE8F08F2DE9F04F85B080460F46EA
:1052480000925300C3F103030193002608E0009A7B
:10525800B31A9B000A33019919440191531E009314
:10526800009B9E4247DCB5B205EB080B1FFA8BFB8F
:10527800BDF800403B1B9BB2029319465846FDF708
:1052880087F904EB080A1FFA8AFA7B1B9AB2039281
:1052980011465046FDF77CF905EB07091FFA89F915
:1052A80049465046FDF774F904EB070A1FFA8AFAD3
:1052B80051465846FDF76CF9A8EB0505ADB25146C5
:1052C8002846FDF765F9A8EB0404A4B24946204630
:1052D800FDF75EF902992846FDF75AF90399204629
:1052E800FDF756F90136019A002AB0DAB300063301
:1052F8001A440192B4E705B0BDE8F08F2DE9F04FEC
:1053080083B0824688461F469DF830B013F00703E5
:1053180018BF012303EBD703790801FB03F3DBB2C2
:105328000093203AD3B2019344464FF000093FE07E
:10533800019B03EB4302294B03EB820313F809504B
:1053480047E0274B019A03EB021313F8095040E09A
:10535800244B1A8821465046FDF736F96D00EDB208
:105368000134A4B2204B5B88A34234D9A4EB0803D0
:10537800BB4210D00136F6B2072E15D815F0800FB3
:10538800E6D1BBF1000FE9D1184B1A8821465046E7
:10539800FDF71AF9E2E70AF1010A1FFA8AFA124B35
:1053A8001B88534517D9444609F101095FFA89F961
:1053B800009B99450FD20C2FBAD0102FC1D0182FAF
:1053C80009D1019B03EBC302094B03EB820313F8DA
:1053D80009500026D0E703B0BDE8F08F6CCD000877
:1053E800E0D1000832070020340700200200002026
:1053F800D0D700080246012002E002FB00F019465F
:105408004B1EDBB20029F8D1704700002DE9F047A8
:1054180082B08246894690461D469DF8286000273E
:105428003C4619E0700800FB04A0002300933346B3
:105438002022494680B2FFF761FF0BE07008303246
:1054480000FB04A0002300933346D2B2494680B241
:10545800FFF754FF0134E4B2AC421CD2291BC9B295
:105468000139C9B20A20FFF7C5FFB8FBF0F00B4BB2
:10547800A3FB003C4FEADC0C0CEB8C0CA0EB4C0CB7
:105488005FFA8CF2002FD9D16B1E9C42D6DA002A23
:10549800C8D00127D2E702B0BDE8F087CDCCCCCC8C
:1054A8002DE9F04782B082460D469DF828700B9E84
:1054B80002441FFA82F90B441FFA83F804460CE0F1
:1054C800454517D2002300933B4629462046FFF75F
:1054D80015FF04EB5704A4B201363278A2F1200379
:1054E800DBB25E2B06D84C45EAD35FFA8AF43D441A
:1054F800ADB2E5E702B0BDE8F08700002DE9F04164
:10550800074688460C4600262AE0184B1A8821468A
:105518003846FDF759F80134A4B2154B5B88A3420D
:1055280022D9A4EB0803962B11D00135EDB2952DA5
:1055380014D8962303FB06530E4AD356002BE4DBFC
:105548000D4B1A8821463846FDF73EF8E3E7013748
:10555800BFB2074B1B88BB4206D944460136F6B298
:10556800952E01D80025E2E7BDE8F081320700203A
:10557800340700202CE50008020000202DE9F04146
:1055880086B01A4B9A6942F004029A619A6902F04D
:1055980004020092009A9A6942F020029A619B697B
:1055A80003F020030193019B4FF48078CDF8088025
:1055B800012403940494032305930D4F02A938464C
:1055C80001F016FF042602960A4D02A9284601F0AA
:1055D8000FFF22464146384602F031F8224631464E
:1055E800284602F02CF806B0BDE8F0810010024011
:1055F800000801400014014030B587B0002402942F
:10560800039404940594144B9A6942F020029A6119
:105618009A6902F020020092009A9A6942F0040204
:105628009A619B6903F004030193019B4FF40043C3
:1056380002930A4B03930125049502A9084801F037
:10564800D7FE22462946282001F068FE282001F0CE
:105658009DFE07B030BD00BF0010024000002110C1
:105668000008014010B582B04FF6FF70FDF7B8F999
:10567800094C1F232380094B18881838084B0193BD
:1056880010230093C822002180B2FFF709FF4FF4CE
:105698007843238002B010BD320700203407002071
:1056A800103D010802B9704700B583B0024492B2B8
:1056B800013A00930B4692B2FFF73CFD03B05DF848
:1056C80004FB00002DE9F04F83B0044600908B46A0
:1056D80010469A46904640F2C32909FB02F92B4A24
:1056E800A2FB09294FEA991909F10109420800FBAF
:1056F80000220192420092B2201A80B2FFF7D2FF34
:1057080001251AE008F1FF381FFA88F4009B1E1BD8
:10571800B6B2AFB26400A4B207EB0B0153462246FF
:1057280089B23046FFF7BEFFABEB0701534622466E
:1057380089B23046FFF7B6FF01354D4523D808FB3F
:1057480008F305FB0533019A9342DDD9C845D9D939
:10575800009B5B1B9BB201339FB21FFA88F46B1E40
:105768005B009EB204EB0B015346324689B23846C1
:10577800FFF798FFABEB04015346324689B238462F
:10578800FFF790FFBEE703B0BDE8F08FD34D62107E
:10579800F0B583B04FF6FF70FDF722F9194E1F23BD
:1057A8003380194F38881838184B01931024009407
:1057B8002346C822002180B2FFF772FE144B0193E2
:1057C800182500952B46C82200210846FFF768FED9
:1057D800104B019300952B46C8223C210846FFF741
:1057E8005FFE798818390C4B019300942346C82230
:1057F80089B20020FFF754FE4FF47843338003B09A
:10580800F0BD00BF3207002034070020103D01081A
:10581800143D0108243D0108640A0020F0B583B056
:10582800194E1F233380194F38881838184B0193A5
:10583800102400942346C822002180B2FFF730FECE
:10584800144B0193182500952B46C82200210846C1
:10585800FFF726FE104B019300952B46C8223C21EA
:105868000846FFF71DFE798818390C4B0193009400
:105878002346C82289B20020FFF712FE4FF478436E
:10588800338003B0F0BD00BF32070020340700208A
:10589800103D0108143D0108243D0108640A002058
:1058A8000B4B1B6843B90A4B01221A60094A0A4B81
:1058B80007CA03C31A807047054B00221A60074ABB
:1058C800054B07CA03C323F8022B120C1A70704742
:1058D800200B0020343D0108640A0020403D0108E7
:1058E8002DE9F04F85B0BDF83C909DF83880804593
:1058F80056D8904554D8884552D8984550D88446AB
:10590800A2EB000A8E46A3EB010BBAF1000F13DDE0
:1059180001220292BBF1000F1ADD01230393DA453D
:1059280022DD564600252F462C46CDF80080E0465D
:10593800CDF80490F1461BE0BAF1000F05D0A0EBBA
:10594800020A4FF0FF320292E4E7CDF808A0E1E73F
:10595800BBF1000F05D0A1EB030B4FF0FF3303930E
:10596800DDE7CDF80CB0DAE75E46DBE70134A4B238
:10597800731C9C4214DC019B009A1FFA89F11FFAE0
:1059880088F0FFF79FFE57445D44BE4202DABF1B12
:10599800029B9844AE42E9DAAD1B039B9944E5E7C4
:1059A80005B0BDE8F08F000070B5002435E0FFF7C2
:1059B800EFFE1BE050212820FFF7A0FD16E0364E31
:1059C800364A334607CA03C31A803046FBF73AF90A
:1059D8004FF0FF3382B23146314802F080FA05E0D9
:1059E800FFF75EFF02E00A20FBF7C6FE012D48D054
:1059F8000134E4B22B4BA3FB04231B0903EB830301
:105A0800A4EB830313F0FF0F07D1274AD2F8A03184
:105A1800B3FA83F35B09C2F8A0310020FCF76EFAF1
:105A28000546224E736800209847FFF7F7FE96F95F
:105A38002030002BD7DAB0891D4B1B889842D5D26D
:105A4800F18A1B4A52889142D0D2173B834201DC2B
:105A58000F29ACD94F2801D81729ABD93C2805D92B
:105A68003C2903D9B32801D86329A8D920B1173A0A
:105A78008A4201DC4F28B3D94FF4784200F03CFF4A
:105A8800B4E74FF6FF70FCF7ABFF01F041F800F008
:105A98004DFFFFF7E7FDABE7440700204C3D010849
:105AA800DC0A0020CDCCCCCC000021420C00002028
:105AB80034070020F0B589B0002674E008A901EB8E
:105AC800840121F8142C21F8123C2EE04FF6FF72C5
