:020000040800F2
:1000000040B100203D020008795F00081326000877
:10001000755F00083D0A00085D6F000800000000E1
:100020000000000000000000000000003B67000826
:10003000410A0008000000007B5F00081D690008FD
:10004000570200085702000857020008570200082C
:10005000570200085702000857020008570200081C
:10006000570200085702000857020008570200080C
:1000700057020008570200085702000857020008FC
:1000800057020008570200085702000857020008EC
:1000900057020008570200085702000857020008DC
:1000A00057020008570200085702000857020008CC
:1000B00057020008570200087D690008570200082F
:1000C00057020008570200085702000857020008AC
:1000D000570200081D6F0008570200085702000869
:1000E000570200085702000857020008570200088C
:1000F000570200085702000857020008570200087C
:100100005702000857020008C1690008570200089A
:10011000570200085702000857020008570200085B
:10012000570200085702000857020008570200084B
:1001300000F002F800F073F80AA090E8000C824486
:100140008344AAF10107DA4501D100F068F8AFF263
:10015000090EBAE80F0013F0010F18BFFB1A43F0A5
:1001600001031847C0D10300E0D103000A444FF057
:10017000000C10F8013B13F0070408BF10F8014B06
:100180001D1108BF10F8015B641E05D010F8016B4B
:10019000641E01F8016BF9D113F0080F1EBF10F8AF
:1001A000014BAD1C0C1B09D16D1E58BF01F801CBD2
:1001B000FAD505E014F8016B01F8016B6D1EF9D555
:1001C0009142D6D37047000000230024002500266A
:1001D000103A28BF78C1FBD8520728BF30C148BFAA
:1001E0000B60704703681B0A28BF41F08001642937
:1001F00000F02C81752900F02981782900F0A08178
:10020000E42900F05F81632900F0C383732900F0C3
:10021000C883002070471FB51FBD10B510BD00F08A
:10022000DBFB1146FFF7F7FF0CF070FE00F0F9FB67
:1002300003B4FFF7F2FF03BC07F079F809488047E1
:1002400009480047FEE7FEE7FEE7FEE7FEE7FEE7B8
:10025000FEE7FEE7FEE7FEE704480549054A064BD0
:1002600070470000256900083101000840AB0020FC
:1002700040B1002040AD002040AD0020704753EA5F
:10028000020C00F069802DE9F04B4FF00006002BC6
:100290001FBFB3FA83F503FA05F424FA05F65E40AE
:1002A00012BF1643B2FA82F502FA05F4C5F1200531
:1002B0001EBF22FA05FC44EA0C04203556EA044C21
:1002C0004FEA144418BF641C4FF000084FF00009B7
:1002D000904271EB030C39D3002919BFB1FA81F7B1
:1002E00001FA07F6B0FA80F700FA07F6C7F120071F
:1002F0001EBF20FA07FC46EA0C062037B6FBF4FCCA
:10030000A7EB0507103F07F01F0BCBF120060CFAF7
:100310000BFB2CFA06F644BFB3460026202FA4BFE1
:100320005E464FF0000B5BEA060C08BF4FF0010B76
:1003300019EB0B09ABFB027C48EB0608C01B06FB64
:1003400002CC0BFB03CC71EB0C01C1E70B46024660
:1003500041464846BDE8F08B13B54FF000004FF022
:100360000001AFF30080BDE81C4070470FB40449A2
:1003700010B503AA029800F019FB10BC5DF814FB3D
:10038000200000200FB41CB5074B06AA7B44694629
:100390000090059800F0DBFA0020694600F0EAFAC8
:1003A0001CBC5DF814FB0000E505000070B50446B8
:1003B00085690068C10601D5302600E02026C00707
:1003C00007D070BDD4E9012130469047206A401C17
:1003D00020626D1EF6D570BD70B504468569007843
:1003E000C00707D170BDD4E9012120209047206AC1
:1003F000401C20626D1EF6D570BD70B50C460546DA
:10040000012A05D02878800600D5EA69002302E099
:10041000012305E05B1C934202D2E05C0028F9D185
:10042000A869E618C01AA861286A184428622846F4
:10043000FFF7BCFF04E0D5E9012114F8010B904758
:10044000B442F8D32846FFF7C7FF70BD2DE9F0414D
:100450000646002410687529314616A510D0AFF362
:100460000080002802DA404213A507E031688A07BD
:1004700001D512A502E0490704D511A5012401E028
:10048000AFF3008000210A2206F1240709E0B0FB47
:10049000F2FCB0FBF2F302FB1C003030785418463B
:1004A000491C0028F3D123462A463046BDE8F041D6
:1004B00000F0EFB9000000002D0000002B0000004C
:1004C000200000002DE9F0418046D21D22F00702F5
:1004D0000025D2E90002F52915A614D0011E72F1FB
:1004E000000106DA0023D0EB030063EB020211A641
:1004F00008E0D8F800108B0701D50FA602E04907E5
:1005000001D50EA601251146002408F1240704E0B8
:1005100000F07AF930323A55641C50EA0102F7D102
:100520002B46324621464046BDE8F04100F0B1B9C5
:10053000000000002D0000002B0000002000000043
:1005400070B504460D4621461068AFF3008021883F
:10055000090502D50F4A7A4402E00E4A7A440E3267
:10056000002104F1240305E000F00F060009965D68
:100570005E54491C0028F7D120780023000704D5D9
:10058000702D02D009B1022311322046BDE870401F
:1005900000F07FB982CA03002DE9F05F8946044666
:1005A0004FF0000ADFF874B1FB44C0F820A02046E9
:1005B000E1688847002874D0252806D0D4E90121B5
:1005C0009047206A401C2062F1E700265F462046E3
:1005D000E16888472028054607DB312D05D27819C8
:1005E00010F8200C08B10643F1E7B00701D526F05A
:1005F0000406C4F81CA00027C4F818A02A2D09D0AE
:10060000284606F08DFE38B304EB8708303DC8F865
:10061000185019E059F8041B204604EB8702916139
:10062000E1688847012F054618D1E069002820DAE3
:1006300026F020061DE0D8F8180000EB800005EB3E
:1006400040003038C8F818002046E1688847054661
:1006500006F066FE0028EED1012F0AD02E2D08D11B
:100660002046E16888477F1C0546022F46F0200699
:10067000C4DBA069002803DA404246F00106A0610D
:10068000F00701D026F010066C2D0BD0682D09D094
:100690004C2D39D06A2D35D0742D35D07A2D33D0EC
:1006A00016E038E0E1682F4620468847B842054604
:1006B00009D16C2F26D04FF48060E16806432046B4
:1006C0008847054604E06C2F1AD04FF4807006432B
:1006D0000DB3A5F14100192802D8203546F4006673
:1006E0004A462946204626604E46FFF77BFD80B1EC
:1006F00001280BD0F61D26F0070000F1080956E787
:100700004020E4E78020D8E70020D6E706F104097E
:100710004DE7284652E7206ABDE8F09F58CA03001B
:1007200040EA0103024630B59B0710D14FF0013477
:1007300000E008C208C91D1B9D4315EAC41FF8D07C
:1007400013F0FF0102F8011B0DD01B0AF8E711F8A6
:10075000013B002B02F8013B05D011F8013B002BB7
:1007600002F8013BF3D130BD421E12F8013F002BCD
:10077000FBD111F8013B002B02F8013BF9D1704786
:100780004FF0013C50F8042B51F8043B9A4221D120
:10079000A2EB0C03934313EACC1317D150F8042BAC
:1007A00051F8043B9A4215D1A2EB0C03934313EA90
:1007B000CC130BD150F8042B51F8043B9A4209D1C9
:1007C000A2EB0C03934313EACC13DBD04FF00000F1
:1007D000704700BFD01A01BAB1FA81F101F01801D7
:1007E00022FA01F0CB40C1F12001DBB2C0B2C01A45
:1007F0002CFA01F3D11A914311EAC311E6D17047E3
:10080000704770477047704730B5B0F10A024FEA41
:10081000900E71F100034EEA817EB0EB0E0061EBA9
:1008200091014FEA101E4EEA017E10EB0E0041EBE3
:1008300011114FEA102E4EEA016E10EB0E0041EB43
:1008400011214FEA104E4EEA014E10EB0E0041EB23
:100850001141401841F100014FEAD00040EA4170D7
:100860004FEAD10110EB80054FEA810444EA90740D
:1008700044EB01046D1944EB0404521BA3414FF0F7
:10088000000348BF0A3200D530BD401C41F10001D1
:1008900030BD2DE9F0470D4699469246044600F1D9
:1008A00024080168880604D5E06921F01001216060
:1008B00000E00120A84201DD471B00E00027A169FC
:1008C0007A1902EB0900081AA0612078C00602D448
:1008D0002046FFF76BFD002608E0D4E901211AF855
:1008E00006009047206A401C761C20624E45F4DBCF
:1008F0002078C0060AD52046FFF758FD06E0D4E967
:10090000012130209047206A401C2062381EA7F148
:100910000107F4DC07E0D4E9012118F8050090474D
:10092000206A401C2062281EA5F10105F3DC204648
:10093000FFF752FD2078000602D50220BDE8F087BF
:100940000120FBE701694A1C02610878704700B585
:100950008FB0CDE901310021059105497944CDE9F8
:10096000031011466846FFF717FE0FB000BD0000E8
:10097000E5FFFFFF0A6802F8010B0A60704710B537
:10098000436913B1AFF3008001E0FFF736FD0120AA
:1009900010BD127800F124010A7000224A70012271
:1009A000EDE711684FF0FF32E9E70000074B70B543
:1009B0000D467B44FFF7CBFF0446284600F008F8BD
:1009C00010B14FF0FF3070BD204670BD1FA8000071
:1009D000007B00F080007047754600F02BF8AE46B3
:1009E00005006946534620F00700854618B020B53B
:1009F000FFF732FCBDE820404FF000064FF0000743
:100A00004FF000084FF0000B21F00701AC46ACE8B6
:100A1000C009ACE8C009ACE8C009ACE8C0098D4623
:100A2000704710B50446AFF300802046BDE8104083
:100A3000FFF7FEBB00487047E0AA002000BFFEE7BA
:100A4000704700002DE9F05F82460F4614462046AD
:100A5000E21704EB5272D2102146E31704EB5373F2
:100A6000DB10A4EBC3030BB1012300E000231A4405
:100A7000624302F0FF099AF800600AF10100824621
:100A80000578812E05DB402D03DBFF2D01D0FF2EE5
:100A90000DD14FF0000B06E0002007F8010B0BF121
:100AA000010000F0FF0BCB45F6DBBDE8F09F7F2D8A
:100AB00003DAA5F14000C5B202E0A5F14100C5B2DC
:100AC000A6F18100C6B2BE2000FB065000FB09F86B
:100AD0000C2C04D0102C0CD0182C1ED113E0104874
:100AE000D0F8090000EB08014A46384606F0AEFA95
:100AF00013E00B48D0F8110000EB08014A463846D5
:100B000006F0A4FA09E00648D0F8190000EB080145
:100B10004A46384606F09AFA00BF00BF00BFC4E755
:100B200040AA002070B50446002594F82100022850
:100B300003D00420A0630125C1E02068006820F0F4
:100B40000E00216808602068006820F0010021681C
:100B500008605C492068884252D95A49783920682F
:100B6000884201D1012047E0564964392068884213
:100B700001D1102040E0534950392068884201D10A
:100B8000801539E04F493C392068884201D18014F2
:100B900032E04C4928392068884202D14FF4803035
:100BA0002AE0484914392068884202D14FF4801065
:100BB00022E044492068884201D140041CE04249B7
:100BC0002068884201D1012016E03F491431206895
:100BD000884201D110200FE03B492831206888422B
:100BE00001D1801508E038493C312068884201D1A4
:100BF000801401E04FF480303349091F086051E050
:100C0000304978392068884201D1012047E02D49D8
:100C100064392068884201D1102040E029495039C8
:100C20002068884201D1801539E026493C39206886
:100C3000884201D1801432E0224928392068884254
:100C400002D14FF480302AE01E49143920688842CE
:100C500002D14FF4801022E01A492068884201D165
:100C600040041CE018492068884201D1012016E0A8
:100C7000154914312068884201D110200FE0124933
:100C800028312068884201D1801508E00E493C31A6
:100C90002068884201D1801401E04FF48030094976
:100CA00080394860012084F8210000BF002084F8CA
:100CB000200000BF606B10B12046616B884728465A
:100CC00070BD000080000240080402402DE9F84792
:100CD000024600239C467BE14FF0010808FA03F42A
:100CE000D1F8008008EA0400A0427DD1DFF8F4A228
:100CF000D1F80480A8EB0A09D0453AD014DCB8F149
:100D0000030F50D009DCB8F1000F31D0B8F1010F5A
:100D10001CD0B8F1020F49D120E0B8F1110F18D062
:100D2000B8F1120F42D11EE0B9F5881F25D006DCBC
:100D3000B9F5803F20D0B9F5801F37D11AE0B9F559
:100D4000001F18D0B9F5041F30D117E0D1F80CC03E
:100D50002DE0D1F80C8008F1040C28E0D1F80C80CB
:100D600008F1080C23E0D1F80C8008F10C0C1EE00F
:100D700000BF00BF00BF00BF00BF00BFD1F80880A8
:100D8000B8F1000F02D14FF0040C0BE0D1F808804D
:100D9000B8F1010F03D14FF0080C146102E04FF0DD
:100DA000080C546103E04FF0000C00E000BF00BFEE
:100DB000FF2801D8904601E002F104084646FF28CA
:100DC00002D84FEA830803E0A3F108084FEA880835
:100DD0004746D6F800804FF00F0909FA07F928EACC
:100DE00009080CFA07F900E07AE048EA0908C6F8B1
:100DF0000080D1F8048008F08058B8F1805F6FD18E
:100E000000BFDFF8E481D8F8188048F00108DFF867
:100E1000D891C9F81880C846D8F8188008F0010899
:100E2000CDF8008000BF00BF4FEAB9384FEA930900
:100E300058F829504FEA83784FEA18794FF00F0895
:100E400008FA09F825EA0805DFF8A081424502D131
:100E50004FF0000824E0DFF89881424502D14FF0BE
:100E600001081DE0DFF88C81424502D14FF00208F5
:100E700016E0DFF88481424502D14FF003080FE00D
:100E8000DFF87881424502D14FF0040808E0DFF82E
:100E90007081424502D14FF0050801E04FF006088D
:100EA0004FEA83794FEA197908FA09F848EA050503
:100EB000DFF850814FEA930948F82950D1F80480AF
:100EC00008F48038B8F5803F0BD1DFF83C81D8F8C2
:100ED000008048EA0008DFF83091C9F800800AE095
:100EE00075E0DFF82481D8F8008028EA0008DFF8F0
:100EF0001891C9F80080D1F8048008F40038B8F5DA
:100F0000003F0ED1DFF8008108F10408D8F8008016
:100F100048EA0008DFF8F09009F10409C9F80080F8
:100F20000DE0DFF8E48008F10408D8F8008028EA32
:100F30000008DFF8D49009F10409C9F80080D1F85D
:100F4000048008F48018B8F5801F0ED1DFF8B8804F
:100F500008F10808D8F8008048EA0008DFF8A890EF
:100F600009F10809C9F800800DE0DFF89C8008F15C
:100F70000808D8F8008028EA0008DFF88C9009F10A
:100F80000809C9F80080D1F8048008F40018B8F501
:100F9000001F0ED1DFF8708008F10C08D8F800802F
:100FA00048EA0008DFF8609009F10C09C9F80080F0
:100FB0000DE0DFF8548008F10C08D8F8008028EA2A
:100FC0000008DFF8449009F10C09C9F800805B1CA7
:100FD000D1F8008028FA03F8B8F1000F7FF47CAE56
:100FE000BDE8F88700001110001002400008014021
:100FF000000C0140001001400014014000180140A5
:10100000001C014008000140000401400AB10161D8
:1010100001E00B040361704701480068704700005D
:10102000100000200348006803490978084401497A
:1010300008607047100000201800002010B5084814
:10104000006840F0100006490860052000F080F8B4
:101050000F2000F007F800F02BF8002010BD000072
:101060000020024070B504460E4800784FF47A71B3
:10107000B1FBF0F00C490968B1FBF0F5284600F02F
:10108000ECFD08B1012070BD102C07D200222146D2
:10109000501E00F01EF80548046001E00120F2E750
:1010A0000020F0E7180000200C00002014000020B1
:1010B000704701460846002809DB00F01F030122A3
:1010C0009A4043099B0003F1E023C3F8002100BFCD
:1010D00070472DE9F05F80460D461646002706F062
:1010E00003F9074639462A46334601F00700C0F1A6
:1010F000070ABAF1040F02D94FF0040A01E0C0F167
:10110000070AD14600F1040ABAF1070F02D24FF0E4
:10111000000A01E0A0F1030AD4464FF0010A0AFADE
:1011200009FAAAF1010A0AEA020A0AFA0CFA4FF0CD
:10113000010B0BFA0CFBABF1010B0BEA030B4AEAB8
:101140000B042146404606F0D7F8BDE8F09F0000AA
:1011500000BF00F00702064B19684FF6FF03194065
:10116000044B0B4343EA0221014B196000BF704757
:101170000CED00E00000FA0570B504460D460CB910
:10118000012070BD5A48006800F00700A8420ED246
:101190005748006820F00700284355490860084672
:1011A000006800F00700A84201D00120E9E720789C
:1011B00000F0020002281DD1207800F0040004286D
:1011C00005D14C48406840F4E0604A4948602078C6
:1011D00000F00800082805D14648406840F46050F7
:1011E000444948604348406820F0F000A168084343
:1011F00040494860207800F0010078B36068012819
:1012000006D13C48006800F4003090B90120B8E7EE
:101210006068022806D13748006800F0007040B9C5
:101220000120AEE73348006800F0020008B9012051
:10123000A7E73048406820F00300616808432D4963
:101240004860FFF7E9FE064609E0FFF7E5FE801B70
:1012500041F28831884202D9032092E707E025480D
:10126000406800F00C006168B0EB810FEDD12048C0
:10127000006800F00700A8420ED91D48006820F061
:10128000070028431A4908600846006800F0070074
:10129000A84201D0012074E7207800F0040004285F
:1012A00007D11448406820F4E060E1680843114920
:1012B0004860207800F00800082808D10D484068F0
:1012C00020F46050216940EAC1000A49486000F0FA
:1012D0003FF808494968C1F30311074A515CC84007
:1012E0000649086006480068FFF7BCFE002048E792
:1012F0000020024000100240AA0601080C00002055
:101300001400002001480068704700000C00002015
:1013100000B5FFF7F7FF04494968C1F30221034A0A
:10132000515CC84000BD000000100240BA06010830
:1013300000B5FFF7E7FF04494968C1F3C221034A3A
:10134000515CC84000BD000000100240BA06010810
:10135000F0B585B00FF26C0C9CE8E01001A8A0E895
:10136000E0101CA52D680095002100220023002418
:101370000020194D696801F00C05F5B1042D02D06B
:10138000082D19D101E0154819E001ADC1F38346DC
:10139000AC5D01F4803555B10F4D6D68C5F3404526
:1013A0001DF805200D4D6543B5FBF2F302E00C4D31
:1013B00004FB05F3184602E000BF084800BF00BF69
:1013C00005B0F0BD02030405060708090A0B0C0D61
:1013D0000E0F1010010200000010024000127A00EF
:1013E00000093D00F8B504460CB90120F8BD20788D
:1013F00000F00100002878D0F848406800F00C00A8
:1014000004280CD0F548406800F00C00082811D1E1
:10141000F248406800F48030B0F5803F0AD1EF48D0
:10142000006800F4003000285FD0606800285CD1BC
:101430000120DBE700BF6068B0F5803F06D1E748D8
:10144000006840F48030E549086028E0606858B9D9
:10145000E248006820F48030E049086008460068EF
:1014600020F4802008601AE06068B0F5A02F0BD14E
:10147000DA48006840F48020D849086008460068CF
:1014800040F4803008600AE0D448006820F48030DE
:10149000D24908600846006820F48020086000BF38
:1014A000606888B1FFF7B8FD054606E0FFF7B4FDB8
:1014B000401B642801D9032098E7C848006800F45D
:1014C00000300028F2D010E0FFF7A6FD054606E048
:1014D000FFF7A2FD401B642801D9032086E7BF481F
:1014E000006800F400300028F2D1207800F00200FB
:1014F000022857D1B948406800F00C0050B1B748F5
:10150000406800F00C00082818D1B448406800F486
:10151000803098B9B148006800F0020020B120691D
:10152000012801D0012061E7AC48006820F0F800F4
:10153000616940EAC100A949086033E02069E8B167
:101540000120A7490860FFF767FD054606E0FFF7A1
:1015500063FD401B022801D9032047E79F4800682C
:1015600000F002000028F2D09C48006820F0F8004B
:10157000616940EAC1009949086013E00020984978
:101580000860FFF749FD054606E0FFF745FD401BF3
:10159000022801D9032029E79048006800F00200E2
:1015A0000028F2D1207800F0080008282DD1A06989
:1015B000B8B101208B490860FFF72EFD054606E013
:1015C000FFF72AFD401B022801D903200EE78348BC
:1015D000406A00F002000028F2D0012004F0CEFCA6
:1015E00013E000207F490860FFF716FD054606E07E
:1015F000FFF712FD401B022801D90320F6E67748C9
:10160000406A00F002000028F2D1207800F00400C7
:10161000042873D100277148C06900F0805070B968
:1016200000BF6E48C06940F080506C49C8610846F0
:10163000C06900F08050009000BF00BF01276A48D9
:10164000006800F48070B0B96748006840F48070AA
:1016500065490860FFF7E0FC054606E0FFF7DCFCA3
:10166000401B642801D90320C0E65F48006800F4ED
:1016700080700028F2D000BFE068012806D15748EA
:10168000006A40F001005549086227E0E06858B957
:101690005248006A20F00100504908620846006A7A
:1016A00020F00400086219E0E06805280BD14B48DF
:1016B000006A40F00400494908620846006A40F0A8
:1016C000010008620AE04548006A20F00100434931
:1016D00008620846006A20F00400086200BFE06863
:1016E000A0B1FFF799FC054609E0FFF795FC401B08
:1016F00041F28831884202D9032077E622E0374858
:10170000006A00F002000028EFD012E0FFF784FC2E
:10171000054608E0FFF780FC401B41F28831884213
:1017200001D9032062E62D48006A00F0020000287B
:10173000F0D1012F05D12948C06920F080502749F8
:10174000C86100BFE069C8B32448406800F00C00DD
:10175000082860D0E069022848D1002020490866A6
:10176000FFF75AFC054606E0FFF756FC401B02282F
:1017700001D903203AE61948006800F000700028FB
:10178000F2D1206AB0F5803F07D11448406820F4B8
:101790000030A168084311494860D4E908010843B2
:1017A0000E49496821F4741108430C49486001202E
:1017B0000B490866FFF730FC054607E03DE0FFF700
:1017C0002BFC401B022801D903200FE603480068C8
:1017D00000F000700028F2D02FE00000001002405E
:1017E0000000424280044242007000400020144940
:1017F0000866FFF711FC054606E0FFF70DFC401BED
:10180000022801D90320F1E50E48006800F00070BD
:101810000028F2D111E0E069012800D1E6E509488D
:10182000466806F48031206A814204D106F47011C2
:10183000606A814201D00120D8E50020D6E5000091
:10184000000042420010024010B504460CB90120CD
:1018500010BD606A00B900BFA06AB0F5005F00D19A
:1018600000BF94F8510028B9002084F850002046A9
:1018700000F038F8022084F851002068006820F059
:10188000400021680860D4E901010843E168084389
:101890002169084361690843218B01F40071084301
:1018A000E1690843216A0843A16A08432168086086
:1018B0000421A06901EA104021684860A06AB0F5DF
:1018C000005F02D12168E06A08612068C06920F4E5
:1018D00000602168C86100206065012084F8510023
:1018E0000020B5E710B586B0044600BF13488069F4
:1018F00040F00400114988610846806900F0040046
:10190000019000BF00BF00BF0846806940F48050CE
:1019100088610846806900F48050019000BF00BFD4
:10192000E020029002200390012004900320059003
:1019300002A90348FFF7CAF906B010BD0010024023
:10194000000801402DE9FF5F0446884691461D4688
:101950000E9E012002900020019000BF94F85000DC
:10196000012803D1022004B0BDE8F09F012084F8D3
:10197000500000BFFFF750FB074694F851B0606875
:101980000390AA46BBF1010F0BD00398B0F5827FFC
:1019900004D1A06810B9BBF1040F02D0022001905D
:1019A0003DE1B8F1000F03D0B9F1000F00D015B937
:1019B0000120019033E194F85100042802D0052061
:1019C00084F8510000206065C4F83890E587A58749
:1019D000C4F83080E586A58620646064A06AB0F50E
:1019E000005F0DD100BF2068006820F4005021681E
:1019F00008602068006840F400502168086000BF5B
:101A00002068006800F04000402805D02068006889
:101A100040F0400021680860E068B0F5006F56D1E2
:101A2000606810B1BAF1010F09D1206B00882168FC
:101A3000C860206B801C2063E08E401EE0863FE083
:101A40002068806800F0020002281CD1E08ED0B12E
:101A50000298012817D1206B00882168C860206B8C
:101A6000801C2063E08E401EE08600200290E08E05
:101A700048B9A06AB0F5005F05D12068006840F45D
:101A80008050216808602068806800F0010068B11B
:101A9000E08F58B12068C068A16B0880A06B801CE3
:101AA000A063E08F401EE08701200290FFF7B4FAA8
:101AB000C01BB04204D3701C10B103200190AEE0F3
:101AC000E08E0028BCD1E08F0028B9D156E06068D4
:101AD00010B1BAF1010F09D1206B007821680873A9
:101AE000206B401C2063E08E401EE08640E02068B2
:101AF000806800F0020002281CD1E08ED0B102986C
:101B0000012817D1206B007821680873206B401CD6
:101B10002063E08E401EE08600200290E08E48B9EF
:101B2000A06AB0F5005F05D12068006840F48050DD
:101B3000216808602068806800F0010068B1E08FCB
:101B400058B12068C068A16B0870A06B401CA063EE
:101B5000E08F401EE08701200290FFF75DFAC01B76
:101B6000B04201D3701C00B916B90320019056E0B1
:101B7000E08E0028BBD1E08F0028B8D1A06AB0F574
:101B8000005F10D13346012211462046009704F031
:101B900080FD30B1606D40F002006065032001906F
:101BA0003DE02068C06820688068C0F30010E8B19C
:101BB000204604F06BFD012814D1606D40F0020056
:101BC000606500BF2068006820F40050216808604C
:101BD0002068006840F400502168086000BF0120C0
:101BE000019003E04FF6EF70216888603A46314675
:101BF000204604F037FD20B10120019020206065CF
:101C00000DE0A06850B900BF002000902068C068B7
:101C1000009020688068009000BF00BF00BF0120D6
:101C200084F8510000BF002084F8500000BF0198E4
:101C300099E6042808D14FF0E021096941F0040138
:101C40004FF0E022116107E04FF0E021096921F037
:101C500004014FF0E0221161704770B5044625463B
:101C6000681EB0F1807F01D301200FE0681E4FF0A5
:101C7000E02148610F214FF0FF3005F03DFB0020CF
:101C80004FF0E021886107200861002070BD704797
:101C9000704710B504460CB9012010BD94F83D0002
:101CA00028B9002084F83C00204600F00CF80220FF
:101CB00084F83D00211D206804F08AFE012084F88C
:101CC0003D000020E9E7704701460868C06840F021
:101CD00001000B68D8600868806800F00702062AD7
:101CE00005D00868006840F001000B68186000200B
:101CF0007047000010B504465149206888427CD1E5
:101D000050480068D0B150480068006A20F0A00038
:101D10004D49096808624C480068006A40F020009C
:101D200049490968086200204749096848624748EC
:101D3000007840F01000454908707CE004214248DA
:101D400000F090FA424908803F480068006A20F09D
:101D5000A0003D49096808623B480068006A3A49AA
:101D6000096808623948007800F0100000285CD04B
:101D70003648007800F08000F0B335480088B0F5B0
:101D8000967F0DDD32480088B0F5487F08DA31488B
:101D9000006840002F49086008460068086044E079
:101DA0002B480088B0F5AF6F0FDD29480088B0F5EB
:101DB000E16F0ADA274800684000264908600846B3
:101DC000006840F0010008602FE02148008840F6DC
:101DD0009801884229DD1E48008840F62821884263
:101DE00023DA1D480078401C1B490870174800780A
:101DF00000F0F000154901E002E020E0087014E076
:101E00001348008841F2680188420EDD10480088BE
:101E100041F25C21884208DA0C48007840F08000EA
:101E20000A49087000200C4908700848007820F022
:101E300010000649087004F0E3F80849086010BD76
:101E4000000C004004012142D81300203000002083
:101E5000320000203400002038000020080000205C
:101E60002DE9F04104460D46164600BF94F83C00AB
:101E7000012802D10220BDE8F081012084F83C0055
:101E800000BF022084F83D0096B9EB68D5E9001246
:101E9000206804F0FDFD2068806920F00C002168B6
:101EA000886120688069A9680843216888613DE0ED
:101EB000042E13D1EB68D5E90012206804F026FE49
:101EC0002068806920F4406021688861206880690A
:101ED000A96840EA01202168886127E0082E12D114
:101EE000EB68D5E90012206804F02DFE2068C06977
:101EF00020F00C002168C8612068C069A968084307
:101F00002168C86112E0EB68D5E90012206804F08E
:101F100036FE2068C06920F440602168C8612068EE
:101F2000C069A96840EA01202168C861012084F8DD
:101F30003D0000BF002084F83C0000BF00BF9AE7CE
:101F400010B504460CB9012010BD94F83D0028B925
:101F5000002084F83C00204600F00CF8022084F8B1
:101F60003D00211D206804F033FD012084F83D0070
:101F70000020E9E710B586B0044600BF1748C069E5
:101F800040F008001549C8610846C06900F0080023
:101F9000019000BF00BF00BF0846806940F0040008
:101FA00088610846806900F00400019000BF00BF0E
:101FB000022002900020039001200490032005904D
:101FC00002A90748FEF782FE032201213220FFF713
:101FD00080F83220FFF76DF806B010BD0010024007
:101FE0000008014070B504460D4635B1042D0BD0F4
:101FF000082D10D00C2D1CD114E02068C06840F0D2
:1020000002002168C86015E02068C06840F0040044
:102010002168C8600EE02068C06840F008002168B0
:10202000C86007E02068C06840F010002168C86000
:1020300000E000BF00BF01222946206804F016FD21
:102040002068806800F00706062E05D0206800682A
:1020500040F0010021680860002070BD10B5044602
:1020600020680069C0F34000D8B12068C068C0F3A0
:102070004000B0B16FF002002168086101202077B4
:102080002068806900F0030018B12046FFF732FE97
:1020900005E0204600F0ADF8204600F0ABF8002047
:1020A000207720680069C0F38000D8B12068C0683C
:1020B000C0F38000B0B16FF0040021680861022015
:1020C00020772068806900F4407018B12046FFF73F
:1020D00011FE05E0204600F08CF8204600F08AF85A
:1020E0000020207720680069C0F3C000D8B12068C4
:1020F000C068C0F3C000B0B16FF00800216808618B
:10210000042020772068C06900F0030018B1204641
:10211000FFF7F0FD05E0204600F06BF8204600F0E8
:1021200069F80020207720680069C0F30010D8B15A
:102130002068C068C0F30010B0B16FF010002168D3
:102140000861082020772068C06900F4407018B149
:102150002046FFF7CFFD05E0204600F04AF8204674
:1021600000F048F8002020772068006900F00100A6
:1021700058B12068C06800F0010030B16FF0010074
:1021800021680861204600F037F820680069C0F334
:10219000C01058B12068C068C0F3C01030B16FF0F3
:1021A0008000216808612046FFF771FD2068006902
:1021B000C0F3801058B12068C068C0F3801030B1FF
:1021C0006FF0400021680861204600F064F8206844
:1021D0000069C0F3401058B12068C068C0F34010D7
:1021E00030B16FF02000216808612046FFF750FDF4
:1021F00010BD704770470000184A016891422BD10A
:102200001749097801F0800131B31549097821F0A7
:102210001001134A11701146097801F00F0121B91C
:102220001146097841F0400111700D49097801F01B
:102230000F010E2905DA0A490978491C084A11706C
:102240000AE00749097821F08001054A117011461A
:10225000097801F0F001117070470000000C004097
:10226000300000200246002031B1042907D008299F
:1022700008D00C290CD108E01368586B09E01368EA
:10228000986B06E01368D86B03E01368186C00E0E5
:1022900000BF00BF7047704770470146002200230F
:1022A00091F8392091F83A3042EA03007047000073
:1022B0002DE9F0470446206805682068C668206854
:1022C00047694FF00008C14605F00F08B8F1000F4C
:1022D0000AD105F0200038B106F0200020B12046D8
:1022E00004F0C4FCBDE8F087B8F1000F6DD007F032
:1022F000010018B906F49070002866D005F00100BE
:1023000030B106F4807018B1E06B40F00100E0637A
:1023100005F0040030B107F0010018B1E06B40F0A7
:102320000200E06305F0020030B107F0010018B1CF
:10233000E06B40F00400E06305F0080030B107F006
:10234000010018B1E06B40F00800E063E06B68B397
:1023500005F0200028B106F0200010B1204604F05E
:1023600085FC20684069C0F38019E06B00F008002C
:1023700010B9B9F1000F22D0204604F057FC2068B4
:10238000406900F04000B0B12068406920F0400092
:1023900021684861606B50B11748616B4863606B9E
:1023A000FEF7C0FB10B1606B416B88470CE0204624
:1023B000FFF772FF08E02046FFF76EFF04E02046BB
:1023C000FFF76AFF0020E0638CE705F0800030B182
:1023D00006F0800018B1204604F06CFD82E705F09D
:1023E000400030B106F0400018B1204604F02EFC49
:1023F00078E700BF76E70000196C000810B50446C6
:102400000CB9012010BDA06900B100E000BF94F834
:10241000390028B9002084F83800204600F028F858
:10242000242084F839002068C06820F40050216816
:10243000C860204604F06EFC2068006920F49040DB
:10244000216808612068406920F02A0021684861FD
:102450002068C06840F400502168C8600020E06334
:10246000202084F8390084F83A000020CAE70000F0
:1024700010B586B0044625492068884244D100BF83
:102480002348806940F0040021498861084680693A
:1024900000F00400019000BF00BF00BF0846806943
:1024A00040F4804088610846806900F480400190D3
:1024B00000BF00BF00BF0846806940F0010088618E
:1024C0000846806900F00100019000BF00BF481578
:1024D000029002200390012004900320059002A99D
:1024E0000C48FEF7F3FB4FF480600290002003904D
:1024F00002A90848FEF7EAFB2520FEF7DAFD0322D1
:1025000011462520FEF7E5FD06B010BD003801405C
:10251000001002400008014010B5034693F83A004D
:1025200020282FD101B10AB9012010BD00BF93F8B6
:102530003800012801D10220F7E7012083F8380094
:1025400000BF99629A85DA850020D863222083F83B
:102550003A0000BF002083F8380000BF1868C06848
:1025600040F480701C68E0601868406940F0010029
:102570001C6860611868C06840F020001C68E0605A
:102580000020D2E70220D0E71D4A0168914236D1EF
:102590001C49098801F4004189BB1A49098801F4E2
:1025A000804171B1184909780A2903D00021154AE0
:1025B000118024E01349098841F40041114A118037
:1025C0001DE0114909780D2906D10E49098841F409
:1025D00080410C4A118012E00B490978094A12889F
:1025E000C2F30D02094B995406490988491C054A52
:1025F000118011460988C72901DD0021118070472B
:10260000003801402400002026000020680200203D
:10261000704700BFFEE7000000B585B000BF1C4852
:10262000806940F004001A4988610846806900F01A
:102630000400009000BF00BF00BF0846806940F062
:10264000100088610846806900F01000009000BF0B
:1026500000BF01200190002002900220039003207F
:10266000049001A90B48FEF731FB4FF400400190A4
:102670000120039001A90748FEF728FB20200190C4
:102680000120039001A90448FEF720FB05B000BD1E
:1026900000100240000801400010014070B50446DF
:1026A00000260E480588408845430021084603F06F
:1026B000DBF903F0FFFB00BF0DE04FF48070084929
:1026C0000861400048610748046080204861086153
:1026D00080000861761CAE42EFD370BD700300200D
:1026E000001001400C0C01402DE9F84F07460D4643
:1026F00090469946DDF828B0A8EB0700401C1FFA69
:1027000080FAA9EB0500401C80B20090002420E074
:10271000281981B2384603F0A7F903F0CBFB002655
:1027200013E04FF480700D4908614000486104FBDC
:102730000A603BF810000A49086080200749486198
:10274000086180000861701C86B25645E9DB601C98
:1027500084B200988442DBDBBDE8F88F00100140B2
:102760000C0C014010B5044649488471002C45D139
:10277000F020474908804FF4A070488008468088C0
:1027800045F21051884210D14FF430504049088131
:102790004FF4285048814FF42C5088814FF4F0704A
:1027A00008804FF4487048801AE03948808841F624
:1027B000631188420DD12C20354908812B20488196
:1027C0002A2088814FF4F07008804FF448704880C8
:1027D00006E02C202E4908812A2048812B20888160
:1027E0002B48808845F2103188424CD14FF4A070BC
:1027F000274908804FF4F070488044E04FF4A070FF
:1028000023490880F02048800846808845F210510E
:10281000884210D14FF430501D4908814FF42850A0
:1028200048814FF42C5088814FF4487008804FF451
:10283000F07048801AE01648808841F6631188429B
:102840000DD12C20124908812A2048812B20888113
:102850004FF4487008804FF4F070488006E02C2058
:102860000B4908812A2048812B20888108488088CC
:1028700045F21031884206D14FF4F07004490880C7
:102880004FF4A0704880002002F01EFF10BD000031
:102890007003002030B503460C4615469B488088DF
:1028A00045F21051884250D19849488903F0F0FA16
:1028B0004FF48070964908614000486118129549AC
:1028C00008608020924948610861800008618F4952
:1028D0004989491C88B203F0DBFA4FF480708C49B7
:1028E000086140004861D8B28A4908608020884960
:1028F00048610861800008618449888903F0C8FA4A
:102900004FF480708249086140004861201281497B
:10291000086080207E4948610861800008617B4929
:102920008989491C88B203F0B3FA4FF48070784962
:10293000086140004861E0B276490860802074492F
:102940004861086180000861C3E07048808841F6F2
:10295000631188427DD16D48807920B96B48008829
:10296000401EC01A83B26949488903F091FA4FF4B6
:102970008070674908614000486118126549086025
:102980008020634948610861800008614010086147
:1029900040004861D8B25F49086080205C494861C6
:1029A0000861800008614010086140004861181209
:1029B00058490860802056494861086180000861D4
:1029C0004010086140004861D8B252490860802038
:1029D0004F4948610861800008614C49888903F0CB
:1029E00057FA4FF480704A4908614000486120124C
:1029F00048490860802046494861086180000861B4
:102A00004010086140004861E0B2424908608020FF
:102A10003F4948610861800008614010086140003A
:102A2000486120123B4908608020394948610861AB
:102A3000800008614010086140004861E0B23549FB
:102A4000086080203249486108618000086140E0E8
:102A5000FFE72E49488903F01BFA4FF480702C4998
:102A600008614000486118122A49086080202849FE
:102A700048610861800008614010086140004861B9
:102A8000D8B224490860802021494861086180004B
:102A900008611E49888903F0FBF94FF480701C49D6
:102AA00008614000486120121A49086080201849D6
:102AB0004861086180000861401008614000486179
:102AC000E0B2144908608020114948610861800023
:102AD00008614FF480700E494861400048610B481E
:102AE00000890C490860802009494861086180001C
:102AF0000861401008614000486106480560802078
:102B0000486108618000086130BD0000700300204A
:102B1000001001400C0C01402DE9F04F05460E4617
:102B200017469846DDF824A04FF0000B781B401C98
:102B30001FFA80FB34461EE02146284602F094FF2F
:102B400003F0B8F94FF0000911E04FF480700C4920
:102B50000861400048610B48C0F800A0802048612F
:102B600008618000086109F101001FFA80F9D94568
:102B7000EBDB601C84B24445DEDDBDE8F08F000075
:102B8000001001400C0C014000B585B000BFFE48AC
:102B9000806940F00800FC4988610846806900F0BF
:102BA0000800009000BF00BF00BF0846806940F0E9
:102BB000100088610846806900F01000009000BF96
:102BC00000BF4FF4F86001900120029003900320B1
:102BD000049001A9ED48FEF779F84FF6FF700190D7
:102BE00001A9EB48FEF772F800BFEA49486820F0F7
:102BF000E06040F08060486000BF322005F06AFA73
:102C00000121002003F05EF9322005F063FAD320A1
:102C100003F03EF902F07CFCDF49888002F078FC8A
:102C2000DD49888002F074FCDB4988800846808892
:102C30004FF6FF7101EA0020D749888002F068FC56
:102C4000D54989880843D44988800846808849F254
:102C5000413188427DD0042003F01AF902F058FC7B
:102C6000CD49888002F054FCCB49888002F050FCAA
:102C7000C9498880084680884FF6FF7101EA002024
:102C8000C549888002F044FCC34989880843C24989
:102C900088800846808848F25251884203D147F222
:102CA0008970BD498880BC48808847F28971884214
:102CB000D0D0D42003F0ECF802F02AFCB64988808A
:102CC00002F026FCB449888002F022FCB2498880D8
:102CD000084680884FF6FF7101EA0020AE498880DF
:102CE00002F016FCAC4989880843AB498880084645
:102CF000808845F21031884262D055214FF47040EF
:102D000003F0E0F8AA214FF2010003F0DBF85221B2
:102D10004FF2020003F0D6F808214FF2030003F04F
:102D2000D1F801214FF2040003F0CCF84FF44540F4
:102D300003F0AEF802F0ECFB9749888008468088E3
:102D40004FF6FF7101EA0020934988804CF2015050
:102D500000E035E003F09CF802F0DAFB8E49898848
:102D600008438D498880052005F0B4F98A48808899
:102D700045F21051884223D0A12003F089F802F0D7
:102D8000C7FB8549888002F0C3FB834988800846D9
:102D900080884FF6FF7101EA00207F49888002F0A9
:102DA000B7FB7D49898808437B498880084680882D
:102DB00045F26171884203D141F6631076498880FB
:102DC0007548818875A0FDF7D1FA7348808849F26B
:102DD000413188427ED1CF2003F05AF8002003F021
:102DE00045F8C12003F042F8302003F03FF8ED2011
:102DF00003F04EF8642003F039F8032003F036F8AE
:102E0000122003F033F8812003F030F8E82003F0BB
:102E10003FF8852003F02AF8102003F027F87A20E5
:102E200003F024F8CB2003F033F8392003F01EF828
:102E30002C2003F01BF8002003F018F8342003F0D6
:102E400015F8022003F012F8F72003F021F82020F3
:102E500003F00CF8EA2003F01BF8002003F006F85A
:102E6000002003F003F8C02003F012F81B2002F04A
:102E7000FDFFC12003F00CF8012002F0F7FFC52090
:102E800003F006F8302002F0F1FF302002F0EEFFF0
:102E9000C72002F0FDFFB72002F0E8FF362002F065
:102EA000F7FF482002F0E2FF3A2002F0F1FF552040
:102EB00002F0DCFFB12002F0EBFF002002F0D6FFB1
:102EC0001A2002F0D3FFB62002F0E2FF0A2002F03F
:102ED000CDFF00E0AAE0A22002F0C8FFF22002F03D
:102EE000D7FF002002F0C2FF262002F0D1FF012010
:102EF00002F0BCFFE02002F0CBFF0F2002F0B6FF93
:102F00002A2002F0B3FF282002F0B0FF082002F0D0
:102F1000ADFF0E2002F0AAFF082002F0A7FF542008
:102F200002F0A4FFA92002F0A1FF432002F09EFFBF
:102F30000A2002F09BFF0F2002F098FF002002F011
:102F400095FF002002F092FF002002F08FFF00208A
:102F500002F08CFFE12002F09BFF002002F086FFD0
:102F6000152002F083FF172002F080FF072002F0F7
:102F70007DFF112002F07AFF062002F077FF2B2060
:102F800002F074FF562011E00010024000100140D2
:102F9000000C01400000014070030020204C43441D
:102FA0002049443A25780D0A0000000002F05EFF37
:102FB0003C2002F05BFF052002F058FF102002F0D9
:102FC00055FF0F2002F052FF3F2002F04FFF3F203D
:102FD00002F04CFF0F2002F049FF2B2002F058FFB7
:102FE000002002F043FF002002F040FF012002F029
:102FF0003DFF3F2002F03AFF2A2002F049FF002067
:1030000002F034FF002002F031FF002002F02EFF1A
:10301000EF2002F02BFF112002F03AFF782005F09C
:1030200059F8292002F034FF02F05FBAFE48808888
:1030300047F2897188427CD1112002F029FF782063
:1030400005F048F8362002F023FF002002F00EFFC2
:103050003A2002F01DFF052002F008FFB22002F026
:1030600017FF0C2002F002FF0C2002F0FFFE0020F0
:1030700002F0FCFE332002F0F9FE332002F0F6FEEF
:10308000B72002F005FF352002F0F0FEBB2002F071
:10309000FFFE322002F0EAFEC02002F0F9FE0C2012
:1030A00002F0E4FEC22002F0F3FE012002F0DEFE98
:1030B000C32002F0EDFE102002F0D8FEC42002F082
:1030C000E7FE202002F0D2FEC62002F0E1FE0F2033
:1030D00002F0CCFED02002F0DBFEA42002F0C6FEFF
:1030E000A12002F0C3FEE02002F0D2FED02002F0C8
:1030F000BDFE002002F0BAFE022002F0B7FE07205B
:1031000002F0B4FE0A2002F0B1FE282002F0AEFE6A
:10311000322002F0ABFE442002F0A8FE422002F072
:10312000A5FE062002F0A2FE0E2002F09FFE122055
:1031300000E056E002F09AFE142002F097FE1720FD
:1031400002F094FEE12002F0A3FED02002F08EFEF9
:10315000002002F08BFE022002F088FE072002F021
:1031600085FE0A2002F082FE282002F07FFE312038
:1031700002F07CFE542002F079FE472002F076FE39
:103180000E2002F073FE1C2002F070FE172002F0E9
:103190006DFE1B2002F06AFE1E2002F067FE2A2050
:1031A00002F076FE002002F061FE002002F05EFEDA
:1031B000002002F05BFEEF2002F058FE2B2002F010
:1031C00067FE002002F052FE002002F04FFE0120B8
:1031D00002F04CFE3F2002F049FE292002F058FE8A
:1031E00022E79148808845F21031884240F07C8780
:1031F000ED2002F04DFE012002F038FEFE2002F02C
:1032000035FEEE2002F044FEDE2002F02FFE2120EB
:1032100002F02CFEF12002F03BFE012002F026FE1F
:10322000DF2002F035FE102002F020FEC42002F064
:103230002FFE8F2002F01AFEC62002F029FE002089
:1032400002F014FEE22002F011FEE22002F00EFE77
:10325000E22002F00BFEBF2002F01AFEAA2002F0CC
:1032600005FEB02002F014FE0D2002F0FFFD00204C
:1032700002F0FCFD0D2002F0F9FD002002F0F6FD49
:10328000112002F0F3FD002002F0F0FD192002F001
:10329000EDFD002002F0EAFD212002F0E7FD002014
:1032A00002F0E4FD2D2002F0E1FD002002F0DEFD41
:1032B0003D2002F0DBFD002002F0D8FD5D2002F091
:1032C000D5FD002002F0D2FD5D2002F0CFFD0020F0
:1032D00002F0CCFDB12002F0DBFD802002F0C6FD43
:1032E000002002F0C3FD8B2002F0C0FD002002F0A0
:1032F000BDFD962002F0BAFD002002F0B7FDB2201D
:1033000002F0C6FD002002F0B1FD002002F0AEFD8B
:10331000022002F0ABFD002002F0A8FD032002F025
:10332000A5FD002002F0A2FDB32002F0B1FD0020B7
:1033300002F09CFD002002F099FD002002F096FDB5
:10334000002002F093FD002002F090FD002002F02A
:103350008DFD002002F08AFD002002F087FD002094
:1033600002F084FD002002F081FD002002F07EFDCD
:10337000002002F07BFD002002F078FD002002F02A
:1033800075FD002002F072FD002002F06FFD0020AC
:1033900002F06CFD002002F069FD002002F066FDE5
:1033A000002002F063FD002002F060FD002002F02A
:1033B0005DFD002002F05AFD002002F057FDB42010
:1033C00002F066FD8B2002F051FD002002F04EFD60
:1033D000962002F04BFD002002F048FDA12002F0F3
:1033E00045FD002002F042FDB52002F051FD022013
:1033F00002F03CFD002002F039FD032002F036FD12
:10340000002002F033FD042002F030FD002002F025
:103410002DFDB62002F03CFD002002F027FD00202B
:1034200002F024FDB72001E07003002002F030FD1F
:10343000002002F01BFD002002F018FD3F2002F0EA
:1034400015FD002002F012FD5E2002F00FFD0020AD
:1034500002F00CFD642002F009FD002002F006FDE0
:103460008C2002F003FD002002F000FDAC2002F0F1
:10347000FDFC002002F0FAFCDC2002F0F7FC00204A
:1034800002F0F4FC702002F0F1FC002002F0EEFCEF
:10349000902002F0EBFC002002F0E8FCEB2002F0B0
:1034A000E5FC002002F0E2FCDC2002F0DFFC002062
:1034B00002F0DCFCB82002F0EBFC002002F0D6FCAD
:1034C000002002F0D3FC002002F0D0FC002002F02B
:1034D000CDFC002002F0CAFC002002F0C7FC002056
:1034E00002F0C4FC002002F0C1FCBA2002F0D0FCC3
:1034F000242002F0BBFC002002F0B8FC002002F007
:10350000B5FC002002F0B2FCC12002F0C1FC20207A
:1035100002F0ACFC002002F0A9FC542002F0A6FC52
:10352000002002F0A3FCFF2002F0A0FC002002F02B
:103530009DFCC22002F0ACFC0A2002F097FC0020A7
:1035400002F094FC042002F091FC002002F08EFCBA
:10355000C32002F09DFC3C2002F088FC002002F019
:1035600085FC3A2002F082FC002002F07FFC39202A
:1035700002F07CFC002002F079FC372002F076FC9F
:10358000002002F073FC3C2002F070FC002002F0EE
:103590006DFC362002F06AFC002002F067FC32204D
:1035A00002F064FC002002F061FC2F2002F05EFCBF
:1035B000002002F05BFC2C2002F058FC002002F0FE
:1035C00055FC292002F052FC002002F04FFC26207E
:1035D00002F04CFC002002F049FC242002F046FCE2
:1035E000002002F043FC242002F040FC002002F006
:1035F0003DFC232002F03AFC002002F037FC3C2086
:1036000002F034FC002002F031FC362002F02EFCE7
:10361000002002F02BFC322002F028FC002002F0F7
:1036200025FC2F2002F022FC002002F01FFC2C20A1
:1036300002F01CFC002002F019FC292002F016FC0C
:10364000002002F013FC262002F010FC002002F003
:103650000DFC242002F00AFC002002F007FC2420CC
:1036600002F004FC002002F001FC232002F0FEFB2B
:10367000002002F0FBFBC42002F00AFC622002F0F2
:10368000F5FB002002F0F2FB052002F0EFFB00202A
:1036900002F0ECFB842002F0E9FB002002F0E6FBE4
:1036A000F02002F0E3FB002002F0E0FB182002F023
:1036B000DDFB002002F0DAFBA42002F0D7FB0020A3
:1036C00002F0D4FB182002F0D1FB002002F0CEFB68
:1036D000502002F0CBFB002002F0C8FB0C2002F0CF
:1036E000C5FB002002F0C2FB172002F0BFFB002048
:1036F00002F0BCFB952002F0B9FB002002F0B6FB03
:10370000F32002F0B3FB002002F0B0FBE62002F051
:10371000ADFB002002F0AAFBC52002F0B9FB32206D
:1037200002F0A4FB002002F0A1FB442002F09EFB6B
:10373000002002F09BFB652002F098FB002002F0C5
:1037400095FB762002F092FB002002F08FFB882090
:1037500002F08CFB002002F089FBC62002F098FBEF
:10376000202002F083FB002002F080FB172002F0F3
:103770007DFB002002F07AFB012002F077FB0020A5
:1037800002F074FBC72002F083FB002002F06EFB06
:10379000002002F06BFB002002F068FB002002F02A
:1037A00065FBC82002F074FB002002F05FFB0020E4
:1037B00002F05CFB002002F059FB002002F056FBF7
:1037C000C92002F065FB002002F050FB002002F04F
:1037D0004DFB002002F04AFB002002F047FB0020D6
:1037E00002F044FB002002F041FB002002F03EFB0F
:1037F000002002F03BFB002002F038FB002002F02A
:1038000035FB002002F032FB002002F02FFB0020ED
:1038100002F02CFB002002F029FB002002F026FB26
:10382000002002F023FBE02002F032FB162002F021
:103830001DFB002002F01AFB1C2002F017FB0020E9
:1038400002F014FB212002F011FB002002F00EFB1D
:10385000362002F00BFB002002F008FB462002F0AD
:1038600005FB002002F002FB522002F0FFFA0020CC
:1038700002F0FCFA642002F0F9FA002002F0F6FAF5
:103880007A2002F0F3FA002002F0F0FA8B2002F026
:10389000EDFA002002F0EAFA992002F0E7FA00209F
:1038A00002F0E4FAA82002F0E1FA002002F0DEFAC9
:1038B000B92002F0DBFA002002F0D8FAC42002F0AE
:1038C000D5FA002002F0D2FACA2002F0CFFA002086
:1038D00002F0CCFAD22002F0C9FA002002F0C6FAB7
:1038E000D92002F0C3FA002002F0C0FAE02002F072
:1038F000BDFA002002F0BAFAF32002F0B7FA002075
:1039000002F0B4FAE12002F0C3FA162002F0AEFA97
:10391000002002F0ABFA1C2002F0A8FA002002F00E
:10392000A5FA222002F0A2FA002002F09FFA362027
:1039300002F09CFA002002F099FA452002F096FA73
:10394000002002F093FA522002F090FA002002F0D8
:103950008DFA642002F08AFA002002F087FA7A20B9
:1039600002F084FA002002F081FA8B2002F07EFA45
:10397000002002F07BFA992002F078FA002002F091
:1039800075FAA82002F072FA002002F06FFAB9204E
:1039900002F06CFA002002F069FAC42002F066FA24
:1039A000002002F063FACA2002F060FA002002F060
:1039B0005DFAD22002F05AFA002002F057FAD8201D
:1039C00002F054FA002002F051FAE02002F04EFA20
:1039D000002002F04BFAF32002F048FA002002F037
:1039E00045FAE22002F054FA052002F03FFA0020E6
:1039F00002F03CFA0B2002F039FA002002F036FA0D
:103A00001B2002F033FA002002F030FA342002F0DA
:103A10002DFA002002F02AFA442002F027FA0020B2
:103A200002F024FA4F2002F021FA002002F01EFAE0
:103A3000612002F01BFA002002F018FA792002F04F
:103A400015FA002002F012FA882002F00FFA002086
:103A500002F00CFA972002F009FA002002F006FAB0
:103A6000A62002F003FA002002F000FAB72002F0CC
:103A7000FDF9002002F0FAF9C22002F0F7F9002067
:103A800002F0F4F9C72002F0F1F9002002F0EEF99B
:103A9000D12002F0EBF9002002F0E8F9D62002F084
:103AA000E5F9002002F0E2F9DD2002F0DFF9002064
:103AB00002F0DCF9F32002F0D9F9002002F0D6F987
:103AC000E32002F0E5F9052002F0D0F9002002F031
:103AD000CDF90A2002F0CAF9002002F0C7F91C2033
:103AE00002F0C4F9002002F0C1F9332002F0BEF95F
:103AF000002002F0BBF9442002F0B8F9002002F0E7
:103B0000B5F9502002F0B2F9002002F0AFF96220BE
:103B100002F0ACF9002002F0A9F9782002F0A6F931
:103B2000002002F0A3F9882002F0A0F9002002F0A2
:103B30009DF9972002F09AF9002002F097F9A6204B
:103B400002F094F9002002F091F9B72002F08EF90A
:103B5000002002F08BF9C22002F088F9002002F068
:103B600085F9C72002F082F9002002F07FF9D12008
:103B700002F07CF9002002F079F9D52002F076F904
:103B8000002002F073F9DD2002F070F9002002F04D
:103B90006DF9F32002F06AF9002002F067F9E420E1
:103BA00002F076F9012002F061F9002002F05EF9DE
:103BB000012002F05BF9002002F058F9022002F027
:103BC00055F9002002F052F92A2002F04FF90020A6
:103BD00002F04CF93C2002F049F9002002F046F9CD
:103BE0004B2002F043F9002002F040F95D2002F082
:103BF0003DF9002002F03AF9742002F037F9002074
:103C000002F034F9842002F031F9002002F02EF99C
:103C1000932002F02BF9002002F028F9A22002F0F4
:103C200025F9002002F022F9B32002F01FF900204C
:103C300002F01CF9BE2002F019F9002002F016F97A
:103C4000C42002F013F9002002F010F9CD2002F098
:103C50000DF9002002F00AF9D32002F007F9002044
:103C600002F004F9DD2002F001F9002002F0FEF874
:103C7000F32002F0FBF8002002F0F8F8E52002F053
:103C800007F9002002F0F2F8002002F0EFF800201F
:103C900002F0ECF8002002F0E9F8022002F0E6F869
:103CA000002002F0E3F8292002F0E0F8002002F002
:103CB000DDF83C2002F0DAF8002002F0D7F84B20C3
:103CC00002F0D4F8002002F0D1F85D2002F0CEF826
:103CD000002002F0CBF8742002F0C8F8002002F0B7
:103CE000C5F8842002F0C2F8002002F0BFF893204B
:103CF00002F0BCF8002002F0B9F8A22002F0B6F8F9
:103D0000002002F0B3F8B32002F0B0F8002002F077
:103D1000ADF8BE2002F0AAF8002002F0A7F8C420F7
:103D200002F0A4F8002002F0A1F8CD2002F09EF8E5
:103D3000002002F09BF8D32002F098F8002002F057
:103D400095F8DC2002F092F8002002F08FF8F320C2
:103D500002F08CF8002002F089F8E62002F098F8D2
:103D6000112002F083F8002002F080F8342002F0E5
:103D70007DF8002002F07AF8562002F077F8002053
:103D800002F074F8762002F071F8002002F06EF86C
:103D9000772002F06BF8002002F068F8662002F04D
:103DA00065F8002002F062F8882002F05FF8002039
:103DB00002F05CF8992002F059F8002002F056F861
:103DC000BB2002F053F8002002F050F8992002F0D6
:103DD0004DF8002002F04AF8662002F047F8002073
:103DE00002F044F8552002F041F8002002F03EF8BD
:103DF000552002F03BF8002002F038F8452002F090
:103E000035F8002002F032F8432002F02FF80020AD
:103E100002F02CF8442002F029F8002002F026F8E5
:103E2000E72002F035F8322002F020F8002002F0FE
:103E30001DF8552002F01AF8002002F017F876203D
:103E400002F014F8002002F011F8662002F00EF8DB
:103E5000002002F00BF8672002F008F8002002F0C2
:103E600005F8672002F002F8002001F0FFFF87202C
:103E700001F0FCFF002001F0F9FF992001F0F6FFAE
:103E8000002001F0F3FFBB2001F0F0FF002001F063
:103E9000EDFF992001F0EAFF002001F0E7FF772015
:103EA00001F0E4FF002001F0E1FF442001F0DEFF1B
:103EB000002001F0DBFF562001F0D8FF002001F0C8
:103EC000D5FF232001F0D2FF002001F0CFFF3320E7
:103ED00001F0CCFF002001F0C9FF452001F0C6FF32
:103EE000002001F0C3FFE82001F0D2FF002001F024
:103EF000BDFF002001F0BAFF992001F0B7FF0020BC
:103F000001F0B4FF872001F0B1FF002001F0AEFF07
:103F1000882001F0ABFF002001F0A8FF772001F01E
:103F2000A5FF002001F0A2FF662001F09FFF002006
:103F300001F09CFF882001F099FF002001F096FF1E
:103F4000AA2001F093FF002001F090FFBB2001F0B8
:103F50008DFF002001F08AFF992001F087FF0020EB
:103F600001F084FF662001F081FF002001F07EFF58
:103F7000552001F07BFF002001F078FF552001F073
:103F800075FF002001F072FF442001F06FFF002058
:103F900001F06CFF442001F069FF002001F066FF92
:103FA000552001F063FF002001F060FFE92001F0DF
:103FB0006FFFAA2001F05AFF002001F057FF0020F8
:103FC00001F054FF002001F051FF002001F060FFDC
:103FD000AA2001F04BFFCF2001F05AFF002001F092
:103FE00045FF002001F042FF002001F03FFF0020CC
:103FF00001F03CFF002001F039FF002001F036FF06
:10400000002001F033FF002001F030FF002001F01C
:104010002DFF002001F02AFF002001F027FF0020E3
:1040200001F024FF002001F021FF002001F01EFF1D
:10403000002001F01BFF002001F018FF002001F01C
:1040400015FFF02001F024FF002001F00FFF5020A9
:1040500001F00CFF002001F009FF002001F006FF35
:10406000002001F003FFF32001F012FF002001F017
:10407000FDFEF92001F00CFF062001F0F7FE1020F4
:1040800001F0F4FE292001F0F1FE002001F0EEFE27
:104090003A2001F0FDFE552001F0E8FE112001F06C
:1040A000F7FE642004F016F8292001F0F1FE352017
:1040B00001F0EEFE002001F0D9FE512001F0E8FEF3
:1040C000FF2001F0D3FE532001F0E2FE2C2001F08E
:1040D000CDFE552001F0DCFE822001F0C7FE2C2031
:1040E00001F0D6FE01F001BAFE48808845F2105179
:1040F00088427DD155214FF4704001F0E3FEAA21A2
:104100004FF2010001F0DEFE52214FF2020001F0F9
:10411000D9FE08214FF2030001F0D4FE01214FF235
:10412000040001F0CFFE0D214FF4304001F0CAFE33
:104130000D214BF2010001F0C5FE0D214BF20200F2
:1041400001F0C0FE34214FF4364001F0BBFE3421B3
:104150004BF2016001F0B6FE34214BF2026001F037
:10416000B1FE0D214FF4314001F0ACFE0D214BF2B8
:10417000011001F0A7FE0D214BF2021001F0A2FE8A
:1041800034214FF4374001F09DFE34214BF2017091
:1041900001F098FE34214BF2027001F093FE0021F1
:1041A0004FF4324001F08EFE00214BF2012001F06D
:1041B00089FE00214BF2022001F084FE24214FF4FD
:1041C000384001F07FFE24214BF6010001F07AFE19
:1041D00024214BF6020001F075FE01214FF43F400F
:1041E00001F070FE0F214FF4334001F06BFE00E050
:1041F000FDE30F214BF2013001F064FE0F214BF281
:10420000023001F05FFE34214FF4394001F05AFED4
:1042100034214BF6011001F055FE34214BF602100B
:1042200001F050FE08214FF4354001F04BFE08210B
:104230004BF2015001F046FE08214BF2025001F012
:1042400041FE03214FF4424001F03CFE24214FF493
:104250003A4001F037FE24214BF6012001F032FEF6
:1042600024214BF6022001F02DFE00214FF43C40AA
:1042700001F028FE78214BF6014001F023FE0021D9
:104280004BF6024001F01EFE00214FF43D4001F0CC
:1042900019FE78214BF6015001F014FE00214BF677
:1042A000025001F00FFE00214FF43E4001F00AFEE3
:1042B00064214BF6016001F005FE00214FF45140EE
:1042C00001F000FE33214DF2011001F0FBFD002151
:1042D0004DF2021001F0F6FD34214DF2031001F011
:1042E000F1FD00214DF2041001F0ECFD3A214DF2F8
:1042F000051001F0E7FD00214DF2061001F0E2FD8E
:104300004A214DF2071001F0DDFD00214DF20810A9
:1043100001F0D8FD5C214DF2091001F0D3FD002120
:104320004DF20A1001F0CEFD81214DF20B1001F08B
:10433000C9FD00214DF20C1001F0C4FDA6214DF283
:104340000D1001F0BFFD00214DF20E1001F0BAFD7D
:10435000E5214DF20F1001F0B5FD01214DF21010D5
:1043600001F0B0FD13214DF2111001F0ABFD012160
:104370004DF2121001F0A6FD54214DF2131001F080
:10438000A1FD01214DF2141001F09CFD82214DF29E
:10439000151001F097FD01214DF2161001F092FD6C
:1043A000CA214DF2171001F08DFD02214DF21810B7
:1043B00001F088FD00214DF2191001F083FD02216A
:1043C0004DF21A1001F07EFD01214DF21B1001F09B
:1043D00079FD02214DF21C1001F074FD34214DF2E3
:1043E0001D1001F06FFD02214DF21E1001F06AFD5B
:1043F00067214DF21F1001F065FD02214DF22010E2
:1044000001F060FD84214DF2211001F05BFD0221DD
:104410004DF2221001F056FDA4214DF2231001F0BF
:1044200051FD02214DF2241001F04CFDB7214DF257
:10443000251001F047FD02214DF2261001F042FD4A
:10444000CF214DF2271001F03DFD02214DF2281041
:1044500001F038FDDE214DF2291001F033FD02217B
:104460004DF22A1001F02EFDF2214DF22B1001F039
:1044700029FD02214DF22C1001F024FDFE214DF208
:104480002D1001F01FFD03214DF22E1001F01AFD39
:1044900010214DF22F1001F015FD03214DF23010C7
:1044A00001F010FD33214DF2311001F00BFD03211D
:1044B0004DF2321001F006FD6D214DF2331001F086
:1044C00001FD00214FF4524001F0FCFC33214DF27C
:1044D000012001F0F7FC00214DF2022001F0F2FC76
:1044E000342101E0700300204DF2032001F0EAFCCA
:1044F00000214DF2042001F0E5FC3A214DF20520A7
:1045000001F0E0FC00214DF2062001F0DBFC4A2125
:104510004DF2072001F0D6FC00214DF2082001F0F9
:10452000D1FC5C214DF2092001F0CCFC00214DF2C0
:104530000A2001F0C7FC81214DF20B2001F0C2FCE2
:1045400000214DF20C2001F0BDFCA6214DF20D2002
:1045500001F0B8FC00214DF20E2001F0B3FCE52182
:104560004DF20F2001F0AEFC01214DF2102001F0C0
:10457000A9FC13214DF2112001F0A4FC01214DF200
:10458000122001F09FFC54214DF2132001F09AFCFF
:1045900001214DF2142001F095FC82214DF21520ED
:1045A00001F090FC01214DF2162001F08BFCCA2194
:1045B0004DF2172001F086FC02214DF2182001F087
:1045C00081FC00214DF2192001F07CFC02214DF20A
:1045D0001A2001F077FC01214DF21B2001F072FC42
:1045E00002214DF21C2001F06DFC34214DF21D2002
:1045F00001F068FC02214DF21E2001F063FC6721EE
:104600004DF21F2001F05EFC02214DF2202001F04E
:1046100059FC84214DF2212001F054FC02214DF27D
:10462000222001F04FFCA4214DF2232001F04AFC8E
:1046300002214DF2242001F045FCB7214DF2252046
:1046400001F040FC02214DF2262001F03BFCCF217D
:104650004DF2272001F036FC02214DF2282001F016
:1046600031FCDE214DF2292001F02CFC02214DF21B
:104670002A2001F027FCF2214DF22B2001F022FC30
:1046800002214DF22C2001F01DFCFE214DF22D20C7
:1046900001F018FC03214DF22E2001F013FC102133
:1046A0004DF22F2001F00EFC03214DF2302001F0DD
:1046B00009FC33214DF2312001F004FC03214DF2BD
:1046C000322001F0FFFB6D214DF2332001F0FAFBA7
:1046D00000214FF4534001F0F5FB33214DF201303E
:1046E00001F0F0FB00214DF2023001F0EBFB342130
:1046F0004DF2033001F0E6FB00214DF2043001F0F1
:10470000E1FB3A214DF2053001F0DCFB00214DF2D6
:10471000063001F0D7FB4A214DF2073001F0D2FB01
:1047200000214DF2083001F0CDFB5C214DF2093043
:1047300001F0C8FB00214DF20A3001F0C3FB8121DA
:104740004DF20B3001F0BEFB00214DF20C3001F0B8
:10475000B9FBA6214DF20D3001F0B4FB00214DF262
:104760000E3001F0AFFBE5214DF20F3001F0AAFB56
:1047700001214DF2103001F0A5FB13214DF2113053
:1047800001F0A0FB01214DF2123001F09BFB5421FE
:104790004DF2133001F096FB01214DF2143001F07F
:1047A00091FB82214DF2153001F08CFB01214DF27D
:1047B000163001F087FBCA214DF2173001F082FB61
:1047C00002214DF2183001F07DFB00214DF219302D
:1047D00001F078FB02214DF21A3001F073FB012148
:1047E0004DF21B3001F06EFB02214DF21C3001F046
:1047F00069FB34214DF21D3001F064FB02214DF2C2
:104800001E3001F05FFB67214DF21F3001F05AFBB3
:1048100002214DF2203001F055FB84214DF2213070
:1048200001F050FB02214DF2223001F04BFBA4219C
:104830004DF2233001F046FB02214DF2243001F00D
:1048400041FBB7214DF2253001F03CFB02214DF236
:10485000263001F037FBCF214DF2273001F032FB3B
:1048600002214DF2283001F02DFBDE214DF22930DE
:1048700001F028FB02214DF22A3001F023FBF22146
:104880004DF22B3001F01EFB02214DF22C3001F0D5
:1048900019FBFE214DF22D3001F014FB03214DF2E6
:1048A0002E3001F00FFB10214DF22F3001F00AFBEA
:1048B00003214DF2303001F005FB33214DF2313050
:1048C00001F000FB03214DF2323001F0FBFA6D21C3
:1048D0004DF2333001F0F6FA00214FF4544001F06C
:1048E000F1FA33214DF2014001F0ECFA00214DF2D2
:1048F000024001F0E7FA34214DF2034001F0E2FA00
:1049000000214DF2044001F0DDFA3A214DF205405C
:1049100001F0D8FA00214DF2064001F0D3FA4A2105
:104920004DF2074001F0CEFA00214DF2084001F0AF
:10493000C9FA5C214DF2094001F0C4FA00214DF2A0
:104940000A4001F0BFFA81214DF20B4001F0BAFAA2
:1049500000214DF20C4001F0B5FAA6214DF20D40B8
:1049600001F0B0FA00214DF20E4001F0ABFAE52162
:104970004DF20F4001F0A6FA01214DF2104001F076
:10498000A1FA13214DF2114001F09CFA01214DF2E0
:10499000124001F097FA54214DF2134001F092FABF
:1049A00001214DF2144001F08DFA82214DF21540A3
:1049B00001F088FA01214DF2164001F083FACA2174
:1049C0004DF2174001F07EFA02214DF2184001F03D
:1049D00079FA00214DF2194001F074FA02214DF2EA
:1049E0001A4001F06FFA01214DF21B4000E005E38F
:1049F00001F068FA02214DF21C4001F063FA342103
:104A00004DF21D4001F05EFA02214DF21E4001F010
:104A100059FA67214DF21F4001F054FA02214DF27C
:104A2000204001F04FFA84214DF2214001F04AFA72
:104A300002214DF2224001F045FAA4214DF223401B
:104A400001F040FA02214DF2244001F03BFAB72177
:104A50004DF2254001F036FA02214DF2264001F0D8
:104A600031FACF214DF2274001F02CFA02214DF20C
:104A7000284001F027FADE214DF2294001F022FA08
:104A800002214DF22A4001F01DFAF2214DF22B4095
:104A900001F018FA02214DF22C4001F013FAFE2128
:104AA0004DF22D4001F00EFA03214DF22E4001F09F
:104AB00009FA10214DF22F4001F004FA03214DF2C2
:104AC000304001F0FFF933214DF2314001F0FAF9A5
:104AD00003214DF2324001F0F5F96D214DF23340E2
:104AE00001F0F0F900214FF4554001F0EBF93321CA
:104AF0004DF2015001F0E6F900214DF2025001F0B3
:104B0000E1F934214DF2035001F0DCF900214DF2BE
:104B1000045001F0D7F93A214DF2055001F0D2F9D5
:104B200000214DF2065001F0CDF94A214DF2075017
:104B300001F0C8F900214DF2085001F0C3F95C21E1
:104B40004DF2095001F0BEF900214DF20A5001F07A
:104B5000B9F981214DF20B5001F0B4F900214DF269
:104B60000C5001F0AFF9A6214DF20D5001F0AAF959
:104B700000214DF20E5001F0A5F9E5214DF20F5044
:104B800001F0A0F901214DF2105001F09BF9132121
:104B90004DF2115001F096F901214DF2125001F041
:104BA00091F954214DF2135001F08CF901214DF28D
:104BB000145001F087F982214DF2155001F082F96D
:104BC00001214DF2165001F07DF9CA214DF2175026
:104BD00001F078F902214DF2185001F073F900212B
:104BE0004DF2195001F06EF902214DF21A5001F008
:104BF00069F901214DF21B5001F064F902214DF2D7
:104C00001C5001F05FF934214DF21D5001F05AF9AA
:104C100002214DF21E5001F055F967214DF21F504F
:104C200001F050F902214DF2205001F04BF984219E
:104C30004DF2215001F046F902214DF2225001F0CF
:104C400041F9A4214DF2235001F03CF902214DF22B
:104C5000245001F037F9B7214DF2255001F032F917
:104C600002214DF2265001F02DF9CF214DF22750AF
:104C700001F028F902214DF2285001F023F9DE213C
:104C80004DF2295001F01EF902214DF22A5001F097
:104C900019F9F2214DF22B5001F014F902214DF2D5
:104CA0002C5001F00FF9FE214DF22D5001F00AF9C0
:104CB00003214DF22E5001F005F910214DF22F5035
:104CC00001F000F903214DF2305001F0FBF83321DF
:104CD0004DF2315001F0F6F803214DF2325001F05F
:104CE000F1F86D214DF2335001F0ECF800214FF452
:104CF000564001F0E7F833214DF2016001F0E2F88F
:104D000000214DF2026001F0DDF834214DF2036024
:104D100001F0D8F800214DF2046001F0D3F83A21F7
:104D20004DF2056001F0CEF800214DF2066001F071
:104D3000C9F84A214DF2076001F0C4F800214DF294
:104D4000086001F0BFF85C214DF2096001F0BAF88B
:104D500000214DF20A6001F0B5F881214DF20B609F
:104D600001F0B0F800214DF20C6001F0ABF8A62183
:104D70004DF20D6001F0A6F800214DF20E6001F039
:104D8000A1F8E5214DF20F6001F09CF801214DF2F0
:104D9000106001F097F813214DF2116001F092F8C4
:104DA00001214DF2126001F08DF854214DF2136093
:104DB00001F088F801214DF2146001F083F882219E
:104DC0004DF2156001F07EF801214DF2166001F000
:104DD00079F8CA214DF2176001F074F802214DF202
:104DE000186001F06FF800214DF2196001F06AF8C7
:104DF00002214DF21A6001F065F801214DF21B60AD
:104E000001F060F802214DF21C6001F05BF83421E2
:104E10004DF21D6001F056F802214DF21E6001F0C6
:104E200051F867214DF21F6001F04CF802214DF25C
:104E3000206001F047F884214DF2216001F042F832
:104E400002214DF2226001F03DF8A4214DF22360D1
:104E500001F038F802214DF2246001F033F8B72157
:104E60004DF2256001F02EF802214DF2266001F08E
:104E700029F8CF214DF2276001F024F802214DF2EC
:104E8000286001F01FF8DE214DF2296001F01AF8C8
:104E900002214DF22A6001F015F8F2214DF22B604B
:104EA00001F010F802214DF22C6001F00BF8FE2108
:104EB0004DF22D6001F006F803214DF22E6001F055
:104EC00001F810214DF22F6000F0FCFF03214DF29C
:104ED000306000F0F7FF33214DF2316000F0F2FF57
:104EE00003214DF2326000F0EDFF6D214DF2336091
:104EF00000F0E8FF55214FF4704000F0E3FFAA21D5
:104F00004FF2010000F0DEFF52214FF2020000F0EC
:104F1000D9FF08214FF2030000F0D4FF00214FF227
:104F2000040000F0CFFFCC214FF4314000F0CAFF65
:104F300000214BF2011000F0C5FF05214FF436406F
:104F400000F0C0FF70214FF4374000F0BBFF70212C
:104F50004BF2017000F0B6FF01214FF4384000F031
:104F6000B1FF03214BF6010000F0ACFF03214BF62B
:104F7000020000F0A7FF03214BF6030000F0A2FFA0
:104F800002214FF43C4000F09DFF00214BF6014010
:104F900000F098FF00214BF6024000F093FFD02173
:104FA0004FF4494000F08EFF02214CF6011000F052
:104FB00089FF50214CF6021000F084FF50214CF67E
:104FC000031000F07FFF50214CF6041000F07AFF30
:104FD00000214FF4545000F075FF55214FF46850F4
:104FE00000F070FF4FF4885000F052FF782003F07B
:104FF0007DF84FF4245000F04BFF76E2FE488088A5
:1050000041F663118842F8D1E22000F041FF4FF4ED
:105010008070FA490861400048611D20F849086025
:105020008020F649486108618000086140100861ED
:10503000400048610220F24908608020EF49486141
:105040000861800008614010086140004861042048
:10505000EB4908608020E9494861086180000861E7
:10506000642003F043F8E02000F012FF4FF480705A
:10507000E2490861400048610120E1490860802060
:10508000DE4948610861800008610A2003F022F8C7
:10509000E02000F0FDFE4FF48070D8490861400028
:1050A00048610320D64908608020D44948610861DE
:1050B000800008610C2003F00DF8012000F0E8FEEC
:1050C0000A2003F007F8E62000F0E2FE4FF48070BB
:1050D000CA490861400048612F20C9490860802002
:1050E000C6494861086180000861401008614000BD
:1050F0004861FF20C24908608020C04948610861BA
:10510000800008614010086140004861FF20BC49F0
:1051100008608020B9494861086180000861B020BA
:1051200000F0B6FE4FF48070B44908614000486159
:105130002020B34908608020B049486108618000A0
:10514000086140100861400048610020AC490860D7
:105150008020AA4948610861800008614010086108
:10516000400048610320A64908608020A3494861A7
:10517000086180000861401008614000486140F209
:105180001F309F49086080209C4948610861800069
:10519000086140100861400048610120984908609A
:1051A00080209649486108618000086140100861CC
:1051B0004000486140F2DF109149086080208F492B
:1051C0004861086180000861401008614000486142
:1051D00000208B4908608020884948610861800070
:1051E0000861B42000F054FE4FF4807083490861D8
:1051F0004000486104208249086080207F4948615E
:10520000086180000861401008614000486140F278
:105210001F407B4908608020784948610861800010
:10522000086140100861400048610020744908602E
:10523000802072494861086180000861401008615F
:10524000400048612E206E49086080206B4948610B
:10525000086180000861401008614000486100203A
:1052600067490860802065494861086180000861DD
:1052700040100861400048610020614908608020BA
:105280005E49486108618000086140100861400083
:10529000486100205A4908608020584948610861E7
:1052A00080000861401008614000486100205449B6
:1052B0000860802051494861086180000861B6207B
:1052C00000F0E6FD4FF480704C49086140004861F1
:1052D00002204B49086080204849486108618000ED
:1052E000086140100861400048614FF40370444970
:1052F00008608020414948610861800008614010D1
:1053000008614000486100203D49086080203B4919
:1053100048610861800008614010086140004861F0
:1053200017203749086080203449486108618000AF
:10533000086140100861400048611520304908604C
:1053400080202E4948610861800008614010086192
:105350004000486100202A490860802027494861B0
:105360000861800008614010086140004861002029
:105370002349086080202149486108618000086154
:10538000F02000F085FD4FF480701C49086140005A
:10539000486103201A490860802018494861086163
:1053A00080000861292000F073FDD02000F070FD1E
:1053B0004FF4807011490861400048610020104995
:1053C000086080200D494861086180000861BE20A6
:1053D00000F05EFD4FF480700849086140004861AC
:1053E0000520074908608020044948610861800061
:1053F00008614010086105E07003002000100140C2
:105400000C0C014040004861FE203E4908608020AD
:105410003D49486108618000086140100861400012
:105420004861012037490860802037494861086198
:105430008000086140100861400048610020314947
:105440000860802030494861086180000861401090
:1054500008614000486100202A49086080202A49EC
:10546000486108618000086140100861400048619F
:105470000020244908608020234948610861800099
:105480000861B82000F004FD4FF480701E490861E7
:105490004000486103201B49086080201A49486188
:1054A00008618000086140100861400048610120E7
:1054B000144908608020144948610861800008612F
:1054C000BA2000F0E5FC4FF480700F4908614000FD
:1054D000486101200B49086080200B494861086140
:1054E00080000861642000F085F80020FDF73AF99B
:1054F0000120064908604FF6FF70FDF7CFF805B0B0
:1055000000BD00000C0C014000100140A801224227
:1055100000B54FF0883014490860091D086000206C
:1055200011490C3108608815104908614000486134
:1055300040204861022008F029FE0B48083000682E
:1055400083B2402009490861C00008614FF0333040
:1055500005490860091D08604FF6FF7002490C31CB
:105560000860184600BD0000000C0140001001401A
:105570002DE9F04105460E461D480088A84203DD8E
:105580001B484088B04202DC0020BDE8F081314673
:10559000284600F069FA1648808845F21051884282
:1055A00004D14FF4385000F073FC02E02E2000F0DC
:1055B0006FFCFFF7ADFF04460D48808841F663118C
:1055C000884201D12046E0E7FFF7A2FF0446FFF73B
:1055D0009FFF8046E7B24FF6FF7000EA0727E01210
:1055E000C002B91240EA411040EAE820CDE70000CD
:1055F000700300202DE9F0410446BE2000F048FC75
:105600004FF480702D4908614000486105202C4905
:1056100008608020294948610861800008614010C5
:1056200008614000486120460AF023FC05464FF01F
:105630006632244B0AF030FC07460AF0EDFB2049A5
:10564000086080201D4948610861800008614010A1
:10565000086140004861012019490860802017490D
:10566000486108618000086140100861400048619D
:10567000FF201349086080201049486108618000BC
:105680000861401008614000486100200C49086032
:1056900080200A4948610861800008614010086163
:1056A00040004861002006490860802003494861A5
:1056B000086180000861BDE8F08100000010014031
:1056C0000C0C014066660440F0B505460024002736
:1056D000E2488079012805D1E048808841F66311CD
:1056E000884208D1DD488079F0B9DC48808841F6ED
:1056F0006311884218D1082D15D2DFE805F00406A1
:10570000080A0C0E101206250DE007250BE00425F3
:1057100009E0052507E0012505E0002503E0032554
:1057200001E0022500BF00BF082D1CD2DFE805F014
:105730000406090C0F12151800BF14E044F0800491
:1057400011E044F040040EE044F0C0040BE044F0EB
:10575000200408E044F0600405E044F0A00402E006
:1057600044F0E00400BF00BFBC48808845F21051FF
:10577000884202D14FF4585700E03627B748808856
:1057800049F24131884205D0B448808847F2897196
:10579000884201D144F008042146384600F092FBCB
:1057A000AE48808841F6631188421DD004F0200085
:1057B00068B1AA480088A9494988884214DAA748EC
:1057C00006884088A5490880084646800CE0A34822
:1057D0000088A2494988884206DDA048068840889A
:1057E0009E490880084646809C48808845F21051B2
:1057F00088427DD19949488900F04AFB4FF4807076
:10580000974908614000486100209649086080205F
:105810009349486108618000086190494989491CA1
:1058200088B200F035FB4FF480708D49086140006C
:10583000486100208B4908608020894948610861DF
:105840008000086185494989891C88B200F020FBE5
:105850004FF4807082490861400048617F480088A9
:10586000401E00127F49086080207D494861086120
:105870008000086179494989C91C88B200F008FB99
:105880004FF48070764908614000486173480078A1
:10589000401EC0B2734908608020714948610861A8
:1058A000800008616D49888900F0F2FA4FF4807039
:1058B0006B4908614000486100206A490860802007
:1058C0006749486108618000086164498989491C09
:1058D00088B200F0DDFA4FF4807061490861400041
:1058E000486100205F49086080205D49486100E010
:1058F00033E008618000086158498989891C88B2B1
:1059000000F0C6FA4FF480705549086140004861C4
:1059100052484088401E0012524908608020504979
:1059200048610861800008614C498989C91C88B2B6
:1059300000F0AEFA4FF480704949086140004861B8
:1059400046488078401EC0B24649086080204449DD
:1059500048610861800008617FE04049488900F0A3
:1059600097FA4FF480703E4908614000486100207A
:105970003C49086080203A4948610861800008611C
:1059800040100861400048610020364908608020CE
:105990003349486108618000086140100861400097
:1059A00048612E480088401E00122E490860802061
:1059B0002B4948610861800008614010086140007F
:1059C000486126480078401EC0B226490860802001
:1059D000234948610861800008612049888900F0F6
:1059E00057FA4FF480701E4908614000486100205A
:1059F0001C49086080201A494861086180000861DC
:105A0000401008614000486100201649086080206D
:105A10001349486108618000086140100861400036
:105A200048610E484088401E00120E4908608020E0
:105A30000B4948610861800008614010086140001E
:105A4000486106488078401EC0B206490860802040
:105A500003494861086180000861F0BD70030020BF
:105A6000001001400C0C014010B503460C46B24832
:105A7000808841F6631188427ED1AF488079002842
:105A80003FD1AD480088401EC01A83B2AA49488958
:105A900000F0FEF94FF48070A849086140004861A9
:105AA0000020A74908608020A4494861086180005F
:105AB000086140100861400048610020A04908606A
:105AC00080209E494861086180000861401008619B
:105AD0004000486118129A4908608020974948613F
