:020000040800F2
:1000000000C00020395A0008555800085758000809
:10001000595800085B5800085D58000800000000AF
:100020000000000000000000000000005F58000811
:100030006158000800000000635800086558000877
:10004000815A0008815A0008815A0008815A000824
:10005000815A0008815A00086D580008815A00082A
:10006000815A0008815A0008815A0008815A000804
:10007000815A0008815A0008815A0008815A0008F4
:10008000815A0008815A0008815A0008815A0008E4
:10009000815A0008815A0008815A0008815A0008D4
:1000A000815A0008815A0008815A0008815A0008C4
:1000B000815A000879580008815A0008815A0008BE
:1000C000815A0008815A0008815A0008815A0008A4
:1000D000815A0008815A0008815A0008815A000894
:1000E000815A0008815A0008815A0008815A000884
:1000F000815A0008815A0008815A0008815A000874
:10010000815A0008815A0008815A0008815A000863
:10011000815A0008815A0008815A0008815A000853
:10012000815A0008815A0008815A0008815A000843
:1001300000000000000000000000000000000000BF
:1001400000000000000000000000000000000000AF
:10015000000000000000000000000000000000009F
:10016000000000000000000000000000000000008F
:10017000000000000000000000000000000000007F
:10018000000000000000000000000000000000006F
:10019000000000000000000000000000000000005F
:1001A000000000000000000000000000000000004F
:1001B000000000000000000000000000000000003F
:1001C000000000000000000000000000000000002F
:1001D000000000000000000000000000000000001F
:0401E0005FF8E0F1F3
:1001E80010B5054C237833B9044B13B10448AFF369
:1001F80000800123237010BDC40600200000000009
:10020800E0B3000808B5034B1BB103490348AFF33B
:10021800008008BD00000000C8060020E0B3000808
:1002280081F0004102E000BF83F0004330B54FEA9F
:1002380041044FEA430594EA050F08BF90EA020F0C
:100248001FBF54EA000C55EA020C7FEA645C7FEA9F
:10025800655C00F0E2804FEA5454D4EB5555B8BFC2
:100268006D420CDD2C4480EA020281EA030382EA33
:10027800000083EA010180EA020281EA0303362DC5
:1002880088BF30BD11F0004F4FEA01314FF4801C98
:100298004CEA113102D0404261EB410113F0004FAA
:1002A8004FEA03334CEA133302D0524263EB430361
:1002B80094EA050F00F0A780A4F10104D5F1200EFF
:1002C8000DDB02FA0EFC22FA05F2801841F100015A
:1002D80003FA0EF2801843FA05F359410EE0A5F12E
:1002E80020050EF1200E012A03FA0EFC28BF4CF05F
:1002F800020C43FA05F3C01851EBE37101F0004515
:1003080007D54FF0000EDCF1000C7EEB00006EEB21
:100318000101B1F5801F1BD3B1F5001F0CD34908AB
:100328005FEA30004FEA3C0C04F101044FEA445202
:1003380012F5800F80F09A80BCF1004F08BF5FEA89
:10034800500C50F1000041EB045141EA050130BD69
:100358005FEA4C0C404141EB0101013C28BFB1F57B
:10036800801FE9D291F0000F04BF01460020B1FAC6
:1003780081F308BF2033A3F10B03B3F120020CDA99
:100388000C3208DD02F1140CC2F10C0201FA0CF077
:1003980021FA02F10CE002F11402D8BFC2F1200CDC
:1003A80001FA02F120FA0CFCDCBF41EA0C01904092
:1003B800E41AA2BF01EB0451294330BD6FEA0404DB
:1003C8001F3C1CDA0C340EDC04F11404C4F12002C6
:1003D80020FA04F001FA02F340EA030021FA04F3D8
:1003E80045EA030130BDC4F10C04C4F1200220FA2F
:1003F80002F001FA04F340EA0300294630BD21FA6D
:1004080004F0294630BD94F0000F83F4801306BF32
:1004180081F480110134013D4EE77FEA645C18BF26
:100428007FEA655C29D094EA050F08BF90EA020FBD
:1004380005D054EA000C04BF1946104630BD91EAB5
:10044800030F1EBF0021002030BD5FEA545C05D1B8
:100458004000494128BF41F0004130BD14F58004F7
:100468003CBF01F5801130BD01F0004545F0FE416B
:1004780041F470014FF0000030BD7FEA645C1ABFA0
:10048800194610467FEA655C1CBF0B46024650EAD7
:10049800013406BF52EA033591EA030F41F4002103
:1004A80030BD00BF90F0000F04BF0021704730B589
:1004B8004FF4806404F132044FF000054FF000015E
:1004C80050E700BF90F0000F04BF0021704730B51F
:1004D8004FF4806404F1320410F0004548BF4042F4
:1004E8004FF000013EE700BF42004FEAE2014FEA49
:1004F80031014FEA02701FBF12F07F4393F07F4F24
:1005080081F06051704732F07F4208BF704793F026
:100518007F4F04BF41F40021704730B54FF4607439
:1005280001F0004521F000411CE700BF50EA01023C
:1005380008BF704730B54FF000050AE050EA0102E5
:1005480008BF704730B511F0004502D5404261EB55
:1005580041014FF4806404F132045FEA915C3FF496
:10056800D8AE4FF003025FEADC0C18BF03325FEA33
:10057800DC0C18BF033202EBDC02C2F1200300FAE4
:1005880003FC20FA02F001FA03FE40EA0E0021FA09
:1005980002F11444BDE600BF4A0011D212F5001260
:1005A80011D20DD56FF47873B3EB62520ED44FEAC3
:1005B800C12343F0004343EA505323FA02F0704743
:1005C8004FF00000704750EA013002D14FF0FF3081
:1005D80070474FF000007047034613F8012B002ABC
:1005E800FBD1181A0138704770B54FF0FF0C4CF466
:1005F800E06C1CEA11541DBF1CEA135594EA0C0F59
:1006080095EA0C0F00F0DEF82C4481EA030621EA93
:100618004C5123EA4C5350EA013518BF52EA0335CE
:1006280041F4801143F4801338D0A0FB02CE4FF080
:100638000005E1FB02E506F00042E0FB03E54FF0B0
:100648000006E1FB03569CF0000F18BF4EF0010EA8
:10065800A4F1FF04B6F5007F64F5407404D25FEAA4
:100668004E0E6D4146EB060642EAC62141EA555157
:100678004FEAC52040EA5E504FEACE2EB4F1FD0C99
:1006880088BFBCF5E06F1ED8BEF1004F08BF5FEA17
:10069800500E50F1000041EB045170BD06F00046C9
:1006A80046EA010140EA020081EA0301B4EB5C0476
:1006B800C2BFD4EB0C0541EA045170BD41F480116E
:1006C8004FF0000E013C00F3AB8014F1360FDEBF93
:1006D800002001F0004170BDC4F10004203C35DA6F
:1006E8000C341BDC04F11404C4F1200500FA05F3F2
:1006F80020FA04F001FA05F240EA020001F0004293
:1007080021F0004110EBD37021FA04F642EB060108
:100718005EEA430E08BF20EAD37070BDC4F10C0432
:10072800C4F1200500FA04F320FA05F001FA04F2F6
:1007380040EA020001F0004110EBD37041F10001E2
:100748005EEA430E08BF20EAD37070BDC4F12005ED
:1007580000FA05F24EEA020E20FA04F301FA05F255
:1007680043EA020321FA04F001F0004121FA04F2FD
:1007780020EA020000EBD3705EEA430E08BF20EACD
:10078800D37070BD94F0000F0FD101F00046400007
:1007980041EB010111F4801F08BF013CF7D041EA89
:1007A800060195F0000F18BF704703F0004652008D
:1007B80043EB030313F4801F08BF013DF7D043EA5E
:1007C8000603704794EA0C0F0CEA135518BF95EA14
:1007D8000C0F0CD050EA410618BF52EA4306D1D19B
:1007E80081EA030101F000414FF0000070BD50EABA
:1007F800410606BF1046194652EA430619D094EA44
:100808000C0F02D150EA013613D195EA0C0F05D12D
:1008180052EA03361CBF104619460AD181EA030181
:1008280001F0004141F0FE4141F470014FF0000039
:1008380070BD41F0FE4141F4780170BD70B54FF0D4
:10084800FF0C4CF4E06C1CEA11541DBF1CEA135554
:1008580094EA0C0F95EA0C0F00F0A7F8A4EB050436
:1008680081EA030E52EA03354FEA013100F088802D
:100878004FEA03334FF0805545EA131343EA1263F6
:100888004FEA022245EA111545EA10654FEA0026AB
:100898000EF000419D4208BF964244F1FD0404F564
:1008A800407402D25B084FEA3202B61A65EB0305C0
:1008B8005B084FEA32024FF480104FF4002CB6EB7D
:1008C800020E75EB030E22BFB61A754640EA0C00FD
:1008D8005B084FEA3202B6EB020E75EB030E22BF3D
:1008E800B61A754640EA5C005B084FEA3202B6EB7E
:1008F800020E75EB030E22BFB61A754640EA9C003D
:100908005B084FEA3202B6EB020E75EB030E22BF0C
:10091800B61A754640EADC0055EA060E18D04FEACA
:10092800051545EA16754FEA06164FEAC30343EA6A
:1009380052734FEAC2025FEA1C1CC0D111F4801F37
:100948000BD141EA00014FF000004FF0004CB6E730
:1009580011F4801F04BF01430020B4F1FD0C88BFCF
:10096800BCF5E06F3FF6AFAEB5EB030C04BFB6EBDA
:10097800020C5FEA500C50F1000041EB045170BDCD
:100988000EF0004E4EEA113114EB5C04C2BFD4EBFA
:100998000C0541EA045170BD41F480114FF0000E7E
:1009A800013C90E645EA060E8DE60CEA135594EAFA
:1009B8000C0F08BF95EA0C0F3FF43BAF94EA0C0FFD
:1009C8000AD150EA01347FF434AF95EA0C0F7FF472
:1009D80025AF104619462CE795EA0C0F06D152EAC6
:1009E80003353FF4FDAE1046194622E750EA4106AA
:1009F80018BF52EA43067FF4C5AE50EA41047FF4BB
:100A08000DAF52EA43057FF4EBAE12E74FF0FF3C1F
:100A180006E000BF4FF0010C02E000BF4FF0010CF0
:100A28004DF804CD4FEA410C7FEA6C5C4FEA430C69
:100A380018BF7FEA6C5C1BD001B050EA410C0CBFB8
:100A480052EA430C91EA030F02BF90EA020F00201A
:100A5800704710F1000F91EA030F58BF994208BF81
:100A680090422CBFD8176FEAE37040F0010070473E
:100A78004FEA410C7FEA6C5C02D150EA013C07D195
:100A88004FEA430C7FEA6C5CD6D152EA033CD3D0E0
:100A98005DF8040B704700BF8446104662468C46DA
:100AA8001946634600E000BF01B5FFF7B7FF00280D
:100AB80048BF10F1000F01BD4DF808EDFFF7F4FF36
:100AC8000CBF012000205DF808FB00BF4DF808EDC1
:100AD800FFF7EAFF34BF012000205DF808FB00BFE4
:100AE8004DF808EDFFF7E0FF94BF012000205DF806
:100AF80008FB00BF4DF808EDFFF7CEFF94BF0120BB
:100B080000205DF808FB00BF4DF808EDFFF7C4FFB3
:100B180034BF012000205DF808FB00BF4FEA410CFC
:100B28007FEA6C5C02D150EA013C0AD14FEA430CDF
:100B38007FEA6C5C02D152EA033C02D14FF000001C
:100B480070474FF0010070474FEA410212F500125A
:100B580015D211D56FF47873B3EB625212D94FEAFC
:100B6800C12343F0004343EA505311F0004F23FAE6
:100B780002F018BF404270474FF00000704750EA3B
:100B8800013005D111F0004008BF6FF000407047F8
:100B98004FF00000704700BF53B94AB9002908BF99
:100BA80000281CBF4FF0FF314FF0FF3000F072B942
:100BB800ADF1080C6DE904CE00F006F8DDF804E0AC
:100BC800DDE9022304B070472DE9F047089E0D4681
:100BD80004468E46002B4CD18A42944667D9B2FA15
:100BE80082F353B102FA03FCC3F1200201FA03FEB7
:100BF80020FA02F242EA0E0E9C404FEA1C47BEFB66
:100C0800F7F11FFA8CF507FB11EE01FB05F0220C3A
:100C180042EA0E4290420AD91CEB020201F1FF3E61
:100C280080F01981904240F2168102396244121A0A
:100C3800B2FBF7F007FB102200FB05F5A4B244EA6B
:100C48000244A5420AD91CEB040400F1FF3280F0EB
:100C58000481A54240F201816444023840EA01401F
:100C68000021641B1EB1DC400023C6E90043BDE837
:100C7800F0878B4208D9002E00F0EA800021C6E9EF
:100C880000050846BDE8F087B3FA83F1002948D18A
:100C9800AB4202D3824200F2F880841A65EB030269
:100CA80001209646002EE2D0C6E9004EDFE702B9E1
:100CB800FFDEB2FA82F3002B40F08E80881A012101
:100CC800170C1FFA82FEB0FBF7F507FB1500220C84
:100CD80042EA00420EFB05F0904208D91CEB0202E2
:100CE80005F1FF3802D2904200F2CC804546121A34
:100CF800B2FBF7F007FB10220EFB00FEA4B244EA99
:100D08000244A64508D91CEB040400F1FF3202D2C4
:100D1800A64500F2B4801046A4EB0E0440EA054054
:100D2800A0E7C1F120078B4022FA07FC4CEA030C2C
:100D380025FA07FA4FEA1C49BAFBF9F88D4020FA60
:100D480007F309FB18AA1FFA8CFE2B4300FA01F5DA
:100D580008FB0EF01C0C44EA0A44A04202FA01F215
:100D68000BD91CEB040408F1FF3A80F08680A042FE
:100D780040F28380A8F102086444241A98B2B4FBB4
:100D8800F9F309FB134403FB0EFE40EA0444A645AD
:100D980008D91CEB040403F1FF306AD2A64568D9D0
:100DA800023B644443EA0840A0FB0293A4EB0E0410
:100DB8009C42C8469E4654D351D0002E67D0B5EB0E
:100DC800080364EB0E04CB4004FA07F71F43CC403A
:100DD800C6E9007400214AE702FA03FCC3F12000C7
:100DE800C1409D4024FA00F04FEA1C472843B1FB5C
:100DF800F7F507FB15111FFA8CFE020C42EA0142B7
:100E080005FB0EF1914204FA03F408D91CEB020227
:100E180005F1FF382FD291422DD9023D6244521A72
:100E2800B2FBF7F107FB112280B240EA024001FB56
:100E38000EF2824208D91CEB000001F1FF3816D2ED
:100E4800824214D902396044801A41EA05413AE7DE
:100E5800314630460BE77146E9E61046FEE64D4559
:100E6800ABD2B9EB020863EB0C0E0138A5E741469B
:100E7800EAE7034696E74546D1E7D0467DE764446E
:100E8800023849E7023D624431E708460AE731463D
:100E9800EDE600BF704700BF30B587B0002402946C
:100EA800039404940594134B9A6942F020029A61C2
:100EB8009A6902F020020092009A9A6942F00402AC
:100EC8009A619B6903F004030193019B0125029534
:100ED800094B03930223049302A9084804F098FEDF
:100EE80022462946062004F039FE062004F06EFE4C
:100EF80007B030BD0010024000001110000801408A
:100F0800064B4FF480725A614FF400725A610449DB
:100F1800C8608021596119611A6170470010014049
:100F2800000C0140064B4FF480721A614FF40072B6
:100F38005A610449C8608021596119611A61704772
:100F480000100140000C014008B5164B4FF08832E4
:100F58001A605A600022DA6003F580634FF48072E9
:100F68001A614FF400725A6140225A610E4B9A88F6
:100F780048F689139A4210D00A4B98680B4A4021C8
:100F880011614FF4007111614FF033321A605A60E9
:100F98004FF6FF72DA6080B208BD012004F0B8FD98
:100FA800EAE700BF000C0140E40600200010014001
:100FB80010B50C46FFF7A4FF064B4FF480721A6178
:100FC8004FF400725A610449CC608021596119615B
:100FD8001A6110BD00100140000C014008B5FFF770
:100FE8008FFFFFF7B1FF08BD08B5024B1889FFF75F
:100FF80087FF08BDE40600202DE9F84F05460E4698
:101008009C4B9B8849F24132934220D045F21032E2
:1010180093421CD046F60402934259D041F663121B
:10102800934200F0A08045F21052934200F02881CC
:10103800904B9B79012B00F06F818E4C294660897B
:10104800FFF7B6FF3146A089FFF7B2FF3EE0DFF8B1
:1010580024B2BBF80A00FFF753FF874C4FF4807A9D
:10106800C4F810A04FF4007767612B0ADFF80C92E0
:10107800C9F80C304FF08008C4F81480C4F8108008
:101088002761C4F810A06761EDB2C9F80C50C4F824
:101098001480C4F810802761BBF80C00FFF730FFFC
:1010A800C4F810A06761330AC9F80C30C4F814807A
:1010B800C4F810802761C4F810A06761F6B2C9F8B7
:1010C8000C60C4F81480C4F810802761BDE8F88F5C
:1010D800684B9B79012B3FD0DFF898B1BBF80A0029
:1010E800FFF70EFF644C4FF4807AC4F810A04FF459
:1010F800007767612B0ADFF88491C9F80C304FF04C
:101108008008C4F81480C4F810802761C4F810A0BF
:101118006761EDB2C9F80C50C4F81480C4F81080A7
:101128002761BBF80C00FFF7EBFEC4F810A067615D
:10113800330AC9F80C30C4F81480C4F81080276149
:10114800C4F810A06761F6B2C9F80C60C4F814803E
:10115800C4F810802761B9E7464B1B881B1A9BB25D
:10116800013B9DB2B8E7434B9B79002B54D1414BCF
:101178001C88241AA4B2013CA4B25889FFF7C0FE07
:101188003D4B4FF480751D614FF400725A613B4826
:101198000027C7608021596119611A611D615A6170
:1011A800C760596119611A611D615A61270AC760D0
:1011B800596119611A611D615A61E4B2C4605961CB
:1011C80019611A612B4FB889FFF79AFE2A4B4FF421
:1011D80080751D614FF400725A61310A274CE16035
:1011E8008021596119611A611D615A61F6B2E66080
:1011F800596119611A611D615A61788801380612AE
:10120800E660596119611A611D615A61C0B2E060F6
:10121800596119611A6159E7DFF85880B8F80A006E
:10122800FFF76EFE144B4FF480771F614FF4007286
:101238005A61290A114CE1608021596119611A61CA
:101248001F615A61EDB2E560596119611A611F6148
:101258005A61B8F8000001380512E5605961196152
:101268001A611F615A61C0B2E060596119611A615F
:10127800A8E700BFE406002000100140000C014070
:10128800DFF8A4B0BBF80A00FFF73AFE274C4FF48A
:10129800807AC4F810A04FF4007767612B0ADFF852
:1012A8009090C9F80C304FF08008C4F81480C4F846
:1012B80010802761BBF80A00013080B2FFF720FEDA
:1012C800C4F810A06761EDB2C9F80C50C4F81480D6
:1012D800C4F810802761BBF80C00FFF711FEC4F8B2
:1012E80010A06761330AC9F80C30C4F81480C4F838
:1012F80010802761BBF80C00013080B2FFF700FEB8
:10130800C4F810A06761F6B2C9F80C60C4F814807C
:10131800C4F810802761D9E6034B1B881B1A9BB2BF
:10132800013B9DB289E600BFE406002000100140A1
:10133800000C01402DE9F047804B9B79012B29D007
:101348002BB97E4B9A8841F663139A422CD07B4B7B
:101358009A8849F241339A423ED046F604039A42AB
:101368003AD045F210339A4236D045F210539A4299
:1013780032D041F663139A422ED0072800F26081DA
:10138800DFE810F06C01600162015E016401660132
:1013980068016A01694A928846F604018A42CFD0F8
:1013A80041F663118A42CBD00728D0D8DFE800F095
:1013B800120406080A0C0E100720C8E70420C6E726
:1013C8000520C4E70120C2E70020C0E70320BEE7EC
:1013D8000220BCE70620BAE70138062805D8DFE86E
:1013E80000F01206080A0C0E100000240CE040243D
:1013F8000AE0C02408E0202406E0602404E0A024D9
:1014080002E0E02400E0802445F210539A4200F004
:101418008680362045F210339A4209D045F210539F
:101428009A4205D041F663139A4201D044F0080469
:1014380046F604039A4275D02146FFF7B9FD3F4BA3
:101448009B8841F6631293420AD014F0200F6CD0A7
:101458003A4A11885288914202D238480280418023
:1014680045F2105293426FD0DFF8D090B9F80A00D5
:10147800FFF746FD324C4FF48078C4F810804FF4E3
:10148800007565612F4F4FF0000AC7F80CA0802641
:10149800666126612561C4F810806561C7F80CA0F3
:1014A800666126612561C4F810806561B9F800306D
:1014B800013B1A12FA60666126612561C4F8108042
:1014C8006561DBB2FB60666126612561B9F80C00D5
:1014D800FFF716FDC4F810806561C7F80CA06661B7
:1014E80026612561C4F810806561C7F80CA06661A3
:1014F80026612561C4F810806561B9F80230013BA6
:101508001A12FA60666126612561C4F81080656167
:10151800DBB2FB60666126612561BDE8F0874FF4A8
:10152800585077E744F0020486E7044A1188528845
:10153800914295D901480280418091E7E406002054
:1015480000100140000C0140484F7889FFF7D8FC93
:10155800474C4FF48079C4F810904FF400756561DA
:10156800DFF810814FF0000AC8F80CA080266661E9
:10157800266125617889013080B2FFF7C1FCC4F883
:1015880010906561C8F80CA06661266125617889AC
:10159800023080B2FFF7B4FCC4F8109065613B8854
:1015A800013B1B12C8F80C306661266125617889F9
:1015B800033080B2FFF7A4FCC4F8109065613B8843
:1015C800013BDBB2C8F80C30666126612561B88939
:1015D800FFF796FCC4F810906561C8F80CA0666126
:1015E80026612561B889013080B2FFF789FCC4F80B
:1015F80010906561C8F80CA0666126612561B889FC
:10160800023080B2FFF77CFCC4F8109065617B88DB
:10161800013B1B12C8F80C30666126612561B88948
:10162800033080B2FFF76CFCC4F8109065617B88CA
:10163800013BDBB2C8F80C306661266125616CE7B6
:1016480000210CE010210AE0202108E0382106E002
:10165800282104E0182102E0082100E0302141F4AB
:1016680080510320FFF7A4FC57E700BFE4060020E1
:1016780000100140000C01402DE9F04F83B00546F1
:101688000E460192C34B9B8849F24132934220D0C7
:1016980045F2103293421CD045F21052934270D05A
:1016A80041F66312934200F0B88046F60402934272
:1016B80000F02481B74B9B79012B00F07181B54C68
:1016C80029466089FFF774FC3146A089FFF770FC52
:1016D8003EE0DFF8C0B2BBF80A00FFF711FCAE4CE1
:1016E8004FF4807AC4F810A04FF4007767612B0A92
:1016F800DFF8A892C9F80C304FF08008C4F81480BD
:10170800C4F810802761C4F810A06761EDB2C9F869
:101718000C50C4F81480C4F810802761BBF80C0082
:10172800FFF7EEFBC4F810A06761330AC9F80C3064
:10173800C4F81480C4F810802761C4F810A0676149
:10174800F6B2C9F80C60C4F81480C4F81080276198
:10175800914B4FF480745C614FF400725A618D496B
:1017680009898E48C1608021596119611A611C611B
:101778005A61019CC460596119611A6103B0BDE8DE
:10178800F08FDFF810A2BAF80A00FFF7B9FB824C15
:101798004FF48079C4F810904FF4007767612B0AF2
:1017A800DFF8F8B1CBF80C304FF08008C4F814809B
:1017B800C4F810802761BAF80A00013080B2FFF738
:1017C8009FFBC4F810906761EDB2CBF80C50C4F8D9
:1017D8001480C4F810802761BAF80C00FFF790FB5A
:1017E800C4F810906761330ACBF80C30C4F8148041
:1017F800C4F810802761BAF80C00013080B2FFF7F6
:101808007FFBC4F810906761F6B2CBF80C60C4F89F
:101818001480C4F8108027619AE75E4B9B792BB936
:101828005C4B1B881B1A9BB2013B9DB2DFF864B16D
:10183800BBF80A00FFF764FB574C4FF4807AC4F8F2
:1018480010A04FF4007767612B0ADFF85091C9F8B0
:101858000C304FF08008C4F81480C4F81080276159
:10186800C4F810A06761EDB2C9F80C50C4F8148030
:10187800C4F810802761C4F810A06761C9F80C305B
:10188800C4F81480C4F810802761C4F810A06761F8
:10189800C9F80C50C4F81480C4F810802761BBF84C
:1018A8000C00FFF72DFBC4F810A06761330AC9F8D4
:1018B8000C30C4F81480C4F810802761C4F810A054
:1018C8006761F6B2C9F80C60C4F81480C4F81080D7
:1018D8002761C4F810A06761C9F80C30C4F81480F7
:1018E800C4F810802761C4F810A06761C9F80C60BB
:1018F800C4F81480C4F81080276129E7254B9B7928
:10190800012B3FD0DFF88CB0BBF80A00FFF7F8FADC
:10191800214C4FF4807AC4F810A04FF40077676127
:101928002B0ADFF87890C9F80C304FF08008C4F81B
:101938001480C4F810802761C4F810A06761EDB264
:10194800C9F80C50C4F81480C4F810802761BBF89B
:101958000C00FFF7D5FAC4F810A06761330AC9F87C
:101968000C30C4F81480C4F810802761C4F810A0A3
:101978006761F6B2C9F80C60C4F81480C4F8108026
:101988002761E5E6034B1B881B1A9BB2013B9DB2FE
:10199800B8E700BFE406002000100140000C014039
:1019A800034B1B881B1A9BB2013B9DB287E600BF05
:1019B800E4060020000000002DE9F8438146BE201F
:1019C800FFF79EFA224C4FF48078C4F810804FF449
:1019D800007565611F4F0523FB60802666612661DF
:1019E8002561C4F8108065614846FEF76BFD16A3B3
:1019F800D3E90023FEF7F8FDFEF7CEFDF860666137
:101A080026612561C4F8108065610123FB60666169
:101A180026612561C4F810806561FF23FB6066615B
:101A280026612561C4F8108065610023FB6066614A
:101A380026612561C4F810806561FB6066612661D6
:101A48002561BDE8F88300BF666666666666044081
:101A580000100140000C014008B500285AD1604B25
:101A680000229A71F0221A804FF4A0725A809B8843
:101A780049F24132934217D046F60402934213D0FA
:101A880045F2103293420FD045F21052934222D0C1
:101A980041F6631293422FD0514B22221A81202201
:101AA8005A8121229A8170E04D4A2C2111812A21E4
:101AB80051812B21918146F60402934203D045F2CD
:101AC8001032934261D1464B4FF4A0721A804FF402
:101AD800F0725A8059E0424B4FF430521A814FF459
:101AE80028525A814FF42C529A814FF4F0721A807E
:101AF8004FF448725A8048E0394B2C221A812B2225
:101B08005A812A229A814FF4F0721A804FF448724F
:101B18005A803AE0324B01229A714FF4A0721A802F
:101B2800F0225A809B8849F24132934217D045F2FD
:101B38001032934213D046F60402934229D045F25C
:101B4800105293422DD041F6631293423AD0244A60
:101B580022211181212151812021918106E0204AF1
:101B68002C2111812A2151812B21918146F60402D1
:101B7800934203D045F21032934206D1184B4FF4EA
:101B8800F0721A804FF4A0725A800020FFF7D2FB3F
:101B980008BD134A2C2111812B2151812A219181C1
:101BA800E4E70F4A4FF4305111814FF42851518125
:101BB8004FF42C5191814FF4487111804FF4F0711A
:101BC8005180D3E7064A2C2111812A2151812B21EA
:101BD80091814FF4487111804FF4F0715180C5E73D
:101BE800E40600202DE9F04106461D4B1A885D8861
:101BF80002FB05F59A8846F604039A4203D1184B6E
:101C08009B79012B07D000210846FFF7F5F9FFF76C
:101C1800EBF900221FE0124C0020A0712A276781EF
:101C28004FF02B08A4F80C800146FFF7E5F90123D3
:101C3800A371A4F80A80A781E9E70A4B4FF48071E1
:101C480019614FF400715961074CE66080245C61AA
:101C58001C6119610132AA42EFD3BDE8F08100BFCF
:101C6800E406002000100140000C01402DE9F04F6F
:101C780087B0304B9A6942F008029A619A6902F07B
:101C880008020092009A9A6942F010029A619B69D0
:101C980003F010030193019B4FF4F86302930124AE
:101CA800039404940323059302A9234803F0B0FF87
:101CB8004FF6FF73029302A9204803F0A9FF3220D0
:101CC80003F026FF21460020FFF772F9322003F0C7
:101CD8001FFF0020FFF782F9194B9880A0F1FF033E
:101CE8009BB2B3F57F4F80F0AA87B0F5134F00F091
:101CF800A687134B9B8849F24132934201F02A8010
:101D080046F60402934202F0768402F2A38244F279
:101D18003552934203F01A8241F2428145F2084259
:101D2800934203F06D8045F21052934241F01483C0
:101D380008E000BF0010024000100140000C014004
:101D4800E406002055214FF47040FFF731F9AA212D
:101D58004FF20100FFF72CF952214FF20200FFF772
:101D680027F908214FF20300FFF722F901214FF26A
:101D78000400FFF71DF90D214FF43040FFF718F963
:101D88000D214BF20100FFF713F90D214BF2020070
:101D9800FFF70EF934214FF43640FFF709F93421E3
:101DA8004BF20160FFF704F934214BF20260FFF7B0
:101DB800FFF80D214FF43140FFF7FAF80D214BF2EF
:101DC8000110FFF7F5F80D214BF20210FFF7F0F8BC
:101DD80034214FF43740FFF7EBF834214BF2017010
:101DE800FFF7E6F834214BF20270FFF7E1F8002123
:101DF8004FF43240FFF7DCF800214BF20120FFF7E7
:101E0800D7F800214BF20220FFF7D2F824214FF433
:101E18003840FFF7CDF824214BF60100FFF7C8F84A
:101E280024214BF60200FFF7C3F801214FF43F408D
:101E3800FFF7BEF80F214FF43340FFF7B9F80F2131
:101E48004BF20130FFF7B4F80F214BF20230FFF7E5
:101E5800AFF834214FF43940FFF7AAF834214BF694
:101E68000110FFF7A5F834214BF60210FFF7A0F890
:101E780008214FF43540FFF79BF808214BF2015039
:101E8800FFF796F808214BF20250FFF791F803216B
:101E98004FF44240FFF78CF824214FF43A40FFF703
:101EA80087F824214BF60120FFF782F824214BF60E
:101EB8000220FFF77DF800214FF43C40FFF778F847
:101EC80078214BF60140FFF773F800214BF60240EA
:101ED800FFF76EF800214FF43D40FFF769F87821CD
:101EE8004BF60150FFF764F800214BF60250FFF75C
:101EF8005FF800214FF43E40FFF75AF864214BF693
:101F08000160FFF755F800214FF45140FFF750F8F2
:101F180033214DF20110FFF74BF800214DF202106A
:101F2800FFF746F834214DF20310FFF741F800217E
:101F38004DF20410FFF73CF83A214DF20510FFF777
:101F480037F800214DF20610FFF732F84A214DF21A
:101F58000710FFF72DF800214DF20810FFF728F8B9
:101F68005C214DF20910FFF723F800214DF20A1009
:101F7800FFF71EF881214DF20B10FFF719F8002129
:101F88004DF20C10FFF714F8A6214DF20D10FFF7D3
:101F98000FF800214DF20E10FFF70AF8E5214DF277
:101FA8000F10FFF705F801214DF21010FFF700F8A8
:101FB80013214DF21110FEF7FBFF01214DF2121013
:101FC800FEF7F6FF54214DF21310FEF7F1FF012141
:101FD8004DF21410FEF7ECFF82214DF21510FEF7BA
:101FE800E7FF01214DF21610FEF7E2FFCA214DF27C
:101FF8001710FEF7DDFF02214DF21810FEF7D8FF8B
:1020080000214DF21910FEF7D3FF02214DF21A10EC
:10201800FEF7CEFF01214DF21B10FEF7C9FF02218A
:102028004DF21C10FEF7C4FF34214DF21D10FEF7CF
:10203800BFFF02214DF21E10FEF7BAFF67214DF2D5
:102048001F10FEF7B5FF02214DF22010FEF7B0FF7A
:1020580084214DF22110FEF7ABFF02214DF2221030
:10206800FEF7A6FFA4214DF22310FEF7A1FF0221DF
:102078004DF22410FEF79CFFB7214DF22510FEF714
:1020880097FF02214DF22610FEF792FFCF214DF265
:102098002710FEF78DFF02214DF22810FEF788FF6A
:1020A800DE214DF22910FEF783FF02214DF22A109E
:1020B800FEF77EFFF2214DF22B10FEF779FF022189
:1020C8004DF22C10FEF774FFFE214DF22D10FEF795
:1020D8006FFF03214DF22E10FEF76AFF10214DF21B
:1020E8002F10FEF765FF03214DF23010FEF760FF59
:1020F80033214DF23110FEF75BFF03214DF2321010
:10210800FEF756FF6D214DF23310FEF751FF002107
:102118004FF45240FEF74CFF33214DF20120FEF7F9
:1021280047FF00214DF20220FEF742FF34214DF215
:102138000320FEF73DFF00214DF20420FEF738FF93
:102148003A214DF20520FEF733FF00214DF206201B
:10215800FEF72EFF4A214DF20720FEF729FF002146
:102168004DF20820FEF724FF5C214DF20920FEF70E
:102178001FFF00214DF20A20FEF71AFF81214DF2C0
:102188000B20FEF715FF00214DF20C20FEF710FF83
:10219800A6214DF20D20FEF70BFF00214DF20E2077
:1021A800FEF706FFE5214DF20F20FEF701FF0121A2
:1021B8004DF21020FEF7FCFE13214DF21120FEF720
:1021C800F7FE01214DF21220FEF7F2FE54214DF2E6
:1021D8001320FEF7EDFE01214DF21420FEF7E8FE74
:1021E80082214DF21520FEF7E3FE01214DF2162063
:1021F800FEF7DEFECA214DF21720FEF7D9FE0221B6
:102208004DF21820FEF7D4FE00214DF21920FEF7FA
:10221800CFFE02214DF21A20FEF7CAFE01214DF22F
:102228001B20FEF7C5FE02214DF21C20FEF7C0FE62
:1022380034214DF21D20FEF7BBFE02214DF21E2077
:10224800FEF7B6FE67214DF21F20FEF7B1FE022110
:102258004DF22020FEF7ACFE84214DF22120FEF73E
:10226800A7FE02214DF22220FEF7A2FEA4214DF284
:102278002320FEF79DFE02214DF22420FEF798FE52
:10228800B7214DF22520FEF793FE02214DF22620BC
:10229800FEF78EFECF214DF22720FEF789FE0221A0
:1022A8004DF22820FEF784FEDE214DF22920FEF7AC
:1022B8007FFE02214DF22A20FEF77AFEF2214DF22E
:1022C8002B20FEF775FE02214DF22C20FEF770FE42
:1022D800FE214DF22D20FEF76BFE03214DF22E203C
:1022E800FEF766FE10214DF22F20FEF761FE032156
:1022F8004DF23020FEF75CFE33214DF23120FEF71F
:1023080057FE03214DF23220FEF752FE6D214DF2A9
:102318003320FEF74DFE00214FF45340FEF748FEF0
:1023280033214DF20130FEF743FE00214DF2023019
:10233800FEF73EFE34214DF20330FEF739FE002150
:102348004DF20430FEF734FE3A214DF20530FEF727
:102358002FFE00214DF20630FEF72AFE4A214DF2EB
:102368000730FEF725FE00214DF20830FEF720FE6B
:102378005C214DF20930FEF71BFE00214DF20A30B8
:10238800FEF716FE81214DF20B30FEF711FE0021FB
:102398004DF20C30FEF70CFEA6214DF20D30FEF783
:1023A80007FE00214DF20E30FEF702FEE5214DF248
:1023B8000F30FEF7FDFD01214DF21030FEF7F8FD5C
:1023C80013214DF21130FEF7F3FD01214DF21230C9
:1023D800FEF7EEFD54214DF21330FEF7E9FD012121
:1023E8004DF21430FEF7E4FD82214DF21530FEF770
:1023F800DFFD01214DF21630FEF7DAFDCA214DF25C
:102408001730FEF7D5FD02214DF21830FEF7D0FD4A
:1024180000214DF21930FEF7CBFD02214DF21A30A2
:10242800FEF7C6FD01214DF21B30FEF7C1FD02216A
:102438004DF21C30FEF7BCFD34214DF21D30FEF785
:10244800B7FD02214DF21E30FEF7B2FD67214DF2B5
:102458001F30FEF7ADFD02214DF22030FEF7A8FD3A
:1024680084214DF22130FEF7A3FD02214DF22230E6
:10247800FEF79EFDA4214DF22330FEF799FD0221BF
:102488004DF22430FEF794FDB7214DF22530FEF7CA
:102498008FFD02214DF22630FEF78AFDCF214DF245
:1024A8002730FEF785FD02214DF22830FEF780FD2A
:1024B800DE214DF22930FEF77BFD02214DF22A3054
:1024C800FEF776FDF2214DF22B30FEF771FD022169
:1024D8004DF22C30FEF76CFDFE214DF22D30FEF74B
:1024E80067FD03214DF22E30FEF762FD10214DF2FB
:1024F8002F30FEF75DFD03214DF23030FEF758FD19
:1025080033214DF23130FEF753FD03214DF23230C5
:10251800FEF74EFD6D214DF23330FEF749FD0021E7
:102528004FF45440FEF744FD33214DF20140FEF7CD
:102538003FFD00214DF20240FEF73AFD34214DF2F5
:102548000340FEF735FD00214DF20440FEF730FD53
:102558003A214DF20540FEF72BFD00214DF20640D1
:10256800FEF726FD4A214DF20740FEF721FD002126
:102578004DF20840FEF71CFD5C214DF20940FEF7C4
:1025880017FD00214DF20A40FEF712FD81214DF2A0
:102598000B40FEF70DFD00214DF20C40FEF708FD43
:1025A800A6214DF20D40FEF703FD00214DF20E402D
:1025B800FEF7FEFCE5214DF20F40FEF7F9FC012184
:1025C8004DF21040FEF7F4FC13214DF21140FEF7D6
:1025D800EFFC01214DF21240FEF7EAFC54214DF2C6
:1025E8001340FEF7E5FC01214DF21440FEF7E0FC34
:1025F80082214DF21540FEF7DBFC01214DF2164019
:10260800FEF7D6FCCA214DF21740FEF7D1FC022195
:102618004DF21840FEF7CCFC00214DF21940FEF7B0
:10262800C7FC02214DF21A40FEF7C2FC01214DF20F
:102638001B40FEF7BDFC02214DF21C40FEF7B8FC22
:1026480034214DF21D40FEF7B3FC02214DF21E402D
:10265800FEF7AEFC67214DF21F40FEF7A9FC0221F0
:102668004DF22040FEF7A4FC84214DF22140FEF7F4
:102678009FFC02214DF22240FEF79AFCA4214DF264
:102688002340FEF795FC02214DF22440FEF790FC12
:10269800B7214DF22540FEF78BFC02214DF2264072
:1026A800FEF786FCCF214DF22740FEF781FC022180
:1026B8004DF22840FEF77CFCDE214DF22940FEF762
:1026C80077FC02214DF22A40FEF772FCF2214DF20E
:1026D8002B40FEF76DFC02214DF22C40FEF768FC02
:1026E800FE214DF22D40FEF763FC03214DF22E40F2
:1026F800FEF75EFC10214DF22F40FEF759FC032136
:102708004DF23040FEF754FC33214DF23140FEF7D4
:102718004FFC03214DF23240FEF74AFC6D214DF289
:102728003340FEF745FC00214FF45540FEF740FCCE
:1027380033214DF20150FEF73BFC00214DF20250CF
:10274800FEF736FC34214DF20350FEF731FC002130
:102758004DF20450FEF72CFC3A214DF20550FEF7DD
:1027680027FC00214DF20650FEF722FC4A214DF2CB
:102778000750FEF71DFC00214DF20850FEF718FC2B
:102788005C214DF20950FEF713FC00214DF20A506E
:10279800FEF70EFC81214DF20B50FEF709FC0021DB
:1027A8004DF20C50FEF704FCA6214DF20D50FEF739
:1027B800FFFB00214DF20E50FEF7FAFBE5214DF22A
:1027C8000F50FEF7F5FB01214DF21050FEF7F0FB1C
:1027D80013214DF21150FEF7EBFB01214DF212507F
:1027E800FEF7E6FB54214DF21350FEF7E1FB012101
:1027F8004DF21450FEF7DCFB82214DF21550FEF726
:10280800D7FB01214DF21650FEF7D2FBCA214DF23B
:102818001750FEF7CDFB02214DF21850FEF7C8FB0A
:1028280000214DF21950FEF7C3FB02214DF21A5058
:10283800FEF7BEFB01214DF21B50FEF7B9FB02214A
:102848004DF21C50FEF7B4FB34214DF21D50FEF73B
:10285800AFFB02214DF21E50FEF7AAFB67214DF295
:102868001F50FEF7A5FB02214DF22050FEF7A0FBFA
:1028780084214DF22150FEF79BFB02214DF222509C
:10288800FEF796FBA4214DF22350FEF791FB02219F
:102898004DF22450FEF78CFBB7214DF22550FEF780
:1028A80087FB02214DF22650FEF782FBCF214DF225
:1028B8002750FEF77DFB02214DF22850FEF778FBEA
:1028C800DE214DF22950FEF773FB02214DF22A500A
:1028D800FEF76EFBF2214DF22B50FEF769FB022149
:1028E8004DF22C50FEF764FBFE214DF22D50FEF701
:1028F8005FFB03214DF22E50FEF75AFB10214DF2DB
:102908002F50FEF755FB03214DF23050FEF750FBD8
:1029180033214DF23150FEF74BFB03214DF232507B
:10292800FEF746FB6D214DF23350FEF741FB0021C7
:102938004FF45640FEF73CFB33214DF20160FEF7A1
:1029480037FB00214DF20260FEF732FB34214DF2D5
:102958000360FEF72DFB00214DF20460FEF728FB13
:102968003A214DF20560FEF723FB00214DF2066087
:10297800FEF71EFB4A214DF20760FEF719FB002106
:102988004DF20860FEF714FB5C214DF20960FEF77A
:102998000FFB00214DF20A60FEF70AFB81214DF280
:1029A8000B60FEF705FB00214DF20C60FEF700FB03
:1029B800A6214DF20D60FEF7FBFA00214DF20E60E4
:1029C800FEF7F6FAE5214DF20F60FEF7F1FA012164
:1029D8004DF21060FEF7ECFA13214DF21160FEF78C
:1029E800E7FA01214DF21260FEF7E2FA54214DF2A6
:1029F8001360FEF7DDFA01214DF21460FEF7D8FAF4
:102A080082214DF21560FEF7D3FA01214DF21660CE
:102A1800FEF7CEFACA214DF21760FEF7C9FA022175
:102A28004DF21860FEF7C4FA00214DF21960FEF766
:102A3800BFFA02214DF21A60FEF7BAFA01214DF2EF
:102A48001B60FEF7B5FA02214DF21C60FEF7B0FAE2
:102A580034214DF21D60FEF7ABFA02214DF21E60E3
:102A6800FEF7A6FA67214DF21F60FEF7A1FA0221D0
:102A78004DF22060FEF79CFA84214DF22160FEF7AA
:102A880097FA02214DF22260FEF792FAA4214DF244
:102A98002360FEF78DFA02214DF22460FEF788FAD2
:102AA800B7214DF22560FEF783FA02214DF2266028
:102AB800FEF77EFACF214DF22760FEF779FA022160
:102AC8004DF22860FEF774FADE214DF22960FEF718
:102AD8006FFA02214DF22A60FEF76AFAF2214DF2EE
:102AE8002B60FEF765FA02214DF22C60FEF760FAC2
:102AF800FE214DF22D60FEF75BFA03214DF22E60A8
:102B0800FEF756FA10214DF22F60FEF751FA032115
:102B18004DF23060FEF74CFA33214DF23160FEF78A
:102B280047FA03214DF23260FEF742FA6D214DF269
:102B38003360FEF73DFA55214FF47040FEF738FA3E
:102B4800AA214FF20100FEF733FA52214FF2020098
:102B5800FEF72EFA08214FF20300FEF729FA0021AA
:102B68004FF20400FEF724FACC214FF43140FEF76F
:102B78001FFA00214BF20110FEF71AFA05214FF453
:102B88003640FEF715FA70214FF43740FEF710FA79
:102B980070214BF20170FEF70BFA01214FF4384017
:102BA800FEF706FA03214BF60100FEF701FA0321AE
:102BB8004BF60200FEF7FCF903214BF60300FEF783
:102BC800F7F902214FF43C40FEF7F2F900214BF6E9
:102BD8000140FEF7EDF900214BF60240FEF7E8F957
:102BE800D0214FF44940FEF7E3F902214CF60110D9
:102BF800FEF7DEF950214CF60210FEF7D9F9502104
:102C08004CF60310FEF7D4F950214CF60410FEF7E9
:102C1800CFF900214FF45450FEF7CAF955214FF46B
:102C28006850FEF7C5F94FF48850FEF769F901209E
:102C380002F06EFF4FF42450FEF762F99EE1D320B4
:102C4800FEF75EF9FEF780F9FEF77EF9FEF77CF9EC
:102C5800D14CA0800002A080FEF776F9A388184323
:102C680080B2A08049F2413398423FF442A8BF2085
:102C7800FEF746F9FEF768F9FEF766F9FEF764F91C
:102C8800FEF762F9A0800002A080FEF75DF9A38834
:102C9800184380B2A08046F6040398423FF429A85E
:102CA800D420FEF72DF9FEF74FF9FEF74DF9FEF7A0
:102CB8004BF9A0800002A080FEF746F9A3881843CC
:102CC80080B2A08045F2103398423FF412A84FF426
:102CD8005A40FEF715F9FEF737F94FF45B40FEF757
:102CE8000FF9FEF731F9A0800002A0804FF45C4094
:102CF800FEF706F9FEF728F9A388184380B2A080EA
:102D0800B0F5004F22D0A44B9A8845F210539A424E
:102D18003EF4EFAFA120FEF7F3F8FEF715F99E4C4D
:102D2800A080FEF711F9A0800002A080FEF70CF940
:102D3800A38803439BB2A38045F2617293427EF459
:102D4800D8AF41F66312A280FEF7D3BF45F2105206
:102D5800A280D8E7CF20FEF7D3F80020FEF7E2F8EC
:102D6800C120FEF7DFF83020FEF7DCF8ED20FEF793
:102D7800C7F86420FEF7D6F80320FEF7D3F8122030
:102D8800FEF7D0F88120FEF7CDF8E820FEF7B8F876
:102D98008520FEF7C7F81020FEF7C4F87A20FEF762
:102DA800C1F8CB20FEF7ACF83920FEF7BBF82C2091
:102DB800FEF7B8F80020FEF7B5F83420FEF7B2F8B1
:102DC8000220FEF7AFF8F720FEF79AF82020FEF76A
:102DD800A9F8EA20FEF794F80020FEF7A3F80020EF
:102DE800FEF7A0F8C020FEF78BF81B20FEF79AF834
:102DF800C120FEF785F80120FEF794F8C520FEF7FC
:102E08007FF83020FEF78EF83020FEF78BF8C720C9
:102E1800FEF776F8B720FEF785F83620FEF770F84B
:102E28004820FEF77FF83A20FEF76AF85520FEF7AB
:102E380079F8B120FEF764F80020FEF773F81A203D
:102E4800FEF770F8B620FEF75BF80A20FEF76AF87E
:102E5800A220FEF767F8F220FEF752F80020FEF7EE
:102E680061F82620FEF74CF80120FEF75BF8E02019
:102E7800FEF746F80F20FEF755F82A20FEF752F81D
:102E88002820FEF74FF80820FEF74CF80E20FEF732
:102E980049F80820FEF746F85420FEF743F8A92021
:102EA800FEF740F84320FEF73DF80A20FEF73AF80F
:102EB8000F20FEF737F80020FEF734F80020FEF761
:102EC80031F80020FEF72EF80020FEF72BF8E1205D
:102ED800FEF716F80020FEF725F81520FEF722F871
:102EE8001720FEF71FF80720FEF71CF81120FEF741
:102EF80019F80620FEF716F82B20FEF713F85620CF
:102F0800FEF710F83C20FEF70DF80520FEF70AF84A
:102F18001020FEF707F80F20FEF704F83F20FEF711
:102F280001F83F20FDF7FEFF0F20FDF7FBFF2B20E8
:102F3800FDF7E6FF0020FDF7F5FF0020FDF7F2FFA3
:102F48000120FDF7EFFF3F20FDF7ECFF2A20FDF7FA
:102F5800D7FF0020FDF7E6FF0020FDF7E3FF002084
:102F6800FDF7E0FFEF20FDF7DDFF1120FDF7C8FFBB
:102F7800782002F0CDFD2920FDF7C2FF0020FEF7E2
:102F88006BFD064B0122C3F8A8214FF6FF70FEF730
:102F980029FE07B0BDE8F08FE406002000002242B9
:102FA80041F66312934202F0828144F23152934215
:102FB80040F0BA8001210020FDF7FAFF0A2002F054
:102FC800A7FD41F228611020FDF7F2FF0E21122023
:102FD800FDF7EEFF40F639211320FDF7E9FF0A203F
:102FE80002F096FD40211120FDF7E2FF5021152047
:102FF800FDF7DEFF0A2002F08BFD1E211220FDF7EF
:10300800D7FF0A2002F084FD4FF4B1511020FDF7DC
:10301800CFFF42F639211320FDF7CAFF0A2002F03C
:1030280077FD4FF480710120FDF7C2FF4FF4407126
:103038000220FDF7BDFF41F238010320FDF7B8FF7C
:1030480040F202210820FDF7B3FF08210A20FDF70E
:10305800AFFF00213020FDF7ABFF40F202413120E5
:10306800FDF7A6FF4FF483713220FDF7A1FF40F270
:1030780003513320FDF79CFF4FF482713420FDF794
:1030880097FF40F201313520FDF792FF40F20771BA
:103098003620FDF78DFF40F205313720FDF788FF18
:1030A8004FF402713820FDF783FF40F60B71392089
:1030B800FDF77EFF02214120FDF77AFF4FF41C51F6
:1030C8006020FDF775FF01216120FDF771FF4FF4C6
:1030D80004719020FDF76CFF4FF485719220FDF785
:1030E80067FF04219320FDF763FF4FF48071A02050
:1030F800FDF75EFF01210720FDF75AFF2121072078
:10310800FDF756FF23210720FDF752FF3321072043
:10311800FDF74EFF40F233110720FDF749FF00216C
:10312800A020FDF745FF29E741F2055293427FF4BD
:1031380025AF00210720FDF73BFF322002F0E8FC15
:103148004FF48E711220FDF733FF0121A420FDF703
:103158002FFF0F210820FDF72BFF08210A20FDF77C
:1031680027FF08210D20FDF723FF40F207713020CB
:10317800FDF71EFF07213120FDF71AFF40F203611A
:103188003220FDF715FF4FF4E0613320FDF710FF03
:1031980040F202213420FDF70BFF02213520FDF714
:1031A80007FF41F60F713620FDF702FF40F2077165
:1031B8003720FDF7FDFE00213820FDF7F9FE00213C
:1031C8003920FDF7F5FE40F207713A20FDF7F0FED1
:1031D80000213B20FDF7ECFE07213C20FDF7E8FE2F
:1031E80000213D20FDF7E4FE322002F091FC012190
:1031F8000720FDF7DDFE01211720FDF7D9FE32205B
:1032080002F086FC4FF4BD511020FDF7D1FE40F2CC
:1032180017211120FDF7CCFE4FF48F711220FDF716
:10322800C7FE4FF470611320FDF7C2FE00212A206B
:10323800FDF7BEFE0A212920FDF7BAFE4FF49F7163
:103248001220FDF7B5FE00215020FDF7B1FEEF2159
:103258005120FDF7ADFE00215220FDF7A9FE40F2F6
:103268003F115320FDF7A4FE4FF41C516020FDF7D9
:103278009FFE01216120FDF79BFE00216A20FDF7DA
:1032880097FE00218020FDF793FE00218120FDF7A5
:103298008FFE00218220FDF78BFE00218320FDF7A1
:1032A80087FE00218420FDF783FE00218520FDF79D
:1032B8007FFE13219020FDF77BFE4FF44071922092
:1032C800FDF776FE05219320FDF772FE002195207B
:1032D800FDF76EFE00219720FDF76AFE0021982079
:1032E800FDF766FE4FF480710120FDF761FE4FF493
:1032F800E0610220FDF75CFE41F238010320FDF792
:1033080057FE00210420FDF753FE00210C20FDF795
:103318004FFE00210F20FDF74BFE00212020FDF776
:1033280047FE00212120FDF743FE21210720FDF75C
:103338003FFE142002F0ECFB61210720FDF738FE68
:10334800142002F0E5FB40F273110720FDF730FE70
:10335800142002F0DDFB11E645F2103293427FF4AF
:103368000DAEED20FDF7CCFD0120FDF7DBFDFE20C5
:10337800FDF7D8FDEE20FDF7C3FDDE20FDF7D2FDF9
:103388002120FDF7CFFDF120FDF7BAFD0120FDF763
:10339800C9FDDF20FDF7B4FD1020FDF7C3FDC420F3
:1033A800FDF7AEFD8F20FDF7BDFDC620FDF7A8FD9A
:1033B8000020FDF7B7FDE220FDF7B4FDE220FDF7A0
:1033C800B1FDE220FDF7AEFDBF20FDF799FDAA2073
:1033D800FDF7A8FDB020FDF793FD0D20FDF7A2FD38
:1033E8000020FDF79FFD0D20FDF79CFD0020FDF757
:1033F80099FD1120FDF796FD0020FDF793FD19209A
:10340800FDF790FD0020FDF78DFD2120FDF78AFDD9
:103418000020FDF787FD2D20FDF784FD0020FDF736
:1034280081FD3D20FDF77EFD0020FDF77BFD5D2041
:10343800FDF778FD0020FDF775FD5D20FDF772FDB5
:103448000020FDF76FFDB120FDF75AFD8020FDF744
:1034580069FD0020FDF766FD8B20FDF763FD002068
:10346800FDF760FD9620FDF75DFD0020FDF75AFD94
:10347800B220FDF745FD0020FDF754FD0020FDF7C3
:1034880051FD0220FDF74EFD0020FDF74BFD032006
:10349800FDF748FD0020FDF745FDB320FDF730FDA1
:1034A8000020FDF73FFD0020FDF73CFD0020FDF763
:1034B80039FD0020FDF736FD0020FDF733FD002023
:1034C800FDF730FD0020FDF72DFD0020FDF72AFD5A
:1034D8000020FDF727FD0020FDF724FD0020FDF763
:1034E80021FD0020FDF71EFD0020FDF71BFD00203B
:1034F800FDF718FD0020FDF715FD0020FDF712FD72
:103508000020FDF70FFD0020FDF70CFD0020FDF762
:1035180009FD0020FDF706FD0020FDF703FD002052
:10352800FDF700FD0020FDF7FDFC0020FDF7FAFC8B
:10353800B420FDF7E5FC8B20FDF7F4FC0020FDF737
:10354800F1FC9620FDF7EEFC0020FDF7EBFCA12036
:10355800FDF7E8FC0020FDF7E5FCB520FDF7D0FC01
:103568000220FDF7DFFC0020FDF7DCFC0320FDF75F
:10357800D9FC0020FDF7D6FC0420FDF7D3FC002081
:10358800FDF7D0FCB620FDF7BBFC0020FDF7CAFC18
:103598000020FDF7C7FCB720FDF7B2FC0020FDF7BF
:1035A800C1FC0020FDF7BEFC3F20FDF7BBFC00205E
:1035B800FDF7B8FC5E20FDF7B5FC0020FDF7B2FC76
:1035C8006420FDF7AFFC0020FDF7ACFC8C20FDF774
:1035D800A9FC0020FDF7A6FCAC20FDF7A3FC002009
:1035E800FDF7A0FCDC20FDF79DFC0020FDF79AFC10
:1035F8007020FDF797FC0020FDF794FC9020FDF764
:1036080091FC0020FDF78EFCEB20FDF78BFC0020E1
:10361800FDF788FCDC20FDF785FC0020FDF782FC27
:10362800B820FDF76DFC0020FDF77CFC0020FDF7BD
:1036380079FC0020FDF776FC0020FDF773FC0020E4
:10364800FDF770FC0020FDF76DFC0020FDF76AFC1B
:103658000020FDF767FCBA20FDF752FC2420FDF797
:1036680061FC0020FDF75EFC0020FDF75BFC0020FC
:10367800FDF758FCC120FDF743FC2020FDF752FC64
:103688000020FDF74FFC5420FDF74CFC0020FDF70F
:1036980049FCFF20FDF746FC0020FDF743FCC22053
:1036A800FDF72EFC0A20FDF73DFC0020FDF73AFC53
:1036B8000420FDF737FC0020FDF734FCC320FDF79C
:1036C8001FFC3C20FDF72EFC0020FDF72BFC3A20C8
:1036D800FDF728FC0020FDF725FC3920FDF722FC2A
:1036E8000020FDF71FFC3720FDF71CFC0020FDF72C
:1036F80019FC3C20FDF716FC0020FDF713FC3620D2
:10370800FDF710FC0020FDF70DFC3220FDF70AFC48
:103718000020FDF707FC2F20FDF704FC0020FDF733
:1037280001FC2C20FDF7FEFB0020FDF7FBFB292008
:10373800FDF7F8FB0020FDF7F5FB2620FDF7F2FB6F
:103748000020FDF7EFFB2420FDF7ECFB0020FDF740
:10375800E9FB2420FDF7E6FB0020FDF7E3FB23202F
:10376800FDF7E0FB0020FDF7DDFB3C20FDF7DAFB71
:103778000020FDF7D7FB3620FDF7D4FB0020FDF72E
:10378800D1FB3220FDF7CEFB0020FDF7CBFB2F202D
:10379800FDF7C8FB0020FDF7C5FB2C20FDF7C2FB99
:1037A8000020FDF7BFFB2920FDF7BCFB0020FDF73B
:1037B800B9FB2620FDF7B6FB0020FDF7B3FB24205C
:1037C800FDF7B0FB0020FDF7ADFB2420FDF7AAFBB9
:1037D8000020FDF7A7FB2320FDF7A4FB0020FDF741
:1037E800A1FBC420FDF78CFB6220FDF79BFB0020AA
:1037F800FDF798FB0520FDF795FB0020FDF792FBF0
:103808008420FDF78FFB0020FDF78CFBF020FDF7EF
:1038180089FB0020FDF786FB1820FDF783FB0020BD
:10382800FDF780FBA420FDF77DFB0020FDF77AFB68
:103838001820FDF777FB0020FDF774FB5020FDF7FB
:1038480071FB0020FDF76EFB0C20FDF76BFB0020E1
:10385800FDF768FB1720FDF765FB0020FDF762FB0D
:103868009520FDF75FFB0020FDF75CFBF320FDF7DB
:1038780059FB0020FDF756FBE620FDF753FB00201F
:10388800FDF750FBC520FDF73BFB3220FDF74AFB57
:103898000020FDF747FB4420FDF744FB0020FDF71F
:1038A80041FB6520FDF73EFB0020FDF73BFB762042
:1038B800FDF738FB0020FDF735FB8820FDF732FBCC
:1038C8000020FDF72FFBC620FDF71AFB2020FDF78F
:1038D80029FB0020FDF726FB1720FDF723FB00201E
:1038E800FDF720FB0120FDF71DFB0020FDF71AFB6B
:1038F800C720FDF705FB0020FDF714FB0020FDF7AE
:1039080011FB0020FDF70EFB0020FDF70BFBC82084
:10391800FDF7F6FA0020FDF705FB0020FDF702FB96
:103928000020FDF7FFFA0020FDF7FCFAC920FDF79B
:10393800E7FA0020FDF7F6FA0020FDF7F3FA002079
:10394800FDF7F0FA0020FDF7EDFA0020FDF7EAFA9E
:103958000020FDF7E7FA0020FDF7E4FA0020FDF764
:10396800E1FA0020FDF7DEFA0020FDF7DBFA00207F
:10397800FDF7D8FA0020FDF7D5FA0020FDF7D2FAB6
:103988000020FDF7CFFA0020FDF7CCFA0020FDF764
:10399800C9FAE020FDF7B4FA1620FDF7C3FA0020B3
:1039A800FDF7C0FA1C20FDF7BDFA0020FDF7BAFAB2
:1039B8002120FDF7B7FA0020FDF7B4FA3620FDF70D
:1039C800B1FA0020FDF7AEFA4620FDF7ABFA002069
:1039D800FDF7A8FA5220FDF7A5FA0020FDF7A2FA94
:1039E8006420FDF79FFA0020FDF79CFA7A20FDF786
:1039F80099FA0020FDF796FA8B20FDF793FA00203C
:103A0800FDF790FA9920FDF78DFA0020FDF78AFA64
:103A1800A820FDF787FA0020FDF784FAB920FDF702
:103A280081FA0020FDF77EFAC420FDF77BFA00201A
:103A3800FDF778FACA20FDF775FA0020FDF772FA4B
:103A4800D220FDF76FFA0020FDF76CFAD920FDF7B8
:103A580069FA0020FDF766FAE020FDF763FA002016
:103A6800FDF760FAF320FDF75DFA0020FDF75AFA3A
:103A7800E120FDF745FA1620FDF754FA0020FDF77E
:103A880051FA1C20FDF74EFA0020FDF74BFA2220D0
:103A9800FDF748FA0020FDF745FA3620FDF742FA0F
:103AA8000020FDF73FFA4520FDF73CFA0020FDF71E
:103AB80039FA5220FDF736FA0020FDF733FA642070
:103AC800FDF730FA0020FDF72DFA7A20FDF72AFAE3
:103AD8000020FDF727FA8B20FDF724FA0020FDF7D8
:103AE80021FA9920FDF71EFA0020FDF71BFAA820FD
:103AF800FDF718FA0020FDF715FAB920FDF712FABC
:103B08000020FDF70FFAC420FDF70CFA0020FDF79E
:103B180009FACA20FDF706FA0020FDF703FAD220B9
:103B2800FDF700FA0020FDF7FDF9D820FDF7FAF9B6
:103B38000020FDF7F7F9E020FDF7F4F90020FDF784
:103B4800F1F9F320FDF7EEF90020FDF7EBF9E2209B
:103B5800FDF7D6F90520FDF7E5F90020FDF7E2F9B4
:103B68000B20FDF7DFF90020FDF7DCF91B20FDF73E
:103B7800D9F90020FDF7D6F93420FDF7D3F9002054
:103B8800FDF7D0F94420FDF7CDF90020FDF7CAF97B
:103B98004F20FDF7C7F90020FDF7C4F96120FDF7B4
:103BA800C1F90020FDF7BEF97920FDF7BBF9002027
:103BB800FDF7B8F98820FDF7B5F90020FDF7B2F94F
:103BC8009720FDF7AFF90020FDF7ACF9A620FDF727
:103BD800A9F90020FDF7A6F9B720FDF7A3F9002001
:103BE800FDF7A0F9C220FDF79DF90020FDF79AF92D
:103BF800C720FDF797F90020FDF794F9D120FDF7CC
:103C080091F90020FDF78EF9D620FDF78BF90020F9
:103C1800FDF788F9DD20FDF785F90020FDF782F929
:103C2800F320FDF77FF90020FDF77CF9E320FDF78D
:103C380067F90520FDF776F90020FDF773F90A20EA
:103C4800FDF770F90020FDF76DF91C20FDF76AF902
:103C58000020FDF767F93320FDF764F90020FDF730
:103C680061F94420FDF75EF90020FDF75BF950206B
:103C7800FDF758F90020FDF755F96220FDF752F9D4
:103C88000020FDF74FF97820FDF74CF90020FDF7EB
:103C980049F98820FDF746F90020FDF743F99720F8
:103CA800FDF740F90020FDF73DF9A620FDF73AF9A8
:103CB8000020FDF737F9B720FDF734F90020FDF7AC
:103CC80031F9C220FDF72EF90020FDF72BF9C720A6
:103CD800FDF728F90020FDF725F9D120FDF722F995
:103CE8000020FDF71FF9D520FDF71CF90020FDF78E
:103CF80019F9DD20FDF716F90020FDF713F9F32077
:103D0800FDF710F90020FDF70DF9E420FDF7F8F8AC
:103D18000120FDF707F90020FDF704F90120FDF760
:103D280001F90020FDF7FEF80220FDF7FBF800205E
:103D3800FDF7F8F82A20FDF7F5F80020FDF7F2F86E
:103D48003C20FDF7EFF80020FDF7ECF84B20FDF7DD
:103D5800E9F80020FDF7E6F85D20FDF7E3F800201C
:103D6800FDF7E0F87420FDF7DDF80020FDF7DAF83C
:103D78008420FDF7D7F80020FDF7D4F89320FDF74D
:103D8800D1F80020FDF7CEF8A220FDF7CBF80020EF
:103D9800FDF7C8F8B320FDF7C5F80020FDF7C2F815
:103DA800BE20FDF7BFF80020FDF7BCF8C420FDF7E2
:103DB800B9F80020FDF7B6F8CD20FDF7B3F80020DC
:103DC800FDF7B0F8D320FDF7ADF80020FDF7AAF80D
:103DD800DD20FDF7A7F80020FDF7A4F8F320FDF794
:103DE800A1F80020FDF79EF8E520FDF789F80020EE
:103DF800FDF798F80020FDF795F80020FDF792F8F8
:103E08000020FDF78FF80220FDF78CF80020FDF761
:103E180089F82920FDF786F80020FDF783F83C2073
:103E2800FDF780F80020FDF77DF84B20FDF77AF8C4
:103E38000020FDF777F85D20FDF774F80020FDF706
:103E480071F87420FDF76EF80020FDF76BF88420F8
:103E5800FDF768F80020FDF765F89320FDF762F894
:103E68000020FDF75FF8A220FDF75CF80020FDF7C1
:103E780059F8B320FDF756F80020FDF753F8BE2097
:103E8800FDF750F80020FDF74DF8C420FDF74AF87B
:103E98000020FDF747F8CD20FDF744F80020FDF796
:103EA80041F8D320FDF73EF80020FDF73BF8DC2071
:103EB800FDF738F80020FDF735F8F320FDF732F864
:103EC8000020FDF72FF8E620FDF71AF81120FDF77E
:103ED80029F80020FDF726F83420FDF723F8002004
:103EE800FDF720F85620FDF71DF80020FDF71AF819
:103EF8007620FDF717F80020FDF714F87720FDF776
:103F080011F80020FDF70EF86620FDF70BF80020E9
:103F1800FDF708F88820FDF705F80020FDF702F8FE
:103F28009920FCF7FFFF0020FCF7FCFFBB20FCF703
:103F3800F9FF0020FCF7F6FF9920FCF7F3FF0020BB
:103F4800FCF7F0FF6620FCF7EDFF0020FCF7EAFF26
:103F58005520FCF7E7FF0020FCF7E4FF5520FCF7AD
:103F6800E1FF0020FCF7DEFF4520FCF7DBFF002027
:103F7800FCF7D8FF4320FCF7D5FF0020FCF7D2FF61
:103F88004420FCF7CFFF0020FCF7CCFFE720FCF72C
:103F9800B7FF3220FCF7C6FF0020FCF7C3FF55200F
:103FA800FCF7C0FF0020FCF7BDFF7620FCF7BAFF46
:103FB8000020FCF7B7FF6620FCF7B4FF0020FCF7F1
:103FC800B1FF6720FCF7AEFF0020FCF7ABFF6720CE
:103FD800FCF7A8FF0020FCF7A5FF8720FCF7A2FF4D
:103FE8000020FCF79FFF9920FCF79CFF0020FCF7BE
:103FF80099FFBB20FCF796FF0020FCF793FF992060
:10400800FCF790FF0020FCF78DFF7720FCF78AFF74
:104018000020FCF787FF4420FCF784FF0020FCF712
:1040280081FF5620FCF77EFF0020FCF77BFF232052
:10403800FCF778FF0020FCF775FF3320FCF772FFD0
:104048000020FCF76FFF4520FCF76CFF0020FCF711
:1040580069FFE820FCF754FF0020FCF763FF00200D
:10406800FCF760FF9920FCF75DFF0020FCF75AFF82
:104078008720FCF757FF0020FCF754FF8820FCF747
:1040880051FF0020FCF74EFF7720FCF74BFF002084
:10409800FCF748FF6620FCF745FF0020FCF742FFCD
:1040A8008820FCF73FFF0020FCF73CFFAA20FCF724
:1040B80039FF0020FCF736FFBB20FCF733FF002058
:1040C800FCF730FF9920FCF72DFF0020FCF72AFFB2
:1040D8006620FCF727FF0020FCF724FF5520FCF79B
:1040E80021FF0020FCF71EFF5520FCF71BFF0020D6
:1040F800FCF718FF4420FCF715FF0020FCF712FF1F
:104108004420FCF70FFF0020FCF70CFF5520FCF7BC
:1041180009FF0020FCF706FFE920FCF7F1FEAA20C2
:10412800FCF700FF0020FCF7FDFE0020FCF7FAFE7C
:104138000020FCF7F7FE0020FCF7E2FEAA20FCF7BF
:10414800F1FECF20FCF7DCFE0020FCF7EBFE0020A0
:10415800FCF7E8FE0020FCF7E5FE0020FCF7E2FE95
:104168000020FCF7DFFE0020FCF7DCFE0020FCF757
:10417800D9FE0020FCF7D6FE0020FCF7D3FE002075
:10418800FCF7D0FE0020FCF7CDFE0020FCF7CAFEAD
:104198000020FCF7C7FE0020FCF7C4FE0020FCF757
:1041A800C1FE0020FCF7BEFE0020FCF7BBFEF0209D
:1041B800FCF7A6FE0020FCF7B5FE5020FCF7B2FE87
:1041C8000020FCF7AFFE0020FCF7ACFE0020FCF757
:1041D800A9FEF320FCF794FE0020FCF7A3FEF920CB
:1041E800FCF78EFE0620FCF79DFE1020FCF79AFED9
:1041F8002920FCF797FE0020FCF794FE3A20FCF7F4
:104208007FFE5520FCF78EFE1120FCF779FE642016
:1042180001F07EFC2920FCF773FE3520FCF770FEC8
:104228000020FCF77FFE5120FCF76AFEFF20FCF718
:1042380079FE5320FCF764FE2C20FCF773FE552012
:10424800FCF75EFE8220FCF76DFE2C20FCF758FE82
:10425800FEF794BE49F23132934200F2F28049F2FD
:10426800203293422CD3A3F51343203B112B3EF667
:1042780085AE01A252F823F0E94A0008852F00080C
:10428800852F0008852F0008852F00085347000850
:10429800852F0008852F000801490008852F000890
:1042A800852F0008852F0008852F0008852F000816
:1042B800852F0008852F0008852F0008434C00082B
:1042C80048F6891293427EF459AE01210020FCF78A
:1042D8006FFE4AF6A4010320FCF76AFE00210C20B9
:1042E800FCF766FE40F60C010D20FCF761FE4FF46A
:1042F8002C510E20FCF75CFEB0211E20FCF758FE66
:1043080042F63F310120FCF753FE4FF4C061022012
:10431800FCF74EFE00211020FCF74AFE46F2780119
:104328001120FCF745FE00210520FCF741FE002185
:104338000620FCF73DFE4EF61C711620FCF738FEF1
:1043480003211720FCF734FE40F233210720FCF745
:104358002FFE00210B20FCF72BFE00210F20FCF77D
:1043680027FE00214120FCF723FE00214220FCF714
:104378001FFE00214820FCF71BFE40F23F11492098
:10438800FCF716FE00214A20FCF712FE00214B2004
:10439800FCF70EFE4FF46F414420FCF709FE0021A4
:1043A8004520FCF705FE40F23F114620FCF700FED1
:1043B80040F207713020FCF7FBFD4FF4017131200A
:1043C800FCF7F6FD4FF401713220FCF7F1FD40F2E5
:1043D80002513320FCF7ECFD40F207513420FCF782
:1043E800E7FD4FF401713520FCF7E2FD4FF4017150
:1043F8003620FCF7DDFD40F202513720FCF7D8FDEE
:1044080040F202313A20FCF7D3FD40F202313B2062
:10441800FCF7CEFD00212320FCF7CAFD0021242053
:10442800FCF7C6FD4FF400412520FCF7C1FD002133
:104438004F20FCF7BDFD00214E20FCF7B9FDFEF72B
:104448009DBD4BF20552934200F07D854CF205521A
:1044580093427EF493AD00210846FCF7A9FD0021A4
:104468000846FCF7A5FD142001F052FB0021084680
:10447800FCF79EFD00210846FCF79AFD002108463E
:10448800FCF796FD00210846FCF792FD0121A420C7
:10449800FCF78EFD142001F03BFB4FF41C5160200B
:1044A800FCF786FD40F606010820FCF781FD40F286
:1044B80003713020FCF77CFD01213120FCF778FDE9
:1044C80004213220FCF774FD4FF481713320FCF78E
:1044D8006FFD4FF440713420FCF76AFD40F2031180
:1044E8003520FCF765FD1F213620FCF761FD40F201
:1044F80003713720FCF75CFD01213820FCF758FDDB
:1045080004213920FCF754FD15219020FCF750FDBB
:104518004FF482611020FCF74BFD40F24721112037
:10452800FCF746FD4FF4DE711220FCF741FD4FF415
:1045380060611320FCF73CFD782001F0E9FA4FF4A4
:1045480080710120FCF734FD4FF400710220FCF764
:104558002FFD41F230010320FCF72AFD08210A2033
:10456800FCF726FD00210C20FCF722FD20210E205F
:10457800FCF71EFD00210F20FCF71AFD002120206A
:10458800FCF716FD00212120FCF712FD3D212A2011
:10459800FCF70EFD142001F0BBFA2D212920FCF7B1
:1045A80007FD00215020FCF703FD4DF2EF015120DB
:1045B800FCF7FEFC00215220FCF7FAFC40F23F1108
:1045C8005320FCF7F5FC00216120FCF7F1FC0021E9
:1045D8006A20FCF7EDFC4FF440719220FCF7E8FCF0
:1045E80005219320FCF7E4FC4FF480710720FCF7C9
:1045F800DFFCFEF7C3BC1120FCF782FC142001F09D
:1046080087FAD020FCF77CFC0720FCF78BFC4220C3
:10461800FCF788FC1D20FCF785FCD120FCF770FC1A
:104628000020FCF77FFC1A20FCF77CFC0920FCF733
:1046380079FCD220FCF764FC0120FCF773FC2220F3
:10464800FCF770FCC020FCF75BFC1020FCF76AFC50
:104658003B20FCF767FC0020FCF764FC0220FCF719
:1046680061FC1120FCF75EFCC520FCF749FC032027
:10467800FCF758FCC820FCF743FC0020FCF752FC70
:104688002520FCF74FFC2120FCF74CFC0520FCF70B
:1046980049FC0020FCF746FC0A20FCF743FC652097
:1046A800FCF740FC2520FCF73DFC7720FCF73AFCA2
:1046B8005020FCF737FC0F20FCF734FC0020FCF7F7
:1046C80031FCF820FCF71CFC0120FCF72BFCFE2039
:1046D800FCF716FC0020FCF725FC0220FCF722FC66
:1046E8002020FCF70DFC3620FCF70AFC0820FCF71C
:1046F80019FC3A20FCF704FC5520FCF713FC2B208E
:10470800FCF7FEFB0020FCF70DFC0020FCF70AFC80
:104718000120FCF707FC3F20FCF704FC2A20FCF7EB
:10472800EFFB0020FCF7FEFB0020FCF7FBFB012061
:10473800FCF7F8FBDF20FCF7F5FB782001F0E8F93F
:104748002920FCF7DDFBFEF719BC47F6F001E52050
:10475800FCF72EFC4FF480710120FCF729FC4FF484
:10476800E0610220FCF724FC41F230010320FCF751
:104778001FFC00210420FCF71BFC40F2022108204A
:10478800FCF716FC00210920FCF712FC00210A2086
:10479800FCF70EFC00210C20FCF70AFC00210D2080
:1047A800FCF706FC00210F20FCF702FC002110207A
:1047B800FCF7FEFB07211120FCF7FAFB0021122071
:1047C800FCF7F6FB00211320FCF7F2FB0021072081
:1047D800FCF7EEFB41F290611020FCF7E9FB40F298
:1047E80027211120FCF7E4FB9D211220FCF7E0FBB8
:1047F8004FF4C8511320FCF7DBFB25212920FCF7D7
:10480800D7FB0D212B20FCF7D3FB07213020FCF729
:10481800CFFB40F203313120FCF7CAFB03213220E1
:10482800FCF7C6FB40F206213520FCF7C1FB082146
:104838003620FCF7BDFB40F206413720FCF7B8FBF9
:104848004FF441713820FCF7B3FB07213920FCF7FE
:10485800AFFB40F202613C20FCF7AAFB08213D2097
:10486800FCF7A6FB00215020FCF7A2FBEF2151200A
:10487800FCF79EFB00215220FCF79AFB40F23F1107
:104888005320FCF795FB4FF427416020FCF790FB81
:1048980001216120FCF78CFB00216A20FCF788FBD2
:1048A80000218020FCF784FB00218120FCF780FB9D
:1048B80000218220FCF77CFB00218320FCF778FB99
:1048C80000218420FCF774FB00218520FCF770FB95
:1048D80010219020FCF76CFB4FF4C0619220FCF78C
:1048E80067FB40F233110720FCF762FB222100200E
:1048F800FCF75EFBFEF742BB41F28F01EC20FCF7B0
:1049080057FB41F23421EF20FCF752FB4FF4807142
:104918000120FCF74DFB4FF4E0610220FCF748FB57
:1049280041F230010320FCF743FB00210420FCF78F
:104938003FFB40F202210820FCF73AFB0021092046
:10494800FCF736FB00210A20FCF732FB01210C2082
:10495800FCF72EFB00210D20FCF72AFB00210F207D
:10496800FCF726FB00211020FCF722FB0721112071
:10497800FCF71EFB00211220FCF71AFB0021132074
:10498800FCF716FB01210720FCF712FB322001F08F
:10499800BFF841F290411020FCF70AFB40F22721B2
:1049A8001120FCF705FB322001F0B2F88A21122011
:1049B800FCF7FEFA322001F0ABF84FF4D051132087
:1049C800FCF7F6FA06212920FCF7F2FA0D212B2034
:1049D800FCF7EEFA322001F09BF800212020FCF7CA
:1049E800E7FA00212120FCF7E3FA322001F090F8E1
:1049F80000213020FCF7DCFA40F204613120FCF79A
:104A0800D7FA40F205313220FCF7D2FA00213520DE
:104A1800FCF7CEFA40F609413620FCF7C9FA4FF404
:104A280001713720FCF7C4FA40F201313820FCF755
:104A3800BFFA40F207713920FCF7BAFA00213C208E
:104A4800FCF7B6FA40F60A213D20FCF7B1FA32200D
:104A580001F05EF800215020FCF7AAFAEF2151205E
:104A6800FCF7A6FA00215220FCF7A2FA40F23F1107
:104A78005320FCF79DFA4FF427416020FCF798FA81
:104A880001216120FCF794FA00216A20FCF790FAD2
:104A980000218020FCF78CFA00218120FCF788FA9D
:104AA80000218220FCF784FA00218320FCF780FA99
:104AB80000218420FCF77CFA00218520FCF778FA95
:104AC80010219020FCF774FA4FF4C0619220FCF793
:104AD8006FFA40F233110720FCF76AFAFEF74EBA74
:104AE80000210846FCF764FA4FF480710120FCF7B6
:104AF8005FFA4FF4E0610220FCF75AFA41F2300104
:104B08000320FCF755FA00210420FCF751FA40F283
:104B180002210820FCF74CFA00210920FCF748FA8A
:104B280000210A20FCF744FA01210C20FCF740FA86
:104B380000210D20FCF73CFA00210F20FCF738FA81
:104B4800322000F0E5FF40F201110720FCF730FAAF
:104B5800322000F0DDFF4FF486511020FCF728FAD0
:104B680007211120FCF724FA4FF488711220FCF772
:104B78001FFA4FF430611320FCF71AFA002129209C
:104B8800FCF716FA44F210012B20FCF711FA002169
:104B98005020FCF70DFAEF215120FCF709FA00210B
:104BA8005220FCF705FA40F23F115320FCF700FAB7
:104BB8004FF41C516020FCF7FBF901216120FCF740
:104BC800F7F900216A20FCF7F3F900218020FCF7AF
:104BD800EFF900218120FCF7EBF900218220FCF796
:104BE800E7F900218320FCF7E3F900218420FCF792
:104BF800DFF900218520FCF7DBF910219020FCF774
:104C0800D7F900219220FCF7D3F901219320FCF772
:104C1800CFF94FF488719520FCF7CAF90021972045
:104C2800FCF7C6F900219820FCF7C2F940F273118D
:104C38000720FCF7BDF9FEF7A1B941F21401E720FE
:104C4800FCF7B6F94FF480710120FCF7B1F94FF485
:104C580000710220FCF7ACF941F238010320FCF79F
:104C6800A7F940F202210820FCF7A2F90021092047
:104C7800FCF79EF900210A20FCF79AF900210C2084
:104C8800FCF796F900210D20FCF792F900210F207E
:104C9800FCF78EF900211020FCF78AF90721112072
:104CA800FCF786F900211220FCF782F90021132075
:104CB800FCF77EF9C82000F02BFF41F2906110202C
:104CC800FCF776F940F227211120FCF771F9322020
:104CD80000F01EFF0C211220FCF76AF9322000F0C8
:104CE80017FF4FF400611320FCF762F91121292006
:104CF800FCF75EF90B212B20FCF75AF9322000F063
:104D080007FF00212020FCF753F940F23F11212032
:104D1800FCF74EF900213020FCF74AF94FF4837173
:104D28003120FCF745F900213220FCF741F94FF416
:104D380001713520FCF73CF941F20A613620FCF795
:104D480037F940F207713720FCF732F94FF48371D5
:104D58003820FCF72DF940F207713920FCF728F9C3
:104D680040F202413C20FCF723F940F60F413D2078
:104D7800FCF71EF900215020FCF71AF9EF21512009
:104D8800FCF716F900215220FCF712F940F23F1106
:104D98005320FCF70DF94FF41C516020FCF708F97B
:104DA80001216120FCF704F900216A20FCF700F9D1
:104DB80000218020FCF7FCF800218120FCF7F8F89E
:104DC80000218220FCF7F4F800218320FCF7F0F89A
:104DD80000218420FCF7ECF800218520FCF7E8F896
:104DE80010219020FCF7E4F84FF4C0619220FCF702
:104DF800DFF840F233110720FCF7DAF8FEF7BEB807
:104E08004FF480710120FCF7D3F84FF4E0610220E1
:104E1800FCF7CEF841F230010320FCF7C9F8002175
:104E28000420FCF7C5F840F207210820FCF7C0F879
:104E380000210920FCF7BCF800210A20FCF7B8F88B
:104E480000210C20FCF7B4F800210D20FCF7B0F885
:104E580000210F20FCF7ACF8142000F059FE41F2B5
:104E6800B0611020FCF7A4F801211120FCF7A0F88C
:104E780001211720FCF79CF84FF49C711220FCF7D5
:104E880097F84FF400611320FCF792F809212920C4
:104E9800FCF78EF809212A20FCF78AF80021A420C3
:104EA800FCF786F800215020FCF782F8EF2151200A
:104EB800FCF77EF800215220FCF77AF840F23F1107
:104EC8005320FCF775F84FF41C516020FCF770F87C
:104ED80001216120FCF76CF800216A20FCF768F8D2
:104EE80000218020FCF764F800218120FCF760F89D
:104EF80000218220FCF75CF800218320FCF758F899
:104F080000218420FCF754F800218520FCF750F894
:104F180013219020FCF74CF800219220FCF748F868
:104F280003219320FCF744F84FF488719520FCF78F
:104F38003FF840F273110720FCF73AF8322000F0EE
:104F4800E7FDFEF71BB800210846FCF731F8002101
:104F58000846FCF72DF800210846FCF729F800213F
:104F68000846FCF725F80121A420FCF721F81420B5
:104F780000F0CEFD4FF41C516020FCF719F840F208
:104F880002210820FCF714F84FF405713020FCF7D3
:104F98000FF843F215713120FCF70AF840F204616A
:104FA8003220FCF705F840F616613320FCF700F8CC
:104FB80042F211213420FBF7FBFF4FF4A8513520B2
:104FC800FBF7F6FF48F207513620FBF7F1FF41F2F5
:104FD80007413720FBF7ECFF41F203413820FBF78C
:104FE800E7FF20213920FBF7E3FF1A219020FBF788
:104FF800DFFF00211020FBF7DBFF07211120FBF763
:10500800D7FF00211220FBF7D3FF00211320FBF765
:10501800CFFF142000F07CFD4FF4E6611020FBF771
:10502800C7FF40F237111120FBF7C2FF142000F030
:105038006FFD4FF4DC711220FBF7BAFF142000F06B
:1050480067FD4FF470611320FBF7B2FF80212A201F
:10505800FBF7AEFF48212920FBF7AAFF142000F038
:1050680057FD4FF480710120FBF7A2FF4FF4E06178
:105078000220FBF79DFF41F238010320FBF798FF60
:1050880040F202210820FBF793FF00210A20FBF7DA
:105098008FFF00210C20FBF78BFF00210D20FBF771
:1050A80087FF30210E20FBF783FF00215020FBF7FC
:1050B8007FFFEF215120FBF77BFF00215220FBF7F8
:1050C80077FF40F23F115320FBF772FF4FF41C515A
:1050D8006020FBF76DFF01216120FBF769FF0021CC
:1050E8006A20FBF765FF11219020FBF761FF4FF461
:1050F800C0619220FBF75CFF40F202419320FBF76E
:1051080057FF02219420FBF753FF142000F000FD05
:1051180001210720FBF74CFF142000F0F9FC612166
:105128000720FBF745FF40F273110720FBF740FF0C
:1051380000212020FBF73CFF00212120FBF738FF4E
:1051480022210020FBF734FFFDF718BF302115207E
:10515800FBF72EFF10219A20FBF72AFF20211120B0
:10516800FBF726FF43F228411020FBF721FF02211D
:105178001220FBF71DFF41F238011320FBF718FF3F
:10518800282000F0C5FC12210846FBF711FF282053
:1051980000F0BEFC43F220411020FBF709FF43F268
:1051A80038011320FBF704FF462000F0B1FC002172
:1051B8003020FBF7FDFE40F202413120FBF7F8FEFC
:1051C80040F207313220FBF7F3FE4FF441713320F0
:1051D800FBF7EEFE04213420FBF7EAFE40F2014122
:1051E8003520FBF7E5FE40F207713620FBF7E0FEBD
:1051F80040F205313720FBF7DBFE4FF4C26138205F
:10520800FBF7D6FE4FF4C2613920FBF7D1FE4FF40D
:1052180080710120FBF7CCFE4FF440710220FBF7B0
:10522800C7FE41F230010320FBF7C2FE40F6080139
:105238000820FBF7BDFE08210A20FBF7B9FE4FF452
:105248001C516020FBF7B4FE01216120FBF7B0FE82
:105258004FF49F719020FBF7ABFE4FF480719220C2
:10526800FBF7A6FE4FF480719320FBF7A1FE4FF4E5
:105278004051A020FBF79CFE1021A320FBF798FECD
:1052880001210720FBF794FE21210720FBF790FE60
:1052980023210720FBF78CFE33210720FBF788FE2C
:1052A80040F233110720FBF783FEFDF767BEE220CB
:1052B800FBF726FEAD4C4FF48078C4F810804FF40D
:1052C80000756561AA4F1D23FB6080266661266113
:1052D8002561C4F8108065610223FB606661266160
:1052E8002561C4F8108065610422FA606661266150
:1052F8002561012000F00CFCE020FBF701FEC4F85A
:10530800108065614FF0010AC7F80CA0666126613C
:1053180025610A2000F0FCFBE020FBF7F1FDC4F852
:10532800108065614FF0030BC7F80CB06661266109
:1053380025610C2000F0ECFB5046FBF7E1FD0A204C
:1053480000F0E6FBE620FBF7DBFDC4F810806561A2
:105358002F23FB60666126612561C4F810806561B2
:10536800FF23FB60666126612561C4F810806561D2
:10537800FB60666126612561B020FBF7C1FDC4F8BA
:10538800108065612023FB60666126612561C4F891
:10539800108065614FF00009C7F80C9066612661BE
:1053A8002561C4F810806561C7F80CB06661266194
:1053B8002561C4F81080656140F21F33FB606661A7
:1053C80026612561C4F810806561C7F80CA0666184
:1053D80026612561C4F81080656140F2DF13FB6027
:1053E800666126612561C4F810806561C7F80C9074
:1053F800666126612561B420FBF782FDC4F8108040
:1054080065610422FA60666126612561C4F810802E
:10541800656140F21F43FB60666126612561C4F83F
:1054280010806561C7F80C90666126612561C4F833
:10543800108065612E23FB60666126612561C4F8D2
:1054480010806561C7F80C90666126612561C4F813
:1054580010806561C7F80C90666126612561C4F803
:1054680010806561C7F80C90666126612561C4F8F3
:1054780010806561C7F80C90666126612561B620C9
:10548800FBF73EFDC4F8108065610223FB6066618E
:1054980026612561C4F8108065614FF40373FB60D1
:1054A800666126612561C4F810806561C7F80C90B3
:1054B800666126612561C4F8108065611723FB6069
:1054C800666126612561C4F8108065611523FB605B
:1054D800666126612561C4F810806561C7F80C9083
:1054E800666126612561C4F810806561C7F80C9073
:1054F800666126612561F020FBF702FDC4F8108083
:105508006561C7F80CB06661266125612920FBF743
:10551800F7FCD020FBF7F4FCC4F810806561C7F8ED
:105528000C90666126612561BE20FBF7E9FCC4F892
:10553800108065610523FB60666126612561C4F8FA
:1055480010806561FE23FB60666126612561C4F8F1
:1055580010806561C7F80CA0666126612561C4F8F2
:1055680010806561C7F80C9004E000BF001001408E
:10557800000C0140666126612561C4F810806561F0
:10558800C7F80C90666126612561C4F810806561D2
:10559800C7F80C90666126612561B820FBF7B0FC5E
:1055A800C4F810806561C7F80CB066612661256192
:1055B800C4F810806561C7F80CA066612661256192
:1055C800BA20FBF79DFCC4F810806561C7F80CA0F1
:1055D8006661266125616420FCF7EEF9FDF7CEBC13
:1055E8002DE9F04F83B0824688461F469DF830B0BB
:1055F80013F0070318BF012303EBD703790801FB56
:1056080003F3DBB20093203AD3B2019344464FF040
:1056180000093FE0019B03EB4302294B03EB8203A4
:1056280013F8095047E0274B019A03EB021313F8CC
:10563800095040E0244B1A8821465046FCF71CF8D4
:105648006D00EDB20134A4B2204B5B88A34234D97B
:10565800A4EB0803BB4210D00136F6B2072E15D8CA
:1056680015F0800FE6D1BBF1000FE9D1184B1A886D
:1056780021465046FCF700F8E2E70AF1010A1FFA52
:105688008AFA124B1B88534517D9444609F1010978
:105698005FFA89F9009B99450FD20C2FBAD0102FC9
:1056A800C1D0182F09D1019B03EBC302094B03EBAF
:1056B800820313F809500026D0E703B0BDE8F08F45
:1056C800F8B300086CB80008E0060020E4060020E3
:1056D800000000205CBE00082DE9F04782B0824639
:1056E8000D469DF828700B9E02441FFA82F90B4460
:1056F8001FFA83F804460CE0454517D200230093AF
:105708003B4629462046FFF76BFF04EB5704A4B23B
:1057180001363278A2F12003DBB25E2B06D84C4565
:10572800EAD35FFA8AF43D44ADB2E5E702B0BDE8DA
:10573800F08772B6FEE700B591B02822002106A8CE
:1057480001F02FFA00230193029303930493059326
:10575800012206924FF4803307930A9202220D9297
:105768000E934FF4E0130F9306A800F09DFB80B949
:105778000F23019302210291002303934FF48062C7
:105788000492059301A800F0C1FD20B911B05DF89D
:1057980004FBFFF7CEFFFFF7CCFF000000B591B088
:1057A80000F092F9FCF762FAFFF7C5FFFBF774FB0C
:1057B80000F0E6F80E4800F08DFE0E4B0193102421
:1057C80000941823C82214210A20FFF785FF03AD8F
:1057D800094B1A680949284601F080F90195009497
:1057E8001823C8223C210A20FFF776FFE5E700BF0F
:1057F800FC060020B8CB0008F4060020D0CB000837
:1058080000B583B00F4B9A6942F001029A619A6918
:1058180002F001020092009ADA6942F08052DA61DD
:10582800DB6903F080530193019B052000F084F9A4
:10583800054A536823F0E06343F00073536003B0F4
:105848005DF804FB0010024000000140FEE7FEE79F
:10585800FEE7FEE7FEE770477047704708B500F0BF
:1058680045F908BD08B5012000F0FAFA08BD0000A6
:1058780008B5024800F06EFE08BD00BFFC06002017
:10588800012800D0704708B50121074800F0E0FA68
:10589800012800D008BD054B00221A604FF6FF70A2
:1058A800FCF7A0F9F6E700BF00080140F406002065
:1058B800024A136801331360704700BFF4060020E2
:1058C8000120704708B501F0BBF9162303604FF0BB
:1058D800FF3008BD08B54FF0FF31FFF7F3FFFEE7D3
:1058E80070B50C461646002506E0AFF30080214649
:1058F80001F8010B01350C46B542F6DB304670BDA8
:1059080070B50C461646002504E014F8010BAFF3F9
:1059180000800135B542F8DB304670BD4FF0FF30EE
:1059280070474FF400534B600020704701207047C8
:105938000020704710B503460C4A0D490D48006811
:1059480040B10C4800680344521A934206D8094AE9
:10595800136010BD0748084C0460F2E701F070F9C5
:105968000C2303604FF0FF30F3E700BF00C00020B6
:1059780000040000F8060020580A002070470000C4
:1059880000B587B000230293039304930593009313
:1059980001931548154A026041F61F424260836030
:1059A80044F61F62C2600361836100F0DDFE90B9B6
:1059B8004FF48053029302A90B4800F00DFF68B919
:1059C8000023009301936946074800F085FF40B91A
:1059D80007B05DF804FBFFF7ACFEE9E7FFF7A9FEA7
:1059E800EEE7FFF7A6FEF3E7FC0600200004004000
:1059F80002680E4B9A4200D0704700B583B003F599
:105A08000333DA6942F00202DA61DB6903F0020368
:105A18000193019B002201211D2000F09FF81D2009
:105A280000F0D4F803B05DF804FB00BF00040040A8
:105A3800FFF7A4FF0B480C490C4A002302E0D45896
:105A4800C4500433C4188C42F9D3094A094C0023C2
:105A580001E013600432A242FBD301F0F7F8FFF72C
:105A68009DFE704700000020C4060020A8CF000853
:105A7800C4060020540A0020FEE7000010B50446C2
:105A88000E4B1A784FF47A73B3FBF2F30C4A106892
:105A9800B0FBF3F000F0A8F868B90F2C01D9012089
:105AA8000AE0002221464FF0FF3000F057F8054B7E
:105AB8001C60002000E0012010BD00BF080000208D
:105AC800040000200C00002008B5074A136843F0C2
