:020000040800F2
:1000000000C00020B1030008950300089703000812
:10001000990300089B0300089D03000800000000EE
:100020000000000000000000000000009F03000826
:10003000A103000800000000A3030008A5030008B6
:10004000F9030008F9030008F9030008F9030008A0
:10005000F9030008F9030008F9030008F903000890
:10006000F9030008F9030008F9030008F903000880
:10007000F9030008F9030008F9030008F903000870
:10008000F9030008F9030008F9030008F903000860
:10009000F9030008F9030008F9030008F903000850
:1000A000F9030008F9030008F9030008F903000840
:1000B000F9030008F9030008F9030008F903000830
:1000C000F9030008F9030008F9030008F903000820
:1000D000F9030008F9030008F9030008F903000810
:1000E000F9030008F9030008F9030008F903000800
:1000F000F9030008F9030008F9030008F9030008F0
:10010000F9030008F9030008F9030008F9030008DF
:10011000F9030008F9030008F9030008F9030008CF
:10012000F9030008F9030008F9030008F9030008BF
:1001300000000000000000000000000000000000BF
:1001400000000000000000000000000000000000AF
:10015000000000000000000000000000000000009F
:10016000000000000000000000000000000000008F
:10017000000000000000000000000000000000007F
:10018000000000000000000000000000000000006F
:10019000000000000000000000000000000000005F
:1001A000000000000000000000000000000000004F
:1001B000000000000000000000000000000000003F
:1001C000000000000000000000000000000000002F
:1001D000000000000000000000000000000000001F
:0401E0005FF8E0F1F3
:1001E40010B5054C237833B9044B13B10448AFF36D
:1001F40000800123237010BD1000002000000000C7
:10020400100F000808B5034B1BB103490348AFF3B3
:10021400008008BD0000000014000020100F00083A
:100224002DE9F04186B000240294039404940594CB
:100234001C4B9A6942F020029A619A6902F02002EA
:100244000092009A9A6942F004029A619B6903F051
:1002540004030193019BDFF8508022464FF4807120
:10026400404600F0A5FA114D22460421284600F02C
:100274009FFA4FF480730293012703970494022694
:10028400059602A9404600F073F9042302930397EC
:100294000494059602A9284600F06AF906B0BDE860
:1002A400F08100BF0010024000080140001401402A
:1002B40072B6FEE700B591B02822002106A800F02E
:1002C40093FD002301930293039304930593012266
:1002D40006924FF4803307930A9202220D920E93F2
:1002E4004FF4E0130F9306A800F088FA80B90F23A7
:1002F400019302210291002303934FF4806204923C
:10030400059301A800F0BAFC20B911B05DF804FB14
:10031400FFF7CEFFFFF7CCFF08B500F093F8FFF727
:10032400C9FFFFF77DFF4FF47A7000F0AFF84FF488
:100334008071044800F042FA0421034800F03EFAB8
:10034400F1E700BF000801400014014082B00E4BE9
:100354009A6942F001029A619A6902F001020092DC
:10036400009ADA6942F08052DA61DB6903F0805363
:100374000193019B054A536823F0E06343F0007343
:10038400536002B0704700BF0010024000000140FB
:10039400FEE7FEE7FEE7FEE7FEE7704770477047BB
:1003A40008B500F061F808BD704700000C480D491D
:1003B4000D4A002302E0D458C4500433C4188C42BC
:1003C400F9D30A4A0A4C002301E013600432A24222
:1003D400FBD3FFF7E9FF00F00FFDFFF79DFF704728
:1003E4000000002010000020580F0008100000201A
:1003F400C8010020FEE7000010B504460E4B1A7831
:100404004FF47A73B3FBF2F30C4A1068B0FBF3F0C9
:1004140000F09AF868B90F2C01D901200AE00022F3
:1004240021464FF0FF3000F057F8054B1C600020C8
:1004340000E0012010BD00BF0400002000000020E7
:100444000800002008B5074A136843F0100313603E
:10045400032000F02FF80F20FFF7CEFFFFF776FF01
:10046400002008BD00200240034A1168034B1B789A
:100474000B441360704700BF2C00002004000020D0
:10048400014B1868704700BF2C00002038B50446A3
:10049400FFF7F6FF0546B4F1FF3F02D0044B1B788B
:1004A4001C44FFF7EDFF401BA042FAD338BD00BF48
:1004B40004000020074AD36823F4E0631B041B0CE8
:1004C400000200F4E060034343F0BF6343F40033ED
:1004D400D360704700ED00E000B5194BDB68C3F34F
:1004E4000223C3F1070CBCF1040F28BF4FF0040C26
:1004F40003F1040EBEF1060F18D9033B4FF0FF3E83
:100504000EFA0CFC21EA0C0199400EFA03FE22EAD1
:100514000E020A4300280BDB1201D2B200F1604044
:1005240000F5614080F800235DF804FB0023E5E753
:1005340000F00F001201D2B2024B1A54F4E700BFCC
:1005440000ED00E014ED00E00138B0F1807F0BD243
:100554004FF0E0235861054AF02182F8231000206F
:10056400986107221A6170470120704700ED00E08E
:1005740070B582B00024A446B0E0874DAB4210D0E1
:1005840007D9864DAB420CD005F58035AB4208D077
:1005940013E0A5F58015AB4203D005F57025AB42F9
:1005A40007D18B68002B62D0012B5BD042610824F9
:1005B40003E0A5F58015AB42F3D0BEF1FF0F58D888
:1005C4000646BEF1FF0F56D84FEA8C0233680F255A
:1005D400954023EA050304FA02F2134333604B689F
:1005E40013F0805F78D06E4B9A6942F001029A61F1
:1005F4009B6903F001030193019B4FEA9C02951C44
:10060400684B53F825600CF00305AD000F23AB4095
:1006140026EA0306644B984233D003F5806398427C
:1006240000F0988003F58063984200F0958003F50C
:100634008063984200F0928003F58063984200F052
:100644008F8003F58063984219D006231AE0CC68A2
:10065400B3E7CC680434B0E7CC680834ADE7CC68C1
:100664000C34AAE702610824A7E70024A5E70424C0
:10067400A3E7061DA5E7ACF108029200A6E705234F
:1006840000E00023AB4033430232464D45F82230AC
:100694004B6813F4803F65D0444A136843EA0E0361
:1006A40013604B6813F4003F62D0404A536843EA36
:1006B4000E0353604B6813F4801F5FD03B4A93686A
:1006C40043EA0E0393604B6813F4001F5CD0374A6F
:1006D400D36843EA0E03D3600CF1010C0B6833FAC0
:1006E4000CF257D0012202FA0CF203EA020E32EAAB
:1006F4000303F1D14B68122B3FF63FAF122B3FF6A9
:100704005CAF01A555F823F0A705000853060008BF
:100714005D0600086F060008BF050008BF05000855
:10072400BF050008BF050008BF050008BF05000895
:10073400BF050008BF050008BF050008BF05000885
:10074400BF050008BF050008BF05000857060008DC
:1007540063060008012395E7022393E7032391E747
:1007640004238FE7114A136823EA0E03136098E702
:100774000E4A536823EA0E0353609BE70B4A9368BF
:1007840023EA0E0393609EE7084AD36823EA0E0324
:10079400D360A1E702B070BD000022100000311048
:1007A4000010024000000140000801400004014024
:1007B4000AB101617047090401617047C36801EA25
:1007C400030221EA030141EA02410161704700008A
:1007D40082B0084B1B68084AA2FB03235B0A00FB98
:1007E40003F3019300BF019B5A1E0192002BF9D120
:1007F40002B0704700000020D34D6210002800F0C2
:10080400F18170B582B00446036813F0010F2CD057
:10081400994B5B6803F00C03042B1DD0964B5B686B
:1008240003F00C03082B12D06368B3F5803F41D06A
:10083400002B55D103F1804303F504331A6822F4E5
:1008440080321A601A6822F480221A6037E08A4BD8
:100854005B6813F4803FE7D0874B1B6813F4003FB9
:1008640003D06368002B00F0BF81236813F0020FEC
:1008740075D0814B5B6813F00C0F5FD07E4B5B68C7
:1008840003F00C03082B54D02369002B00F08A805A
:100894007A4B01221A60FFF7F3FD0546764B1B687D
:1008A40013F0020F75D1FFF7EBFD401B0228F5D9B9
:1008B40003209EE1704A136843F480331360636835
:1008C40043B3FFF7DDFD05466B4B1B6813F4003F94
:1008D400CBD1FFF7D5FD401B6428F5D9032088E16F
:1008E400B3F5A02F09D0644B1A6822F480321A6041
:1008F4001A6822F480221A60E1E703F18043A3F529
:100904003C331A6842F480221A601A6842F4803236
:100914001A60D4E7FFF7B4FD0546574B1B6813F480
:10092400003FA2D0FFF7ACFD401B6428F5D903209B
:100934005FE1514B5B6813F4803FA5D14E4B1B68BC
:1009440013F0020F03D02369012B40F04F814A4A70
:10095400136823F0F803616943EAC1031360236851
:1009640013F0080F33D0A369002B5CD0434B012252
:10097400C3F88024FFF784FD05463F4B5B6A13F000
:10098400020F21D1FFF77CFD401B0228F5D903207B
:100994002FE1394A136823F0F803616943EAC1037C
:1009A4001360DCE7354B00221A60FFF769FD05464A
:1009B400314B1B6813F0020FD1D0FFF761FD401BD0
:1009C4000228F5D9032014E10120FFF701FF236871
:1009D40013F0040F00F09680274BDB6913F0805F5F
:1009E40034D1254BDA6942F08052DA61DB6903F0D5
:1009F40080530193019B0125214B1B6813F4807FD5
:100A040026D0E368012B3DD0002B53D103F1804362
:100A140003F504331A6A22F001021A621A6A22F0F8
:100A240004021A6233E0154B0022C3F88024FFF756
:100A340027FD0546104B5B6A13F0020FC7D0FFF782
:100A44001FFD401B0228F5D90320D2E00025D3E77F
:100A54000B4A136843F480731360FFF711FD0646D5
:100A6400074B1B6813F4807FCBD1FFF709FD801B74
:100A74006428F5D90320BCE0001002400000424283
:100A8400007000405F4A136A43F001031362E36895
:100A940033B3FFF7F5FC06465A4B1B6A13F0020FFB
:100AA4002FD1FFF7EDFC801B41F288339842F3D934
:100AB40003209EE0052B09D0524B1A6A22F0010252
:100AC4001A621A6A22F004021A62E0E74D4B1A6AAB
:100AD40042F004021A621A6A42F001021A62D6E76C
:100AE400FFF7CEFC0646474B1B6A13F0020F08D0F3
:100AF400FFF7C6FC801B41F288339842F3D90320E8
:100B040077E0E5B9E369002B72D03E4A526802F0FF
:100B14000C02082A56D0022B17D03B4B00221A662F
:100B2400FFF7AEFC0446374B1B6813F0007F47D039
:100B3400FFF7A6FC001B0228F5D9032059E0314A2F
:100B4400D36923F08053D361DCE72F4B00221A666C
:100B5400FFF796FC05462B4B1B6813F0007F06D06D
:100B6400FFF78EFC401B0228F5D9032041E0236ADD
:100B7400B3F5803F1AD023494B6823F47413226AD7
:100B8400606A024313434B601F4B01221A66FFF74E
:100B940077FC04461B4B1B6813F0007F0ED1FFF754
:100BA4006FFC001B0228F5D9032022E0154A536884
:100BB40023F40033A1680B435360DCE7002018E002
:100BC400002016E0012B16D00E4B5B6803F4803135
:100BD400226A914211D103F47013626A93420ED1D6
:100BE400002006E001207047012002E0012000E01F
:100BF400002002B070BD0120FBE70120F9E70120CD
:100C0400F7E700BF001002400000424286B0174BD5
:100C14000FCB0DF1180C0CE90F0040F20123ADF8D5
:100C24000430134B5B6803F00C02082A02D011480D
:100C340006B07047C3F3834218326A4412F8100CAA
:100C440013F4803F0DD00A4B5B68C3F34043183361
:100C54006B4413F8143C074A02FB00F0B0FBF3F0BA
:100C6400E6E7054B03FB00F0E2E700BF380F00089E
:100C74000010024000127A0000093D00002800F034
:100C8400A08070B50D460446524B1B6803F0070361
:100C94008B420BD24F4A136823F007030B431360B4
:100CA400136803F007038B4240F08D80236813F030
:100CB400020F17D013F0040F04D0474A536843F4CB
:100CC400E0635360236813F0080F04D0424A53686A
:100CD40043F460535360404A536823F0F003A1681F
:100CE4000B435360236813F0010F31D06368012B69
:100CF40020D0022B25D0384A126812F0020F64D09B
:100D040035494A6822F0030213434B60FFF7B8FBEE
:100D14000646314B5B6803F00C036268B3EB820F49
:100D240016D0FFF7ADFB801B41F288339842F0D90F
:100D3400032045E0284A126812F4003FE0D1012064
:100D44003EE0254A126812F0007FD9D1012037E035
:100D5400204B1B6803F00703AB420AD91D4A1368F2
:100D640023F007032B431360136803F00703AB421C
:100D74002DD1236813F0040F06D0174A536823F4C7
:100D8400E063E1680B435360236813F0080F07D056
:100D9400114A536823F46053216943EAC103536041
:100DA400FFF734FF0C4B5B68C3F303130B4AD35CAC
:100DB400D8400B4B18600B4B1868FFF71DFB002045
:100DC40070BD012070470120FAE70120F8E70120F7
:100DD400F6E700BF0020024000100240280F000880
:100DE400000000200800002003460244934200D182
:100DF400704703F8011BF9E770B500260C4D0D4C44
:100E0400641BA410A64209D100F080F800260A4D04
:100E14000A4C641BA410A64205D170BD55F8043BCE
:100E240098470136EEE755F8043B98470136F2E758
:100E34004C0F00084C0F00084C0F0008540F00081A
:100E440070477047024B13B1024800F005B8704771
:100E540000000000690E0008002301461A461846E7
:100E640000F014B838B5074D074C641BA4101CB926
:100E7400BDE8384000F050B8013C55F8243098479C
:100E8400F5E700BF540F0008580F00082DE9F0479C
:100E9400DFF86CA00646DAF8000098460F46914643
:100EA400FFF7CEFF174B1C680CB9174C1C60656824
:100EB400DAF800001F2D05DDFFF7C3FF4FF0FF3008
:100EC400BDE8F0879EB1012204EB8501C1F888904A
:100ED400D4F88831AA401343C4F88831022EC1F8EB
:100EE400088102BFD4F88C311343C4F88C316B1CD5
:100EF4000235636044F82570FFF7A3FF0020DFE7A5
:100F04000C0000203400002038000020F8B500BF99
:100F1400F8BC08BC9E467047F8B500BFF8BC08BCD6
:040F24009E4670472E
:100F28000000000000000000010203040607080991
:100F380002030405060708090A0B0C0D0E0F101012
:040F480000000000A5
:080F4C00490E0008090200082B
:040F5400E5010008AB
:100F58000024F40001000000100000003000002010
:04000005080003B13B
:00000001FF
