:020000040800F2
:1000000000C00020D5120008191000081B100008BD
:100010001D1000081F10000821100008000000003B
:100020000000000000000000000000002310000895
:100030002510000800000000271000082910000803
:100040001D1300081D1300081D1300081D130008D0
:100050001D1300081D1300081D1300081D130008C0
:100060001D1300081D1300081D1300081D130008B0
:100070001D1300081D1300081D1300081D130008A0
:100080001D1300081D1300081D1300081D13000890
:100090001D1300081D1300081D1300081D13000880
:1000A0001D1300081D1300081D1300081D13000870
:1000B0001D130008311000081D1300081D1300084F
:1000C0001D1300081D1300081D1300081D13000850
:1000D0001D130008611000081D1300081D130008FF
:1000E000711000081D1300081D1300081D130008DF
:1000F0001D1300081D1300081D1300081D13000820
:100100001D1300081D1300081D1300081D1300080F
:100110001D1300081D1300081D1300081D130008FF
:100120001D1300081D1300081D1300081D130008EF
:1001300000000000000000000000000000000000BF
:1001400000000000000000000000000000000000AF
:10015000000000000000000000000000000000009F
:10016000000000000000000000000000000000008F
:10017000000000000000000000000000000000007F
:10018000000000000000000000000000000000006F
:10019000000000000000000000000000000000005F
:1001A000000000000000000000000000000000004F
:1001B000000000000000000000000000000000003F
:1001C000000000000000000000000000000000002F
:1001D000000000000000000000000000000000001F
:0401E0005FF8E0F1F3
:1001E80010B5054C237833B9044B13B10448AFF369
:1001F80000800123237010BDBC0600200000000011
:100208007875000808B5034B1BB103490348AFF3E1
:10021800008008BD00000000C006002078750008B6
:10022800034613F8012B002AFBD1181A013870472E
:1002380081F0004102E000BF83F0004330B54FEA8F
:1002480041044FEA430594EA050F08BF90EA020FFC
:100258001FBF54EA000C55EA020C7FEA645C7FEA8F
:10026800655C00F0E2804FEA5454D4EB5555B8BFB2
:100278006D420CDD2C4480EA020281EA030382EA23
:10028800000083EA010180EA020281EA0303362DB5
:1002980088BF30BD11F0004F4FEA01314FF4801C88
:1002A8004CEA113102D0404261EB410113F0004F9A
:1002B8004FEA03334CEA133302D0524263EB430351
:1002C80094EA050F00F0A780A4F10104D5F1200EEF
:1002D8000DDB02FA0EFC22FA05F2801841F100014A
:1002E80003FA0EF2801843FA05F359410EE0A5F11E
:1002F80020050EF1200E012A03FA0EFC28BF4CF04F
:10030800020C43FA05F3C01851EBE37101F0004504
:1003180007D54FF0000EDCF1000C7EEB00006EEB11
:100328000101B1F5801F1BD3B1F5001F0CD349089B
:100338005FEA30004FEA3C0C04F101044FEA4452F2
:1003480012F5800F80F09A80BCF1004F08BF5FEA79
:10035800500C50F1000041EB045141EA050130BD59
:100368005FEA4C0C404141EB0101013C28BFB1F56B
:10037800801FE9D291F0000F04BF01460020B1FAB6
:1003880081F308BF2033A3F10B03B3F120020CDA89
:100398000C3208DD02F1140CC2F10C0201FA0CF067
:1003A80021FA02F10CE002F11402D8BFC2F1200CCC
:1003B80001FA02F120FA0CFCDCBF41EA0C01904082
:1003C800E41AA2BF01EB0451294330BD6FEA0404CB
:1003D8001F3C1CDA0C340EDC04F11404C4F12002B6
:1003E80020FA04F001FA02F340EA030021FA04F3C8
:1003F80045EA030130BDC4F10C04C4F1200220FA1F
:1004080002F001FA04F340EA0300294630BD21FA5C
:1004180004F0294630BD94F0000F83F4801306BF22
:1004280081F480110134013D4EE77FEA645C18BF16
:100438007FEA655C29D094EA050F08BF90EA020FAD
:1004480005D054EA000C04BF1946104630BD91EAA5
:10045800030F1EBF0021002030BD5FEA545C05D1A8
:100468004000494128BF41F0004130BD14F58004E7
:100478003CBF01F5801130BD01F0004545F0FE415B
:1004880041F470014FF0000030BD7FEA645C1ABF90
:10049800194610467FEA655C1CBF0B46024650EAC7
:1004A800013406BF52EA033591EA030F41F40021F3
:1004B80030BD00BF90F0000F04BF0021704730B579
:1004C8004FF4806404F132044FF000054FF000014E
:1004D80050E700BF90F0000F04BF0021704730B50F
:1004E8004FF4806404F1320410F0004548BF4042E4
:1004F8004FF000013EE700BF42004FEAE2014FEA39
:1005080031014FEA02701FBF12F07F4393F07F4F13
:1005180081F06051704732F07F4208BF704793F016
:100528007F4F04BF41F40021704730B54FF4607429
:1005380001F0004521F000411CE700BF50EA01022C
:1005480008BF704730B54FF000050AE050EA0102D5
:1005580008BF704730B511F0004502D5404261EB45
:1005680041014FF4806404F132045FEA915C3FF486
:10057800D8AE4FF003025FEADC0C18BF03325FEA23
:10058800DC0C18BF033202EBDC02C2F1200300FAD4
:1005980003FC20FA02F001FA03FE40EA0E0021FAF9
:1005A80002F11444BDE600BF70B54FF0FF0C4CF4E7
:1005B800E06C1CEA11541DBF1CEA135594EA0C0F99
:1005C80095EA0C0F00F0DEF82C4481EA030621EAD4
:1005D8004C5123EA4C5350EA013518BF52EA03350F
:1005E80041F4801143F4801338D0A0FB02CE4FF0C1
:1005F8000005E1FB02E506F00042E0FB03E54FF0F1
:100608000006E1FB03569CF0000F18BF4EF0010EE8
:10061800A4F1FF04B6F5007F64F5407404D25FEAE4
:100628004E0E6D4146EB060642EAC62141EA555197
:100638004FEAC52040EA5E504FEACE2EB4F1FD0CD9
:1006480088BFBCF5E06F1ED8BEF1004F08BF5FEA57
:10065800500E50F1000041EB045170BD06F0004609
:1006680046EA010140EA020081EA0301B4EB5C04B6
:10067800C2BFD4EB0C0541EA045170BD41F48011AE
:100688004FF0000E013C00F3AB8014F1360FDEBFD3
:10069800002001F0004170BDC4F10004203C35DAAF
:1006A8000C341BDC04F11404C4F1200500FA05F332
:1006B80020FA04F001FA05F240EA020001F00042D3
:1006C80021F0004110EBD37021FA04F642EB060149
:1006D8005EEA430E08BF20EAD37070BDC4F10C0473
:1006E800C4F1200500FA04F320FA05F001FA04F237
:1006F80040EA020001F0004110EBD37041F1000123
:100708005EEA430E08BF20EAD37070BDC4F120052D
:1007180000FA05F24EEA020E20FA04F301FA05F295
:1007280043EA020321FA04F001F0004121FA04F23D
:1007380020EA020000EBD3705EEA430E08BF20EA0D
:10074800D37070BD94F0000F0FD101F00046400047
:1007580041EB010111F4801F08BF013CF7D041EAC9
:10076800060195F0000F18BF704703F000465200CD
:1007780043EB030313F4801F08BF013DF7D043EA9E
:100788000603704794EA0C0F0CEA135518BF95EA54
:100798000C0F0CD050EA410618BF52EA4306D1D1DB
:1007A80081EA030101F000414FF0000070BD50EAFA
:1007B800410606BF1046194652EA430619D094EA84
:1007C8000C0F02D150EA013613D195EA0C0F05D16E
:1007D80052EA03361CBF104619460AD181EA0301C2
:1007E80001F0004141F0FE4141F470014FF000007A
:1007F80070BD41F0FE4141F4780170BD70B54FF015
:10080800FF0C4CF4E06C1CEA11541DBF1CEA135594
:1008180094EA0C0F95EA0C0F00F0A7F8A4EB050476
:1008280081EA030E52EA03354FEA013100F088806D
:100838004FEA03334FF0805545EA131343EA126336
:100848004FEA022245EA111545EA10654FEA0026EB
:100858000EF000419D4208BF964244F1FD0404F5A4
:10086800407402D25B084FEA3202B61A65EB030500
:100878005B084FEA32024FF480104FF4002CB6EBBD
:10088800020E75EB030E22BFB61A754640EA0C003D
:100898005B084FEA3202B6EB020E75EB030E22BF7D
:1008A800B61A754640EA5C005B084FEA3202B6EBBE
:1008B800020E75EB030E22BFB61A754640EA9C007D
:1008C8005B084FEA3202B6EB020E75EB030E22BF4D
:1008D800B61A754640EADC0055EA060E18D04FEA0B
:1008E800051545EA16754FEA06164FEAC30343EAAB
:1008F80052734FEAC2025FEA1C1CC0D111F4801F78
:100908000BD141EA00014FF000004FF0004CB6E770
:1009180011F4801F04BF01430020B4F1FD0C88BF0F
:10092800BCF5E06F3FF6AFAEB5EB030C04BFB6EB1A
:10093800020C5FEA500C50F1000041EB045170BD0D
:100948000EF0004E4EEA113114EB5C04C2BFD4EB3A
:100958000C0541EA045170BD41F480114FF0000EBE
:10096800013C90E645EA060E8DE60CEA135594EA3A
:100978000C0F08BF95EA0C0F3FF43BAF94EA0C0F3D
:100988000AD150EA01347FF434AF95EA0C0F7FF4B2
:1009980025AF104619462CE795EA0C0F06D152EA06
:1009A80003353FF4FDAE1046194622E750EA4106EA
:1009B80018BF52EA43067FF4C5AE50EA41047FF4FB
:1009C8000DAF52EA43057FF4EBAE12E74FF0FF3C60
:1009D80006E000BF4FF0010C02E000BF4FF0010C31
:1009E8004DF804CD4FEA410C7FEA6C5C4FEA430CAA
:1009F80018BF7FEA6C5C1BD001B050EA410C0CBFF9
:100A080052EA430C91EA030F02BF90EA020F00205A
:100A1800704710F1000F91EA030F58BF994208BFC1
:100A280090422CBFD8176FEAE37040F0010070477E
:100A38004FEA410C7FEA6C5C02D150EA013C07D1D5
:100A48004FEA430C7FEA6C5CD6D152EA033CD3D020
:100A58005DF8040B704700BF8446104662468C461A
:100A68001946634600E000BF01B5FFF7B7FF00284D
:100A780048BF10F1000F01BD4DF808EDFFF7F4FF76
:100A88000CBF012000205DF808FB00BF4DF808ED01
:100A9800FFF7EAFF34BF012000205DF808FB00BF24
:100AA8004DF808EDFFF7E0FF94BF012000205DF846
:100AB80008FB00BF4DF808EDFFF7CEFF94BF0120FB
:100AC80000205DF808FB00BF4DF808EDFFF7C4FFF4
:100AD80034BF012000205DF808FB00BF4FEA410C3D
:100AE8007FEA6C5C02D150EA013C0AD14FEA430C20
:100AF8007FEA6C5C02D152EA033C02D14FF000005D
:100B080070474FF0010070474FEA410212F500129A
:100B180015D211D56FF47873B3EB625212D94FEA3C
:100B2800C12343F0004343EA505311F0004F23FA26
:100B380002F018BF404270474FF00000704750EA7B
:100B4800013005D111F0004008BF6FF00040704738
:100B58004FF00000704700BF53B94AB9002908BFD9
:100B680000281CBF4FF0FF314FF0FF3000F072B982
:100B7800ADF1080C6DE904CE00F006F8DDF804E0EC
:100B8800DDE9022304B070472DE9F047089E0D46C1
:100B980004468E46002B4CD18A42944667D9B2FA55
:100BA80082F353B102FA03FCC3F1200201FA03FEF7
:100BB80020FA02F242EA0E0E9C404FEA1C47BEFBA6
:100BC800F7F11FFA8CF507FB11EE01FB05F0220C7B
:100BD80042EA0E4290420AD91CEB020201F1FF3EA2
:100BE80080F01981904240F2168102396244121A4B
:100BF800B2FBF7F007FB102200FB05F5A4B244EAAC
:100C08000244A5420AD91CEB040400F1FF3280F02B
:100C18000481A54240F201816444023840EA01405F
:100C28000021641B1EB1DC400023C6E90043BDE877
:100C3800F0878B4208D9002E00F0EA800021C6E92F
:100C480000050846BDE8F087B3FA83F1002948D1CA
:100C5800AB4202D3824200F2F880841A65EB0302A9
:100C680001209646002EE2D0C6E9004EDFE702B921
:100C7800FFDEB2FA82F3002B40F08E80881A012141
:100C8800170C1FFA82FEB0FBF7F507FB1500220CC4
:100C980042EA00420EFB05F0904208D91CEB020222
:100CA80005F1FF3802D2904200F2CC804546121A74
:100CB800B2FBF7F007FB10220EFB00FEA4B244EAD9
:100CC8000244A64508D91CEB040400F1FF3202D205
:100CD800A64500F2B4801046A4EB0E0440EA054095
:100CE800A0E7C1F120078B4022FA07FC4CEA030C6D
:100CF80025FA07FA4FEA1C49BAFBF9F88D4020FAA1
:100D080007F309FB18AA1FFA8CFE2B4300FA01F51A
:100D180008FB0EF01C0C44EA0A44A04202FA01F255
:100D28000BD91CEB040408F1FF3A80F08680A0423E
:100D380040F28380A8F102086444241A98B2B4FBF4
:100D4800F9F309FB134403FB0EFE40EA0444A645ED
:100D580008D91CEB040403F1FF306AD2A64568D910
:100D6800023B644443EA0840A0FB0293A4EB0E0450
:100D78009C42C8469E4654D351D0002E67D0B5EB4E
:100D8800080364EB0E04CB4004FA07F71F43CC407A
:100D9800C6E9007400214AE702FA03FCC3F1200007
:100DA800C1409D4024FA00F04FEA1C472843B1FB9C
:100DB800F7F507FB15111FFA8CFE020C42EA0142F7
:100DC80005FB0EF1914204FA03F408D91CEB020268
:100DD80005F1FF382FD291422DD9023D6244521AB3
:100DE800B2FBF7F107FB112280B240EA024001FB97
:100DF8000EF2824208D91CEB000001F1FF3816D22E
:100E0800824214D902396044801A41EA05413AE71E
:100E1800314630460BE77146E9E61046FEE64D4599
:100E2800ABD2B9EB020863EB0C0E0138A5E74146DB
:100E3800EAE7034696E74546D1E7D0467DE76444AE
:100E4800023849E7023D624431E708460AE731467D
:100E5800EDE600BF704700BF30B587B000240294AC
:100E6800039404940594144B9A6942F020029A6101
:100E78009A6902F020020092009A9A6942F00402EC
:100E88009A619B6903F004030193019B4FF40043AB
:100E980002930A4B03930125049502A9084800F020
:100EA800DFFB22462946282000F0A6FA282000F079
:100EB800DBFA07B030BD00BF00100240000021106F
:100EC8000008014008B50748074B03600423436046
:100ED80040F2E243836000F0F9FC00B908BD00F07D
:100EE80005F8FBE7D80600200030004072B6FEE7A0
:100EF80000B591B02822002106A801F01CFF0023AC
:100F080001930293039304930593092306934FF4E3
:100F18008033079301220A920C9202220D920E93BB
:100F28004FF4E0130F9306A800F018FD80B90F23C3
:100F3800019302210291002303934FF480620492EB
:100F4800059301A800F03CFF20B911B05DF804FB3F
:100F5800FFF7CCFFFFF7CAFF10B59AB000F002FA0E
:100F6800FFF7C6FFFFF778FF00F052F9FFF7AAFF77
:100F780000F0F6F80F4801F02DF84FF0FF33092282
:100F88000D490E4801F082FB0024013422460C4929
:100F980001A801F06DFE01A8FFF742F94FF0FF33F9
:100FA80082B201A9054801F071FB4FF47A7000F094
:100FB800FDF9EAE7E80600209075000830070020F0
:100FC8009C75000800B583B00F4B9A6942F0010286
:100FD8009A619A6902F001020092009ADA6942F075
:100FE8008052DA61DB6903F080530193019B05208D
:100FF80000F0F0F9054A536823F0E06343F000730A
:10100800536003B05DF804FB00100240000001408B
:10101800FEE7FEE7FEE7FEE7FEE77047704770472A
:1010280008B500F0B1F908BD08B54FF0FF33142238
:101038000549064801F02AFB054801F00CF8054867
:1010480000F070FC08BD00BFA8750008300700203C
:10105800E8060020D806002008B5024801F002FC86
:1010680008BD00BF3007002008B54FF4004000F06D
:101078001FFC08BDB0F5004F00D0704708B54FF40D
:10108800004100F1804000F5084000F009FC00B183
:1010980008BD024800F046FCFAE700BFD806002069
:1010A8000120704708B501F095FE162303604FF044
:1010B800FF3008BD08B54FF0FF31FFF7F3FFFEE73B
:1010C80070B50C461646002506E0AFF300802146B1
:1010D80001F8010B01350C46B542F6DB304670BD10
:1010E80070B50C461646002504E014F8010BAFF362
:1010F80000800135B542F8DB304670BD4FF0FF3057
:1011080070474FF400534B60002070470120704730
:101118000020704710B503460C4A0D490D48006879
:1011280040B10C4800680344521A934206D8094A51
:10113800136010BD0748084C0460F2E701F04AFE4E
:101148000C2303604FF0FF30F3E700BF00C000201E
:1011580000040000E4060020880A00207047000010
:1011680000B587B00023029303930493059300937B
:1011780001931548154A026041F61F424260836098
:1011880042F20F72C2600361836101F06DF890B999
:101198004FF48053029302A90B4801F09DF868B9F7
:1011A8000023009301936946074801F015F940B9F7
:1011B80007B05DF804FBFFF799FEE9E7FFF796FE35
:1011C800EEE7FFF793FEF3E7E8060020000400408F
:1011D80002680E4B9A4200D0704700B583B003F501
:1011E8000333DA6942F00202DA61DB6903F00203D1
:1011F8000193019B002201211D2000F0FDF81D2014
:1012080000F032F903B05DF804FB00BF00040040B1
:1012180008B50A480A4B03604FF4E13343600023E2
:101228008360C36003610C2242618361C36101F082
:10123800FDF900B908BDFFF759FEFBE730070020AC
:101248000038014030B587B000230293039304931C
:10125800059302681B4B9A4201D007B030BD03F5D5
:1012680058439A6942F480429A619A6902F480422A
:101278000092009A9A6942F004029A619B6903F00D
:1012880004030193019B4FF4007302930223039319
:10129800032305930C4D02A9284600F0E1F94FF409
:1012A8008063029300240394049402A9284600F062
:1012B800D7F922460121252000F09EF8252000F0CC
:1012C800D3F8CAE70038014000080140FFF746FF9D
:1012D8000B480C490C4A002302E0D458C45004338C
:1012E800C4188C42F9D3094A094C002301E0136061
:1012F8000432A242FBD301F073FDFFF72DFE7047C5
:1013080000000020BC06002088790008BC060020E8
:10131800880A0020FEE7000010B504460E4B1A7834
:101328004FF47A73B3FBF2F30C4A1068B0FBF3F096
:1013380000F0A8F868B90F2C01D901200AE00022B2
:1013480021464FF0FF3000F057F8054B1C60002095
:1013580000E0012010BD00BF0400002000000020B4
:101368000800002008B5074A136843F0100313600B
:10137800032000F02FF80020FFF7CEFFFFF722FE32
:10138800002008BD00200240034A1168034B1B7867
:101398000B441360704700BF78070020040000204A
:1013A800014B1868704700BF7807002038B504461D
:1013B800FFF7F6FF0546B4F1FF3F02D0044B1B7858
:1013C8001C44FFF7EDFF401BA042FAD338BD00BF15
:1013D80004000020074AD36823F4E0631B041B0CB5
:1013E800000200F4E060034343F0BF6343F40033BA
:1013F800D360704700ED00E000B5194BDB68C3F31C
:101408000223C3F1070CBCF1040F28BF4FF0040CF2
:1014180003F1040EBEF1060F18D9033B4FF0FF3E4F
:101428000EFA0CFC21EA0C0199400EFA03FE22EA9E
:101438000E020A4300280BDB1201D2B200F1604011
:1014480000F5614080F800235DF804FB0023E5E720
:1014580000F00F001201D2B2024B1A54F4E700BF99
:1014680000ED00E014ED00E0002807DB00F01F02AB
:10147800400901239340024A42F82030704700BFD8
:1014880000E100E00138B0F1807F0BD24FF0E0239B
:101498005861054AF02182F823100020986107223C
:1014A8001A6170470120704700ED00E0034690F88C
:1014B8002120D2B2022A06D004228263002280F8B8
:1014C80020200120704701680A6822F00E020A6095
:1014D80001680A6822F001020A60026CC06B0121EF
:1014E80001FA02F2426083F82110002083F82000FC
:1014F8007047000008B590F82130DBB2022B03D00A
:1015080004238363012008BD0268136823F00E03D7
:1015180013600268136823F00103136003684C4AE0
:1015280093424ED9783A934224D01432934230D021
:10153800143293422FD0143293422FD01432934254
:101548002FD0143293422FD0143293422FD002F569
:10155800627293422ED0143293422DD014329342A9
:101568002CD01432934202D04FF4803203E04FF46F
:10157800805200E00122374B5A60012380F8213065
:10158800002380F82030436B002B5ED09847002062
:10159800B9E71022EFE74FF48072ECE74FF480527E
:1015A800E9E74FF48032E6E74FF48012E3E74FF0C3
:1015B8008072E0E70122DEE71022DCE74FF4807258
:1015C800D9E7254A934224D01432934225D01432C5
:1015D800934224D01432934224D01432934224D01C
:1015E8001432934224D01432934224D002F562720A
:1015F800934223D01432934222D01432934221D002
:101608001432934202D04FF4803203E04FF48052F8
:1016180000E00122114B5A60AFE71022FAE74FF4BD
:101628008072F7E74FF48052F4E74FF48032F1E725
:101638004FF48012EEE74FF08072EBE70122E9E702
:101648001022E7E74FF48072E4E700205BE700BF71
:1016580080000240000402400800024000000240EE
:1016680070B582B00024A446B0E0874DAB4210D0DC
:1016780007D9864DAB420CD005F58035AB4208D072
:1016880013E0A5F58015AB4203D005F57025AB42F4
:1016980007D18B68002B62D0012B5BD042610824F4
:1016A80003E0A5F58015AB42F3D0BEF1FF0F58D883
:1016B8000646BEF1FF0F56D84FEA8C0233680F2555
:1016C800954023EA050304FA02F2134333604B689A
:1016D80013F0805F78D06E4B9A6942F001029A61EC
:1016E8009B6903F001030193019B4FEA9C02951C3F
:1016F800684B53F825600CF00305AD000F23AB4091
:1017080026EA0306644B984233D003F58063984277
:1017180000F0988003F58063984200F0958003F507
:101728008063984200F0928003F58063984200F04D
:101738008F8003F58063984219D006231AE0CC689D
:10174800B3E7CC680434B0E7CC680834ADE7CC68BC
:101758000C34AAE702610824A7E70024A5E70424BB
:10176800A3E7061DA5E7ACF108029200A6E705234A
:1017780000E00023AB4033430232464D45F82230A7
:101788004B6813F4801F65D0444A936843EA0E03FC
:1017980093604B6813F4001F62D0404AD36843EA51
:1017A8000E03D3604B6813F4003F5FD03B4A536885
:1017B80043EA0E0353604B6813F4803F5CD0374A0A
:1017C800136843EA0E0313600CF1010C0B6833FA3B
:1017D8000CF257D0012202FA0CF203EA020E32EAA6
:1017E8000303F1D14B68122B3FF63FAF122B3FF6A4
:1017F8005CAF01A555F823F09B16000847170008B1
:101808005117000863170008B3160008B31600083C
:10181800B3160008B3160008B3160008B31600087C
:10182800B3160008B3160008B3160008B31600086C
:10183800B3160008B3160008B31600084B170008C3
:1018480057170008012395E7022393E7032391E73D
:1018580004238FE7114A936823EA0E03936098E7FD
:101868000E4AD36823EA0E03D3609BE70B4A5368FA
:1018780023EA0E0353609EE7084A136823EA0E031F
:101888001360A1E702B070BD000022100000311003
:10189800001002400000014000080140000401401F
:1018A8008368194201D0012070470020704700006A
:1018B80008B5054B5B69034200D108BD024B58616E
:1018C800FFF7D8FBF9E700BF0004014040B338B583
:1018D800044603684CF6CC421A60036845F2555238
:1018E8001A60036842685A60036882689A60FFF762
:1018F80057FD05462368DA6812F0030F0BD0FFF78F
:101908004FFD401B2728F5D92368DB6813F0030F28
:10191800F0D0032003E04AF6AA221A60002038BD5E
:101928000120704703684AF6AA221A60002070470F
:1019380082B0084B1B68084AA2FB03235B0A00FB22
:1019480003F3019300BF019B5A1E0192002BF9D1AA
:1019580002B0704700000020D34D6210002800F04C
:10196800F18170B582B00446036813F0010F2CD0E2
:10197800994B5B6803F00C03042B1DD0964B5B68F6
:1019880003F00C03082B12D06368B3F5803F41D0F5
:10199800002B55D103F1804303F504331A6822F470
:1019A80080321A601A6822F480221A6037E08A4B63
:1019B8005B6813F4803FE7D0874B1B6813F4003F44
:1019C80003D06368002B00F0BF81236813F0020F77
:1019D80075D0814B5B6813F00C0F5FD07E4B5B6852
:1019E80003F00C03082B54D02369002B00F08A80E5
:1019F8007A4B01221A60FFF7D3FC0546764B1B6829
:101A080013F0020F75D1FFF7CBFC401B0228F5D964
:101A180003209EE1704A136843F4803313606368BF
:101A280043B3FFF7BDFC05466B4B1B6813F4003F3F
:101A3800CBD1FFF7B5FC401B6428F5D9032088E11A
:101A4800B3F5A02F09D0644B1A6822F480321A60CB
:101A58001A6822F480221A60E1E703F18043A3F5B3
:101A68003C331A6842F480221A601A6842F48032C1
:101A78001A60D4E7FFF794FC0546574B1B6813F42C
:101A8800003FA2D0FFF78CFC401B6428F5D9032047
:101A98005FE1514B5B6813F4803FA5D14E4B1B6847
:101AA80013F0020F03D02369012B40F04F814A4AFB
:101AB800136823F0F803616943EAC10313602368DC
:101AC80013F0080F33D0A369002B5CD0434B0122DD
:101AD800C3F88024FFF764FC05463F4B5B6A13F0AC
:101AE800020F21D1FFF75CFC401B0228F5D9032027
:101AF8002FE1394A136823F0F803616943EAC10307
:101B08001360DCE7354B00221A60FFF749FC0546F5
:101B1800314B1B6813F0020FD1D0FFF741FC401B7B
:101B28000228F5D9032014E10120FFF701FF2368FB
:101B380013F0040F00F09680274BDB6913F0805FE9
:101B480034D1254BDA6942F08052DA61DB6903F05F
:101B580080530193019B0125214B1B6813F4807F5F
:101B680026D0E368012B3DD0002B53D103F18043ED
:101B780003F504331A6A22F001021A621A6A22F083
:101B880004021A6233E0154B0022C3F88024FFF7E1
:101B980007FC0546104B5B6A13F0020FC7D0FFF72E
:101BA800FFFB401B0228F5D90320D2E00025D3E72C
:101BB8000B4A136843F480731360FFF7F1FB064682
:101BC800074B1B6813F4807FCBD1FFF7E9FB801B21
:101BD8006428F5D90320BCE000100240000042420E
:101BE800007000405F4A136A43F001031362E36820
:101BF80033B3FFF7D5FB06465A4B1B6A13F0020FA7
:101C08002FD1FFF7CDFB801B41F288339842F3D9DF
:101C180003209EE0052B09D0524B1A6A22F00102DC
:101C28001A621A6A22F004021A62E0E74D4B1A6A35
:101C380042F004021A621A6A42F001021A62D6E7F6
:101C4800FFF7AEFB0646474B1B6A13F0020F08D09E
:101C5800FFF7A6FB801B41F288339842F3D9032093
:101C680077E0E5B9E369002B72D03E4A526802F08A
:101C78000C02082A56D0022B17D03B4B00221A66BA
:101C8800FFF78EFB0446374B1B6813F0007F47D0E5
:101C9800FFF786FB001B0228F5D9032059E0314ADB
:101CA800D36923F08053D361DCE72F4B00221A66F7
:101CB800FFF776FB05462B4B1B6813F0007F06D019
:101CC800FFF76EFB401B0228F5D9032041E0236A89
:101CD800B3F5803F1AD023494B6823F47413226A62
:101CE800606A024313434B601F4B01221A66FFF7D9
:101CF80057FB04461B4B1B6813F0007F0ED1FFF700
:101D08004FFB001B0228F5D9032022E0154A53682F
:101D180023F40033A1680B435360DCE7002018E08C
:101D2800002016E0012B16D00E4B5B6803F48031BF
:101D3800226A914211D103F47013626A93420ED160
:101D4800002006E001207047012002E0012000E0A9
:101D5800002002B070BD0120FBE70120F9E7012057
:101D6800F7E700BF00100240000042420F4B5B68DB
:101D780003F00C02082A01D00D487047C3F38342D0
:101D88000C49885C13F4803F0BD0084B5B68C3F3A5
:101D98004043094AD35C064A02FB00F0B0FBF3F06B
:101DA8007047064B03FB00F0704700BF001002406D
:101DB80000127A00D4750008E475000800093D0097
:101DC800002800F0A08070B50D460446524B1B68F1
:101DD80003F007038B420BD24F4A136823F0070323
:101DE8000B431360136803F007038B4240F08D80A8
:101DF800236813F0020F17D013F0040F04D0474ADA
:101E0800536843F4E0635360236813F0080F04D069
:101E1800424A536843F460535360404A536823F07E
:101E2800F003A1680B435360236813F0010F31D00E
:101E38006368012B20D0022B25D0384A126812F093
:101E4800020F64D035494A6822F0030213434B60FD
:101E5800FFF7A6FA0646314B5B6803F00C0362688D
:101E6800B3EB820F16D0FFF79BFA801B41F2883341
:101E78009842F0D9032045E0284A126812F4003F3E
:101E8800E0D101203EE0254A126812F0007FD9D146
:101E9800012037E0204B1B6803F00703AB420AD947
:101EA8001D4A136823F007032B431360136803F0DC
:101EB8000703AB422DD1236813F0040F06D0174A4D
:101EC800536823F4E063E1680B435360236813F01D
:101ED800080F07D0114A536823F46053216943EA75
:101EE800C1035360FFF742FF0C4B5B68C3F3031356
:101EF8000B4AD35CD8400B4B18600B4B1868FFF7A4
:101F08000BFA002070BD012070470120FAE701207C
:101F1800F8E70120F6E700BF002002400010024069
:101F2800BC7500080000002008000020014B18685C
:101F3800704700BF0000002008B5FFF7F7FF044B0B
:101F48005B68C3F30223034AD35CD84008BD00BFD3
:101F580000100240CC75000808B5FFF7E7FF044BF6
:101F68005B68C3F3C223034AD35CD84008BD00BFF3
:101F780000100240CC75000810B4036A046A24F00B
:101F880001040462846924F0F00C4CEA021223F084
:101F98000A030B438261036210BC704710B4036AE2
:101FA800046A24F010040462846924F4704C4CEA36
:101FB800023223F0A00343EA01138261036210BCDA
:101FC8007047836823F070030B4343F00703836073
:101FD8007047000090F83D30DBB2012B2FD102236F
:101FE80080F83D300268D36843F00103D36003688A
:101FF800154A934218D002F50062934214D0B3F107
:10200800804F11D0A2F5983293420DD002F580622C
:10201800934209D002F58062934205D01A6842F0D3
:1020280001021A60002070479A6802F00702062A27
:1020380007D01A6842F001021A6000207047012098
:1020480070470020704700BF002C01407047704760
:1020580070477047704710B5044603681A6912F054
:10206800020F11D0DA6812F0020F0DD06FF00202E1
:102078001A610123037703689B6913F0030F70D07B
:10208800FFF7E6FF0023237723681A6912F0040F8D
:1020980012D0DA6812F0040F0ED06FF004021A6141
:1020A8000223237723689B6913F4407F5FD020467F
:1020B800FFF7CEFF0023237723681A6912F0080F71
:1020C80012D0DA6812F0080F0ED06FF008021A6109
:1020D800042323772368DB6913F0030F4ED02046CF
:1020E800FFF7B6FF0023237723681A6912F0100F51
:1020F80012D0DA6812F0100F0ED06FF010021A61C9
:10210800082323772368DB6913F4407F3DD02046FA
:10211800FFF79EFF0023237723681A6912F0010F47
:1021280003D0DA6812F0010F36D123681A6912F069
:10213800800F03D0DA6812F0800F34D123681A694F
:1021480012F0400F03D0DA6812F0400F32D1236842
:102158001A6912F0200F03D0DA6812F0200F30D17C
:1021680010BDFFF774FF2046FFF773FF8AE720468C
:10217800FFF76DFF2046FFF76CFF9BE72046FFF750
:1021880066FF2046FFF765FFACE72046FFF75FFFD5
:102198002046FFF75EFFBDE76FF001021A61204697
:1021A800FFF754FFC1E76FF080021A61204600F084
:1021B80052F9C3E76FF040021A612046FFF74AFF61
:1021C800C5E76FF020021A61204600F043F9C7E71F
:1021D8000368244A904212D002F5006290420ED061
:1021E800B0F1804F0BD0A2F59832904207D002F59B
:1021F8008062904203D002F58062904203D123F0BE
:1022080070034A681343174A904212D002F50062DD
:1022180090420ED0B0F1804F0BD0A2F59832904288
:1022280007D002F58062904203D002F580629042A6
:1022380003D123F44073CA68134323F080034A6927
:10224800134303608B68C3620B688362054B984233
:1022580003D003F50063984201D10B69036301239E
:1022680043617047002C014040B310B5044690F814
:102278003D30F3B1022384F83D30214651F8040B78
:10228800FFF7A6FF012384F8463084F83E3084F82F
:102298003F3084F8403084F8413084F8423084F884
:1022A800433084F8443084F8453084F83D300020C9
:1022B80010BD80F83C30FEF78BFFDBE7012070474C
:1022C80010B4846824F47F4C42EA03220A4342EAA9
:1022D8000C02826010BC704790F83C30012B78D01B
:1022E80010B50446012380F83C30022380F83D30C5
:1022F8000268936823F47F4323F0770393600B68A5
:10230800602B4CD029D8402B54D00CD9502B22D13B
:10231800CA6849680068FFF72FFE50212068FFF758
:1023280050FE002005E0202B0DD009D9302B0AD013
:102338000120012384F83D30002384F83C3010BD8F
:102348000BB1102B05D119462068FFF73AFE002083
:10235800EFE70120EDE70120EBE7B3F5805F34D02C
:10236800B3F5005F0CD1CB684A6889680068FFF74D
:10237800A7FF2268936843F4804393600020D8E75E
:10238800702B24D1CB684A6889680068FFF798FFEA
:102398002268936843F0770393600020C9E7CA680E
:1023A80049680068FFF7FAFD60212068FFF709FE19
:1023B8000020BEE7CA6849680068FFF7DDFD4021D4
:1023C8002068FFF7FEFD0020B3E70020B1E70120F9
:1023D800AFE702207047000090F83C20012A34D073
:1023E80010B40346012280F83C20022280F83D20E8
:1023F80002685068946820F0700C086840EA0C0085
:1024080050601A681248824212D000F50060824279
:102418000ED0B2F1804F0BD0A0F59830824207D091
:1024280000F58060824203D000F58060824204D1CA
:1024380024F08004496821439160012283F83D20FB
:10244800002083F83C0010BC70470220704700BF92
:10245800002C014070477047026802F10C0353E8F2
:10246800003F23F490730C3242E800310029F3D185
:10247800026802F1140353E8003F23F00103143209
:1024880042E800310029F3D1036B012B05D020234A
:1024980080F84230002303637047026802F10C039E
:1024A80053E8003F23F010030C3242E800310029C2
:1024B800F3D1ECE790F84130DBB2212B01D00220B8
:1024C80070478368B3F5805F17D0036A5A1C0262AD
:1024D8001A7803685A60C38C9BB2013B9BB2C384D1
:1024E8004BB90268D36823F08003D3600268D368CD
:1024F80043F04003D360002070470369002BE4D108
:10250800036A1B880268C3F308035360036A023333
:102518000362E0E710B504460268136923F44053E8
:10252800C1680B43136183680269134342691A4304
:102538000168CB6823F4B05323F00C031343CB603A
:102548000268536923F4407381690B43536102683D
:10255800134B9A4220D0FFF7EFFC024602EB8202AF
:1025680002EB820263689B00B2FBF3F20D48A0FB0A
:1025780002314909642303FB11231B013233A0FBF9
:1025880003035B0903F0F00202EB011203F00F03EF
:10259800216813448B6010BDFFF7DEFC0246DDE7BF
:1025A800003801401F85EB512DE9F84305460F46D9
:1025B80016469946DDF820802B681C6837EA040423
:1025C8000CBF01240024B4422DD1B8F1FF3FF3D051
:1025D800B8F1000F05D0FEF7E3FEA0EB0900404577
:1025E800EAD92A6802F10C0353E8003F23F4D073B8
:1025F8000C3242E800310029F3D12A6802F11403B1
:1026080053E8003F23F00103143242E80031002967
:10261800F3D1202385F8413085F84230002385F82E
:102628004030032000E00020BDE8F88360B310B517
:10263800044690F8413013B3242384F841302268CB
:10264800D36823F40053D3602046FFF763FF226862
:10265800136923F4904313612268536923F02A0312
:1026680053612268D36843F40053D3600020606448
:10267800202384F8413084F84230606310BD80F82C
:102688004030FEF7DFFDD7E7012070472DE9F04124
:1026980082B01E4690F84130DBB2202B4BD1044665
:1026A8000D46904600294AD00AB9012044E000238B
:1026B8004364212380F84130FEF772FE0746A4F8F0
:1026C8002480A4F82680A368B3F5805F02D04FF079
:1026D80000080FE02369FBB14FF000080AE038F862
:1026E800023B2268C3F308035360E28C92B2013ABA
:1026F80092B2E284E38C9BB28BB100963B460022F7
:1027080080212046FFF750FFD8B9002DE7D015F8F3
:10271800012B23685A60E8E7A8460025EAE70096F7
:102728003B46002240212046FFF73EFF58B92023B0
:1027380084F8413000E0022002B0BDE8F0810120B9
:10274800FAE70320F8E70320F6E7704708B50168C1
:10275800CA6822F04002CA60202280F84120FFF7B0
:10276800F4FF002008BD7047704708B5406A002391
:10277800C385C384FFF7F8FF08BD704790F842305F
:10278800DBB2222B69D18368B3F5805F4FD0826AB0
:10279800B3F5805F04D0002B56D10369002B53D1C9
:1027A80003685B681370836A01338362C38D9BB2CD
:1027B800013B9BB2C385002B51D100B583B00268A1
:1027C800D36823F02003D3600268D36823F48073AE
:1027D800D3600268536923F001035361202380F812
:1027E800423000234363036B012B33D1002303637F
:1027F800026802F10C0353E8003F23F010030C3287
:1028080042E800310029F3D103681A6812F0100F6A
:1028180006D0002201921A6801925B680193019B1D
:10282800818DFFF7AAFF002003B05DF804FB026961
:10283800002AACD1826A03685B68C3F3080313807B
:10284800836A02338362B1E703685B6803F07F033E
:102858001370A8E7FFF787FFE5E70220704700201D
:102868007047000030B583B0044602681368D0682A
:10287800516913F00F0505D113F0200F02D010F0A5
:10288800200F19D12DB111F0010119D110F4907F49
:1028980016D1216B01297DD013F0800F03D010F0E1
:1028A800800F40F0188113F0400F03D010F0400F54
:1028B80040F0158103B030BD2046FFF75FFFF9E710
:1028C80013F0010F06D010F4807F03D0626C42F041
:1028D8000102626413F0040F04D019B1626C42F073
:1028E8000202626413F0020F04D019B1626C42F064
:1028F8000402626413F0080F07D010F0200F00D113
:1029080019B1626C42F008026264626C002AD1D08C
:1029180013F0200F02D010F0200F29D123685B6933
:1029280003F04003626C12F0080F00D163B3204635
:10293800FFF792FD23685B6913F0400F20D02268EF
:1029480002F1140353E8003F23F04003143242E835
:1029580000310029F3D1E36B73B1634A5A63E06B2A
:10296800FEF7C8FD0028A5D0E06B436B9847A1E7A8
:102978002046FFF703FFD1E72046FFF7F5FE99E76A
:102988002046FFF7F1FE95E72046FFF7EDFE00230E
:1029980063648FE713F0100F3FF47EAF10F0100F51
:1029A8003FF47AAF002301931368019353680193AE
:1029B800019B536913F0400F51D0E26B13685B68B9
:1029C8009BB2002B3FF476AFA18D99427FF672AF90
:1029D800E3859369202B37D0226802F10C0353E872
:1029E800003F23F480730C3242E800310029F3D110
:1029F800226802F1140353E8003F23F00103143264
:102A080042E800310029F3D1226802F1140353E8A7
:102A1800003F23F04003143242E800310029F3D18B
:102A2800202384F8423000232363226802F10C0338
:102A380053E8003F23F010030C3242E8003100292C
:102A4800F3D1E06BFEF732FD02236363A18DE38DC2
:102A58009BB2C91A89B22046FFF78FFE2AE7A18DDB
:102A6800E38D9BB2C91A89B2E38D9BB2002B3FF468
:102A780021AF00293FF41EAF226802F10C0353E88E
:102A8800003F23F490730C3242E800300028F3D161
:102A9800226802F1140353E8003F23F001031432C3
:102AA80042E800300028F3D1202384F84230002384
:102AB8002363226802F10C0353E8003F23F010035C
:102AC8000C3242E800300028F3D102236363204629
:102AD800FFF753FEEEE62046FFF7ECFCEAE6204659
:102AE800FFF734FEE6E600BF73270008002310B5A1
:102AF8000446C0E90033C0E904338360818143663A
:102B0800C2818361194608225C3000F014F90D4B2C
:102B1800E46123620C4B63620C4BA3620C4BE362CF
:102B28000C4B9C4206D003F16802944202D0D03389
:102B38009C4205D104F15800BDE8104000F074B97A
:102B480010BD00BFB92C0008DB2C0008132D0008AD
:102B5800372D00087C070020024A0349034800F08B
:102B680069B800BF0C000020A94800081800002020
:102B780041680C4B10B59942044601D001F090FE13
:102B8800A168094B994202D0204601F089FEE1680C
:102B9800064B994204D02046BDE8104001F080BEA3
:102BA80010BD00BF7C070020E40700204C0800206F
:102BB80010B50B4B0B4C0C4A20461A60042100221E
:102BC800FFF794FF04F1680001220921FFF78EFF47
:102BD80004F1D0000222BDE810401221FFF786BFA1
:102BE800B40800207C070020612B0008014800F091
:102BF8001DB900BFBE080020014800F018B900BF89
:102C0800BE08002010B50446FFF7F0FF636B1BB148
:102C1800BDE81040FFF7F0BF044B6363044B1B682B
:102C2800002BF5D1FFF7C4FFF2E700BF792B0008AE
:102C3800B40800202DE9F8430746884614460026C4
:102C4800D4E90195B9F1010905D52468002CF7D11B
:102C58003046BDE8F883AB89012B07D9B5F90E30AA
:102C6800013303D029463846C04706436835E9E7AB
:102C78000EB46FF0004100B59CB01DAB02900690F9
:102C8800079104910848094953F8042B05910068F5
:102C980002A9019300F036FC0022029B1A701CB0B6
:102CA8005DF804EB03B07047380100200802FFFF0D
:102CB80010B50C46B1F90E1000F068F80028ABBF4B
:102CC800236DA3891B1823F48053ACBF2365A3810C
:102CD80010BD2DE9F0411F468B890546DB050C46E2
:102CE800164605D502230022B1F90E1000F03CF873
:102CF800A389324623F48053A38128463B46B4F97E
:102D08000E10BDE8F04100F053B810B50C46B1F90B
:102D18000E1000F029F8431CA38915BF206523F481
:102D2800805343F48053A38118BFA38110BDB1F928
:102D38000E1000F009B803460244934200D17047D0
:102D480003F8011BF9E7000038B50023054D0446D8
:102D580008462B60FEF7D2F9431C02D12B6803B159
:102D6800236038BDB808002038B504460846114627
:102D78000022054D2A601A46FEF7CAF9431C02D103
:102D88002B6803B1236038BDB808002038B5044665
:102D9800084611460022054D2A601A46FEF790F9AA
:102DA800431C02D12B6803B1236038BDB80800204A
:102DB80038B50446084611460022054D2A601A46D1
:102DC800FEF78EF9431C02D12B6803B1236038BD8E
:102DD800B8080020014B1868704700BF3801002070
:102DE80070B500260C4D0D4C641BA410A64209D1E9
:102DF80004F0BEFB00260A4D0A4C641BA410A64230
:102E080005D170BD55F8043B98470136EEE755F8F3
:102E1800043B98470136F2E77C7900087C79000882
:102E28007C790008847900087047704770477047BC
:102E3800024B13B1024800F005B8704700000000CB
:102E4800054B0008002301461A46184601F0B8BE93
:102E58002DE9F041064608200C4601F063FE804645
:102E6800224F304600F042FBBB685D6825F0030541
:102E78002C1B113C4444B4FBF8F4013C08FB04F45B
:102E8800A04505DD304600F037FB0020BDE8F081A5
:102E98000021304601F022FEBB682B449842F1D154
:102EA8003046614201F01AFE013010D1002130464F
:102EB80001F014FEBA68831A0F2BE3DD0C4943F0C6
:102EC800010309685360401A0A490860DAE7BB68D9
:102ED800084A2D1B45F001055D60136830461B1B31
:102EE800136000F009FB0120D0E700BF400100207B
:102EF80048050020C4080020F8B505460F460029FB
:102F080000F0B18000F0F2FA57F8042C564822F08D
:102F18000104A7F1080303EB040C8168DCF80460E2
:102F2800614526F0030602F001021BD126443AB996
:102F380057F8082C9B1A1644D3E90212CA6091600C
:102F480046F001025A608360484B1B68B34204D8BC
:102F5800474B28461968FFF77BFF2846BDE8F8402D
:102F680000F0CABACCF80460002A38D157F8081C17
:102F780000F108075B1A0C449968B94231D0DF6840
:102F8800CF60B9600CEB06014968C9070BD4DCF8BF
:102F9800081034443ABB374EB14224D10122C0E96B
:102FA8000433C3E9021144F0010159601C51002A9D
:102FB800D3D1B4F5007F1BD20121E2086409A140F6
:102FC800446801322143416050F8324000EBC201AD
:102FD8000839C3E9024140F83230E360BDE7002216
:102FE800D0E70122CEE7DCF80C60CE60B160DAE70A
:102FF800B4F5206F4FEA542214D2A2093832511C7A
:1030080050F8311000EBC2068E4225D101249210EF
:1030180004FA02F2446822434260C3E90216B3602C
:10302800CB609AE7142A01D85B32E8E7542A02D821
:10303800220B6E32E3E7B2F5AA7F02D8E20B7732B1
:10304800DDE740F254518A4296BFA20C7E227C32C0
:10305800D5E789688E4204D04A6822F00302A2426A
:10306800F7D8CE68D9E7F8BD400100204C0500200C
:10307800F40800204801002001F10B03162B2DE96C
:10308800F74F054606D933F0070704D50C232B6004
:103098000024A1E11027B942F8D8284600F026FA02
:1030A800B7F5FC7FAE4E37D207F1080232445468B8
:1030B800A2F108018C424FEAD70302D1D468A24298
:1030C80010D06368D4E9021223F00303CA602344D2
:1030D80091605A6842F001025A60284600F00CFAE2
:1030E800083479E1023334699E498C4277D06268AA
:1030F80022F0030CACEB07000F2848DDE21940F082
:10310800010347F001076760C6E90422C2E902111A
:10311800536044F80C00E0E77B0A2AD0042B12D84D
:10312800BB0938335A1C06EBC2025468A2F1080CDA
:10313800644506D0626822F00302D01B0F281CDD0C
:10314800013B0133CFE7142B01D85B33EAE7542B5B
:1031580002D83B0B6E33E5E7B3F5AA7F02D8FB0B29
:103168007733DFE740F25452934204D8BB0C7C33E8
:10317800D8E73F23D6E77E23D4E70028E16804DBBD
:10318800A368D9608B60A318A3E70C46D0E7002892
:10319800C6E9041107DBA444DCF8043043F001035A
:1031A800CCF8043099E7BCF5007F706880F0938014
:1031B8004FEADC024FEA5C1E4FF0010C0CFA0EFCE1
:1031C8004CEA0000013256F832C0706006EBC200CB
:1031D8000838C4E902C046F83240CCF80C40012255
:1031E800981082407068904226D3104206D123F08E
:1031F80003035200104203F10403FAD006EBC3089C
:10320800C1469E46D9F80C404C4540F0B7800EF1B7
:10321800010E1EF0030F09F10809F3D1980740F0D9
:10322800E180736823EA0203736070685200904279
:1032380002D3002A40F0E280D6F808A0DAF8043079
:1032480023F00309B94504D3A9EB07020F2A00F3B9
:103258004081454B082019680AEB090B10313944A5
:10326800019101F05FFC414A0199136880460133DE
:103278001FBF01F1FF310918434219402846019147
:1032880001F02CFC421C044600F0F68083450199AD
:10329800364A02D9B24540F0EF80354BA34518684D
:1032A80008F1FF3C0844186040F0AA801BEA0C0FA4
:1032B80040F0A680B268494441F0010151602D4AAE
:1032C8001B6811688B4288BF13602B4A11688B42B8
:1032D80088BF1360D0E0BCF5206F4FEA5C2218D29B
:1032E8004FEA9C12383202F1010E56F83EE006EB26
:1032F800C208F0452BD14FF0010C92100CFA02F2E3
:1033080002437260C4E902E8C8F80840CEF80C40ED
:1033180065E7142A01D85B32E5E7542A03D84FEA57
:103328001C326E32DFE7B2F5AA7F03D84FEADC32EF
:103338007732D8E740F2545E724596BF4FEA9C4216
:103348007E227C32CFE7DEF808E0F04505D0DEF8D3
:10335800042022F003026245F5D8DEF80C80D1E79C
:103368004001002048010020F40800204805002002
:10337800C4080020EC080020F00800206068D4F899
:103388000CC020F00300A0EB070ABAF10F0F12DD02
:10339800A368E21947F001076760C3F80CC0CCF8CE
:1033A80008304AF00103C6E90422C2E90211536059
:1033B80044F800A091E6BAF1000F11DB20444368FD
:1033C80043F00103436054F8083F2846C3F80CC093
:1033D800CCF8083000F090F8204603B0BDE8F08F34
:1033E800644611E758F80809013B40453FF416AF19
:1033F8001BE7043352001042FBD0FFE67346FAE79E
:10340800D2F800E0BEF1FF3F1BBFA4EB0B0B0BEBA8
:10341800000214601A6014F0070B0EBF5846CBF177
:1034280008002418621802EA0C018044A8EB01087D
:1034380008EA0C0841462846019201F04FFB431C5C
:10344800019A294B07D1BBF1000F23D04FF0000898
:10345800ABF1080010441A68001B4044424440F095
:103468000100B245B4601A6060603FF428AFB9F15A
:103478000F0F12D801236360B3685B6823F003035E
:10348800BB42A3EB070201D30F2A22DC284600F037
:1034980033F8FDE51046D846DDE70521DAF80420C3
:1034A800A9F10C0929F0070902F0010242EA090210
:1034B800CAF80420B9F10F0F0AEB0902C2E9011199
:1034C8007FF6FDAE28460AF10801FFF715FD064B09
:1034D800F5E6B46847F0010342F00102274463604F
:1034E800B7607A60F9E500BFC40800200148FFF71B
:1034F8009DBC00BFBD0800200148FFF798BC00BF75
:10350800BD0800202DE9F04FD3B08A4693461D46EA
:10351800814601F0DFFA036818461793FCF780FE2E
:10352800BAF80C301290180618D5DAF81030ABB982
:1035380040214846FFF7A0FDCAF80000CAF810006D
:1035480048B90C23C9F800304FF0FF330F930F9898
:1035580053B0BDE8F08F4023CAF81430002300228E
:10356800CDE9273309930023CDE910230023CDE9C2
:10357800193329AC26940D93159318930F935B4632
:103588001E4613F8012B0AB1252AF9D1B6EB0B0711
:103598000DD0289BC4E900B73B442893279B0133EF
:1035A800072B279379DC08340F9B3B440F93337820
:1035B800002B01F0338100234FF0FF3298460A2791
:1035C8002B2101368DF87B3007921393334613F87D
:1035D800012B0B920E930B9B203B5A2B00F2A685D6
:1035E800DFE813F07E00A405A4058600A405A40561
:1035F800A4056500A405A40589009300A40590000E
:103608009600A405B200B500B500B500B500B50038
:10361800B500B500B500B500A405A405A405A4052A
:10362800A405A405A4052401A405E200F5002401CD
:1036380024012401A405A405A405A405C500A40526
:10364800A4058304A405A405A405CD04A405EE04DB
:10365800A405A4051005A405A405A405A405A405AE
:10366800A405A405A4052401A405E200F70024018B
:1036780024012401C800F700DC00A405D500A40536
:103688005E048504BC04DC00A405CD047C00F004C1
:10369800A405A4052F05A4057C005146484626AA82
:1036A80002F04CFC002840F02D8129AC7CE748460C
:1036B80001F010FA436818461893FCF7B1FD15900D
:1036C800484601F007FA83682B210D93159B2BB10F
:1036D8000D9B1BB11B780BB148F480680E9E75E7F3
:1036E8009DF87B30002BF9D120238DF87B30F5E74E
:1036F80048F00108F2E755F8043B002B1393EDDA84
:103708005B42139348F00408E8E78DF87B10E5E77F
:103718000E9B13F8012B2A2A0B9212D155F8042B71
:103728000E9342EAE2720792D8E7079807FB002255
:10373800079213F8012B0B920B9A303A092AF4D905
:1037480048E700220792F7E748F08008C6E700221A
:103758000E9B13920B9A1398303A07FB0022139290
:1037680013F8012B0B92303A092AF3D932E748F0C3
:103778000808B3E70E9B1B78682B01BF0E9B48F423
:10378800007801330E9318BF48F04008A6E70E9B57
:103798001B786C2B05D10E9B01330E9348F0200843
:1037A8009CE748F0100899E72A4652F8043B8DF840
:1037B800E43000230A928DF87B3000270893012318
:1037C8003E463D4607930C970DF1E40BB0E148F0F7
:1037D800100818F0200F11D0073525F007031A46F6
:1037E80052F8085B5E680A92002E05DA2D236D42B6
:1037F80066EB46068DF87B30012389E32B4653F8A8
:10380800046B18F0100F0A9302D03546F617EBE751
:1038180018F0400F03D035B246F3C036E4E718F489
:10382800007FF2D075B246F3C016DDE7073525F004
:1038380007031946F1E80223CDE91023DDE91063F7
:1038480023F000450A914FF0FF32304629463A4BA3
:10385800FDF744F918BB4FF0FF3230462946364B86
:10386800FDF71EF9D8B9DDE9100100220023FDF7A4
:103878000DF910B12D238DF87B30304A304B0B9960
:1038880028F080084729D4BF93469B46032300218C
:10389800CDE9073100273E463B4600F0F9BFDDE998
:1038A800102310461946FDF719F940B1119B254A16
:1038B800002BBCBF2D238DF87B30234BDFE70B9B00
:1038C80023F02003412B0C9325D130238DF87C3035
:1038D8000B9B48F00208612B0CBF782358238DF806
:1038E8007D30079B632B31DD4846591CFFF7C4FB2D
:1038F8008346002840F0F881BAF80C3043F04003C2
:10390800AAF80C30BAF80C3013F0400F0F9B18BF10
:103918004FF0FF331AE6079B013300F0E7810C9B59
:10392800472B40F0E681079B002B40F0E28108938B
:10393800012307930DE000BFFFFFEF7FE675000846
:10394800EA750008EE750008F275000808900DF198
:10395800E40B48F480731493DDE910731D1EAEBFA9
:10396800002303F100452D231C930C9B412B40F0B1
:10397800D881384620AA294601F0EEF800224FF0F7
:103988007F53FCF711FE0022002306460F46FDF781
:1039980073F808B101232093AD4BAE4A0B995D46ED
:1039A800612918BF1A46079B1B92013B0993002205
:1039B800A94B30463946FCF7F7FD0F460646FDF79A
:1039C800A3F81D90FCF786FD02460B4630463946A3
:1039D800FCF732FC1D9A1B9B06469B5C0F4605F8BC
:1039E800013B099B5A1C169307D0013B09930022FF
:1039F8000023FDF741F80028D9D000223046394687
:103A0800964BFDF761F860B9002230463946934B72
:103A1800FDF732F8002800F07F811D9BDB0740F19D
:103A28007B8130201B9B2495D97B249A531E249399
:103A380012F8013C8B4200F05E81392B0BBF1B9BB7
:103A480001339B7ADBB202F8013CA5EB0B03099327
:103A58000C9B209D472B40F0B381EF1C03DB079B99
:103A6800AB4280F2D3810B9B023B0B930B999DF8E1
:103A78002C2021F02001412908BF0F3205F1FF3326
:103A880006BFD2B201210021002B8DF88820B4BFD7
:103A98002D222B222093B8BFC5F10103092B8DF8E5
:103AA800892040F3A6810A260DF1970093FBF6F5CD
:103AB800024606FB1531303102F8011C194663290C
:103AC8002B4600F1FF30F1DC3033911E00F8013C49
:103AD8000B460DF189050DF197008342C0F08481F2
:103AE8000DF199039B1A814288BF00230DF18A02C8
:103AF8001A4422ABD31A099A1993012A134407933B
:103B080002DC18F0010F03D0079B129A13440793A5
:103B18000026354628F4806343F4807314930C968A
:103B28001C9B13B12D238DF87B300027DDF85080C6
:103B3800079BBB42B8BF3B4614939DF87B3013B13B
:103B4800149B0133149318F002031B931EBF149B9C
:103B58000233149318F084031C9321D1DDE9133246
:103B68009B1A002B16931BDDDDE9272316980132DB
:103B780010283B4804F10801206000F3E6821698FB
:103B8800072A0344CDE92723606040F3F3825146B6
:103B9800484626AA02F0D2F9002840F01D8629AC32
:103BA8009DF87B20289B6AB10DF17B0222600122DF
:103BB80013442893279B62601344072B279300F331
:103BC800DB8208341B9A289B62B11FAA226002225A
:103BD80013442893279B62600133072B279300F334
:103BE800D58208341C9B802B21D1DDE913329B1A26
:103BF800002B16931BDDDDE92723169801321028C8
:103C0800184804F10801206000F3CA821698072AB0
:103C18000344CDE92723606040F3D78251464846E4
:103C280026AA02F08BF9002840F0D68529AC079B1C
:103C3800FF1A002F28DDDDE927320A48102F03F18B
:103C4800010304F10801206000F3C1820CE000BF09
:103C580007760008F6750008000030400000E03FD5
:103C68001A7600082A7600086760072B1744CDE902
:103C7800273740F3BF825146484626AA02F05EF92C
:103C8800002840F0A98529AC18F4807F289F40F0CF
:103C9800B782079BC4F800B01F4463602897279B2E
:103CA8000133072B279300F3F082083418F0040F30
:103CB80040F07485DDE913210F9B8A42ACBF9B1845
:103CC8005B180F93289B3BB15146484626AA02F041
:103CD80035F9002840F0808500232793089B002BA6
:103CE80040F0968529ACE6E0089032E60623089075
:103CF8001FE608902DE602F8010C96E603F8010B82
:103D0800CA1A002AFADA169A169B013203F101033D
:103D1800B8BF00231D4498E6169A2B463020A918F0
:103D2800EEE70C9B462B05D0452B1DD1079B5E1C4F
:103D3800022301E00323079E24AA049221AA0392E6
:103D480020AACDE9016200933A462B46484601F085
:103D580003F80C9B8346472B08D118F0010F05D1B7
:103D6800249BA3EB0B0372E6079EE1E70BEB06032C
:103D780009930C9B462B11D19BF80030302B09D1AD
:103D88000022002338462946FCF776FE10B9C6F112
:103D980001062096099A209B1A44099200220023C2
:103DA80038462946FCF768FE08B1099B249330225F
:103DB800249B09999942D3D9591C24911A70F7E781
:103DC8000C9B462B7FF452AE079A08F00103002D96
:103DD80043EA020329DD002B34D0129BEB181A4466
:103DE800079266230B9333E013F8016B05F8016F14
:103DF80073E641B930228DF88A200DF18B023033F9
:103E080002F8013B75E60DF18A02F8E7099BAB421F
:103E180010DD099B129A002D1344079310DC079AB2
:103E2800C5F101031A4407920AE06BB1129B079A85
:103E38000133D4E718F0010F1FD0129BEB1807933A
:103E48006723CFE70795CCE766230B9301230793F6
:103E580018F480630C9321D00026002D0C967FF770
:103E68005FAE0D9B1B78FF2B09D10C9B079A159908
:103E7800334401FB0323079352E60795E0E7AB427F
:103E8800F3DAED1A0D9B5B7833B10C9B01330C937D
:103E98000D9B01330D93E4E70136E2E70C9E3FE604
:103EA8002B1D18F0200F0A930AD00F9A2B680F9930
:103EB800D217C3E900120A9DDDF838B0FFF75FBBDF
:103EC80018F0100F03D02B680F9A1A60F3E718F058
:103ED800400F03D02B680F9A1A80ECE718F4007F84
:103EE800F1D02B680F9A1A70E5E748F0100818F01F
:103EF800200320D0073525F007031A4652F8085B3F
:103F08005E680A92002328F4806800228DF87B20DE
:103F1800079A013200F08D8428F08002089255EA51
:103F2800060240F08C84079A002A00F0F480012BE6
:103F380040F088849EE02A4652F8045B18F0100688
:103F48000A9201D01E46DDE718F0400301D0ADB259
:103F5800D8E718F40076D5D0EDB2F3E72B4653F83E
:103F6800045B78220A9347F63003ADF87C30A24B05
:103F780000261A9348F0020802230B92C5E72B4645
:103F8800002553F804BB8DF87B500A93079B581CF7
:103F980010D01A462946584600F0D0FD089000284F
:103FA80000F0D080A0EB0B032F462E46CDE9073555
:103FB8000C95BDE55846FCF733F9CDE9070569E4EA
:103FC80048F0100818F0200309D0073525F007033A
:103FD8001A4652F8085B5E680A92012395E72A465A
:103FE80052F8045B18F010060A9201D01E46F4E756
:103FF80018F0400301D0ADB2EFE718F40076ECD02A
:10400800EDB2F3E77D4B1A9318F020031BD0073568
:1040180025F007031A4652F8085B5E680A9218F002
:10402800010F0AD055EA060307D030238DF87C30FB
:104038000B9B48F002088DF87D30022328F4806835
:1040480063E76D4BDFE72A4652F8045B18F0100669
:104058000A9201D01E46E2E718F0400301D0ADB243
:10406800DDE718F40076DAD0EDB2F3E70A2D76F141
:10407800000305D230358DF847510DF2471BFDE39B
:1040880000230993089B52AF03F480630C930A2220
:10409800002328463146FCF75FFD099B3032013387
:1040A80009930C9B8846149007F1FF3B07F8012CF5
:1040B800D3B10D9B099A1B789A4215D1FF2A13D0C8
:1040C8000A2D76F100030FD3159B1899ABEB030B60
:1040D8001A46584600F0EBFC0D9B5B781BB10D9B14
:1040E80001330D93002309930A2D76F10006C0F0E1
:1040F800C58346465F46149DC9E71A9A05F00F0323
:10410800D35C2D0945EA067536090BF8013D55EAD9
:104118000603F2D1B2E333B918F0010F03D030230C
:104128008DF84731A9E70DF5A47BA7E30B9B002B7E
:1041380000F074838DF8E43000230A958DF87B3005
:10414800FFF73BBB089FFFF7A6BB1020072A0344D5
:10415800CDE92723606008DD5146484626AA01F0CC
:10416800EDFE002840F0388329A9169B0C46103B29
:104178001693F9E40C4613E55146484626AA01F081
:10418800DDFE002840F0288329AC1BE5514648464F
:1041980026AA01F0D3FE002840F01E8329AC21E5B1
:1041A8001020072A0344CDE92723606008DD514623
:1041B800484626AA01F0C2FE002840F00D8329A92E
:1041C800169B0C46103B169315E50C462FE5102060
:1041D800072B0244CDE92732606008DD5146484686
:1041E80026AA01F0ABFE002840F0F68229A90C4669
:1041F800103F20E50C4647E5F675000807760008ED
:104208000B9B652B40F33082DDE91001002200236F
:10421800FCF732FC002868D06D4B236001231F4453
:104228006360279B28970133072B279337DC0834D3
:10423800209B099A934203DB18F0010F3FF436AD37
:10424800179B129A2360129B6360289B1344289340
:10425800279B0133072B27932BDC0834099B5D1E12
:10426800002D7FF723AD10275A4E102DDDE9273298
:1042780004F1080103F10103266024DC656015449C
:104288002895072B279340F386825146484626AA4D
:1042980001F054FE002840F09F8229AC06E5514603
:1042A800484626AA01F04AFE002840F0958229AC2B
:1042B800BEE75146484626AA01F040FE002840F0D5
:1042C8008B8229ACCAE71032072BCDE92732676009
:1042D80008DD5146484626AA01F030FE002840F085
:1042E8007B8229A90C46103DBFE7209B002B73DC7D
:1042F800374B236001231F446360279B28970133B2
:10430800072B27933DDC08340999209B289A0B43F7
:1043180008F001010B433FF4C9AC179B2360129BC3
:104328001A446360279B28920133072B279332DCBA
:104338000834209D002D1BDA23461027254E6D4298
:10434800102DDDE9272104F1080402F101021E60A5
:104358002BDC5D60072A0D44CDE9272508DD514691
:10436800484626AA01F0EAFD002840F0358229AC2B
:10437800099B099A6360289BC4F800B013442893EA
:104388008DE45146484626AA01F0D8FD002840F0A1
:10439800238229ACB8E75146484626AA01F0CEFD4B
:1043A800002840F0198229ACC3E71031072ACDE96B
:1043B80027215F6008DD5146484626AA01F0BEFD68
:1043C800002840F0098229AC2346103DB8E700BF19
:1043D800187600082A760008099BAB42A8BF2B462E
:1043E800002B079309DD1F44C4E900B3279B2897D6
:1043F8000133072B279374DC0834079B002BB4BFC9
:104408002F46EF1A002F18DDDDE927329548102FC7
:1044180003F1010304F1080120606CDC6760072BDD
:104428001744CDE9273779DD5146484626AA01F0D9
:1044380085FD002840F0D08129AC18F4806F5D44D8
:1044480009D00C9B002B6BD1002E6BD1099B5B44D0
:104458009D4228BF1D46209B099A934202DB18F013
:10446800010F0ED0179B129A2360129B6360289B42
:1044780013442893279B0133072B279300F3CC8001
:104488000834099B209E9E1B5B445B1B9E42A8BF71
:104498001E46002E289B0ADD33442893279BC4E937
:1044A80000560133072B279300F3C0800834209D62
:1044B800099B002EA3EB0505A8BFAD1B002D7FF7B8
:1044C800F5AB1027674E102DDDE9273204F10801FE
:1044D80003F10103266000F3B3802A446560289243
:1044E800CFE65146484626AA01F028FD002840F0AC
:1044F800738129AC81E71020072B0244CDE92732CC
:10450800606008DD5146484626AA01F017FD0028DC
:1045180040F0628129A90C46103F75E70C468CE7EC
:10452800002E49D0013E189B159A2360159B6360A5
:10453800289B13442893279B0133072B279342DC9E
:104548000834099B5B445A1B0D9B1B789A42A8BFF1
:104558001A46002A289B079209DD13442893279BB3
:10456800C4E900520133072B279336DC08340D9B2E
:104578001F78079B002BA8BFFF1A002F18DDDDE965
:1045880027323848102F03F1010304F10801206095
:104598002DDC3A44072BCDE9273267603ADD5146D6
:1045A800484626AA01F0CAFC002840F0158129AC2B
:1045B8000D9B1B781D4444E70D9B013B0D930C9B01
:1045C800013B0C93AFE75146484626AA01F0B6FCDA
:1045D800002840F0018129ACB3E75146484626AA95
:1045E80001F0ACFC002840F0F78029ACBFE71020B0
:1045F800072B0244CDE92732606008DD5146484662
:1046080026AA01F09BFC002840F0E68029A90C4668
:10461800103FB4E70C46CBE75146484626AA01F0BE
:104628008DFC002840F0D88029AC2AE7514648463E
:1046380026AA01F083FC002840F0CE8029AC36E79A
:104648001032072BCDE92732676008DD514648460E
:1046580026AA01F073FC002840F0BE8029A90C4668
:10466800103D30E72A760008099A279B012A07F1AE
:10467800010703F1010304F1080502DC18F0010F3A
:104688007ED00122072BCDE92737C4F800B062603D
:1046980008DD5146484626AA01F050FC002840F0A3
:1046A8009B8029AD179B129A2B60129B6B60289BED
:1046B80013442893279B0133072B279332DC0835B3
:1046C800099B0022DDE91001DDE927765C1E002345
:1046D800FCF7D2F900282ED10BF10103C5E900340B
:1046E800099B0137013E1E44072FCDE9277650DD8F
:1046F8005146484626AA01F021FC00286CD129AD74
:1047080022AB2B60199B199A6B60289B1344289342
:10471800279B0133072B27933FF7B7AD05F1080413
:10472800FFF7C4BA5146484626AA01F007FC0028FC
:1047380052D129ADC4E7002CE2DD1027564E102CCB
:10474800DDE9273205F1080103F101032E6007DCDA
:104758006C60072B1444CDE92734C9DC0D46CFE73C
:104768001032072BCDE927326F6006DD51464846E7
:1047780026AA01F0E3FB78BB29A90D46103CDEE729
:104788000122072BCDE92737C4F800B06260B7DDF6
:10479800AEE70835B4E70C46FFF788BADDE913320F
:1047A8009D1A002D7FF786AA10273C4E102DDDE9B3
:1047B8002732266003F1010318DC6560072B1544D6
:1047C800CDE927357FF776AA5146484626AA01F053
:1047D800B5FB00283FF46EAA089B002B3FF492A873
:1047E80019464846FEF788FBFFF78CB81032072BAE
:1047F800CDE92732676002DC0834103DD6E7514620
:10480800484626AA01F09AFB0028E5D129ACF4E72E
:1048180048460899FEF770FBFFF764BA289B002BFF
:104828003FF470A85146484626AA01F087FBFFF7D7
:1048380069B855EA0602CDF820803FF478AB012B21
:104848003FF414AC022B0DF5A47B3FF456AC05F0F5
:104858000703ED0845EA4675F608303355EA0601C0
:104868005A460BF8013DF2D10899C90706D5302BF5
:1048780004D030230BF8013CA2F1020B52ABA3EB9E
:104888000B03079F079300231E46DDF8208008933B
:104898001D460C93FFF74CB92A7600081A760008D3
:1048A80070B506460C4611B90025284670BD18B1EA
:1048B800436B0BB9FEF7A6F9636ED80705D4A38935
:1048C800990502D4A06DFEF7B1FAB4F90C303BB9E2
:1048D800656E15F00105E7D1A06DFEF7A8FAE4E7CB
:1048E8002146304600F034F8E36A054633B13046D5
:1048F800E16998470028B8BF4FF0FF35A3891A0629
:1049080003D530462169FEF7F7FA216B41B104F16E
:104918004003994202D03046FEF7EEFA00232363A3
:10492800616C21B13046FEF7E7FA00236364FEF7B5
:104938005DF90023A381636EDB0702D4A06DFEF747
:1049480076FAA06DFEF771FAFEF756F9ADE70000AA
:10495800F8B58B89054618070C46B1F90C205ED4CA
:104968004B6842F40062002B8A8104DCCB6B002B7D
:1049780001DC0020F8BDA66A002EFAD0002312F44C
:1049880080522F68E1692B6036D0206DA3895A07C1
:1049980005D56368C01A236B0BB1E36BC01A0023FB
:1049A8000246A66A2846E169B047431CA38906D196
:1049B80029681D292FD82A4A0A41D6072BD4002254
:1049C80023F400631BB262602269D904A3812260C8
:1049D80004D5421C01D12B6803B92065216B2F60D7
:1049E8000029C6D004F14003994202D02846FEF7B8
:1049F80083FA00202063BDE701232846B047411C05
:104A0800C4D12B68002BC1D01D2B01D0162B01D18E
:104A18002F60AEE7A38943F04003A381AAE70F699B
:104A2800002FA6D09B0718BF00230E6808BF4B694C
:104A3800F61B0F608B60002E9BDD33463A462846F6
:104A4800E169D4F824C0E047002806DCA3894FF0C8
:104A5800FF3043F04003A3818CE70744361AEAE7A6
:104A6800FEFFBFDF38B50C46054618B1436B0BB9DE
:104A7800FEF7C8F8B4F90C00B8B1636EDB0704D4CC
:104A8800810502D4A06DFEF7D1F928462146FFF72B
:104A98005FFF636E0546DA0705D4A3899B0502D438
:104AA800A06DFEF7C4F9284638BD0546FBE7034666
:104AB80010B5013932B111F8014F013A03F8014B31
:104AC800002CF7D100211A44934200D110BD03F8FD
:104AD800011BF9E7004870474006002038B500235D
:104AE800054D044608462B60FCF714FB431C02D115
:104AF8002B6803B1236038BDB808002038B5074DCE
:104B0800074C641BA4101CB9BDE8384002F036BD40
:104B1800013C55F824309847F5E700BF8479000830
:104B280088790008082808B506D0FEF753F9162337
:104B380003604FF0FF3008BD8020FCE7034610B546
:104B4800C9B202449342184601D1002003E0047818
:104B580001338C42F6D110BDF8B5174600223A60F1
:104B6800144A21F00046964204460D460B461EDCC8
:104B7800024632431BD0104A0A4052B900220F4B5A
:104B8800FBF712FD6FF0350204460B4621F0004694
:104B98003A603A68361523F0FF43A6F2FE3623F44E
:104BA800E003324443F07F553A6045F4001520464F
:104BB8002946F8BDFFFFEF7F0000F07F000050435B
:104BC8002DE9F047DFF86CA00646DAF800009846B1
:104BD8000F469146FEF72AF9174B1C680CB9174C7B
:104BE8001C606568DAF800001F2D05DDFEF71FF967
:104BF8004FF0FF30BDE8F0879EB1012204EB85013C
:104C0800C1F88890D4F88831AA401343C4F8883191
:104C1800022EC1F8088102BFD4F88C311343C4F8BE
:104C28008C316B1C0235636044F82570FEF7FFF881
:104C38000020DFE73C010020C0080020F808002021
:104C48002DE9F74F03690C690746A3427FDB013C56
:104C580000F1140501F1140805EB8403019358F8D9
:104C6800243055F8242001339A42B2FBF3F64FEA78
:104C7800840B08EB840931D34FF0000E4046AC4654
:104C8800F24650F8042B93B206FB03E34FEA124EA8
:104C98001A0C9BB206FB0E22AAEB0303DCF800A059
:104CA8004FEA124E1FFA8AFA5344DCF800A092B277
:104CB800C2EB1A4202EB23429BB243EA024381450C
:104CC8004FEA224A4CF8043BDBD255F80B302BB99B
:104CD800019B043B9D421A462DD33C61384601F0A6
:104CE8002FF8002823DB29460020013658F8042B2A
:104CF800D1F800C093B2C31A120C1FFA8CF0034407
:104D0800C2EB1C4202EB23429BB243EA0243C14579
:104D18004FEA224041F8043BE8D255F8242005EB3D
:104D2800840322B9043B9D421A460AD33C613046AB
:104D380003B0BDE8F08F1268043B002ACDD1013CD6
:104D4800C8E71268043B002AF0D1013CEBE70020D9
:104D5800EEE70000000000002DE9F04F816B97B0EE
:104D6800814614461D4692469B46239E49B101231F
:104D7800C26B93408B604A6000F0DBFD0023C9F8EA
:104D880038302B1EADBF0023012223F0004B3360C7
:104D9800A34BB8BF326033EA0B03CDF80CB019D17E
:104DA80042F20F73229A1360CBF31303234300F0EC
:104DB8008685249B0BB99B4B21E09A4B04930333C4
:104DC800249A1360049817B0BDE8F08F964B0493AB
:104DD8000833F5E70022002350465946CDE90CABCD
:104DE800FBF74AFE074660B10123229A1360249B11
:104DF800002B00F061858D4B249A1360013B0493CE
:104E0800E0E714AB019315AB00934846DDE90C23AA
:104E180001F03EF8039B8046C3F30A56002E00F0CB
:104E28008280DDE90C010D9BA6F2FF36C3F3130364
:104E380043F07F5343F440131397194600227C4BE9
:104E4800FBF7FAF970A3D3E90023FBF7ADFB70A3D6
:104E5800D3E90023FBF7F2F9044630460D46FBF789
:104E680039FB6DA3D3E90023FBF79EFB02460B46F3
:104E780020462946FBF7E2F904460D46FBF744FEB7
:104E880000220390002320462946FBF7FFFD50B17E
:104E98000398FBF71FFB22462B46FBF7EDFD10B9E5
:104EA800039B013B0393039B162B5AD8DDE90C01A6
:104EB800039A604B03EBC203D3E90023FBF7E6FD3B
:104EC800002850D0039B013B039300231193149BAC
:104ED8009B1B5A1E49BFC3F10103002306930023FD
:104EE80058BF0693099248BF0993039B002B3CDBEC
:104EF800099B039A13440993002310920A93209B59
:104F0800092B6AD8052BC4BF043B2093209BC8BF3C
:104F18000024A3F10203D8BF0124032B68D8DFE8DB
:104F280003F02D3A385ADDE914631E4406F2324381
:104F3800202BC1BF039AC3F140039A4006F21243E3
:104F4800CBBF24FA03F3C3F1200342EA030004FAB7
:104F580003F0FBF7AFFA0122A1F1F873013E1392B7
:104F68006BE70123B2E71190B1E7069B039A9B1AFE
:104F7800069353420A9300231093C0E700230B9330
:104F8800219B002B37DC01231A46089305932192B5
:104F98000CE00123F3E70023219A0B93039B1344AE
:104FA80008930133012B0593B8BF01230021042284
:104FB80002F11400984222D94846C9F83C1000F082
:104FC80093FC049000283BD1024640F2AF111A4BE3
:104FD8001A4801F05FF80123DEE7012400230B944F
:104FE80020934FF0FF330022089305931223CEE756
:104FF80001230B93F5E7219B08930593D6E701312D
:105008005200D5E7AFF3008061436F63A787D23FB3
:10501800B3C8608B288AC63FFB799F501344D33F9F
:105028000000F07F437600083A76000819760008F9
:105038000000F83F387700084776000858760008DF
:10504800049BC9F83830059B0E2B00F2A280002C77
:1050580000F09F80039B002B35DD03F00F02964B79
:1050680003EBC203D3E90045039BD8054FEA231697
:1050780017D5DDE90C01914B0327D3E90823FBF78A
:10508800BDFB82468B4606F00F068C4B0E9356B935
:1050980022462B4650465946FBF7B0FB82468B46C4
:1050A8002AE00227F1E7F10709D50E9B2046D3E94C
:1050B80000232946FBF778FA04460D4601370E9B74
:1050C80076100833E2E700F09F80DDE90C01039BCE
:1050D80002275C42784B04F00F0203EBC203D3E9CA
:1050E8000023FBF761FA002382468B46734D241197
:1050F800002C7ED1002BD1D1119BCDE90EAB002B1A
:1051080000F084800022504659466D4BFBF7BEFCE8
:1051180000287BD0059B002B78D0089B002B36DD20
:10512800039B5046594600225D1E664BFBF73CFA2E
:1051380082468B46089C01373846FBF7CBF9524626
:105148005B46FBF731FA00225F4BFBF777F8A1F1DA
:105158005076CDE90E010F96002C5AD10022504608
:1051680059465A4BFBF768F833460E9A82468B46E7
:10517800FBF7AAFC002840F09582504659460E9A43
:1051880006F10043FBF782FC002840F08982DDE944
:105198000CAB159B002BC0F24E81039A0E2A00F32C
:1051A8004A81454B03EBC203D3E90034CDE9063409
:1051B800219B002B80F2D780059B002B00F3D38026
:1051C80040F06D82DDE906010022404BFBF7ECF967
:1051D80052465B46FBF76EFC059C2546002840F0CE
:1051E80046823123049E06F8013B039B0133039357
:1051F80041E2E20705D5D5E90023FBF7D5F90123FC
:1052080001376410083573E7022775E7039D059C8D
:1052180092E70499284B214412910B9903EBC4039C
:10522800DDE90E6753E90223002953D000202849FD
:10523800FBF7E4FA32463B46FAF7FEFFCDE90E01EA
:10524800049E59465046FBF75FFC0446FBF742F9BB
:1052580002460B4650465946FAF7EEFFDDE90E23A3
:10526800303406F8014B82468B46FBF70FFC0028CA
:1052780071D152465B4600201149FAF7DDFFDDE99E
:105288000E23FBF703FC002840F0B780129B9E42D8
:105298003FF47DAFDDE90E0100220A4BFBF784F9EC
:1052A8000022CDE90E01074B50465946FBF77CF921
:1052B80082468B46C5E700BF38770008107700089C
:1052C8000000F03F0000244000001C400000144093
:1052D8000000E03F30463946FBF766F9CDE90E019C
:1052E800129F049E59465046FBF70EFC0446FBF7F6
:1052F800F1F802460B4650465946FAF79DFF3034FE
:10530800129B06F8014B9E4282468B464FF00002E4
:1053180023D1DDE90E01B14BFAF790FF02460B46A7
:1053280050465946FBF7D0FB002866D1DDE90E232D
:105338000020AA49FAF780FF02460B465046594614
:10534800FBF7A4FB00283FF422AF3E4616F8013CC9
:10535800013F302BF9D003953EE0A14BFBF724F930
:1053680082468B46BEE754464FF0000A5D46049ECF
:10537800DFF86CB2DDE9062320462946FBF73EFA42
:10538800FBF7C2FB0746FBF7A5F8DDE90623FBF7A9
:105398000BF902460B4620462946FAF74DFF07F15E
:1053A800300406F8014B049C059D341BA5420246B7
:1053B8000B4633D1FAF742FFDDE9062304460D46D2
:1053C800FBF782FBC0B9DDE9062320462946FBF737
:1053D80053FB08B1FB070FD44146484600F0A9FA31
:1053E80000233370039B229A01331360249B002B04
:1053F8003FF4E8AC1E60E5E4039D33461E4613F80F
:10540800012D392A06D1049A9A42F7D130220499FB
:1054180001350A701A7801321A709CE752465B46C9
:10542800FBF7C2F80022002304460D46FBF724FBD5
:1054380000289FD0D0E70B9A002A00F0CA80209A53
:10544800012A00F3AD80139A002A00F0A58003F228
:1054580033430A9C069E069A01211A440692099A29
:1054680048461A44099200F001FB054666B1099BBB
:10547800002B09DDB342A8BF3346069AF61AD21AA2
:105488000692099AD31A09930A9BF3B10B9B002B36
:1054980000F0A880002C10DD29462246484600F07E
:1054A800A3FB424601460546484600F0F5FA074682
:1054B8004146484600F03DFAB8460A9B1A1B04D0FC
:1054C8004146484600F090FB80460121484600F0DE
:1054D800CDFA109B0446002B40F386801A460146FD
:1054E800484600F081FB209B0446012B7FDD002706
:1054F800236904EB8303186900F06AFAC0F12000FD
:10550800099B184410F01F0000F09880C0F1200398
:10551800042B40F38880069BC0F11C0003440693CB
:10552800099B064403440993069B002B05DD41466D
:105538001A46484600F098FB8046099B002B05DD7B
:1055480021461A46484600F08FFB0446119B002B63
:1055580076D02146404600F0F3FB002870DA039B22
:105568004146013B03930A220023484600F0EAF92A
:105578000B9B8046002B00F0A981002329460A22B4
:10558800484600F0DFF9089B0546002B00F393809E
:10559800209B022B5CDC8EE0149BC3F1360358E79A
:1055A800059B5C1E0A9BA342BFBF0A9B109AE31A85
:1055B800D218A8BF1C1B059BBEBF10920A940024DA
:1055C800002BB7BFDDE90523DDE905369E1A002368
:1055D80041E70A9C069E0B9D48E700BF0000E03F9C
:1055E800000024400A9A6BE7209B012B17DCBAF1D4
:1055F800000F14D1CBF313039BB92BF000473F0DD9
:105608003F0537B10127069B01330693099B0133F8
:105618000993109B002B7FF46BAF012070E70027E4
:10562800F7E75746F5E73FF47FAF069A1C331A446D
:105638000692099A1E441A44099275E70346F4E74C
:10564800059B002B31DC209B022B2EDD059B08934C
:10565800089B63B921460522484600F073F90146C4
:105668000446404600F06CFB00283FF7BAAD219B8A
:10567800049EDB43039300272146484600F059F96E
:10568800002D3FF4A9AE2FB1AF4203D039464846AA
:1056980000F04FF92946484600F04BF99CE60024F3
:1056A8002546E4E7039525469BE50B9B002B00F078
:1056B800C480059B0893002E05DD294632464846DE
:1056C80000F0D2FA0546002F58D04846696800F025
:1056D8000BF9064620B9024640F2EF217F4B77E4EA
:1056E8002A6905F10C01023292000C3000F0C4FC6A
:1056F80001223146484600F0B7FA2F460546049B7A
:10570800049A01330593089B13440A930AF0010392
:105718000993059B2146404603F1FF3BFFF790FAAA
:105728003946069000F1300A404600F009FB2A4647
:1057380008902146484600F01FFBC2680646FAB9A1
:105748000146404600F0FCFA0246314648460B92B4
:1057580000F0EFF8209B0B9A059E43EA0201099B93
:1057680019430FD1BAF1390F28D0089B002B02DD5D
:10577800069B03F1310A8BF800A07DE72846BCE7B9
:105788000122E2E7089B002B04DB20990B430999CF
:105798000B4320D1002AEEDD41460122484600F0A5
:1057A80063FA2146804600F0CBFA002803DCE2D1F8
:1057B8001AF0010FDFD0BAF1390FD9D139238BF89C
:1057C800003033461E4616F8012C013B392A6AD0B0
:1057D80001321A7050E7002A07DDBAF1390FEDD00F
:1057E8000AF101038BF8003046E7059B0A9A03F893
:1057F80001AC934241D0414600230A22484600F0BA
:10580800A1F8AF4280464FF000034FF00A02394634
:10581800484607D100F096F807460546059B013330
:10582800059376E700F08EF82946074600230A22FA
:10583800484600F087F80546F0E7059B0893049E64
:1058480021464046FFF7FCF9049B00F1300A06F8B0
:1058580001ABF21A089B934207DD414600230A2256
:10586800484600F06FF88046EAE7089B0027002BBF
:10587800CCBF1E460126049B1E44414601224846D1
:1058880000F0F2F92146804600F05AFA002898DC28
:1058980002D11AF0010F94D133461E4613F8012D98
:1058A800302AFAD0E8E6049A9A428BD1039B013356
:1058B800039331231370DFE6094BFFF7A0BA249B4B
:1058C800002B7FF483AA074BFFF799BA089B002B9C
:1058D800B5DC209B022B3FF7BBAEB0E7477600084C
:1058E800187600083A760008436C70B505460C46F1
:1058F8007BB16B6C53F82400A0B9012101FA04F6BE
:10590800721D2846920000F0E3FB48B1C0E9014649
:105918000BE02122042100F0DBFB68640028E8D1B9
:10592800002070BD026843F824200023C0E9033337
:10593800F7E731B1436C4A6853F82200086043F82E
:10594800221070472DE9F04107460C461E460020FC
:105958000D6901F1140CDCF80030013099B202FB3A
:1059680001611E0C0B0C02FB063389B201EB0341EB
:1059780085424FEA13464CF8041BECDC0EB3A368CF
:10598800AB4219DC616838460131FFF7ADFF80464C
:1059980028B90246BA210C4B0C4800F07BFB22695F
:1059A80004F10C01023292000C3000F065FB214634
:1059B8003846FFF7BEFF444604EB850301355E61B8
:1059C80025612046BDE8F08147760008B0760008DA
:1059D800020C12040346CAB90304102013F07F4FC7
:1059E80004BF1B02083013F0704F04BF1B010430C2
:1059F80013F0404F04BF9B000230002B05DB13F06F
:105A0800804F00F1010008BF202070470020E5E723
:105A18000368024613F007000BD0D90721D4980772
:105A280049BF5B089B08012013605CBF022013601C
:105A3800704799B209B910201B0CD9B209B90830BE
:105A48001B0A190704BF1B090430990704BF9B08E8
:105A58000230D90703D45B0800F1010003D01360BA
:105A680070470020704720207047000010B50C4692
:105A78000121FFF739FF024628B940F24511044BCE
:105A8800044800F007FB01234461036110BD00BF17
:105A980047760008B07600082DE9F04F91460A696C
:105AA800D9F810300C469A42BEBF0B464C46994670
:105AB8002769D9F810A0A368616807EB0A06B34202
:105AC80085B0B8BF0131FFF70FFF30B902464FF478
