:020000040800F2
:1000000000C00020191900083D1400083F14000822
:1000100041140008431400084514000800000000C3
:10002000000000000000000000000000471400086D
:1000300049140008000000004B1400084D1400088B
:1000400061190008611900086119000861190008A8
:1000500061190008611900085514000861190008A9
:100060006119000861190008611900086119000888
:100070006119000861190008611900086119000878
:100080006119000861190008611900086119000868
:100090006119000861190008611900085F1400085F
:1000A0006119000861190008611900086119000848
:1000B0006119000869140008611900086119000835
:1000C0006119000861190008611900086119000828
:1000D0006119000879140008611900086119000805
:1000E00099140008611900086119000861190008D5
:1000F00061190008611900086119000861190008F8
:1001000061190008611900086119000861190008E7
:1001100061190008611900086119000861190008D7
:1001200061190008611900086119000861190008C7
:1001300000000000000000000000000000000000BF
:1001400000000000000000000000000000000000AF
:10015000000000000000000000000000000000009F
:10016000000000000000000000000000000000008F
:10017000000000000000000000000000000000007F
:10018000000000000000000000000000000000006F
:10019000000000000000000000000000000000005F
:1001A000000000000000000000000000000000004F
:1001B000000000000000000000000000000000003F
:1001C000000000000000000000000000000000002F
:1001D000000000000000000000000000000000001F
:0401E0005FF8E0F1F3
:1001E80010B5054C237833B9044B13B10448AFF369
:1001F80000800123237010BD2407002000000000A8
:10020800C4A6000808B5034B1BB103490348AFF364
:10021800008008BD0000000028070020C4A60008D0
:1002280010F8012B11F8013B012A28BF9A42F7D098
:10023800D01A7047034613F8012B002AFBD1181A6D
:100248000138704781F0004102E000BF83F00043AD
:1002580030B54FEA41044FEA430594EA050F08BF59
:1002680090EA020F1FBF54EA000C55EA020C7FEA1D
:10027800645C7FEA655C00F0E2804FEA5454D4EB9A
:100288005555B8BF6D420CDD2C4480EA020281EA64
:10029800030382EA000083EA010180EA020281EA9C
:1002A8000303362D88BF30BD11F0004F4FEA0131EE
:1002B8004FF4801C4CEA113102D0404261EB4101FD
:1002C80013F0004F4FEA03334CEA133302D0524283
:1002D80063EB430394EA050F00F0A780A4F101043F
:1002E800D5F1200E0DDB02FA0EFC22FA05F2801879
:1002F80041F1000103FA0EF2801843FA05F359415F
:100308000EE0A5F120050EF1200E012A03FA0EFCDD
:1003180028BF4CF0020C43FA05F3C01851EBE37107
:1003280001F0004507D54FF0000EDCF1000C7EEB24
:1003380000006EEB0101B1F5801F1BD3B1F5001F62
:100348000CD349085FEA30004FEA3C0C04F1010481
:100358004FEA445212F5800F80F09A80BCF1004FAA
:1003680008BF5FEA500C50F1000041EB045141EA2C
:10037800050130BD5FEA4C0C404141EB0101013CF5
:1003880028BFB1F5801FE9D291F0000F04BF0146E4
:100398000020B1FA81F308BF2033A3F10B03B3F1B6
:1003A80020020CDA0C3208DD02F1140CC2F10C0246
:1003B80001FA0CF021FA02F10CE002F11402D8BFA4
:1003C800C2F1200C01FA02F120FA0CFCDCBF41EA70
:1003D8000C019040E41AA2BF01EB0451294330BD3F
:1003E8006FEA04041F3C1CDA0C340EDC04F114041C
:1003F800C4F1200220FA04F001FA02F340EA0300F3
:1004080021FA04F345EA030130BDC4F10C04C4F138
:10041800200220FA02F001FA04F340EA0300294618
:1004280030BD21FA04F0294630BD94F0000F83F462
:10043800801306BF81F480110134013D4EE77FEA45
:10044800645C18BF7FEA655C29D094EA050F08BF91
:1004580090EA020F05D054EA000C04BF1946104672
:1004680030BD91EA030F1EBF0021002030BD5FEAB6
:10047800545C05D14000494128BF41F0004130BDDE
:1004880014F580043CBF01F5801130BD01F0004532
:1004980045F0FE4141F470014FF0000030BD7FEAA5
:1004A800645C1ABF194610467FEA655C1CBF0B46A0
:1004B800024650EA013406BF52EA033591EA030FB7
:1004C80041F4002130BD00BF90F0000F04BF0021AF
:1004D800704730B54FF4806404F132044FF00005E2
:1004E8004FF0000150E700BF90F0000F04BF00215B
:1004F800704730B54FF4806404F1320410F00045C1
:1005080048BF40424FF000013EE700BF42004FEABB
:10051800E2014FEA31014FEA02701FBF12F07F4338
:1005280093F07F4F81F06051704732F07F4208BFEF
:10053800704793F07F4F04BF41F40021704730B5F6
:100548004FF4607401F0004521F000411CE700BF42
:1005580050EA010208BF704730B54FF000050AE0C5
:1005680050EA010208BF704730B511F0004502D5C6
:10057800404261EB41014FF4806404F132045FEAC8
:10058800915C3FF4D8AE4FF003025FEADC0C18BF71
:1005980003325FEADC0C18BF033202EBDC02C2F163
:1005A800200300FA03FC20FA02F001FA03FE40EAF5
:1005B8000E0021FA02F11444BDE600BF70B54FF0F9
:1005C800FF0C4CF4E06C1CEA11541DBF1CEA1355D7
:1005D80094EA0C0F95EA0C0F00F0DEF82C4481EA3F
:1005E800030621EA4C5123EA4C5350EA013518BF5F
:1005F80052EA033541F4801143F4801338D0A0FB4C
:1006080002CE4FF00005E1FB02E506F00042E0FBF8
:1006180003E54FF00006E1FB03569CF0000F18BFFE
:100628004EF0010EA4F1FF04B6F5007F64F54074A6
:1006380004D25FEA4E0E6D4146EB060642EAC62139
:1006480041EA55514FEAC52040EA5E504FEACE2EA6
:10065800B4F1FD0C88BFBCF5E06F1ED8BEF1004FA9
:1006680008BF5FEA500E50F1000041EB045170BD25
:1006780006F0004646EA010140EA020081EA030169
:10068800B4EB5C04C2BFD4EB0C0541EA045170BD65
:1006980041F480114FF0000E013C00F3AB8014F1DF
:1006A800360FDEBF002001F0004170BDC4F1000428
:1006B800203C35DA0C341BDC04F11404C4F12005A9
:1006C80000FA05F320FA04F001FA05F240EA020004
:1006D80001F0004221F0004110EBD37021FA04F63A
:1006E80042EB06015EEA430E08BF20EAD37070BDF4
:1006F800C4F10C04C4F1200500FA04F320FA05F053
:1007080001FA04F240EA020001F0004110EBD37054
:1007180041F100015EEA430E08BF20EAD37070BDC4
:10072800C4F1200500FA05F24EEA020E20FA04F39D
:1007380001FA05F243EA020321FA04F001F000414C
:1007480021FA04F220EA020000EBD3705EEA430EBD
:1007580008BF20EAD37070BD94F0000F0FD101F0EC
:100768000046400041EB010111F4801F08BF013C25
:10077800F7D041EA060195F0000F18BF704703F063
:100788000046520043EB030313F4801F08BF013DEA
:10079800F7D043EA0603704794EA0C0F0CEA1355A6
:1007A80018BF95EA0C0F0CD050EA410618BF52EA60
:1007B8004306D1D181EA030101F000414FF0000066
:1007C80070BD50EA410606BF1046194652EA430674
:1007D80019D094EA0C0F02D150EA013613D195EAE8
:1007E8000C0F05D152EA03361CBF104619460AD130
:1007F80081EA030101F0004141F0FE4141F470013A
:100808004FF0000070BD41F0FE4141F4780170BD29
:1008180070B54FF0FF0C4CF4E06C1CEA11541DBF8E
:100828001CEA135594EA0C0F95EA0C0F00F0A7F890
:10083800A4EB050481EA030E52EA03354FEA0131BD
:1008480000F088804FEA03334FF0805545EA1313D0
:1008580043EA12634FEA022245EA111545EA106598
:100868004FEA00260EF000419D4208BF964244F12F
:10087800FD0404F5407402D25B084FEA3202B61A4E
:1008880065EB03055B084FEA32024FF480104FF422
:10089800002CB6EB020E75EB030E22BFB61A754696
:1008A80040EA0C005B084FEA3202B6EB020E75EB29
:1008B800030E22BFB61A754640EA5C005B084FEA91
:1008C8003202B6EB020E75EB030E22BFB61A75465E
:1008D80040EA9C005B084FEA3202B6EB020E75EB69
:1008E800030E22BFB61A754640EADC0055EA060E2A
:1008F80018D04FEA051545EA16754FEA06164FEA6D
:10090800C30343EA52734FEAC2025FEA1C1CC0D118
:1009180011F4801F0BD141EA00014FF000004FF0A5
:10092800004CB6E711F4801F04BF01430020B4F166
:10093800FD0C88BFBCF5E06F3FF6AFAEB5EB030C1E
:1009480004BFB6EB020C5FEA500C50F1000041EB1B
:10095800045170BD0EF0004E4EEA113114EB5C04E8
:10096800C2BFD4EB0C0541EA045170BD41F48011BB
:100978004FF0000E013C90E645EA060E8DE60CEAC3
:10098800135594EA0C0F08BF95EA0C0F3FF43BAFE0
:1009980094EA0C0F0AD150EA01347FF434AF95EA97
:1009A8000C0F7FF425AF104619462CE795EA0C0F7B
:1009B80006D152EA03353FF4FDAE1046194622E748
:1009C80050EA410618BF52EA43067FF4C5AE50EA22
:1009D80041047FF40DAF52EA43057FF4EBAE12E712
:1009E8004FF0FF3C06E000BF4FF0010C02E000BFF3
:1009F8004FF0010C4DF804CD4FEA410C7FEA6C5CD6
:100A08004FEA430C18BF7FEA6C5C1BD001B050EA78
:100A1800410C0CBF52EA430C91EA030F02BF90EA63
:100A2800020F0020704710F1000F91EA030F58BF22
:100A3800994208BF90422CBFD8176FEAE37040F084
:100A4800010070474FEA410C7FEA6C5C02D150EA22
:100A5800013C07D14FEA430C7FEA6C5CD6D152EADD
:100A6800033CD3D05DF8040B704700BF84461046A2
:100A780062468C461946634600E000BF01B5FFF7A1
:100A8800B7FF002848BF10F1000F01BD4DF808ED71
:100A9800FFF7F4FF0CBF012000205DF808FB00BF42
:100AA8004DF808EDFFF7EAFF34BF012000205DF89C
:100AB80008FB00BF4DF808EDFFF7E0FF94BF0120E9
:100AC80000205DF808FB00BF4DF808EDFFF7CEFFEA
:100AD80094BF012000205DF808FB00BF4DF808ED29
:100AE800FFF7C4FF34BF012000205DF808FB00BFFA
:100AF8004FEA410C7FEA6C5C02D150EA013C0AD112
:100B08004FEA430C7FEA6C5C02D152EA033C02D103
:100B18004FF0000070474FF0010070474FEA410264
:100B280012F5001215D211D56FF47873B3EB625237
:100B380012D94FEAC12343F0004343EA505311F05E
:100B4800004F23FA02F018BF404270474FF00000F0
:100B5800704750EA013005D111F0004008BF6FF02E
:100B6800004070474FF00000704700BF53B94AB9C2
:100B7800002908BF00281CBF4FF0FF314FF0FF309D
:100B880000F072B9ADF1080C6DE904CE00F006F87A
:100B9800DDF804E0DDE9022304B070472DE9F047F1
:100BA800089E0D4604468E46002B4CD18A42944638
:100BB80067D9B2FA82F353B102FA03FCC3F12002F7
:100BC80001FA03FE20FA02F242EA0E0E9C404FEAB6
:100BD8001C47BEFBF7F11FFA8CF507FB11EE01FB72
:100BE80005F0220C42EA0E4290420AD91CEB02029E
:100BF80001F1FF3E80F01981904240F216810239DE
:100C08006244121AB2FBF7F007FB102200FB05F54D
:100C1800A4B244EA0244A5420AD91CEB040400F138
:100C2800FF3280F00481A54240F201816444023819
:100C380040EA01400021641B1EB1DC400023C6E9E4
:100C48000043BDE8F0878B4208D9002E00F0EA8007
:100C58000021C6E900050846BDE8F087B3FA83F12C
:100C6800002948D1AB4202D3824200F2F880841AAC
:100C780065EB030201209646002EE2D0C6E9004E3D
:100C8800DFE702B9FFDEB2FA82F3002B40F08E8074
:100C9800881A0121170C1FFA82FEB0FBF7F507FB33
:100CA8001500220C42EA00420EFB05F0904208D9DA
:100CB8001CEB020205F1FF3802D2904200F2CC8010
:100CC8004546121AB2FBF7F007FB10220EFB00FE96
:100CD800A4B244EA0244A64508D91CEB040400F176
:100CE800FF3202D2A64500F2B4801046A4EB0E04EF
:100CF80040EA0540A0E7C1F120078B4022FA07FC33
:100D08004CEA030C25FA07FA4FEA1C49BAFBF9F832
:100D18008D4020FA07F309FB18AA1FFA8CFE2B4313
:100D280000FA01F508FB0EF01C0C44EA0A44A04244
:100D380002FA01F20BD91CEB040408F1FF3A80F027
:100D48008680A04240F28380A8F102086444241AF5
:100D580098B2B4FBF9F309FB134403FB0EFE40EA17
:100D68000444A64508D91CEB040403F1FF306AD2F9
:100D7800A64568D9023B644443EA0840A0FB0293B5
:100D8800A4EB0E049C42C8469E4654D351D0002E74
:100D980067D0B5EB080364EB0E04CB4004FA07F701
:100DA8001F43CC40C6E9007400214AE702FA03FC5D
:100DB800C3F12000C1409D4024FA00F04FEA1C47CF
:100DC8002843B1FBF7F507FB15111FFA8CFE020C3F
:100DD80042EA014205FB0EF1914204FA03F408D9F4
:100DE8001CEB020205F1FF382FD291422DD9023DAA
:100DF8006244521AB2FBF7F107FB112280B240EAB3
:100E0800024001FB0EF2824208D91CEB000001F1FE
:100E1800FF3816D2824214D902396044801A41EA56
:100E280005413AE7314630460BE77146E9E6104698
:100E3800FEE64D45ABD2B9EB020863EB0C0E013868
:100E4800A5E74146EAE7034696E74546D1E7D04697
:100E58007DE76444023849E7023D624431E70846C9
:100E68000AE73146EDE600BF704700BF2DE9F043C1
:100E780089B0002504950595069507953B4B9A6919
:100E880042F020029A619A6902F020020192019AC6
:100E98009A6942F004029A619A6902F00402029285
:100EA800029A9A6942F010029A619B6903F0100352
:100EB8000393039B2E4F01224FF48071384601F0B3
:100EC8002AF8DFF8B08001220421404601F023F817
:100ED80001240494284B05930226069604A9384653
:100EE80000F0F2FE20230493DFF89090CDF81490E0
:100EF800069404A9224800F0E7FE4FF48073049397
:100F080005940695079604A9384600F0DDFE4FF4CF
:100F180000430493CDF81490069404A9384600F0D1
:100F2800D3FE0423049305940695079604A9404626
:100F380000F0CAFE2A462146062000F07FFD062062
:100F480000F0B4FD2A462146172000F077FD17204F
:100F580000F0ACFD32462146282000F06FFD282025
:100F680000F0A4FD09B0BDE8F08300BF0010024006
:100F78000008014000140140000011100000211079
:100F88000010014008B50748074B0360042343607D
:100F980040F2E243836000F0DBFF00B908BD00F0D7
:100FA800F5F8FBE74007002000300040032809D887
:100FB800DFE800F0020A04062B2070472A20704759
:100FC8002F207047002070472D207047032A0DD826
:100FD800DFE802F00204060908447047401A704727
:100FE80001FB00F0704790FBF1F07047002070475C
:100FF80070B582B002F04EFD434200F0030003F0EA
:10100800030358BF5842474B186003281FD8DFE82E
:1010180000F0022F4C6502F03DFD434C84FB00328A
:10102800C317C3EB6213642505FB13033F4E3360FC
:1010380002F030FD84FB0034C317C3EB641305FBD7
:1010480013033B4A136032681344AB42E3DC374B6B
:101058001C68344B1868FFF7A9FF0346344A126826
:10106800009222463349344802F0F2FD02B070BDC6
:1010780002F010FD2C4C84FB0032C317C3EB621343
:10108800642505FB1303294E336002F003FD84FB3E
:101098000034C317C3EB641305FB1303244A13601E
:1010A8003268D31A002BE3DBD1E702F0F3FC1E4CC5
:1010B80084FB0032C317C3EB6213642505FB1303DB
:1010C8001A4A136002F0E6FC84FB0034C317C3EB32
:1010D800641305FB1303164A1360B8E702F0DAFC41
:1010E800114C84FB0032C317C3EB6213642505FB64
:1010F80013030E4A136002F0CDFC84FB0034C317BF
:10110800C3EB641305FB1303094A1360002BE5D0F6
:10111800064A126892FBF3F103FB1122002ADDDC78
:1011280095E700BF600700201F85EB515807002096
:101138005C070020E0A600086807002038B50E4BC1
:1011480001221A600D4B00221A600D4C4FF0FF333C
:101158000B220C49204602F037FAFFF749FF0A4DE7
:101168002846FFF767F84FF0FF3382B2294620463A
:1011780002F02AFA38BD00BF54070020680B00208F
:10118800E80F0020ECA600086807002072B6FEE70A
:1011980000B597B0282200210CA802F0BEFD00235C
:1011A8000793089309930A930B930193029303936C
:1011B80004930593069309230C934FF480330D93FE
:1011C8000122109212920222139214934FF4E01308
:1011D80015930CA800F00AFFC8B90F230793022142
:1011E8000891002309934FF480620A920B9307A891
:1011F80001F02EF968B9012301934FF400730293AB
:1012080001A801F001FA30B917B05DF804FBFFF747
:10121800BDFFFFF7BBFFFFF7B9FF000000B58BB0BC
:1012280000F0C2FBFFF7B4FFFFF720FE00F012FB4F
:10123800FFF7A8FE00F0B6FA00F050F81E4D1F4E5A
:1012480000222946304601F08DFC1D4C0022214623
:10125800304601F077FDAB7801936B7802932B78D9
:101268000393A37804936378013B0593E37864338D
:10127800069301A802F042FE02F002FC0122114985
:10128800114802F0EAFB114801F042FE104B5B6A7C
:1012980013F0005F03D1642000F0AAFBFBE74FF0D6
:1012A800FF333B220B49084802F08EF90A4B012212
:1012B800C3F8E024EFE700BF500700206C0B0020C4
:1012C8004C070020800B0020E80F0020A00F002012
:1012D80000100240F8A600080000424210B582B093
:1012E8000023ADF804308DF8063000932C482D4AC1
:1012F80002604FF0FF324260836001F073FD78BBFB
:101308000121274801F0CEFD46F2886398422AD091
:1013180023238DF8043000238DF805308DF806302E
:10132800012201A91E4801F0BCFB90BB02238DF8E5
:10133800003011238DF8013021238DF8023023234A
:101348008DF8033001226946154801F091FC18BB5D
:1013580046F288620121124801F09CFD02B010BDDE
:10136800FFF714FFCCE70E4C0221204601F09AFD4E
:10137800E0730321204601F095FD607304212046A7
:1013880001F090FDA073002201A9204601F0EAFBBC
:10139800E4E7FFF7FBFEC9E7FFF7F8FED8E700BF71
:1013A8006C0B00200028004002680C4B9A4200D0C9
:1013B800704700B583B000F0FDFD094BDA6942F0D3
:1013C8000062DA61DB6903F000630193019B054B5E
:1013D8000122C3F83C2403B05DF804FB0028004058
:1013E800001002400000424200B583B00F4B9A69DA
:1013F80042F001029A619A6902F001020092009A91
:10140800DA6942F08052DA61DB6903F080530193B4
:10141800019B052000F000FB054A536823F0E063B8
:1014280043F00073536003B05DF804FB0010024002
:1014380000000140FEE7FEE7FEE7FEE7FEE7704733
:101448007047704708B500F0C1FA08BD08B501201B
:1014580000F070FD08BD08B5202000F06BFD08BD48
:1014680008B5024801F094FD08BD00BFA00F002098
:1014780010B5054C204602F091F901220349204697
:1014880002F0EBFA10BD00BFE80F0020800B00202F
:1014980008B54FF4004000F04DFD08BD10B50446F6
:1014A800642000F0A5FA202C00D010BD20210448AB
:1014B80000F02AFD0028F8D1FFF740FEF5E700BF4D
:1014C8000010014002684F4B9A4200D070474E4BC3
:1014D8001A780A2A06D04D490B784D48C254013370
:1014E8000B70704730B5ADF22C4D4A4B1A684A4B19
:1014F80019684A4B1868FFF769FD04464FF4806283
:1015080000210AA802F009FC224645490AA802F06F
:101518009FFB0AA8FEF78EFE02463D490AA802F084
:1015280004FC00283DD13F4C0421204600F0F9FC82
:101538004FF4FA7000F05CFA0421204600F0F1FC48
:101548004FF4FA7000F054FA01AC374D0FCD0FC4C8
:1015580095E80F0007C423704FF0FF331C2201A940
:10156800324802F031F8324A136801331360052B10
:101578000DD0FFF73DFD2F4C2046FEF75BFE4FF0E8
:10158800FF3382B22146294802F01EF82FE04FF0BF
:10159800FF333E222849254802F016F800F094FA55
:1015A8002DE0264C4FF48071204600F0BAFC4FF431
:1015B800FA7000F01DFA4FF48071204600F0B1FC7B
:1015C8004FF4FA7000F014FA0DF1040C1C4C0FCC17
:1015D800ACE80F000FCCACE80F0023688CF80030A3
:1015E8004FF0FF33202201A9104801F0EDFF002140
:1015F800064B19704FF48062054802F08EFB0DF21D
:101608002C4D30BD00380140800B0020940B002089
:10161800980B0020600700205C0700205807002076
:1016280034A700080014014078A70008E80F00203C
:10163800640700206807002038A700080008014058
:1016480098A7000800B5ADF2044D204B1B681BB3EA
:101658001F4B1A6801321A601E4981FB023111447E
:10166800D317C3EB6113C3EB0313A2EB8303392B2B
:1016780016DD174B1968174B83FB01230B44CA1758
:10168800C2EB6312C2EB0212A1EB8202302A0BDC1E
:101698000DF2044D5DF804FB0F4800F085FCF7E7F8
:1016A8000D4800F081FCE4E7C2F13B020B496846B3
:1016B80002F0CEFA6846FEF7BDFD4FF0FF3382B266
:1016C8006946074801F080FFE2E700BF54070020A1
:1016D800680B00208988888840070020BCA700087C
:1016E800E80F00200120704708B503F0C3F816235F
:1016F80003604FF0FF3008BD08B54FF0FF31FFF72A
:10170800F3FFFEE770B50C461646002506E0AFF37A
:101718000080214601F8010B01350C46B542F6DB85
:10172800304670BD70B50C461646002504E014F826
:10173800010BAFF300800135B542F8DB304670BDD0
:101748004FF0FF3070474FF400534B600020704754
:10175800012070470020704710B503460C4A0D4918
:101768000D48006840B10C4800680344521A93427F
:1017780006D8094A136010BD0748084C0460F2E710
:1017880003F078F80C2303604FF0FF30F3E700BF55
:1017980000C00020000400009C0F002068130020F7
:1017A8007047000000B587B00023029303930493A9
:1017B8000593009301931548154A026041F61F42AC
:1017C8004260836042F20F72C2600361836101F07C
:1017D800E9FC90B94FF48053029302A90B4801F039
:1017E80019FD68B90023009301936946074801F081
:1017F80091FD40B907B05DF804FBFFF7C7FCE9E7C6
:10180800FFF7C4FCEEE7FFF7C1FCF3E7A00F0020E9
:101818000004004002680E4B9A4200D0704700B5A1
:1018280083B003F50333DA6942F00202DA61DB6957
:1018380003F002030193019B002201211D2000F007
:10184800FDF81D2000F032F903B05DF804FB00BF7D
:101858000004004008B50A480A4B03604FF4E1331E
:10186800436000238360C36003610C22426183618B
:10187800C36101F079FE00B908BDFFF787FCFBE7FB
:10188800E80F00200038014010B586B0002302930D
:1018980003930493059302681B4B9A4201D006B048
:1018A80010BD03F558439A6942F480429A619A69D7
:1018B80002F480420092009A9A6942F004029A6106
:1018C8009B6903F004030193019B4FF40073029397
:1018D80002230393032305930C4C02A9204600F02E
:1018E800F3F94FF48063029300230393049302A94E
:1018F800204600F0E9F901221146252000F09EF863
:10190800252000F0D3F8CAE700380140000801405C
:10191800FFF746FF0B480C490C4A002302E0D45855
:10192800C4500433C4188C42F9D3094A094C002323
:1019380001E013600432A242FBD302F0A1FFFFF7DB
:101948006DFC70470000002024070020ECAC000864
:101958002407002068130020FEE7000010B50446A5
:101968000E4B1A784FF47A73B3FBF2F30C4A1068F3
:10197800B0FBF3F000F0BAF868B90F2C01D90120D8
:101988000AE0002221464FF0FF3000F057F8054BDF
:101998001C60002000E0012010BD00BF08000020EE
:1019A800040000200C00002008B5074A136843F023
:1019B80010031360032000F02FF80020FFF7CEFF7C
:1019C800FFF712FD002008BD00200240034A1168FD
:1019D800034B1B780B441360704700BF3010002086
:1019E80008000020014B1868704700BF3010002025
:1019F80038B50446FFF7F6FF0546B4F1FF3F02D0BD
:101A0800044B1B781C44FFF7EDFF401BA042FAD3A0
:101A180038BD00BF08000020074AD36823F4E063FC
:101A28001B041B0C000200F4E060034343F0BF6397
:101A380043F40033D360704700ED00E000B5194B64
:101A4800DB68C3F30223C3F1070CBCF1040F28BF02
:101A58004FF0040C03F1040EBEF1060F18D9033B36
:101A68004FF0FF3E0EFA0CFC21EA0C0199400EFAE9
:101A780003FE22EA0E020A4300280BDB1201D2B24F
:101A880000F1604000F5614080F800235DF804FB38
:101A98000023E5E700F00F001201D2B2024B1A54FE
:101AA800F4E700BF00ED00E014ED00E0002807DBDC
:101AB80000F01F02400901239340024A42F82030F7
:101AC800704700BF00E100E0BFF34F8F0549CA68C7
:101AD80002F4E062044B1343CB60BFF34F8F00BFA7
:101AE800FDE700BF00ED00E00400FA050138B0F1A1
:101AF800807F0BD24FF0E0235861054AF02182F82D
:101B080023100020986107221A617047012070474E
:101B180000ED00E0034690F82120D2B2022A06D058
:101B280004228263002280F8202001207047016887
:101B38000A6822F00E020A6001680A6822F00102AF
:101B48000A60026CC06B012101FA02F2426083F85C
:101B58002110002083F820007047000008B590F895
:101B68002130DBB2022B03D004238363012008BD9C
:101B78000268136823F00E0313600268136823F0E9
:101B88000103136003684C4A93424ED9783A934252
:101B980024D01432934230D0143293422FD01432CE
:101BA80093422FD0143293422FD0143293422FD025
:101BB800143293422FD002F5627293422ED014321F
:101BC80093422DD0143293422CD01432934202D037
:101BD8004FF4803203E04FF4805200E00122374B8B
:101BE8005A60012380F82130002380F82030436BAD
:101BF800002B5ED098470020B9E71022EFE74FF49A
:101C08008072ECE74FF48052E9E74FF48032E6E760
:101C18004FF48012E3E74FF08072E0E70122DEE73D
:101C28001022DCE74FF48072D9E7254A934224D08A
:101C38001432934225D01432934224D01432934262
:101C480024D01432934224D01432934224D0143234
:101C5800934224D002F56272934223D01432934205
:101C680022D01432934221D01432934202D04FF43E
:101C7800803203E04FF4805200E00122114B5A6099
:101C8800AFE71022FAE74FF48072F7E74FF480527B
:101C9800F4E74FF48032F1E74FF48012EEE74FF0AB
:101CA8008072EBE70122E9E71022E7E74FF4807240
:101CB800E4E700205BE700BF800002400004024028
:101CC800080002400000024070B582B00024A4461B
:101CD800B0E0874DAB4210D007D9864DAB420CD04F
:101CE80005F58035AB4208D013E0A5F58015AB4269
:101CF80003D005F57025AB4207D18B68002B62D065
:101D0800012B5BD04261082403E0A5F58015AB42A6
:101D1800F3D0BEF1FF0F58D80646BEF1FF0F56D8D4
:101D28004FEA8C0233680F25954023EA050304FA2D
:101D380002F2134333604B6813F0805F78D06E4B28
:101D48009A6942F001029A619B6903F001030193C9
:101D5800019B4FEA9C02951C684B53F825600CF0D8
:101D68000305AD000F23AB4026EA0306644B9842F7
:101D780033D003F58063984200F0988003F58063C0
:101D8800984200F0958003F58063984200F09280B5
:101D980003F58063984200F08F8003F580639842D2
:101DA80019D006231AE0CC68B3E7CC680434B0E74E
:101DB800CC680834ADE7CC680C34AAE70261082483
:101DC800A7E70024A5E70424A3E7061DA5E7ACF1CF
:101DD80008029200A6E7052300E00023AB40334346
:101DE8000232464D45F822304B6813F4801F65D007
:101DF800444A936843EA0E0393604B6813F4001F48
:101E080062D0404AD36843EA0E03D3604B6813F4A8
:101E1800003F5FD03B4A536843EA0E0353604B6868
:101E280013F4803F5CD0374A136843EA0E0313600B
:101E38000CF1010C0B6833FA0CF257D0012202FAAC
:101E48000CF203EA020E32EA0303F1D14B68122BBB
:101E58003FF63FAF122B3FF65CAF01A555F823F0D4
:101E6800031D0008AF1D0008B91D0008CB1D0008A0
:101E78001B1D00081B1D00081B1D00081B1D00085A
:101E88001B1D00081B1D00081B1D00081B1D00084A
:101E98001B1D00081B1D00081B1D00081B1D00083A
:101EA8001B1D0008B31D0008BF1D0008012395E78E
:101EB800022393E7032391E704238FE7114A9368EA
:101EC80023EA0E03936098E70E4AD36823EA0E03C9
:101ED800D3609BE70B4A536823EA0E0353609EE7DF
:101EE800084A136823EA0E031360A1E702B070BD25
:101EF80000002210000031100010024000000140D4
:101F080000080140000401408368194201D0012003
:101F18007047002070470AB10161704709040161E8
:101F28007047C36801EA030221EA030141EA02415A
:101F38000161704708B5054B5B69034200D108BDD4
:101F4800024B5861FFF7AAFAF9E700BF0004014005
:101F580040B338B5044603684CF6CC421A600368AF
:101F680045F255521A60036842685A6003688268ED
:101F78009A60FFF737FD05462368DA6812F0030F09
:101F88000BD0FFF72FFD401B2728F5D92368DB6806
:101F980013F0030FF0D0032003E04AF6AA221A60D8
:101FA800002038BD0120704703684AF6AA221A604B
:101FB80000207047014B01221A62704700000E4250
:101FC80082B0084B1B68084AA2FB03235B0A00FB8C
:101FD80003F3019300BF019B5A1E0192002BF9D114
:101FE80002B0704704000020D34D6210002800F0B2
:101FF800F18170B582B00446036813F0010F2CD04C
:10200800994B5B6803F00C03042B1DD0964B5B685F
:1020180003F00C03082B12D06368B3F5803F41D05E
:10202800002B55D103F1804303F504331A6822F4D9
:1020380080321A601A6822F480221A6037E08A4BCC
:102048005B6813F4803FE7D0874B1B6813F4003FAD
:1020580003D06368002B00F0BF81236813F0020FE0
:1020680075D0814B5B6813F00C0F5FD07E4B5B68BB
:1020780003F00C03082B54D02369002B00F08A804E
:102088007A4B01221A60FFF7ADFC0546764B1B68B8
:1020980013F0020F75D1FFF7A5FC401B0228F5D9F4
:1020A80003209EE1704A136843F480331360636829
:1020B80043B3FFF797FC05466B4B1B6813F4003FCF
:1020C800CBD1FFF78FFC401B6428F5D9032088E1AA
:1020D800B3F5A02F09D0644B1A6822F480321A6035
:1020E8001A6822F480221A60E1E703F18043A3F51D
:1020F8003C331A6842F480221A601A6842F480322B
:102108001A60D4E7FFF76EFC0546574B1B6813F4BB
:10211800003FA2D0FFF766FC401B6428F5D90320D6
:102128005FE1514B5B6813F4803FA5D14E4B1B68B0
:1021380013F0020F03D02369012B40F04F814A4A64
:10214800136823F0F803616943EAC1031360236845
:1021580013F0080F33D0A369002B5CD0434B012246
:10216800C3F88024FFF73EFC05463F4B5B6A13F03B
:10217800020F21D1FFF736FC401B0228F5D90320B6
:102188002FE1394A136823F0F803616943EAC10370
:102198001360DCE7354B00221A60FFF723FC054685
:1021A800314B1B6813F0020FD1D0FFF71BFC401B0B
:1021B8000228F5D9032014E10120FFF701FF236865
:1021C80013F0040F00F09680274BDB6913F0805F53
:1021D80034D1254BDA6942F08052DA61DB6903F0C9
:1021E80080530193019B0125214B1B6813F4807FC9
:1021F80026D0E368012B3DD0002B53D103F1804357
:1022080003F504331A6A22F001021A621A6A22F0EC
:1022180004021A6233E0154B0022C3F88024FFF74A
:10222800E1FB0546104B5B6A13F0020FC7D0FFF7BE
:10223800D9FB401B0228F5D90320D2E00025D3E7BB
:102248000B4A136843F480731360FFF7CBFB064611
:10225800074B1B6813F4807FCBD1FFF7C3FB801BB0
:102268006428F5D90320BCE0001002400000424277
:10227800007000405F4A136A43F001031362E36889
:1022880033B3FFF7AFFB06465A4B1B6A13F0020F36
:102298002FD1FFF7A7FB801B41F288339842F3D96F
:1022A80003209EE0052B09D0524B1A6A22F0010246
:1022B8001A621A6A22F004021A62E0E74D4B1A6A9F
:1022C80042F004021A621A6A42F001021A62D6E760
:1022D800FFF788FB0646474B1B6A13F0020F08D02E
:1022E800FFF780FB801B41F288339842F3D9032023
:1022F80077E0E5B9E369002B72D03E4A526802F0F4
:102308000C02082A56D0022B17D03B4B00221A6623
:10231800FFF768FB0446374B1B6813F0007F47D074
:10232800FFF760FB001B0228F5D9032059E0314A6A
:10233800D36923F08053D361DCE72F4B00221A6660
:10234800FFF750FB05462B4B1B6813F0007F06D0A8
:10235800FFF748FB401B0228F5D9032041E0236A18
:10236800B3F5803F1AD023494B6823F47413226ACB
:10237800606A024313434B601F4B01221A66FFF742
:1023880031FB04461B4B1B6813F0007F0ED1FFF78F
:1023980029FB001B0228F5D9032022E0154A5368BF
:1023A80023F40033A1680B435360DCE7002018E0F6
:1023B800002016E0012B16D00E4B5B6803F4803129
:1023C800226A914211D103F47013626A93420ED1CA
:1023D800002006E001207047012002E0012000E013
:1023E800002002B070BD0120FBE70120F9E70120C1
:1023F800F7E700BF00100240000042420F4B5B6845
:1024080003F00C02082A01D00D487047C3F3834239
:102418000C49885C13F4803F0BD0084B5B68C3F30E
:102428004043094AD35C064A02FB00F0B0FBF3F0D4
:102438007047064B03FB00F0704700BF00100240D6
:1024480000127A00F0A7000800A8000800093D0063
:10245800002800F0A08070B50D460446524B1B685A
:1024680003F007038B420BD24F4A136823F007038C
:102478000B431360136803F007038B4240F08D8011
:10248800236813F0020F17D013F0040F04D0474A43
:10249800536843F4E0635360236813F0080F04D0D3
:1024A800424A536843F460535360404A536823F0E8
:1024B800F003A1680B435360236813F0010F31D078
:1024C8006368012B20D0022B25D0384A126812F0FD
:1024D800020F64D035494A6822F0030213434B6067
:1024E800FFF780FA0646314B5B6803F00C0362681D
:1024F800B3EB820F16D0FFF775FA801B41F28833D1
:102508009842F0D9032045E0284A126812F4003FA7
:10251800E0D101203EE0254A126812F0007FD9D1AF
:10252800012037E0204B1B6803F00703AB420AD9B0
:102538001D4A136823F007032B431360136803F045
:102548000703AB422DD1236813F0040F06D0174AB6
:10255800536823F4E063E1680B435360236813F086
:10256800080F07D0114A536823F46053216943EADE
:10257800C1035360FFF742FF0C4B5B68C3F30313BF
:102588000B4AD35CD8400B4B18600B4B1868FFF70D
:10259800E5F9002070BD012070470120FAE701200D
:1025A800F8E70120F6E700BF0020024000100240D3
:1025B800D8A70008040000200C000020014B186870
:1025C800704700BF0400002008B5FFF7F7FF044B71
:1025D8005B68C3F30223034AD35CD84008BD00BF3D
:1025E80000100240E8A7000808B5FFF7E7FF044B12
:1025F8005B68C3F3C223034AD35CD84008BD00BF5D
:1026080000100240E8A7000870B582B004460368CD
:1026180013F0010F36D03F4BDB6913F0805F49D1CF
:102628003C4BDA6942F08052DA61DB6903F080538F
:102638000193019B0125384B1B6813F4807F3BD025
:10264800344B1B6A13F4407313D0626802F440726F
:102658009A420ED02F4A136A23F440702F4901265C
:10266800C1F840640026C1F84064106213F0010FFD
:1026780036D1284A136A23F4407361680B43136206
:10268800002D3ED1236813F0020F06D0214A53686B
:1026980023F44043A1680B435360236813F0100FE1
:1026A80034D01C4A536823F4800361690B43536098
:1026B80000202CE00025BEE7174A136843F4807316
:1026C8001360FFF78FF90646134B1B6813F4807FDE
:1026D800B6D1FFF787F9801B6428F5D9032016E0E7
:1026E800FFF780F906460B4B1B6A13F0020FC0D1A7
:1026F800FFF778F9801B41F288339842F3D9032019
:1027080005E0D36923F08053D361BBE7002002B012
:1027180070BD00BF0010024000700040000042423F
:1027280008B501380F2863D8DFE800F03557622F65
:102738006262623262626262626262082F4B5A6847
:10274800186810F0807054D0C2F383432C49C85CD9
:1027580012F4803F15D0294B5B68C3F34043294AE4
:10276800D25C294BB3FBF2F303FB00F0234B5B680D
:1027780013F4800F3DD14000244BA3FB00304008E8
:1027880037E0234B03FB00F0F0E7FFF737FE30E0BC
:10279800FFF734FE2DE0194B1B6A40F202321A4053
:1027A800B2F5817F26D003F44073B3F5007F04D0DF
:1027B800B3F5407F09D000201BE0104A526A12F09E
:1027C800020FF5D049F6404013E00C4B186810F49E
:1027D80000300ED04FF224400BE0FFF705FF074B07
:1027E8005B68C3F3813301335B00B0FBF3F000E0B7
:1027F800002008BD4FF40040FBE700BF0010024076
:1028080004A8000814A8000800127A00ABAAAAAA13
:1028180000093D0000B5036899691FFA81FED8696F
:102828009A691FFA82FCE64505D0D86980B240EA69
:1028380002405DF804FB80B240EA0140F9E7036812
:10284800186A5B6A9BB243EA00407047002302E0C3
:1028580001330A38C0B20928FAD81B01DBB2184381
:102868007047030903EB830300F00F0000EB4300FC
:10287800C0B2704710F0030F14D10D4BA3FB002317
:102888005B09642202FB13039BB26BB9084BA3FBE1
:102898000023DB094FF4C87202FB130080B228B989
:1028A80001207047002070470120704700207047C2
:1028B8001F85EB5100F5FA6C022921D801EB410381
:1028C800C1EBC3011E4BA3FB013102EB510363446F
:1028D80000F2CF7003EB90031A4AA2FB0020A3EB8F
:1028E800501303EBD01304331748A0FB03201A1A24
:1028F80000EB52008008C0EBC000181AC0B2704745
:1029080001EB4103C1EBC3010D4BA3FB013102EB0A
:102918005103634403EB9C030A4AA2FB0C12A3EB8A
:10292800521303EBD21302330748A0FB03201A1AF1
:1029380000EB52008008C0EBC000181ADEE700BFA9
:10294800398EE3381F85EB51254992242DE9F84348
:102958000746894690F80F80457B867B002406E071
:1029680013F4256F11D01D2E20D8013601344C45A3
:1029780030D20C2DFAD80123AB4041F2AA521342AF
:10298800EED01E2E08D80136F0E713F0040FEDD074
:102998001B2E0ED80136E9E70C2D02D00135012691
:1029A800E4E708F1010801263546DFE7013501268D
:1029B800DCE71C2E04D01D2ED8D101350126D5E721
:1029C8001FFA88F0FFF756FF08B10136CEE7013548
:1029D8000126CBE787F80F80E9B27973F2B2BA73B0
:1029E8004046FFF767FF3873BDE8F88338B50446FB
:1029F800FEF7F8FF054623685A6812F0200F07D142
:102A0800FEF7F0FF401BB0F57A7FF4D9032004E00D
:102A18005A6842F010025A60002038BD38B50446A2
:102A28000268536823F010035360FEF7DBFF054686
:102A380023685B6813F0200F07D1FEF7D3FF401B14
:102A4800B0F57A7FF4D9032000E0002038BD38B50E
:102A580005460C46FFF7CAFF08B1012038BD2B68B0
:102A6800220C9A612B68A4B2DC612846FFF7D6FFD6
:102A78000028F3D00120F1E738B505460C46FFF7EA
:102A8800B5FF08B1012038BD2B68220C1A622B68EB
:102A9800A4B25C622846FFF7C1FF0028F3D00120EA
:102AA800F1E770B5002857D00D460646002955D0E5
:102AB800037C012B54D00123037402234374BAB955
:102AC8000B784C78C4EB0414A4004FF4616202FB49
:102AD80003448B781C4421463046FFF7B8FF05466F
:102AE800C8B104237374002333740125284670BDCC
:102AF8000878FFF7B6FE4FF4616303FB00F46878CB
:102B0800FFF7AFFEC0EB001004EB8004A878FFF7D6
:102B1800A8FE0444DFE73268536823F005035360D6
:102B28003046FFF78CFEB0F1FF3F01D0844204D855
:102B38000123737400233374D8E700F5A83101F535
:102B4800C0713046FFF798FF0028F1D00423737452
:102B5800002333740125C9E70125C7E70125C5E727
:102B68000225C3E700286FD02DE9F8430C46154627
:102B7800074600296AD003685B6813F0040F02D087
:102B88000120BDE8F883FFF745FE0646334BA3FB5B
:102B98000023DB0A4FF4616202FB13023049A1FBF8
:102BA80002014809C1F347116170C0EB0010A2EBA4
:102BB8008002A2702B4A964210D82370002D4BD069
:102BC8002078FFF743FE20706078FFF73FFE6070C3
:102BD800A078FFF73BFEA0700020D2E7224AA2FBB4
:102BE80003284FEA181808EB4802A3EBC203237026
:102BF8003846FFF724FE8146B0F1FF3F06D08642F3
:102C080002D2A0EB060901E04FF0FF39174B03FB96
:102C1800186631463846FFF71AFFC8B9B9F1FF3FC1
:102C28000AD009EB06013846FFF726FF90B941465E
:102C38003846FFF78BFEC1E749463846FFF71CFFC9
:102C48000028F4D001209CE701207047012098E774
:102C5800012096E7012094E7002092E7C5B3A291EE
:102C6800898888887F510100ABAAAAAA80510100EF
:102C780000285AD038B50D460446002957D0037CA1
:102C8800012B56D00123037402234374BAB9CB78BD
:102C9800C3734B7843738B788373A27B617BE07B30
:102CA800FFF708FE207328702046FFF7B3FD224B7C
:102CB800984211D8012363740020207438BDC87865
:102CC800FFF7CFFDE0736878FFF7CBFD6073A87856
:102CD800FFF7C7FDA073E0E7184DA5FB00352D0CE5
:102CE800174B03FB150529462046FFF7B0FE28B110
:102CF80004236374002323740120DFE72046FFF7D1
:102D08009EFDB0F1FF3FD5D08542D3D900F5A8315B
:102D180001F5C0712046FFF7AFFE0028CAD0042392
:102D28006374002323740120C8E701207047012041
:102D3800C4E70220C2E700BF8F5F010007452EC22B
:102D4800805101002DE9F04182B00023ADF8043034
:102D58008DF8063000B30C4617460546F1B11A4601
:102D680001A9FFF7FFFE0646E8B92B7B2370E87B35
:102D7800E07095F80D8084F80180AD7BA57077B17F
:102D8800FFF764FDE0704046FFF760FD607028467D
:102D9800FFF75CFDA07002E0012600E00126304646
:102DA80002B0BDE8F0810126F9E7C0B138B50546A3
:102DB8000268536823F008035360FEF713FE0446C5
:102DC8002B685B6813F0080F07D1FEF70BFE001B9A
:102DD800B0F57A7FF4D9032000E0002038BD012047
:102DE80070470000002850D010B50446437C4BB112
:102DF800022363742046FFF7D8FF38B104236374B5
:102E0800012010BD0374FEF7CFFAF1E72046FFF763
:102E1800EDFD28BB2268536823F007035360A368BD
:102E280023B11B4A136B23F001031363184AD36AB7
:102E380023F46073A1680B43D3626368B3F1FF3F67
:102E480012D02268C3F30341916022689BB2D36019
:102E58002046FFF7E3FD88B1042363740120D0E71F
:102E6800042363740120CCE70120FFF759FC08B163
:102E7800431EE6E7042363740120C2E70023E373DB
:102E880001236373A3736374BBE70120704700BF1A
:102E9800006C0040890001F1804101F5D84192B2EF
:102EA8000A607047890001F1804101F5D84108683E
:102EB80080B2704710B4036A046A24F00104046203
:102EC800846924F0F00C4CEA021223F00A030B4345
:102ED8008261036210BC704710B4036A046A24F06C
:102EE80010040462846924F4704C4CEA023223F022
:102EF800A00343EA01138261036210BC7047836830
:102F080023F070030B4343F007038360704700000E
:102F180090F83D30DBB2012B2FD1022380F83D30F1
:102F28000268D36843F00103D3600368154A9342EB
:102F380018D002F50062934214D0B3F1804F11D03B
:102F4800A2F5983293420DD002F58062934209D0DF
:102F580002F58062934205D01A6842F001021A60B5
:102F6800002070479A6802F00702062A07D01A68FC
:102F780042F001021A6000207047012070470020CB
:102F8800704700BF002C014070477047704770477A
:102F980010B5044603681A6912F0020F11D0DA68F6
:102FA80012F0020F0DD06FF002021A6101230377AD
:102FB80003689B6913F0030F70D0FFF7E6FF002347
:102FC800237723681A6912F0040F12D0DA6812F016
:102FD800040F0ED06FF004021A61022323772368CE
:102FE8009B6913F4407F5FD02046FFF7CEFF002394
:102FF800237723681A6912F0080F12D0DA6812F0E2
:10300800080F0ED06FF008021A6104232377236893
:10301800DB6913F0030F4ED02046FFF7B6FF0023FD
:10302800237723681A6912F0100F12D0DA6812F0A9
:10303800100F0ED06FF010021A610823237723684F
:10304800DB6913F4407F3DD02046FFF79EFF002345
:10305800237723681A6912F0010F03D0DA6812F097
:10306800010F36D123681A6912F0800F03D0DA688D
:1030780012F0800F34D123681A6912F0400F03D080
:10308800DA6812F0400F32D123681A6912F0200F63
:1030980003D0DA6812F0200F30D110BDFFF774FFAB
:1030A8002046FFF773FF8AE72046FFF76DFF2046AB
:1030B800FFF76CFF9BE72046FFF766FF2046FFF708
:1030C80065FFACE72046FFF75FFF2046FFF75EFF8E
:1030D800BDE76FF001021A612046FEF7B3FAC1E7B7
:1030E8006FF080021A61204600F053F9C3E76FF0D1
:1030F80040021A612046FFF74AFFC5E76FF0200239
:103108001A61204600F044F9C7E700000368244A22
:10311800904212D002F5006290420ED0B0F1804F7A
:103128000BD0A2F59832904207D002F58062904207
:1031380003D002F58062904203D123F070034A68FD
:103148001343174A904212D002F5006290420ED003
:10315800B0F1804F0BD0A2F59832904207D002F51B
:103168008062904203D002F58062904203D123F43A
:103178004073CA68134323F080034A69134303600A
:103188008B68C3620B688362054B984203D003F5D2
:103198000063984201D10B690363012343617047BF
:1031A800002C014040B310B5044690F83D30F3B10F
:1031B800022384F83D30214651F8040BFFF7A6FF9F
:1031C800012384F8463084F83E3084F83F3084F890
:1031D800403084F8413084F8423084F8433084F831
:1031E800443084F8453084F83D30002010BD80F824
:1031F8003C30FEF70FFBDBE70120704710B4846812
:1032080024F47F4C42EA03220A4342EA0C02826019
:1032180010BC704790F83C30012B78D010B50446AC
:10322800012380F83C30022380F83D30026893681F
:1032380023F47F4323F0770393600B68602B4CD013
:1032480029D8402B54D00CD9502B22D1CA684968B0
:103258000068FFF72FFE50212068FFF750FE00207E
:1032680005E0202B0DD009D9302B0AD001200123ED
:1032780084F83D30002384F83C3010BD0BB1102B8E
:1032880005D119462068FFF73AFE0020EFE7012034
:10329800EDE70120EBE7B3F5805F34D0B3F5005FCD
:1032A8000CD1CB684A6889680068FFF7A7FF2268D5
:1032B800936843F4804393600020D8E7702B24D1AF
:1032C800CB684A6889680068FFF798FF22689368A6
:1032D80043F0770393600020C9E7CA68496800682B
:1032E800FFF7FAFD60212068FFF709FE0020BEE71E
:1032F800CA6849680068FFF7DDFD40212068FFF7CC
:10330800FEFD0020B3E70020B1E70120AFE702206F
:103318007047000090F83C20012A34D010B40346CE
:10332800012280F83C20022280F83D200268506883
:10333800946820F0700C086840EA0C0050601A6825
:103348001248824212D000F5006082420ED0B2F1DB
:10335800804F0BD0A0F59830824207D000F58060EE
:10336800824203D000F58060824204D124F08004B8
:10337800496821439160012283F83D20002083F8A9
:103388003C0010BC70470220704700BF002C014071
:1033980070477047026802F10C0353E8003F23F4BA
:1033A80090730C3242E800310029F3D1026802F12F
:1033B800140353E8003F23F00103143242E80031BC
:1033C8000029F3D1036B012B05D0202380F842306C
:1033D800002303637047026802F10C0353E8003FBF
:1033E80023F010030C3242E800310029F3D1ECE756
:1033F80090F84130DBB2212B01D00220704783685E
:10340800B3F5805F17D0036A5A1C02621A78036802
:103418005A60C38C9BB2013B9BB2C3844BB9026810
:10342800D36823F08003D3600268D36843F0400375
:10343800D360002070470369002BE4D1036A1B881E
:103448000268C3F308035360036A02330362E0E7C8
:1034580010B504460268136923F44053C1680B434E
:10346800136183680269134342691A430168CB6890
:1034780023F4B05323F00C031343CB600268536961
:1034880023F4407381690B4353610268134B9A42DA
:1034980020D0FFF799F8024602EB820202EB820283
:1034A80063689B00B2FBF3F20D48A0FB02314909A7
:1034B800642303FB11231B013233A0FB03035B09C5
:1034C80003F0F00202EB011203F00F03216813442A
:1034D8008B6010BDFFF788F80246DDE70038014031
:1034E8001F85EB512DE9F84305460F4616469946C8
:1034F800DDF820802B681C6837EA04040CBF01241F
:103508000024B4422DD1B8F1FF3FF3D0B8F1000F39
:1035180005D0FEF767FAA0EB09004045EAD92A680A
:1035280002F10C0353E8003F23F4D0730C3242E855
:1035380000310029F3D12A6802F1140353E8003F4F
:1035480023F00103143242E800310029F3D120238B
:1035580085F8413085F84230002385F84030032053
:1035680000E00020BDE8F88360B310B5044690F889
:10357800413013B3242384F841302268D36823F4FC
:103588000053D3602046FFF763FF2268136923F4D2
:10359800904313612268536923F02A035361226818
:1035A800D36843F40053D36000206064202384F878
:1035B800413084F84230606310BD80F84030FEF737
:1035C80063F9D7E7012070472DE9F04182B01E4624
:1035D80090F84130DBB2202B4BD104460D46904683
:1035E80000294AD00AB9012044E00023436421237A
:1035F80080F84130FEF7F6F90746A4F82480A4F8CD
:103608002680A368B3F5805F02D04FF000080FE072
:103618002369FBB14FF000080AE038F8023B226842
:10362800C3F308035360E28C92B2013A92B2E28487
:10363800E38C9BB28BB100963B460022802120464A
:10364800FFF750FFD8B9002DE7D015F8012B2368F4
:103658005A60E8E7A8460025EAE700963B460022BC
:1036680040212046FFF73EFF58B9202384F8413017
:1036780000E0022002B0BDE8F0810120FAE7032053
:10368800F8E70320F6E7704708B50168CA6822F032
:103698004002CA60202280F84120FFF7F4FF002092
:1036A80008BD704708B5406A0023C385C384FFF787
:1036B800F8FF08BD704790F84230DBB2222B69D181
:1036C8008368B3F5805F4FD0826AB3F5805F04D01A
:1036D800002B56D10369002B53D103685B68137024
:1036E800836A01338362C38D9BB2013B9BB2C3855E
:1036F800002B51D100B583B00268D36823F02003B2
:10370800D3600268D36823F48073D3600268536976
:1037180023F001035361202380F8423000234363E0
:10372800036B012B33D100230363026802F10C03FE
:1037380053E8003F23F010030C3242E8003100291F
:10374800F3D103681A6812F0100F06D00022019214
:103758001A6801925B680193019B818DFFF7AAFFAC
:10376800002003B05DF804FB0269002AACD1826A2C
:1037780003685B68C3F308031380836A02338362B8
:10378800B1E703685B6803F07F031370A8E7FDF7F0
:1037980099FEE5E7022070470020704730B583B0F6
:1037A800044602681368D068516913F00F0505D103
:1037B80013F0200F02D010F0200F19D12DB111F005
:1037C800010119D110F4907F16D1216B01297DD008
:1037D80013F0800F03D010F0800F40F0188113F021
:1037E800400F03D010F0400F40F0158103B030BDFA
:1037F8002046FFF760FFF9E713F0010F06D010F439
:10380800807F03D0626C42F00102626413F0040FFF
:1038180004D019B1626C42F00202626413F0020F24
:1038280004D019B1626C42F00402626413F0080F0C
:1038380007D010F0200F00D119B1626C42F00802D5
:103848006264626C002AD1D013F0200F02D010F00D
:10385800200F29D123685B6903F04003626C12F0E2
:10386800080F00D163B32046FFF794FD23685B6916
:1038780013F0400F20D0226802F1140353E8003FF0
:1038880023F04003143242E800310029F3D1E36BFE
:1038980073B1634A5A63E06BFEF760F90028A5D05C
:1038A800E06B436B9847A1E72046FFF704FFD1E799
:1038B8002046FFF7F6FE99E72046FFF7F2FE95E768
:1038C8002046FFF7EEFE002363648FE713F0100F26
:1038D8003FF47EAF10F0100F3FF47AAF002301934E
:1038E8001368019353680193019B536913F0400FC8
:1038F80051D0E26B13685B689BB2002B3FF476AF44
:10390800A18D99427FF672AFE3859369202B37D05A
:10391800226802F10C0353E8003F23F480730C3251
:1039280042E800310029F3D1226802F1140353E878
:10393800003F23F00103143242E800310029F3D19B
:10394800226802F1140353E8003F23F040031432C5
:1039580042E800310029F3D1202384F842300023C3
:103968002363226802F10C0353E8003F23F010039D
:103978000C3242E800310029F3D1E06BFEF7CAF8B7
:1039880002236363A18DE38D9BB2C91A89B22046D5
:10399800FFF790FE2AE7A18DE38D9BB2C91A89B281
:1039A800E38D9BB2002B3FF421AF00293FF41EAFFB
:1039B800226802F10C0353E8003F23F490730C32A1
:1039C80042E800300028F3D1226802F1140353E8DA
:1039D800003F23F00103143242E800300028F3D1FD
:1039E800202384F8423000232363226802F10C0369
:1039F80053E8003F23F010030C3242E8003000285F
:103A0800F3D1022363632046FFF754FEEEE6204617
:103A1800FFF7EEFCEAE62046FFF736FEE6E600BFD3
:103A2800AD36000881628285C28500234364222363
:103A380080F84230036923B10268D36843F4807385
:103A4800D3600268536943F0010353610268D36885
:103A580043F02003D3600020704708B590F8423047
:103A6800DBB2202B08D149B10AB9012008BD0023D7
:103A78000363FFF7D7FFF9E70220F7E70120F5E72F
:103A88000022034B1B68C3F89800C3F89C207047BA
:103A9800480100200A4B0B48196810B5D1F8983036
:103AA800D1F89C405843084A02FB0400A3FB0232A9
:103AB800013340EB0200C1E9263020F0004010BD80
:103AC800480100202DF451582D7F954C002310B546
:103AD8000446C0E90033C0E904338360818143664A
:103AE800C2818361194608225C3000F016F90D4B3B
:103AF800E46123620C4B63620C4BA3620C4BE362E0
:103B08000C4B9C4206D003F16802944202D0D03399
:103B18009C4205D104F15800BDE8104000F0D4BE25
:103B280010BD00BF993C0008BF3C0008F73C0008E6
:103B38001B3D000834100020024A0349034800F0E6
:103B480069B800BF10000020357500082800002063
:103B580041680C4B10B59942044601D003F0E6FCCD
:103B6800A168094B994202D0204603F0DFFCE168C6
:103B7800064B994204D02046BDE8104003F0D6BC5D
:103B880010BD00BF341000209C100020041100203C
:103B980010B50B4B0B4C0C4A20461A60042100222E
:103BA800FFF794FF04F1680001220921FFF78EFF57
:103BB80004F1D0000222BDE810401221FFF786BFB1
:103BC8006C11002034100020413B0008014800F02F
:103BD8007EBE00BF9B110020014800F07ABE00BFE6
:103BE8009B11002010B50446FFF7F0FF636B1BB173
:103BF800BDE81040FFF7F0BF044B6363044B1B683C
:103C0800002BF5D1FFF7C4FFF2E700BF593B0008CE
:103C18006C1100202DE9F843074688461446002613
:103C2800D4E90195B9F1010905D52468002CF7D12B
:103C38003046BDE8F883AB89012B07D9B5F90E30BA
:103C4800013303D029463846C04706436835E9E7BB
:103C58000EB46FF0004100B59CB01DAB0290069009
:103C6800079104910848094953F8042B0591006805
:103C780002A9019302F08CFA0022029B1A701CB070
:103C88005DF804EB03B07047480100200802FFFF0D
:103C980010B50C46B1F90E1000F0C8FD0028ABBFF6
:103CA800236DA3891B1823F48053ACBF2365A3811C
:103CB80010BD002070472DE9F0411F468B8905464D
:103CC800DB050C46164605D502230022B1F90E1075
:103CD80000F09AFDA389324623F48053A381284635
:103CE8003B46B4F90E10BDE8F04100F0B1BD10B587
:103CF8000C46B1F90E1000F087FD431CA38915BFCF
:103D0800206523F4805343F48053A38118BFA38113
:103D180010BDB1F90E1000F067BD0346024493428E
:103D280000D1704703F8011BF9E710B56AB10139F2
:103D3800841810F8012B11F8013F9A4203D1A042D0
:103D480001D0002AF5D1D01A10BD1046FCE70000BA
:103D5800F7B5016804463B2911D93C22684600F0B2
:103D6800D1FD019A63680099002A0B446360BBBFC8
:103D78003C3203F1FF3322602260B8BF63606168A0
:103D88003B2911D93C22684600F0BCFD019AA36882
:103D98000099002A0B44A360BBBF3C3203F1FF33F8
:103DA80062606260B8BFA360A168172911D91822A0
:103DB800684600F0A7FD019AE3680099002A0B44C1
:103DC800E360BBBF183203F1FF33A260A260B8BF43
:103DD800E36021690B2911D90C22684600F092FD95
:103DE800019A63690099002A0B446361BBBF0C32D6
:103DF80003F1FF3322612261B8BF636163699A07E7
:103E08001ED1642193FBF1F201FB1232D2B94FF4B7
:103E1800C87203F26C7393FBF2F102FB1133002BAF
:103E280014BF1C231D23E268002A0DDC0B25642126
:103E38004FF4C870304EE768002F31DD03B0F0BD95
:103E48001C23F0E71D23EEE7002764204FF4C87514
:103E5800294ED4E90312012A0CBF9C4656F822C009
:103E68006145EBDD0132A1EB0C010C2AE160226116
:103E7800EFD163695A1C9107C4E9047238D192FBE7
:103E8800F0F100FB1122002A34D103F26D7393FB89
:103E9800F5F205FB1233002B14BF1C231D23D8E7B2
:103EA8002269013A2261013215D163695A1E12F062
:103EB800030FC4E9045217D192FBF1FC01FB1C2249
:103EC800A2B903F26B7393FBF0F200FB1233002BE1
:103ED80014BF1C231D232269012A0CBF1A4656F859
:103EE80022203A44E260A6E71C23F4E71D23F2E708
:103EF8001C23AEE71D23ACE718A800082DE9F04FF6
:103F080085B0074603F09EFC81463846FFF720FF40
:103F1800D7E900433C2202FB03444FF46162BB68CB
:103F28007E6902FB0344D7E90353BB4A013D52F8BB
:103F38002320012B154411DDB1070FD1642296FB14
:103F4800F2F302FB136343B94FF4C87206F26C73C1
:103F580093FBF2F102FB113303B9013544F62062F9
:103F680006F51C5310339342FD6100F25E81462E24
:103F780072DD462340F26D1C64214FF4C8709A0725
:103F880064D193FBF1F201FB1232002A61D103F2F2
:103F98006C7292FBF0FE00FB1E22002A14BF6246E0
:103FA8004FF4B77201339E421544E8D19B4B4FEA58
:103FB800E478C5FB034800F0E3F900F0EDF9984B0D
:103FC800D3F800B0BBF1000F3AD0D7F820B0786929
:103FD800D9F80430BBF1010F00F26C70DA46A8BFC3
:103FE8004FF0010A834279D1D9E90821D9F8500064
:103FF800D9F84CC0131A029361EBE0730393D9F814
:1040080048300193019AD9F82830B2EB030E6CEBD3
:10401800E371744578EB010266DAD9F80020002ACA
:104028006FD0029A9442039A78EB020203DB74453C
:1040380078EB01016BDBBBF1000F4FF0000B6BDA83
:10404800D9F828301C1948EBE378A9E040F26D1242
:10405800A8E74FF4B772A5E7A8D0452340F26D1C36
:1040680064214FF4C87012E062BB93FBF1F201FBCC
:10407800123252BB03F26C7292FBF0FE00FB1E225E
:10408800002A14BF62464FF4B772AD1A013B9E4234
:1040980003F00302E8DBDAB9642296FBF2F302FBD1
:1040A8001363C3B94FF4C87206F26C7393FBF2F151
:1040B80002FB1133002B40F26D1308BF4FF4B773A6
:1040C800ED1A73E740F26D12DFE74FF4B772DCE7E1
:1040D80040F26D13F4E74FF4B773F1E700F0AAF874
:1040E800002881D1D34650E0019A121A01924FEA72
:1040F800E0726CEB020C019A944278EB0C0CF1DB49
:104108008BE7029A9442039A78EB02028FDBBBF1A9
:10411800000F3EDB4FF0010B8AEA0B0ABAF1010FE0
:1041280033D1BBF1000F4ED01B1A3A681C191A4440
:104138003A603846D7F80CA048EBE378FFF708FE5A
:10414800FA68B2EB0A0220D0012A3EDC911CD8BFE3
:104158000122FB691544D21840D5731E9A0737D13E
:10416800642293FBF2F102FB1133A3BB4FF4C87333
:1041780006F26B7696FBF3F203FB1266002E40F212
:104188006D1318BF4FF4B673FB61BBF1010F7FF4D9
:1041980057AF4FF0010BD9F850301C1948EBE378B2
:1041A80000F0F4F80723043595FBF3F3C3EBC303DE
:1041B800ED1A48BF0735C7F820B0BD612046414613
:1041C80005B0BDE8F08FC31AAFE74FF0FF32C0E784
:1041D8004FF4B673D8E740F26D13D5E7B30718D19B
:1041E800642196FBF1F301FB1363DBB94FF4C87349
:1041F80006F26C7696FBF3F103FB1166002E40F293
:104208006D1308BF4FF4B7739A42A8BFD21AFA6168
:10421800BBE740F26D13F7E748A80008805101009A
:104228008C1100204FF4B773EEE74FF0FF34A0462F
:10423800C4E700BF2DE9F74F054603F003FB40F242
:10424800B1739D4240F396806FF4F662AC1840F269
:104258006D12A5F2B273A41002FB03446FF063025F
:10426800A5F26D7393FBF2F36FF4C8611C444FF42D
:10427800C8736A18B2FBF3F295FBF3FC144464228A
:1042880003FB1C5C95FBF2F7BCFA8CF6014602FBBB
:1042980017574560760900F1500B05F003020D7AB7
:1042A8004B694A2D2BD1E51802B917B9BCF1000F9B
:1042B80023D13B2BD4BF002301232B44013B8D6921
:1042C800DFF8B4804FEAE57EC3FB085E8B6AED1821
:1042D8004EEBE373C1E9085328318B45DFD1D0E9B0
:1042E8000843D0E912128C429341B4BF0123002342
:1042F8000360012003B0BDE8F08F0023DDE7442D03
:1043080001D12344DBE77ABB002F0CBF35460125DA
:104318004FF0300AD1F80CE04FF00008CDF804E077
:10432800A646DFF858900AFB0595043DDDF804A081
:1043380008F10108C24555F8289017DC4FF0070826
:104348000EF1040595FBF8F8C8EBC808A5EB0805BD
:104358005D1B0B6948BF0735013BC3EBC3032B4407
:104368004B4505DA7344AAE73546D1E7CE44DDE785
:10437800073BF5E70020BDE78051010040AA00088F
:10438800014800F0A3BA00BF9C110020014800F0CA
:104398009FBA00BF9C110020014B186800F002B8BA
:1043A800480100202DE9F04F8DB0074603F04AFA86
:1043B8006D490446384600F009FC6C4D064610BBB2
:1043C8006B4B6C4A18606C4B4A2118606B4BC4E904
:1043D8000300C3E9002200220023C4E90500C4E960
:1043E8000D00C4E90F00A0622065C4E90823C4E9F0
:1043F80012232868217284F8301000F0F7FB2E6031
:104408000DB0BDE8F08F2968002940F08E8028683B
:1044180000F0ECFB3046FBF70DFF411C384600F07E
:10442800EDFB2860002840F086800023524A0020D7
:1044380013600021524ADFF84481C4E90333C8E914
:1044480000224A22C4E90533C4E90801C4E90D334E
:10445800C4E90F33C4E91201DFF814A12272CAF8C3
:104468000030A36284F83020236533783A2B08BFE4
:10447800013633783C2B62D1751C2846414A4249A3
:104488000AAB00F07FFE0028BADD0A9BDA1E072A75
:10449800B6D8EB5C3E2BB3D102360A9BF518F35C19
:1044A8002D2B5AD14FF0FF390135002308AFADF855
:1044B8001E30ADF820300AABCDE9013703930DF17A
:1044C8001E030093284631490AAB07AA00F05AFE9A
:1044D800002895DD3C22BDF81E30BDF8206002FBA7
:1044E80003664FF46162BDF81C3002FB03660A9B49
:1044F80009FB06F605EB0309EB5C3C2B40F0E78073
:1045080009F101052846224A1F490AAB00F03AFE84
:10451800002841DC99F801303E2B3DD1194BA662A9
:10452800C8E90033CAF800606AE7FBF779FE00289B
:104538007FF46DAF64E7314600F0CCF975E730469B
:10454800104A14490AAB00F01DFE00287FF758AF47
:104558000A9B033B072BA0D952E72B2B4FF00109ED
:1045680008BF0135A1E700BF78A80008881100201E
:10457800901100207BA800088C1100201C0000204E
:10458800B7AC00087C1100207FA80008B4A8000878
:104598007011002092A800080A9BDA1E072A3FF62D
:1045A8002FAFEB5C3E2B7FF42BAF09F102090A9B7E
:1045B80009EB030519F803302D2B40F097804FF0D5
:1045C800FF3901350023ADF81C30ADF81E30ADF8C9
:1045D80020300A930AABCDE9027301930DF11E0353
:1045E8000093284679490AAB07AA00F0CBFD0028BA
:1045F80000F38280A6F5616327464FF0000B049311
:104608000A9B1D442B782C2B08BF013595F8009088
:10461800B9F14D0F40F083800AAB0DF12602CDE9C8
:10462800013209AA00922846694903930DF1220232
:1046380000F0A8FD03287FF4E3AEBDF822104B1E5E
:104648000B2B3FF6DDAEBDF82420531E042B3FF69E
:10465800D7AEBDF82630062B3FF6D2AEC7E9031217
:1046680087F808907B610A9B05EB03090025022364
:10467800ADF81E50ADF81C30ADF820500A9599F8E9
:1046880000302F2B77D10AAB08AACDE901320DF102
:104698001E02009248464F49039307AA00F072FD94
:1046A800A84268DC4A2100220023C4E90355C4E972
:1046B8000555C4E90823C4E90D55C4E90F55C4E9F3
:1046C80012232172A56284F83010256598E64846C1
:1046D800414A42490AAB00F055FD00287FF71EAF5A
:1046E8000A9B033B072B7FF662AF89E62B2B4FF023
:1046F800010908BF013565E73C21BDF81E20BDF85A
:10470800203001FB02334FF46161BDF81C2001FB2E
:10471800023309FB03F36FE74FF0010B72E7B9F1BE
:104728004A0F0ABF4B46442301350A2228460BA9E3
:10473800059300F01DFDDDF82C90059BA945ADF80B
:10474800260014D14D23BBF1000F07D1032123729A
:104758000223C4F814B0C4E9031387E70B2284F8D2
:1047680030300123C4E90D230023E3637EE780B2E0
:104778003B7278617AE73C21BDF81E20BDF82030F5
:10478800283701FB02334FF46161BDF81C2001FB9F
:10479800023347F8103C0A9D4D44BBF1000FBBD0D3
:1047A800049B606823650E4BA662C8F800300A4B6C
:1047B800C8F80430FFF73EFDA26A236DCAF800204E
:1047C8009B1A18BF0123074A136019E6B4A800080A
:1047D800A0A80008B3A800087011002092A800083B
:1047E8007C1100208C11002038B50023054D0446AB
:1047F80008462B60FCF7A4FF431C02D12B6803B1C9
:10480800236038BD9411002038B504460846114687
:104818000022054D2A601A46FCF79CFF431C02D172
:104828002B6803B1236038BD9411002038B50446C5
:10483800084611460022054D2A601A46FCF762FF19
:10484800431C02D12B6803B1236038BD94110020AA
:1048580038B50446084611460022054D2A601A4616
:10486800FCF760FF431C02D12B6803B1236038BDFD
:1048780094110020014B1868704700BF48010020C0
:1048880070B500260C4D0D4C641BA410A64209D12E
:1048980005F014FF00260A4D0A4C641BA410A6421A
:1048A80005D170BD55F8043B98470136EEE755F839
:1048B800043B98470136F2E7E0AC0008E0AC00089A
:1048C800E0AC0008E8AC00087047704770477047D4
:1048D80070477047034611F8012B03F8012B002A93
:1048E800F9D17047024B13B1024800F005B8704780
:1048F8000000000089780008002301461A4618467F
:1049080003F02EB810B591FBF2F4002902FB141342
:1049180006DB002B01DA01349B1AC0E9004310BD05
:10492800002BC4BF04F1FF349B18F6E72DE9F041D2
:10493800064608200C4602F0B7FF8046224F304654
:1049480000F096FBBB685D6825F003052C1B113C45
:104958004444B4FBF8F4013C08FB04F4A04505DD2D
:10496800304600F08BFB0020BDE8F0810021304686
:1049780002F076FFBB682B449842F1D13046614281
:1049880002F06EFF013010D10021304602F068FFBE
:10499800BA68831A0F2BE3DD0C4943F00103096859
:1049A8005360401A0A490860DAE7BB68084A2D1BB9
:1049B80045F001055D60136830461B1B136000F06D
:1049C8005DFB0120D0E700BF500100205805002002
:1049D800A4110020F8B505460F46002900F0B18063
:1049E80000F046FB57F8042C564822F00104A7F1C2
:1049F800080303EB040C8168DCF80460614526F0C9
:104A0800030602F001021BD126443AB957F8082CD4
:104A18009B1A1644D3E90212CA60916046F001025B
:104A28005A608360484B1B68B34204D8474B2846FA
:104A38001968FFF77BFF2846BDE8F84000F01EBB69
:104A4800CCF80460002A38D157F8081C00F1080790
:104A58005B1A0C449968B94231D0DF68CF60B960FD
:104A68000CEB06014968C9070BD4DCF8081034447C
:104A78003ABB374EB14224D10122C0E90433C3E91D
:104A8800021144F0010159601C51002AD3D1B4F538
:104A9800007F1BD20121E2086409A1404468013269
:104AA8002143416050F8324000EBC2010839C3E9A4
:104AB800024140F83230E360BDE70022D0E701222E
:104AC800CEE7DCF80C60CE60B160DAE7B4F5206FB1
:104AD8004FEA542214D2A2093832511C50F831102E
:104AE80000EBC2068E4225D10124921004FA02F28C
:104AF800446822434260C3E90216B360CB609AE778
:104B0800142A01D85B32E8E7542A02D8220B6E3205
:104B1800E3E7B2F5AA7F02D8E20B7732DDE740F28D
:104B280054518A4296BFA20C7E227C32D5E789680E
:104B38008E4204D04A6822F00302A242F7D8CE6817
:104B4800D9E7F8BD500100205C050020D4110020F1
:104B5800580100202DE9F84FDFF86CA00746894678
:104B6800164603F091FDDAF8004034B14B469846FA
:104B780013F8012B3AB13D2AF9D1384603F08AFDE2
:104B88000020BDE8F88FA8EB0908A34654F8040BE9
:104B98000028F2D042464946FFF7C7F80028F4D16A
:104BA80054F8043C03EB080513F808303D2BECD10E
:104BB800DAF800303846ABEB03039B10336003F0A0
:104BC80069FD681CDDE700BF0000002007B501AAE9
:104BD800FFF7C0FF03B05DF804FB0000024B01467D
:104BE800186800F00BB800BF48010020024B0146CE
:104BF8001868FFF7EFBE00BF4801002001F10B0362
:104C0800162B2DE9F74F054606D933F0070704D5CB
:104C18000C232B600024A1E11027B942F8D82846BC
:104C280000F026FAB7F5FC7FAE4E37D207F108023E
:104C380032445468A2F108018C424FEAD70302D1EA
:104C4800D468A24210D06368D4E9021223F00303A7
:104C5800CA60234491605A6842F001025A602846AB
:104C680000F00CFA083479E1023334699E498C4229
:104C780077D0626822F0030CACEB07000F2848DD00
:104C8800E21940F0010347F001076760C6E9042212
:104C9800C2E90211536044F80C00E0E77B0A2AD00D
:104CA800042B12D8BB0938335A1C06EBC2025468CD
:104CB800A2F1080C644506D0626822F00302D01BFA
:104CC8000F281CDD013B0133CFE7142B01D85B33E0
:104CD800EAE7542B02D83B0B6E33E5E7B3F5AA7F1E
:104CE80002D8FB0B7733DFE740F25452934204D8E3
:104CF800BB0C7C33D8E73F23D6E77E23D4E70028D4
:104D0800E16804DBA368D9608B60A318A3E70C46AD
:104D1800D0E70028C6E9041107DBA444DCF8043016
:104D280043F00103CCF8043099E7BCF5007F7068C4
:104D380080F093804FEADC024FEA5C1E4FF0010CD2
:104D48000CFA0EFC4CEA0000013256F832C07060D2
:104D580006EBC2000838C4E902C046F83240CCF875
:104D68000C400122981082407068904226D310426D
:104D780006D123F003035200104203F10403FAD0D2
:104D880006EBC308C1469E46D9F80C404C4540F096
:104D9800B7800EF1010E1EF0030F09F10809F3D1D7
:104DA800980740F0E180736823EA02037360706833
:104DB8005200904202D3002A40F0E280D6F808A0C0
:104DC800DAF8043023F00309B94504D3A9EB070244
:104DD8000F2A00F34081454B082019680AEB090B9C
:104DE80010313944019102F05FFD414A019913687D
:104DF800804601331FBF01F1FF31091843421940B2
:104E08002846019102F02CFD421C044600F0F68071
:104E180083450199364A02D9B24540F0EF80354BB7
:104E2800A345186808F1FF3C0844186040F0AA80C0
:104E38001BEA0C0F40F0A680B268494441F001011A
:104E480051602D4A1B6811688B4288BF13602B4A3A
:104E580011688B4288BF1360D0E0BCF5206F4FEA21
:104E68005C2218D24FEA9C12383202F1010E56F831
:104E78003EE006EBC208F0452BD14FF0010C921032
:104E88000CFA02F202437260C4E902E8C8F808406A
:104E9800CEF80C4065E7142A01D85B32E5E7542ABE
:104EA80003D84FEA1C326E32DFE7B2F5AA7F03D887
:104EB8004FEADC327732D8E740F2545E724596BF4B
:104EC8004FEA9C427E227C32CFE7DEF808E0F045CC
:104ED80005D0DEF8042022F003026245F5D8DEF89A
:104EE8000C80D1E75001002058010020D411002087
:104EF80058050020A4110020CC110020D01100205A
:104F08006068D4F80CC020F00300A0EB070ABAF1DF
:104F18000F0F12DDA368E21947F001076760C3F8B5
:104F28000CC0CCF808304AF00103C6E90422C2E9F3
:104F38000211536044F800A091E6BAF1000F11DBAA
:104F48002044436843F00103436054F8083F28466F
:104F5800C3F80CC0CCF8083000F090F8204603B035
:104F6800BDE8F08F644611E758F80809013B404551
:104F78003FF416AF1BE7043352001042FBD0FFE6A4
:104F88007346FAE7D2F800E0BEF1FF3F1BBFA4EB7F
:104F98000B0B0BEB000214601A6014F0070B0EBF2A
:104FA8005846CBF108002418621802EA0C01804424
:104FB800A8EB010808EA0C0841462846019202F0CD
:104FC8004FFC431C019A294B07D1BBF1000F23D09A
:104FD8004FF00008ABF1080010441A68001B404469
:104FE800424440F00100B245B4601A6060603FF48A
:104FF80028AFB9F10F0F12D801236360B3685B685B
:1050080023F00303BB42A3EB070201D30F2A22DCE0
:10501800284600F033F8FDE51046D846DDE70521BF
:10502800DAF80420A9F10C0929F0070902F00102B5
:1050380042EA0902CAF80420B9F10F0F0AEB090283
:10504800C2E901117FF6FDAE28460AF10801FFF713
:10505800C1FC064BF5E6B46847F0010342F00102D3
:1050680027446360B7607A60F9E500BFA4110020A7
:105078000148FFF72CBC00BF9A1100200148FFF738
:1050880028BC00BF9A1100202DE9F04386460D4642
:10509800354F284615F8014B3E5D16F00806F8D145
:1050A8002D2C30D101262C78851C002B57D0102BA5
:1050B80009D1302C07D1287800F0DF00582849D1D1
:1050C80010236C7802354FF0FF38B8FBF3F800274F
:1050D80003FB08F938466FEA0909A4F1300CBCF162
:1050E800090F15D86446A34223DDB7F1FF3F07D067
:1050F80080451BD301D1A14518DB012700FB0340E4
:1051080015F8014BE9E72B2C04BF2C78851CCCE75C
:10511800A4F1410CBCF1190F01D8373CE3E7A4F125
:10512800610CBCF1190F04D8573CDCE74FF0FF378E
:10513800E6E77B1C06D122233846CEF8003032B988
:10514800BDE8F08306B14042002AF9D007B1691ED4
:105158001160F5E73024002BB5D10823B3E7302CD4
:10516800A9D00A23AFE700BFC7A80008FFF78CBF84
:1051780013460A46014602480068FFF785BF00BF8C
:10518800480100200EB44FF4017230B59CB01FAC3A
:1051980054F8045BADF8142002900690FBF74AF827
:1051A8000B4B03900A9300230E9313934FF6FF7350
:1051B80007900848ADF816302A46234602A9006829
:1051C800019400F09BF81CB0BDE8304003B0704774
:1051D800BB3C00084801002038B54B1C144603D1DD
:1051E8004FF0FF35284638BD9389CDB223F0200310
:1051F8009381236B52688BB1636B934208DD2368FC
:105208005A1E226003F8015C636801336360E9E7B2
:10521800214602F0CBFA0028F1D0E1E721692368A2
:1052280051B1994208D213F8011CA94204D1013B9B
:10523800013223606260D5E7C4E90E3204F140030D
:10524800236303236363234603F8425F2360012338
:10525800DCE710B50C46096B69B104F140039942CB
:1052680001D0FFF7B7FB0020E36B2063636013B145
:10527800A36B236010BD23694FF0FF302360002328
:105288006360A38943F02003A381F3E72DE9F74F77
:105298001F4613467B438246884691460C9C27D07E
:1052A8001E46D4E90015B5420BD33246404602F0FB
:1052B80015FB62682168921B31443B46626021609D
:1052C80016E02A464046019302F008FB00232268B4
:1052D80063602A44214650462260FFF7BAFFA8447B
:1052E800019BA6EB050B38B11D44AD1BB5FBF9F3CB
:1052F800184603B0BDE8F08F5E46D2E72DE9F04FBF
:10530800E1B01E46B1F90C3002AF9D040C46F862BC
:10531800BA6106D443F400538B814B6E23F40053D7
:105328004B6600239B46C7E908337B617B63BB62FE
:10533800BA6912F8013BBA61FB63002B31D07D4A90
:1053480012F8039019F0080918D06368002B0EDDD5
:10535800236878491A788A5C1007E9D57A6B013393
:1053680001327A6362682360013A6260EDE72146A0
:10537800F86AFFF76EFF0028EAD0D9E7252B60D13D
:105388000A21BA69C7F83090BB690133BB61137849
:105398007A2B06D8422B09D82A2B78D044D8252B2B
:1053A8004FD0BBF1000F00F01F8118E1433B372BB2
:1053B80000F20381DFE813F02801A80001010101D0
:1053C8000101010101010101010191000101010136
:1053D800B000010101010101C40001010101010145
:1053E8000101B800010101011E01010101010101D2
:1053F80001010101010101012A01AA0001010101C4
:1054080001018300520191000101740099003101EA
:10541800B2002E0101010101C6009500B60001018C
:105428000101B80001019500A3F13002092AB8D89A
:1054380019F08F0FB5D13A6B01FB0233303B3B6358
:105448002CE06368002B0FDD2368BA69197812F81D
:10545800012C9142A5D16268013323607B6B013A2C
:10546800626001337B6363E72146F86AFFF7F1FE68
:105478000028E9D0BB6A13B1A3895B0691D5BBF1BB
:10548800000F40F0A0804FF0FF33BB62ACE03B6BF5
:1054980053EA09033B6384D14FF01009BA6973E7F3
:1054A80019F00F0F7FF47DAF53786C2B04D1931C48
:1054B800BB6149F00209F1E749F00109EEE719F08B
:1054C8000F0F7FF46EAF5378682B03BF931CBB613B
:1054D80049F0080949F00409E0E719F00F0FE8D08E
:1054E8005FE719F00F0FD9D05BE719F08F037FF44E
:1054F80058AFBBF1000F04D182B00DF1080BCBE916
:10550800003349F08009C9E749F001090A4B7B617A
:105518000A2303253B6216E049F00109074B7B612A
:105528000823F6E7054BF2E749F40079034B7B6162
:105538001023EEE7C7A800088191000875510008FC
:1055480049F0010902256368002B40F38B8019F0AC
:10555800400F06D12368A8491A788A5C110700F120
:105568008980022D00F08A83032D00F0298509F037
:105578001003012DFB6109F0010300F0C5813D6BAB
:10558800012D38BF0125002B00F0488109F01003D8
:10559800002B40F00681334653F8046B19F0800F56
:1055A8003B6300F0058146B18020FFF717FB80467A
:1055B800002872D14FF0FF33BB62BBF1000F13D04C
:1055C800BB6A01330BD100242646BBF80630DBF852
:1055D8000050A34200F3CC854FF0FF33BB62DBF8E9
:1055E800000008B1FFF702FBB86A07F5BE77BD46B1
:1055F800BDE8F08FB96907F1780002F09EF801253F
:10560800B86149F040099EE749F00109002549F0D1
:10561800400998E749F4087988E719F0100F7FF4F2
:1056280087AE19F0080F56F8043B02D07A6B1A704F
:105638007EE619F0040F02D07A6B1A8078E619F02A
:10564800010F02D07A6B1A6072E619F0020FF9D0D6
:105658007A6B796BD217C3E9001269E6674B7B61F5
:10566800002356E72146F86AFFF7F3FD00283FF4C8
:105678006EAFFFE67A6B01327A636268013A002AFC
:10568800626002DD0133236064E72146F86AFFF7B0
:10569800E0FD00283FF45EAFECE6BBF80690BBF8EF
:1056A80004303060994513D34FF6F672934281D88F
:1056B80008331FFA83FADBF800004FEA8A0103F087
:1056C8002BFB00283FF476AFCBF80000ABF804A022
:1056D800DBF8003009F1010243F82960B2464FF0C7
:1056E80020094646ABF8062000223A6102F0AEF8DF
:1056F8003A6990423FF4BEAE216807F1500C11F8A8
:10570800010B531C0CF802006268013AC4E900124C
:105718007A6A032A02D1BA6C042A07D00822002127
:1057280007F148007B62FEF7F8FA7B6A07F1480246
:105738000092314607F15002F86A3B6103F05AFEC5
:10574800421C78623FF496AE3B69002835D1FA696D
:1057580002B932607A6B1A447B6A7A63032B02D1EE
:10576800BB6C042B00D0013DFB69C3B9BAF1000F33
:1057780014D0A6EB0803B9EBA30F0FD840464FEAA5
:10578800C9013B6103F0C8FA804600283FF412AF14
:105798003B69CAF80000C6184FEA490904360022D6
:1057A8000FE04FF000093E63C846CA464E469BE7E5
:1057B800D7F81C90C846CA4696E77A6A0232C9D119
:1057C8001A466368002B13DC2146F86A3A61FFF732
:1057D80040FD3A6960B1002A7FF44CAEBAF1000F7F
:1057E8000ED1FB6913B9BB6A0133BB623E6B9FE5FF
:1057F800002D7FF47AAFF1E7C7A80008819100086F
:10580800A6EB0801B9EBA10FEBD9DAF8000003F019
:1058180083FA0028E5D0CAF80000E2E709F0100290
:10582800DAB19846D4E900239D4210DD1A44214696
:10583800F86A22609844ED1AFFF70BFD0028F1D0B2
:10584800B8F1000F3FF416AE7B6B43440AE65B1BCE
:105858002A44A84463602260F6E7B04619F080093C
:1058680058F8046B30D0002E3FF49BAD2846FFF764
:10587800B5F9386300283FF402AEBBF806A0BBF8C0
:1058880004903060CA45DBF8000013D34FF6F67376
:1058980099453FF698AE09F108091FFA89F94FEAC8
:1058A800890103F039FA00283FF48DAECBF80000E7
:1058B800ABF80490DBF80030B1460AF1010243F876
:1058C8002A603E6BABF8062031462B460122F86A67
:1058D8000094FFF7DBFC064600283FF4CBADB9F196
:1058E800000F09D0854207D90146D9F8000003F016
:1058F80013FA08B1C9F800007B6B33447B63BB6AB9
:1059080046460133BB6213E53A6B1D46002A08BFC1
:105918004FF0FF3209F010033A63002D00F00381C5
:10592800002B40F0A580334653F8045B19F0800F34
:10593800BB6000F0A680002D3FF43FAE8020FFF74B
:105948004DF9804600283FF435AEBBF80660BBF839
:10595800043028609E4214D34FF6F67293423FF605
:1059680029AE08331FFA83F9DBF800004FEA8901F2
:1059780003F0D2F900283FF41DAECBF80000ABF8D5
:105988000490DBF800303D6143F826504FF02009C1
:105998004546721CABF80620002601F057FFB042BE
:1059A8003FF468AD731CFB60236807F1500113F8DE
:1059B800012B8A556268013AC4E900327B6A032BDD
:1059C80002D13B6C042B05D00822002107F14000CE
:1059D800FEF7A3F907F1400300932946FB68F86A2C
:1059E80007F1500203F006FD03467862581C3FF4A5
:1059F80041AD002B4BD12B602E68711C57D008226B
:105A0800002107F14800FEF788F99B4B3246D3F88E
:105A1800E030F86A7B607E6807F1480307F13801D7
:105A2800B047012845D197F838A007F1780313F853
:105A38000A30002B49D107F15006FB68002B3BD1F7
:105A4800FB699BB92B603B696BB1A5EB08018B1017
:105A58000133994507D93B690431186803F05CF9AB
:105A680008B13B691860BB6A0133BB62BE685FE47A
:105A78004FF00009BE60C846C7F8109007F13C0512
:105A88008AE7D7F81C90C846C7F8109084E77B6A65
:105A98000233B1D1FE686368002B3FDC2146F86A07
:105AA800FFF7D7FB002839D0002EC9D0E2E4B24670
:105AB800BBE74FF0000AB8E7FB682246013BF15C00
:105AC800F86AFB60FFF788FBB7E77B6BFA6813445B
