:020000040800F2
:1000000000C00020E1630008E15B0008E35B00083A
:10001000E55B0008E75B0008E95B00080000000002
:10002000000000000000000000000000EB5B000882
:10003000ED5B000800000000EF5B0008F15B0008CA
:10004000296400082964000829640008F95B000895
:100050002964000829640008295C00082964000854
:10006000296400082964000829640008296400083C
:10007000296400082964000829640008296400082C
:10008000296400082964000829640008296400081C
:10009000296400082964000829640008335C00080A
:1000A00029640008296400082964000829640008FC
:1000B00029640008296400082964000829640008EC
:1000C00029640008296400082964000829640008DC
:1000D00029640008296400082964000829640008CC
:1000E0003D5C0008296400082964000829640008B0
:1000F00029640008296400082964000829640008AC
:10010000296400082964000829640008296400089B
:10011000296400082964000829640008296400088B
:10012000296400082964000829640008296400087B
:1001300000000000000000000000000000000000BF
:1001400000000000000000000000000000000000AF
:10015000000000000000000000000000000000009F
:10016000000000000000000000000000000000008F
:10017000000000000000000000000000000000007F
:10018000000000000000000000000000000000006F
:10019000000000000000000000000000000000005F
:1001A000000000000000000000000000000000004F
:1001B000000000000000000000000000000000003F
:1001C000000000000000000000000000000000002F
:1001D000000000000000000000000000000000001F
:0401E0005FF8E0F1F3
:1001E80010B5054C237833B9044B13B10448AFF369
:1001F80000800123237010BD2C07002000000000A0
:1002080068C2000808B5034B1BB103490348AFF3A4
:10021800008008BD000000003007002068C2000808
:1002280081F0004102E000BF83F0004330B54FEA9F
:1002380041044FEA430594EA050F08BF90EA020F0C
:100248001FBF54EA000C55EA020C7FEA645C7FEA9F
:10025800655C00F0E2804FEA5454D4EB5555B8BFC2
:100268006D420CDD2C4480EA020281EA030382EA33
:10027800000083EA010180EA020281EA0303362DC5
:1002880088BF30BD11F0004F4FEA01314FF4801C98
:100298004CEA113102D0404261EB410113F0004FAA
:1002A8004FEA03334CEA133302D0524263EB430361
:1002B80094EA050F00F0A780A4F10104D5F1200EFF
:1002C8000DDB02FA0EFC22FA05F2801841F100015A
:1002D80003FA0EF2801843FA05F359410EE0A5F12E
:1002E80020050EF1200E012A03FA0EFC28BF4CF05F
:1002F800020C43FA05F3C01851EBE37101F0004515
:1003080007D54FF0000EDCF1000C7EEB00006EEB21
:100318000101B1F5801F1BD3B1F5001F0CD34908AB
:100328005FEA30004FEA3C0C04F101044FEA445202
:1003380012F5800F80F09A80BCF1004F08BF5FEA89
:10034800500C50F1000041EB045141EA050130BD69
:100358005FEA4C0C404141EB0101013C28BFB1F57B
:10036800801FE9D291F0000F04BF01460020B1FAC6
:1003780081F308BF2033A3F10B03B3F120020CDA99
:100388000C3208DD02F1140CC2F10C0201FA0CF077
:1003980021FA02F10CE002F11402D8BFC2F1200CDC
:1003A80001FA02F120FA0CFCDCBF41EA0C01904092
:1003B800E41AA2BF01EB0451294330BD6FEA0404DB
:1003C8001F3C1CDA0C340EDC04F11404C4F12002C6
:1003D80020FA04F001FA02F340EA030021FA04F3D8
:1003E80045EA030130BDC4F10C04C4F1200220FA2F
:1003F80002F001FA04F340EA0300294630BD21FA6D
:1004080004F0294630BD94F0000F83F4801306BF32
:1004180081F480110134013D4EE77FEA645C18BF26
:100428007FEA655C29D094EA050F08BF90EA020FBD
:1004380005D054EA000C04BF1946104630BD91EAB5
:10044800030F1EBF0021002030BD5FEA545C05D1B8
:100458004000494128BF41F0004130BD14F58004F7
:100468003CBF01F5801130BD01F0004545F0FE416B
:1004780041F470014FF0000030BD7FEA645C1ABFA0
:10048800194610467FEA655C1CBF0B46024650EAD7
:10049800013406BF52EA033591EA030F41F4002103
:1004A80030BD00BF90F0000F04BF0021704730B589
:1004B8004FF4806404F132044FF000054FF000015E
:1004C80050E700BF90F0000F04BF0021704730B51F
:1004D8004FF4806404F1320410F0004548BF4042F4
:1004E8004FF000013EE700BF42004FEAE2014FEA49
:1004F80031014FEA02701FBF12F07F4393F07F4F24
:1005080081F06051704732F07F4208BF704793F026
:100518007F4F04BF41F40021704730B54FF4607439
:1005280001F0004521F000411CE700BF50EA01023C
:1005380008BF704730B54FF000050AE050EA0102E5
:1005480008BF704730B511F0004502D5404261EB55
:1005580041014FF4806404F132045FEA915C3FF496
:10056800D8AE4FF003025FEADC0C18BF03325FEA33
:10057800DC0C18BF033202EBDC02C2F1200300FAE4
:1005880003FC20FA02F001FA03FE40EA0E0021FA09
:1005980002F11444BDE600BF4A0011D212F5001260
:1005A80011D20DD56FF47873B3EB62520ED44FEAC3
:1005B800C12343F0004343EA505323FA02F0704743
:1005C8004FF00000704750EA013002D14FF0FF3081
:1005D80070474FF00000704710F8012B11F8013BED
:1005E800012A28BF9A42F7D0D01A7047034613F859
:1005F800012B002AFBD1181A0138704770B54FF04B
:10060800FF0C4CF4E06C1CEA11541DBF1CEA135596
:1006180094EA0C0F95EA0C0F00F0DEF82C4481EAFE
:10062800030621EA4C5123EA4C5350EA013518BF1E
:1006380052EA033541F4801143F4801338D0A0FB0B
:1006480002CE4FF00005E1FB02E506F00042E0FBB8
:1006580003E54FF00006E1FB03569CF0000F18BFBE
:100668004EF0010EA4F1FF04B6F5007F64F5407466
:1006780004D25FEA4E0E6D4146EB060642EAC621F9
:1006880041EA55514FEAC52040EA5E504FEACE2E66
:10069800B4F1FD0C88BFBCF5E06F1ED8BEF1004F69
:1006A80008BF5FEA500E50F1000041EB045170BDE5
:1006B80006F0004646EA010140EA020081EA030129
:1006C800B4EB5C04C2BFD4EB0C0541EA045170BD25
:1006D80041F480114FF0000E013C00F3AB8014F19F
:1006E800360FDEBF002001F0004170BDC4F10004E8
:1006F800203C35DA0C341BDC04F11404C4F1200569
:1007080000FA05F320FA04F001FA05F240EA0200C3
:1007180001F0004221F0004110EBD37021FA04F6F9
:1007280042EB06015EEA430E08BF20EAD37070BDB3
:10073800C4F10C04C4F1200500FA04F320FA05F012
:1007480001FA04F240EA020001F0004110EBD37014
:1007580041F100015EEA430E08BF20EAD37070BD84
:10076800C4F1200500FA05F24EEA020E20FA04F35D
:1007780001FA05F243EA020321FA04F001F000410C
:1007880021FA04F220EA020000EBD3705EEA430E7D
:1007980008BF20EAD37070BD94F0000F0FD101F0AC
:1007A8000046400041EB010111F4801F08BF013CE5
:1007B800F7D041EA060195F0000F18BF704703F023
:1007C8000046520043EB030313F4801F08BF013DAA
:1007D800F7D043EA0603704794EA0C0F0CEA135566
:1007E80018BF95EA0C0F0CD050EA410618BF52EA20
:1007F8004306D1D181EA030101F000414FF0000026
:1008080070BD50EA410606BF1046194652EA430633
:1008180019D094EA0C0F02D150EA013613D195EAA7
:100828000C0F05D152EA03361CBF104619460AD1EF
:1008380081EA030101F0004141F0FE4141F47001F9
:100848004FF0000070BD41F0FE4141F4780170BDE9
:1008580070B54FF0FF0C4CF4E06C1CEA11541DBF4E
:100868001CEA135594EA0C0F95EA0C0F00F0A7F850
:10087800A4EB050481EA030E52EA03354FEA01317D
:1008880000F088804FEA03334FF0805545EA131390
:1008980043EA12634FEA022245EA111545EA106558
:1008A8004FEA00260EF000419D4208BF964244F1EF
:1008B800FD0404F5407402D25B084FEA3202B61A0E
:1008C80065EB03055B084FEA32024FF480104FF4E2
:1008D800002CB6EB020E75EB030E22BFB61A754656
:1008E80040EA0C005B084FEA3202B6EB020E75EBE9
:1008F800030E22BFB61A754640EA5C005B084FEA51
:100908003202B6EB020E75EB030E22BFB61A75461D
:1009180040EA9C005B084FEA3202B6EB020E75EB28
:10092800030E22BFB61A754640EADC0055EA060EE9
:1009380018D04FEA051545EA16754FEA06164FEA2C
:10094800C30343EA52734FEAC2025FEA1C1CC0D1D8
:1009580011F4801F0BD141EA00014FF000004FF065
:10096800004CB6E711F4801F04BF01430020B4F126
:10097800FD0C88BFBCF5E06F3FF6AFAEB5EB030CDE
:1009880004BFB6EB020C5FEA500C50F1000041EBDB
:10099800045170BD0EF0004E4EEA113114EB5C04A8
:1009A800C2BFD4EB0C0541EA045170BD41F480117B
:1009B8004FF0000E013C90E645EA060E8DE60CEA83
:1009C800135594EA0C0F08BF95EA0C0F3FF43BAFA0
:1009D80094EA0C0F0AD150EA01347FF434AF95EA57
:1009E8000C0F7FF425AF104619462CE795EA0C0F3B
:1009F80006D152EA03353FF4FDAE1046194622E708
:100A080050EA410618BF52EA43067FF4C5AE50EAE1
:100A180041047FF40DAF52EA43057FF4EBAE12E7D1
:100A28004FF0FF3C06E000BF4FF0010C02E000BFB2
:100A38004FF0010C4DF804CD4FEA410C7FEA6C5C95
:100A48004FEA430C18BF7FEA6C5C1BD001B050EA38
:100A5800410C0CBF52EA430C91EA030F02BF90EA23
:100A6800020F0020704710F1000F91EA030F58BFE2
:100A7800994208BF90422CBFD8176FEAE37040F044
:100A8800010070474FEA410C7FEA6C5C02D150EAE2
:100A9800013C07D14FEA430C7FEA6C5CD6D152EA9D
:100AA800033CD3D05DF8040B704700BF8446104662
:100AB80062468C461946634600E000BF01B5FFF761
:100AC800B7FF002848BF10F1000F01BD4DF808ED31
:100AD800FFF7F4FF0CBF012000205DF808FB00BF02
:100AE8004DF808EDFFF7EAFF34BF012000205DF85C
:100AF80008FB00BF4DF808EDFFF7E0FF94BF0120A9
:100B080000205DF808FB00BF4DF808EDFFF7CEFFA9
:100B180094BF012000205DF808FB00BF4DF808EDE8
:100B2800FFF7C4FF34BF012000205DF808FB00BFB9
:100B38004FEA410C7FEA6C5C02D150EA013C0AD1D1
:100B48004FEA430C7FEA6C5C02D152EA033C02D1C3
:100B58004FF0000070474FF0010070474FEA410224
:100B680012F5001215D211D56FF47873B3EB6252F7
:100B780012D94FEAC12343F0004343EA505311F01E
:100B8800004F23FA02F018BF404270474FF00000B0
:100B9800704750EA013005D111F0004008BF6FF0EE
:100BA800004070474FF00000704700BF53B94AB982
:100BB800002908BF00281CBF4FF0FF314FF0FF305D
:100BC80000F072B9ADF1080C6DE904CE00F006F83A
:100BD800DDF804E0DDE9022304B070472DE9F047B1
:100BE800089E0D4604468E46002B4CD18A429446F8
:100BF80067D9B2FA82F353B102FA03FCC3F12002B7
:100C080001FA03FE20FA02F242EA0E0E9C404FEA75
:100C18001C47BEFBF7F11FFA8CF507FB11EE01FB31
:100C280005F0220C42EA0E4290420AD91CEB02025D
:100C380001F1FF3E80F01981904240F2168102399D
:100C48006244121AB2FBF7F007FB102200FB05F50D
:100C5800A4B244EA0244A5420AD91CEB040400F1F8
:100C6800FF3280F00481A54240F2018164440238D9
:100C780040EA01400021641B1EB1DC400023C6E9A4
:100C88000043BDE8F0878B4208D9002E00F0EA80C7
:100C98000021C6E900050846BDE8F087B3FA83F1EC
:100CA800002948D1AB4202D3824200F2F880841A6C
:100CB80065EB030201209646002EE2D0C6E9004EFD
:100CC800DFE702B9FFDEB2FA82F3002B40F08E8034
:100CD800881A0121170C1FFA82FEB0FBF7F507FBF3
:100CE8001500220C42EA00420EFB05F0904208D99A
:100CF8001CEB020205F1FF3802D2904200F2CC80D0
:100D08004546121AB2FBF7F007FB10220EFB00FE55
:100D1800A4B244EA0244A64508D91CEB040400F135
:100D2800FF3202D2A64500F2B4801046A4EB0E04AE
:100D380040EA0540A0E7C1F120078B4022FA07FCF2
:100D48004CEA030C25FA07FA4FEA1C49BAFBF9F8F2
:100D58008D4020FA07F309FB18AA1FFA8CFE2B43D3
:100D680000FA01F508FB0EF01C0C44EA0A44A04204
:100D780002FA01F20BD91CEB040408F1FF3A80F0E7
:100D88008680A04240F28380A8F102086444241AB5
:100D980098B2B4FBF9F309FB134403FB0EFE40EAD7
:100DA8000444A64508D91CEB040403F1FF306AD2B9
:100DB800A64568D9023B644443EA0840A0FB029375
:100DC800A4EB0E049C42C8469E4654D351D0002E34
:100DD80067D0B5EB080364EB0E04CB4004FA07F7C1
:100DE8001F43CC40C6E9007400214AE702FA03FC1D
:100DF800C3F12000C1409D4024FA00F04FEA1C478F
:100E08002843B1FBF7F507FB15111FFA8CFE020CFE
:100E180042EA014205FB0EF1914204FA03F408D9B3
:100E28001CEB020205F1FF382FD291422DD9023D69
:100E38006244521AB2FBF7F107FB112280B240EA72
:100E4800024001FB0EF2824208D91CEB000001F1BE
:100E5800FF3816D2824214D902396044801A41EA16
:100E680005413AE7314630460BE77146E9E6104658
:100E7800FEE64D45ABD2B9EB020863EB0C0E013828
:100E8800A5E74146EAE7034696E74546D1E7D04657
:100E98007DE76444023849E7023D624431E7084689
:100EA8000AE73146EDE600BF704700BF2DE9F04381
:100EB80089B0002504950595069507953B4B9A69D9
:100EC80042F020029A619A6902F020020192019A86
:100ED8009A6942F004029A619A6902F00402029245
:100EE800029A9A6942F010029A619B6903F0100312
:100EF8000393039B2E4F01224FF48071384605F06F
:100F080082FCDFF8B08001220421404605F07BFC1A
:100F180001240494284B05930226069604A9384612
:100F280005F04AFB20230493DFF89090CDF8149045
:100F3800069404A9224805F03FFB4FF480730493FC
:100F480005940695079604A9384605F035FB4FF435
:100F580000430493CDF81490069404A9384605F08C
:100F68002BFB0423049305940695079604A9404691
:100F780005F022FB2A462146062005F0C3FA062082
:100F880005F0F8FA22462146172005F0BBFA17208B
:100F980005F0F0FA32462146282005F0B3FA282059
:100FA80005F0E8FA09B0BDE8F08300BF0010024080
:100FB8000008014000140140000011100000211039
:100FC80000100140064B4FF480725A614FF40072D2
:100FD8005A610449C8608021596119611A617047D2
:100FE80000100140000C0140064B4FF480721A615A
:100FF8004FF400725A610449C8608021596119612F
:101008001A61704700100140000C014008B5164BEA
:101018004FF088321A605A600022DA6003F5806364
:101028004FF480721A614FF400725A6140225A617B
:101038000E4B9A8848F689139A4210D00A4B986842
:101048000B4A402111614FF4007111614FF03332A6
:101058001A605A604FF6FF72DA6080B208BD01204C
:1010680005F02AFAEAE700BF000C01404C0700200F
:101078000010014010B50C46FFF7A4FF064B4FF4D3
:1010880080721A614FF400725A610449CC60802161
:10109800596119611A6110BD00100140000C01402E
:1010A80008B5FFF78FFFFFF7B1FF08BD08B5024B82
:1010B8001889FFF787FF08BD4C0700202DE9F84F76
:1010C80005460E469C4B9B8849F24132934220D0FC
:1010D80045F2103293421CD046F60402934259D08E
:1010E80041F66312934200F0A08045F210529342F9
:1010F80000F02881904B9B79012B00F06F818E4C7A
:1011080029466089FFF7B6FF3146A089FFF7B2FF8D
:101118003EE0DFF824B2BBF80A00FFF753FF874C24
:101128004FF4807AC4F810A04FF4007767612B0A57
:10113800DFF80C92C9F80C304FF08008C4F814801E
:10114800C4F810802761C4F810A06761EDB2C9F82F
:101158000C50C4F81480C4F810802761BBF80C0048
:10116800FFF730FFC4F810A06761330AC9F80C30E4
:10117800C4F81480C4F810802761C4F810A067610F
:10118800F6B2C9F80C60C4F81480C4F8108027615E
:10119800BDE8F88F684B9B79012B3FD0DFF898B1F9
:1011A800BBF80A00FFF70EFF644C4FF4807AC4F8CE
:1011B80010A04FF4007767612B0ADFF88491C9F813
:1011C8000C304FF08008C4F81480C4F810802761F0
:1011D800C4F810A06761EDB2C9F80C50C4F81480C7
:1011E800C4F810802761BBF80C00FFF7EBFEC4F8C9
:1011F80010A06761330AC9F80C30C4F81480C4F829
:1012080010802761C4F810A06761F6B2C9F80C60B5
:10121800C4F81480C4F810802761B9E7464B1B88CE
:101228001B1A9BB2013B9DB2B8E7434B9B79002B3D
:1012380054D1414B1C88241AA4B2013CA4B2588949
:10124800FFF7C0FE3D4B4FF480751D614FF40072EF
:101258005A613B480027C7608021596119611A61AA
:101268001D615A61C760596119611A611D615A612E
:10127800270AC760596119611A611D615A61E4B290
:10128800C460596119611A612B4FB889FFF79AFE3A
:101298002A4B4FF480751D614FF400725A61310A70
:1012A800274CE1608021596119611A611D615A61F9
:1012B800F6B2E660596119611A611D615A61788850
:1012C80001380612E660596119611A611D615A6197
:1012D800C0B2E060596119611A6159E7DFF85880B6
:1012E800B8F80A00FFF76EFE144B4FF480771F61C1
:1012F8004FF400725A61290A114CE160802159614A
:1013080019611A611F615A61EDB2E560596119618D
:101318001A611F615A61B8F8000001380512E560CA
:10132800596119611A611F615A61C0B2E06059615F
:1013380019611A61A8E700BF4C070020001001409E
:10134800000C0140DFF8A4B0BBF80A00FFF73AFE32
:10135800274C4FF4807AC4F810A04FF400776761E7
:101368002B0ADFF89090C9F80C304FF08008C4F8C9
:101378001480C4F810802761BBF80A00013080B2DD
:10138800FFF720FEC4F810A06761EDB2C9F80C5051
:10139800C4F81480C4F810802761BBF80C00FFF76C
:1013A80011FEC4F810A06761330AC9F80C30C4F8FC
:1013B8001480C4F810802761BBF80C00013080B29B
:1013C800FFF700FEC4F810A06761F6B2C9F80C6018
:1013D800C4F81480C4F810802761D9E6034B1B8831
:1013E8001B1A9BB2013B9DB289E600BF4C07002047
:1013F80000100140000C01402DE9F047804B9B791B
:10140800012B29D02BB97E4B9A8841F663139A4257
:101418002CD07B4B9A8849F241339A423ED046F60B
:1014280004039A423AD045F210339A4236D045F234
:1014380010539A4232D041F663139A422ED00728AD
:1014480000F26081DFE810F06C01600162015E016A
:101458006401660168016A01694A928846F60401D6
:101468008A42CFD041F663118A42CBD00728D0D820
:10147800DFE800F0120406080A0C0E100720C8E77F
:101488000420C6E70520C4E70120C2E70020C0E722
:101498000320BEE70220BCE70620BAE70138062889
:1014A80005D8DFE800F01206080A0C0E1000002428
:1014B8000CE040240AE0C02408E0202406E0602470
:1014C80004E0A02402E0E02400E0802445F2105368
:1014D8009A4200F08680362045F210339A4209D0AD
:1014E80045F210539A4205D041F663139A4201D04F
:1014F80044F0080446F604039A4275D02146FFF7E3
:10150800B9FD3F4B9B8841F6631293420AD014F011
:10151800200F6CD03A4A11885288914202D238483A
:101528000280418045F2105293426FD0DFF8D0908C
:10153800B9F80A00FFF746FD324C4FF48078C4F83A
:1015480010804FF4007565612F4F4FF0000AC7F8FF
:101558000CA08026666126612561C4F8108065614B
:10156800C7F80CA0666126612561C4F81080656122
:10157800B9F80030013B1A12FA60666126612561EC
:10158800C4F810806561DBB2FB6066612661256185
:10159800B9F80C00FFF716FDC4F810806561C7F8AC
:1015A8000CA0666126612561C4F810806561C7F8E2
:1015B8000CA0666126612561C4F810806561B9F8E0
:1015C8000230013B1A12FA60666126612561C4F88F
:1015D80010806561DBB2FB60666126612561BDE84C
:1015E800F0874FF4585077E744F0020486E7044A3E
:1015F80011885288914295D901480280418091E72B
:101608004C07002000100140000C0140484F788929
:10161800FFF7D8FC474C4FF48079C4F810904FF48A
:1016280000756561DFF810814FF0000AC8F80CA05A
:1016380080266661266125617889013080B2FFF7CE
:10164800C1FCC4F810906561C8F80CA066612661F9
:1016580025617889023080B2FFF7B4FCC4F8109095
:1016680065613B88013B1B12C8F80C306661266136
:1016780025617889033080B2FFF7A4FCC4F8109084
:1016880065613B88013BDBB2C8F80C3066612661B6
:101698002561B889FFF796FCC4F810906561C8F811
:1016A8000CA0666126612561B889013080B2FFF718
:1016B80089FCC4F810906561C8F80CA066612661C1
:1016C8002561B889023080B2FFF77CFCC4F810901D
:1016D80065617B88013B1B12C8F80C306661266186
:1016E8002561B889033080B2FFF76CFCC4F810900C
:1016F80065617B88013BDBB2C8F80C306661266106
:1017080025616CE700210CE010210AE0202108E0A7
:10171800382106E0282104E0182102E0082100E031
:10172800302141F480510320FFF7A4FC57E700BFA4
:101738004C07002000100140000C01402DE9F04F3B
:1017480083B005460E460192C34B9B8849F241324D
:10175800934220D045F2103293421CD045F21052E9
:10176800934270D041F66312934200F0B88046F677
:101778000402934200F02481B74B9B79012B00F0BF
:101788007181B54C29466089FFF774FC3146A08900
:10179800FFF770FC3EE0DFF8C0B2BBF80A00FFF7C5
:1017A80011FCAE4C4FF4807AC4F810A04FF40077C7
:1017B80067612B0ADFF8A892C9F80C304FF080084F
:1017C800C4F81480C4F810802761C4F810A06761B9
:1017D800EDB2C9F80C50C4F81480C4F81080276121
:1017E800BBF80C00FFF7EEFBC4F810A06761330AE2
:1017F800C9F80C30C4F81480C4F810802761C4F804
:1018080010A06761F6B2C9F80C60C4F81480C4F877
:1018180010802761914B4FF480745C614FF4007223
:101828005A618D4909898E48C160802159611961C1
:101838001A611C615A61019CC460596119611A617D
:1018480003B0BDE8F08FDFF810A2BAF80A00FFF77E
:10185800B9FB824C4FF48079C4F810904FF40077AC
:1018680067612B0ADFF8F8B1CBF80C304FF080082D
:10187800C4F81480C4F810802761BAF80A0001304F
:1018880080B2FFF79FFBC4F810906761EDB2CBF808
:101898000C50C4F81480C4F810802761BAF80C0002
:1018A800FFF790FBC4F810906761330ACBF80C304F
:1018B800C4F81480C4F810802761BAF80C0001300D
:1018C80080B2FFF77FFBC4F810906761F6B2CBF8DF
:1018D8000C60C4F81480C4F8108027619AE75E4B46
:1018E8009B792BB95C4B1B881B1A9BB2013B9DB2A1
:1018F800DFF864B1BBF80A00FFF764FB574C4FF4FC
:10190800807AC4F810A04FF4007767612B0ADFF8DB
:101918005091C9F80C304FF08008C4F81480C4F80E
:1019280010802761C4F810A06761EDB2C9F80C50A7
:10193800C4F81480C4F810802761C4F810A0676147
:10194800C9F80C30C4F81480C4F810802761C4F8B2
:1019580010A06761C9F80C50C4F81480C4F810804E
:101968002761BBF80C00FFF72DFBC4F810A06761D6
:10197800330AC9F80C30C4F81480C4F81080276101
:10198800C4F810A06761F6B2C9F80C60C4F81480F6
:10199800C4F810802761C4F810A06761C9F80C303A
:1019A800C4F81480C4F810802761C4F810A06761D7
:1019B800C9F80C60C4F81480C4F81080276129E7BE
:1019C800254B9B79012B3FD0DFF88CB0BBF80A0080
:1019D800FFF7F8FA214C4FF4807AC4F810A04FF4BE
:1019E800007767612B0ADFF87890C9F80C304FF060
:1019F8008008C4F81480C4F810802761C4F810A0C7
:101A08006761EDB2C9F80C50C4F81480C4F81080AE
:101A18002761BBF80C00FFF7D5FAC4F810A067617E
:101A2800330AC9F80C30C4F81480C4F81080276150
:101A3800C4F810A06761F6B2C9F80C60C4F8148045
:101A4800C4F810802761E5E6034B1B881B1A9BB27C
:101A5800013B9DB2B8E700BF4C07002000100140D1
:101A6800000C0140034B1B881B1A9BB2013B9DB223
:101A780087E600BF4C0700202DE9F8438146BE20C9
:101A8800FFF7A0FA224C4FF48078C4F810804FF486
:101A9800007565611F4F0523FB608026666126611E
:101AA8002561C4F8108065614846FEF70BFD16A352
:101AB800D3E90023FEF7A2FDFEF76EFDF86066612C
:101AC80026612561C4F8108065610123FB606661A9
:101AD80026612561C4F810806561FF23FB6066619B
:101AE80026612561C4F8108065610023FB6066618A
:101AF80026612561C4F810806561FB606661266116
:101B08002561BDE8F88300BF6666666666660440C0
:101B180000100140000C014008B500285AD1604B64
:101B280000229A71F0221A804FF4A0725A809B8882
:101B380049F24132934217D046F60402934213D039
:101B480045F2103293420FD045F21052934222D000
:101B580041F6631293422FD0514B22221A81202240
:101B68005A8121229A8170E04D4A2C2111812A2123
:101B780051812B21918146F60402934203D045F20C
:101B88001032934261D1464B4FF4A0721A804FF441
:101B9800F0725A8059E0424B4FF430521A814FF498
:101BA80028525A814FF42C529A814FF4F0721A80BD
:101BB8004FF448725A8048E0394B2C221A812B2264
:101BC8005A812A229A814FF4F0721A804FF448728F
:101BD8005A803AE0324B01229A714FF4A0721A806F
:101BE800F0225A809B8849F24132934217D045F23D
:101BF8001032934213D046F60402934229D045F29C
:101C0800105293422DD041F6631293423AD0244A9F
:101C180022211181212151812021918106E0204A30
:101C28002C2111812A2151812B21918146F6040210
:101C3800934203D045F21032934206D1184B4FF429
:101C4800F0721A804FF4A0725A800020FFF7D4FB7C
:101C580008BD134A2C2111812B2151812A21918100
:101C6800E4E70F4A4FF4305111814FF42851518164
:101C78004FF42C5191814FF4487111804FF4F07159
:101C88005180D3E7064A2C2111812A2151812B2129
:101C980091814FF4487111804FF4F0715180C5E77C
:101CA8004C0700202DE9F04106461D4B1A885D8837
:101CB80002FB05F59A8846F604039A4203D1184BAD
:101CC8009B79012B07D000210846FFF7F7F9FFF7AA
:101CD800EDF900221FE0124C0020A0712A2767812D
:101CE8004FF02B08A4F80C800146FFF7E7F9012311
:101CF800A371A4F80A80A781E9E70A4B4FF4807121
:101D080019614FF400715961074CE66080245C61E9
:101D18001C6119610132AA42EFD3BDE8F08100BF0E
:101D28004C07002000100140000C01402DE9F04F45
:101D380087B0304B9A6942F008029A619A6902F0BA
:101D480008020092009A9A6942F010029A619B690F
:101D580003F010030193019B4FF4F86302930124ED
:101D6800039404940323059302A9234804F024FC54
:101D78004FF6FF73029302A9204804F01DFC32209D
:101D880004F09AFB21460020FFF774F9322004F092
:101D980093FB0020FFF784F9194B9880A0F1FF030B
:101DA8009BB2B3F57F4F80F0AA87B0F5134F00F0D0
:101DB800A687134B9B8849F24132934201F02A804F
:101DC80046F60402934202F0768402F2A38244F2B9
:101DD8003552934203F01A8241F2428145F2084299
:101DE800934203F06D8045F21052934241F0148300
:101DF80008E000BF0010024000100140000C014044
:101E08004C07002055214FF47040FFF733F9AA2101
:101E18004FF20100FFF72EF952214FF20200FFF7AF
:101E280029F908214FF20300FFF724F901214FF2A5
:101E38000400FFF71FF90D214FF43040FFF71AF99E
:101E48000D214BF20100FFF715F90D214BF20200AD
:101E5800FFF710F934214FF43640FFF70BF934211E
:101E68004BF20160FFF706F934214BF20260FFF7ED
:101E780001F90D214FF43140FFF7FCF80D214BF229
:101E88000110FFF7F7F80D214BF20210FFF7F2F8F7
:101E980034214FF43740FFF7EDF834214BF201704D
:101EA800FFF7E8F834214BF20270FFF7E3F800215E
:101EB8004FF43240FFF7DEF800214BF20120FFF724
:101EC800D9F800214BF20220FFF7D4F824214FF46F
:101ED8003840FFF7CFF824214BF60100FFF7CAF886
:101EE80024214BF60200FFF7C5F801214FF43F40CB
:101EF800FFF7C0F80F214FF43340FFF7BBF80F216D
:101F08004BF20130FFF7B6F80F214BF20230FFF722
:101F1800B1F834214FF43940FFF7ACF834214BF6CF
:101F28000110FFF7A7F834214BF60210FFF7A2F8CB
:101F380008214FF43540FFF79DF808214BF2015076
:101F4800FFF798F808214BF20250FFF793F80321A6
:101F58004FF44240FFF78EF824214FF43A40FFF740
:101F680089F824214BF60120FFF784F824214BF649
:101F78000220FFF77FF800214FF43C40FFF77AF882
:101F880078214BF60140FFF775F800214BF6024027
:101F9800FFF770F800214FF43D40FFF76BF8782108
:101FA8004BF60150FFF766F800214BF60250FFF799
:101FB80061F800214FF43E40FFF75CF864214BF6CE
:101FC8000160FFF757F800214FF45140FFF752F82E
:101FD80033214DF20110FFF74DF800214DF20210A8
:101FE800FFF748F834214DF20310FFF743F80021BA
:101FF8004DF20410FFF73EF83A214DF20510FFF7B5
:1020080039F800214DF20610FFF734F84A214DF255
:102018000710FFF72FF800214DF20810FFF72AF8F4
:102028005C214DF20910FFF725F800214DF20A1046
:10203800FFF720F881214DF20B10FFF71BF8002164
:102048004DF20C10FFF716F8A6214DF20D10FFF710
:1020580011F800214DF20E10FFF70CF8E5214DF2B2
:102068000F10FFF707F801214DF21010FFF702F8E3
:1020780013214DF21110FEF7FDFF01214DF2121050
:10208800FEF7F8FF54214DF21310FEF7F3FF01217C
:102098004DF21410FEF7EEFF82214DF21510FEF7F7
:1020A800E9FF01214DF21610FEF7E4FFCA214DF2B7
:1020B8001710FEF7DFFF02214DF21810FEF7DAFFC6
:1020C80000214DF21910FEF7D5FF02214DF21A102A
:1020D800FEF7D0FF01214DF21B10FEF7CBFF0221C6
:1020E8004DF21C10FEF7C6FF34214DF21D10FEF70D
:1020F800C1FF02214DF21E10FEF7BCFF67214DF211
:102108001F10FEF7B7FF02214DF22010FEF7B2FFB5
:1021180084214DF22110FEF7ADFF02214DF222106D
:10212800FEF7A8FFA4214DF22310FEF7A3FF02211A
:102138004DF22410FEF79EFFB7214DF22510FEF751
:1021480099FF02214DF22610FEF794FFCF214DF2A0
:102158002710FEF78FFF02214DF22810FEF78AFFA5
:10216800DE214DF22910FEF785FF02214DF22A10DB
:10217800FEF780FFF2214DF22B10FEF77BFF0221C4
:102188004DF22C10FEF776FFFE214DF22D10FEF7D2
:1021980071FF03214DF22E10FEF76CFF10214DF256
:1021A8002F10FEF767FF03214DF23010FEF762FF94
:1021B80033214DF23110FEF75DFF03214DF232104D
:1021C800FEF758FF6D214DF23310FEF753FF002143
:1021D8004FF45240FEF74EFF33214DF20120FEF737
:1021E80049FF00214DF20220FEF744FF34214DF251
:1021F8000320FEF73FFF00214DF20420FEF73AFFCF
:102208003A214DF20520FEF735FF00214DF2062058
:10221800FEF730FF4A214DF20720FEF72BFF002181
:102228004DF20820FEF726FF5C214DF20920FEF74B
:1022380021FF00214DF20A20FEF71CFF81214DF2FB
:102248000B20FEF717FF00214DF20C20FEF712FFBE
:10225800A6214DF20D20FEF70DFF00214DF20E20B4
:10226800FEF708FFE5214DF20F20FEF703FF0121DD
:102278004DF21020FEF7FEFE13214DF21120FEF75D
:10228800F9FE01214DF21220FEF7F4FE54214DF221
:102298001320FEF7EFFE01214DF21420FEF7EAFEAF
:1022A80082214DF21520FEF7E5FE01214DF21620A0
:1022B800FEF7E0FECA214DF21720FEF7DBFE0221F1
:1022C8004DF21820FEF7D6FE00214DF21920FEF738
:1022D800D1FE02214DF21A20FEF7CCFE01214DF26B
:1022E8001B20FEF7C7FE02214DF21C20FEF7C2FE9E
:1022F80034214DF21D20FEF7BDFE02214DF21E20B5
:10230800FEF7B8FE67214DF21F20FEF7B3FE02214B
:102318004DF22020FEF7AEFE84214DF22120FEF77B
:10232800A9FE02214DF22220FEF7A4FEA4214DF2BF
:102338002320FEF79FFE02214DF22420FEF79AFE8D
:10234800B7214DF22520FEF795FE02214DF22620F9
:10235800FEF790FECF214DF22720FEF78BFE0221DB
:102368004DF22820FEF786FEDE214DF22920FEF7E9
:1023780081FE02214DF22A20FEF77CFEF2214DF269
:102388002B20FEF777FE02214DF22C20FEF772FE7D
:10239800FE214DF22D20FEF76DFE03214DF22E2079
:1023A800FEF768FE10214DF22F20FEF763FE032191
:1023B8004DF23020FEF75EFE33214DF23120FEF75C
:1023C80059FE03214DF23220FEF754FE6D214DF2E5
:1023D8003320FEF74FFE00214FF45340FEF74AFE2C
:1023E80033214DF20130FEF745FE00214DF2023057
:1023F800FEF740FE34214DF20330FEF73BFE00218C
:102408004DF20430FEF736FE3A214DF20530FEF764
:1024180031FE00214DF20630FEF72CFE4A214DF226
:102428000730FEF727FE00214DF20830FEF722FEA6
:102438005C214DF20930FEF71DFE00214DF20A30F5
:10244800FEF718FE81214DF20B30FEF713FE002136
:102458004DF20C30FEF70EFEA6214DF20D30FEF7C0
:1024680009FE00214DF20E30FEF704FEE5214DF283
:102478000F30FEF7FFFD01214DF21030FEF7FAFD97
:1024880013214DF21130FEF7F5FD01214DF2123006
:10249800FEF7F0FD54214DF21330FEF7EBFD01215C
:1024A8004DF21430FEF7E6FD82214DF21530FEF7AD
:1024B800E1FD01214DF21630FEF7DCFDCA214DF297
:1024C8001730FEF7D7FD02214DF21830FEF7D2FD86
:1024D80000214DF21930FEF7CDFD02214DF21A30E0
:1024E800FEF7C8FD01214DF21B30FEF7C3FD0221A6
:1024F8004DF21C30FEF7BEFD34214DF21D30FEF7C3
:10250800B9FD02214DF21E30FEF7B4FD67214DF2F0
:102518001F30FEF7AFFD02214DF22030FEF7AAFD75
:1025280084214DF22130FEF7A5FD02214DF2223023
:10253800FEF7A0FDA4214DF22330FEF79BFD0221FA
:102548004DF22430FEF796FDB7214DF22530FEF707
:1025580091FD02214DF22630FEF78CFDCF214DF280
:102568002730FEF787FD02214DF22830FEF782FD65
:10257800DE214DF22930FEF77DFD02214DF22A3091
:10258800FEF778FDF2214DF22B30FEF773FD0221A4
:102598004DF22C30FEF76EFDFE214DF22D30FEF788
:1025A80069FD03214DF22E30FEF764FD10214DF236
:1025B8002F30FEF75FFD03214DF23030FEF75AFD54
:1025C80033214DF23130FEF755FD03214DF2323003
:1025D800FEF750FD6D214DF23330FEF74BFD002123
:1025E8004FF45440FEF746FD33214DF20140FEF70B
:1025F80041FD00214DF20240FEF73CFD34214DF231
:102608000340FEF737FD00214DF20440FEF732FD8E
:102618003A214DF20540FEF72DFD00214DF206400E
:10262800FEF728FD4A214DF20740FEF723FD002161
:102638004DF20840FEF71EFD5C214DF20940FEF701
:1026480019FD00214DF20A40FEF714FD81214DF2DB
:102658000B40FEF70FFD00214DF20C40FEF70AFD7E
:10266800A6214DF20D40FEF705FD00214DF20E406A
:10267800FEF700FDE5214DF20F40FEF7FBFC0121BE
:102688004DF21040FEF7F6FC13214DF21140FEF713
:10269800F1FC01214DF21240FEF7ECFC54214DF201
:1026A8001340FEF7E7FC01214DF21440FEF7E2FC6F
:1026B80082214DF21540FEF7DDFC01214DF2164056
:1026C800FEF7D8FCCA214DF21740FEF7D3FC0221D1
:1026D8004DF21840FEF7CEFC00214DF21940FEF7EE
:1026E800C9FC02214DF21A40FEF7C4FC01214DF24B
:1026F8001B40FEF7BFFC02214DF21C40FEF7BAFC5E
:1027080034214DF21D40FEF7B5FC02214DF21E406A
:10271800FEF7B0FC67214DF21F40FEF7ABFC02212B
:102728004DF22040FEF7A6FC84214DF22140FEF731
:10273800A1FC02214DF22240FEF79CFCA4214DF29F
:102748002340FEF797FC02214DF22440FEF792FC4D
:10275800B7214DF22540FEF78DFC02214DF22640AF
:10276800FEF788FCCF214DF22740FEF783FC0221BB
:102778004DF22840FEF77EFCDE214DF22940FEF79F
:1027880079FC02214DF22A40FEF774FCF2214DF249
:102798002B40FEF76FFC02214DF22C40FEF76AFC3D
:1027A800FE214DF22D40FEF765FC03214DF22E402F
:1027B800FEF760FC10214DF22F40FEF75BFC032171
:1027C8004DF23040FEF756FC33214DF23140FEF712
:1027D80051FC03214DF23240FEF74CFC6D214DF2C5
:1027E8003340FEF747FC00214FF45540FEF742FC0A
:1027F80033214DF20150FEF73DFC00214DF202500D
:10280800FEF738FC34214DF20350FEF733FC00216B
:102818004DF20450FEF72EFC3A214DF20550FEF71A
:1028280029FC00214DF20650FEF724FC4A214DF206
:102838000750FEF71FFC00214DF20850FEF71AFC66
:102848005C214DF20950FEF715FC00214DF20A50AB
:10285800FEF710FC81214DF20B50FEF70BFC002116
:102868004DF20C50FEF706FCA6214DF20D50FEF776
:1028780001FC00214DF20E50FEF7FCFBE5214DF264
:102888000F50FEF7F7FB01214DF21050FEF7F2FB57
:1028980013214DF21150FEF7EDFB01214DF21250BC
:1028A800FEF7E8FB54214DF21350FEF7E3FB01213C
:1028B8004DF21450FEF7DEFB82214DF21550FEF763
:1028C800D9FB01214DF21650FEF7D4FBCA214DF277
:1028D8001750FEF7CFFB02214DF21850FEF7CAFB46
:1028E80000214DF21950FEF7C5FB02214DF21A5096
:1028F800FEF7C0FB01214DF21B50FEF7BBFB022186
:102908004DF21C50FEF7B6FB34214DF21D50FEF778
:10291800B1FB02214DF21E50FEF7ACFB67214DF2D0
:102928001F50FEF7A7FB02214DF22050FEF7A2FB35
:1029380084214DF22150FEF79DFB02214DF22250D9
:10294800FEF798FBA4214DF22350FEF793FB0221DA
:102958004DF22450FEF78EFBB7214DF22550FEF7BD
:1029680089FB02214DF22650FEF784FBCF214DF260
:102978002750FEF77FFB02214DF22850FEF77AFB25
:10298800DE214DF22950FEF775FB02214DF22A5047
:10299800FEF770FBF2214DF22B50FEF76BFB022184
:1029A8004DF22C50FEF766FBFE214DF22D50FEF73E
:1029B80061FB03214DF22E50FEF75CFB10214DF216
:1029C8002F50FEF757FB03214DF23050FEF752FB14
:1029D80033214DF23150FEF74DFB03214DF23250B9
:1029E800FEF748FB6D214DF23350FEF743FB002103
:1029F8004FF45640FEF73EFB33214DF20160FEF7DF
:102A080039FB00214DF20260FEF734FB34214DF210
:102A18000360FEF72FFB00214DF20460FEF72AFB4E
:102A28003A214DF20560FEF725FB00214DF20660C4
:102A3800FEF720FB4A214DF20760FEF71BFB002141
:102A48004DF20860FEF716FB5C214DF20960FEF7B7
:102A580011FB00214DF20A60FEF70CFB81214DF2BB
:102A68000B60FEF707FB00214DF20C60FEF702FB3E
:102A7800A6214DF20D60FEF7FDFA00214DF20E6021
:102A8800FEF7F8FAE5214DF20F60FEF7F3FA01219F
:102A98004DF21060FEF7EEFA13214DF21160FEF7C9
:102AA800E9FA01214DF21260FEF7E4FA54214DF2E1
:102AB8001360FEF7DFFA01214DF21460FEF7DAFA2F
:102AC80082214DF21560FEF7D5FA01214DF216600C
:102AD800FEF7D0FACA214DF21760FEF7CBFA0221B1
:102AE8004DF21860FEF7C6FA00214DF21960FEF7A4
:102AF800C1FA02214DF21A60FEF7BCFA01214DF22B
:102B08001B60FEF7B7FA02214DF21C60FEF7B2FA1D
:102B180034214DF21D60FEF7ADFA02214DF21E6020
:102B2800FEF7A8FA67214DF21F60FEF7A3FA02210B
:102B38004DF22060FEF79EFA84214DF22160FEF7E7
:102B480099FA02214DF22260FEF794FAA4214DF27F
:102B58002360FEF78FFA02214DF22460FEF78AFA0D
:102B6800B7214DF22560FEF785FA02214DF2266065
:102B7800FEF780FACF214DF22760FEF77BFA02219B
:102B88004DF22860FEF776FADE214DF22960FEF755
:102B980071FA02214DF22A60FEF76CFAF2214DF229
:102BA8002B60FEF767FA02214DF22C60FEF762FAFD
:102BB800FE214DF22D60FEF75DFA03214DF22E60E5
:102BC800FEF758FA10214DF22F60FEF753FA032151
:102BD8004DF23060FEF74EFA33214DF23160FEF7C8
:102BE80049FA03214DF23260FEF744FA6D214DF2A5
:102BF8003360FEF73FFA55214FF47040FEF73AFA7A
:102C0800AA214FF20100FEF735FA52214FF20200D5
:102C1800FEF730FA08214FF20300FEF72BFA0021E5
:102C28004FF20400FEF726FACC214FF43140FEF7AC
:102C380021FA00214BF20110FEF71CFA05214FF48E
:102C48003640FEF717FA70214FF43740FEF712FAB4
:102C580070214BF20170FEF70DFA01214FF4384054
:102C6800FEF708FA03214BF60100FEF703FA0321E9
:102C78004BF60200FEF7FEF903214BF60300FEF7C0
:102C8800F9F902214FF43C40FEF7F4F900214BF624
:102C98000140FEF7EFF900214BF60240FEF7EAF992
:102CA800D0214FF44940FEF7E5F902214CF6011016
:102CB800FEF7E0F950214CF60210FEF7DBF950213F
:102CC8004CF60310FEF7D6F950214CF60410FEF727
:102CD800D1F900214FF45450FEF7CCF955214FF4A7
:102CE8006850FEF7C7F94FF48850FEF76BF90120DA
:102CF80003F0E2FB4FF42450FEF764F99EE1D32081
:102D0800FEF760F9FEF782F9FEF780F9FEF77EF923
:102D1800D14CA0800002A080FEF778F9A388184360
:102D280080B2A08049F2413398423FF442A8BF20C4
:102D3800FEF748F9FEF76AF9FEF768F9FEF766F953
:102D4800FEF764F9A0800002A080FEF75FF9A3886F
:102D5800184380B2A08046F6040398423FF429A89D
:102D6800D420FEF72FF9FEF751F9FEF74FF9FEF7D9
:102D78004DF9A0800002A080FEF748F9A388184307
:102D880080B2A08045F2103398423FF412A84FF465
:102D98005A40FEF717F9FEF739F94FF45B40FEF792
:102DA80011F9FEF733F9A0800002A0804FF45C40CF
:102DB800FEF708F9FEF72AF9A388184380B2A08025
:102DC800B0F5004F22D0A44B9A8845F210539A428E
:102DD8003EF4EFAFA120FEF7F5F8FEF717F99E4C89
:102DE800A080FEF713F9A0800002A080FEF70EF97C
:102DF800A38803439BB2A38045F2617293427EF499
:102E0800D8AF41F66312A280FEF7D3BF45F2105245
:102E1800A280D8E7CF20FEF7D5F80020FEF7E4F827
:102E2800C120FEF7E1F83020FEF7DEF8ED20FEF7CE
:102E3800C9F86420FEF7D8F80320FEF7D5F8122069
:102E4800FEF7D2F88120FEF7CFF8E820FEF7BAF8AF
:102E58008520FEF7C9F81020FEF7C6F87A20FEF79D
:102E6800C3F8CB20FEF7AEF83920FEF7BDF82C20CA
:102E7800FEF7BAF80020FEF7B7F83420FEF7B4F8EA
:102E88000220FEF7B1F8F720FEF79CF82020FEF7A5
:102E9800ABF8EA20FEF796F80020FEF7A5F8002028
:102EA800FEF7A2F8C020FEF78DF81B20FEF79CF86D
:102EB800C120FEF787F80120FEF796F8C520FEF737
:102EC80081F83020FEF790F83020FEF78DF8C72003
:102ED800FEF778F8B720FEF787F83620FEF772F885
:102EE8004820FEF781F83A20FEF76CF85520FEF7E7
:102EF8007BF8B120FEF766F80020FEF775F81A2077
:102F0800FEF772F8B620FEF75DF80A20FEF76CF8B7
:102F1800A220FEF769F8F220FEF754F80020FEF729
:102F280063F82620FEF74EF80120FEF75DF8E02052
:102F3800FEF748F80F20FEF757F82A20FEF754F856
:102F48002820FEF751F80820FEF74EF80E20FEF76D
:102F58004BF80820FEF748F85420FEF745F8A9205A
:102F6800FEF742F84320FEF73FF80A20FEF73CF848
:102F78000F20FEF739F80020FEF736F80020FEF79C
:102F880033F80020FEF730F80020FEF72DF8E12096
:102F9800FEF718F80020FEF727F81520FEF724F8AA
:102FA8001720FEF721F80720FEF71EF81120FEF77C
:102FB8001BF80620FEF718F82B20FEF715F8562008
:102FC800FEF712F83C20FEF70FF80520FEF70CF884
:102FD8001020FEF709F80F20FEF706F83F20FEF74D
:102FE80003F83F20FEF700F80F20FDF7FDFF2B2028
:102FF800FDF7E8FF0020FDF7F7FF0020FDF7F4FFDD
:103008000120FDF7F1FF3F20FDF7EEFF2A20FDF735
:10301800D9FF0020FDF7E8FF0020FDF7E5FF0020BD
:10302800FDF7E2FFEF20FDF7DFFF1120FDF7CAFFF4
:10303800782003F041FA2920FDF7C4FF0020FEF7AD
:103048006BFD064B0122C3F8A8214FF6FF70FEF76F
:1030580029FE07B0BDE8F08F4C070020000022428F
:1030680041F66312934202F0828144F23152934254
:1030780040F0BA8001210020FDF7FCFF0A2003F090
:103088001BFA41F228611020FDF7F4FF0E211220EF
:10309800FDF7F0FF40F639211320FDF7EBFF0A207A
:1030A80003F00AFA40211120FDF7E4FF5021152012
:1030B800FDF7E0FF0A2003F0FFF91E211220FDF7BB
:1030C800D9FF0A2003F0F8F94FF4B1511020FDF7A9
:1030D800D1FF42F639211320FDF7CCFF0A2003F077
:1030E800EBF94FF480710120FDF7C4FF4FF44071F4
:1030F8000220FDF7BFFF41F238010320FDF7BAFFB8
:1031080040F202210820FDF7B5FF08210A20FDF74B
:10311800B1FF00213020FDF7ADFF40F20241312020
:10312800FDF7A8FF4FF483713220FDF7A3FF40F2AB
:1031380003513320FDF79EFF4FF482713420FDF7D1
:1031480099FF40F201313520FDF794FF40F20771F5
:103158003620FDF78FFF40F205313720FDF78AFF53
:103168004FF402713820FDF785FF40F60B713920C6
:10317800FDF780FF02214120FDF77CFF4FF41C5131
:103188006020FDF777FF01216120FDF773FF4FF401
:1031980004719020FDF76EFF4FF485719220FDF7C2
:1031A80069FF04219320FDF765FF4FF48071A0208B
:1031B800FDF760FF01210720FDF75CFF21210720B3
:1031C800FDF758FF23210720FDF754FF332107207F
:1031D800FDF750FF40F233110720FDF74BFF0021A8
:1031E800A020FDF747FF29E741F2055293427FF4FB
:1031F80025AF00210720FDF73DFF322003F05CF9E1
:103208004FF48E711220FDF735FF0121A420FDF740
:1032180031FF0F210820FDF72DFF08210A20FDF7B7
:1032280029FF08210D20FDF725FF40F20771302006
:10323800FDF720FF07213120FDF71CFF40F2036155
:103248003220FDF717FF4FF4E0613320FDF712FF3E
:1032580040F202213420FDF70DFF02213520FDF751
:1032680009FF41F60F713620FDF704FF40F20771A0
:103278003720FDF7FFFE00213820FDF7FBFE002177
:103288003920FDF7F7FE40F207713A20FDF7F2FE0C
:1032980000213B20FDF7EEFE07213C20FDF7EAFE6A
:1032A80000213D20FDF7E6FE322003F005F901215B
:1032B8000720FDF7DFFE01211720FDF7DBFE322096
:1032C80003F0FAF84FF4BD511020FDF7D3FE40F299
:1032D80017211120FDF7CEFE4FF48F711220FDF754
:1032E800C9FE4FF470611320FDF7C4FE00212A20A7
:1032F800FDF7C0FE0A212920FDF7BCFE4FF49F719F
:103308001220FDF7B7FE00215020FDF7B3FEEF2194
:103318005120FDF7AFFE00215220FDF7ABFE40F231
:103328003F115320FDF7A6FE4FF41C516020FDF716
:10333800A1FE01216120FDF79DFE00216A20FDF715
:1033480099FE00218020FDF795FE00218120FDF7E0
:1033580091FE00218220FDF78DFE00218320FDF7DC
:1033680089FE00218420FDF785FE00218520FDF7D8
:1033780081FE13219020FDF77DFE4FF440719220CD
:10338800FDF778FE05219320FDF774FE00219520B6
:10339800FDF770FE00219720FDF76CFE00219820B4
:1033A800FDF768FE4FF480710120FDF763FE4FF4CE
:1033B800E0610220FDF75EFE41F238010320FDF7CF
:1033C80059FE00210420FDF755FE00210C20FDF7D1
:1033D80051FE00210F20FDF74DFE00212020FDF7B2
:1033E80049FE00212120FDF745FE21210720FDF798
:1033F80041FE142003F060F861210720FDF73AFE32
:10340800142003F059F840F273110720FDF732FE3B
:10341800142003F051F811E645F2103293427FF47C
:103428000DAEED20FDF7CEFD0120FDF7DDFDFE2000
:10343800FDF7DAFDEE20FDF7C5FDDE20FDF7D4FD32
:103448002120FDF7D1FDF120FDF7BCFD0120FDF79E
:10345800CBFDDF20FDF7B6FD1020FDF7C5FDC4202C
:10346800FDF7B0FD8F20FDF7BFFDC620FDF7AAFDD3
:103478000020FDF7B9FDE220FDF7B6FDE220FDF7DB
:10348800B3FDE220FDF7B0FDBF20FDF79BFDAA20AC
:10349800FDF7AAFDB020FDF795FD0D20FDF7A4FD71
:1034A8000020FDF7A1FD0D20FDF79EFD0020FDF792
:1034B8009BFD1120FDF798FD0020FDF795FD1920D3
:1034C800FDF792FD0020FDF78FFD2120FDF78CFD13
:1034D8000020FDF789FD2D20FDF786FD0020FDF772
:1034E80083FD3D20FDF780FD0020FDF77DFD5D207B
:1034F800FDF77AFD0020FDF777FD5D20FDF774FDEF
:103508000020FDF771FDB120FDF75CFD8020FDF77F
:103518006BFD0020FDF768FD8B20FDF765FD0020A1
:10352800FDF762FD9620FDF75FFD0020FDF75CFDCD
:10353800B220FDF747FD0020FDF756FD0020FDF7FE
:1035480053FD0220FDF750FD0020FDF74DFD03203F
:10355800FDF74AFD0020FDF747FDB320FDF732FDDA
:103568000020FDF741FD0020FDF73EFD0020FDF79E
:103578003BFD0020FDF738FD0020FDF735FD00205C
:10358800FDF732FD0020FDF72FFD0020FDF72CFD93
:103598000020FDF729FD0020FDF726FD0020FDF79E
:1035A80023FD0020FDF720FD0020FDF71DFD002074
:1035B800FDF71AFD0020FDF717FD0020FDF714FDAB
:1035C8000020FDF711FD0020FDF70EFD0020FDF79E
:1035D8000BFD0020FDF708FD0020FDF705FD00208C
:1035E800FDF702FD0020FDF7FFFC0020FDF7FCFCC5
:1035F800B420FDF7E7FC8B20FDF7F6FC0020FDF773
:10360800F3FC9620FDF7F0FC0020FDF7EDFCA1206F
:10361800FDF7EAFC0020FDF7E7FCB520FDF7D2FC3A
:103628000220FDF7E1FC0020FDF7DEFC0320FDF79A
:10363800DBFC0020FDF7D8FC0420FDF7D5FC0020BA
:10364800FDF7D2FCB620FDF7BDFC0020FDF7CCFC51
:103658000020FDF7C9FCB720FDF7B4FC0020FDF7FA
:10366800C3FC0020FDF7C0FC3F20FDF7BDFC002097
:10367800FDF7BAFC5E20FDF7B7FC0020FDF7B4FCAF
:103688006420FDF7B1FC0020FDF7AEFC8C20FDF7AF
:10369800ABFC0020FDF7A8FCAC20FDF7A5FC002042
:1036A800FDF7A2FCDC20FDF79FFC0020FDF79CFC49
:1036B8007020FDF799FC0020FDF796FC9020FDF79F
:1036C80093FC0020FDF790FCEB20FDF78DFC00201B
:1036D800FDF78AFCDC20FDF787FC0020FDF784FC61
:1036E800B820FDF76FFC0020FDF77EFC0020FDF7F9
:1036F8007BFC0020FDF778FC0020FDF775FC00201E
:10370800FDF772FC0020FDF76FFC0020FDF76CFC54
:103718000020FDF769FCBA20FDF754FC2420FDF7D2
:1037280063FC0020FDF760FC0020FDF75DFC002035
:10373800FDF75AFCC120FDF745FC2020FDF754FC9D
:103748000020FDF751FC5420FDF74EFC0020FDF74A
:103758004BFCFF20FDF748FC0020FDF745FCC2208C
:10376800FDF730FC0A20FDF73FFC0020FDF73CFC8C
:103778000420FDF739FC0020FDF736FCC320FDF7D7
:1037880021FC3C20FDF730FC0020FDF72DFC3A2001
:10379800FDF72AFC0020FDF727FC3920FDF724FC63
:1037A8000020FDF721FC3720FDF71EFC0020FDF767
:1037B8001BFC3C20FDF718FC0020FDF715FC36200B
:1037C800FDF712FC0020FDF70FFC3220FDF70CFC82
:1037D8000020FDF709FC2F20FDF706FC0020FDF76F
:1037E80003FC2C20FDF700FC0020FDF7FDFB292041
:1037F800FDF7FAFB0020FDF7F7FB2620FDF7F4FBA9
:103808000020FDF7F1FB2420FDF7EEFB0020FDF77B
:10381800EBFB2420FDF7E8FB0020FDF7E5FB232068
:10382800FDF7E2FB0020FDF7DFFB3C20FDF7DCFBAA
:103838000020FDF7D9FB3620FDF7D6FB0020FDF769
:10384800D3FB3220FDF7D0FB0020FDF7CDFB2F2066
:10385800FDF7CAFB0020FDF7C7FB2C20FDF7C4FBD2
:103868000020FDF7C1FB2920FDF7BEFB0020FDF776
:10387800BBFB2620FDF7B8FB0020FDF7B5FB242095
:10388800FDF7B2FB0020FDF7AFFB2420FDF7ACFBF2
:103898000020FDF7A9FB2320FDF7A6FB0020FDF77C
:1038A800A3FBC420FDF78EFB6220FDF79DFB0020E3
:1038B800FDF79AFB0520FDF797FB0020FDF794FB29
:1038C8008420FDF791FB0020FDF78EFBF020FDF72B
:1038D8008BFB0020FDF788FB1820FDF785FB0020F7
:1038E800FDF782FBA420FDF77FFB0020FDF77CFBA2
:1038F8001820FDF779FB0020FDF776FB5020FDF737
:1039080073FB0020FDF770FB0C20FDF76DFB00201A
:10391800FDF76AFB1720FDF767FB0020FDF764FB46
:103928009520FDF761FB0020FDF75EFBF320FDF716
:103938005BFB0020FDF758FBE620FDF755FB002058
:10394800FDF752FBC520FDF73DFB3220FDF74CFB90
:103958000020FDF749FB4420FDF746FB0020FDF75A
:1039680043FB6520FDF740FB0020FDF73DFB76207B
:10397800FDF73AFB0020FDF737FB8820FDF734FB05
:103988000020FDF731FBC620FDF71CFB2020FDF7CA
:103998002BFB0020FDF728FB1720FDF725FB002057
:1039A800FDF722FB0120FDF71FFB0020FDF71CFBA4
:1039B800C720FDF707FB0020FDF716FB0020FDF7E9
:1039C80013FB0020FDF710FB0020FDF70DFBC820BE
:1039D800FDF7F8FA0020FDF707FB0020FDF704FBD0
:1039E8000020FDF701FB0020FDF7FEFAC920FDF7D6
:1039F800E9FA0020FDF7F8FA0020FDF7F5FA0020B3
:103A0800FDF7F2FA0020FDF7EFFA0020FDF7ECFAD7
:103A18000020FDF7E9FA0020FDF7E6FA0020FDF79F
:103A2800E3FA0020FDF7E0FA0020FDF7DDFA0020B8
:103A3800FDF7DAFA0020FDF7D7FA0020FDF7D4FAEF
:103A48000020FDF7D1FA0020FDF7CEFA0020FDF79F
:103A5800CBFAE020FDF7B6FA1620FDF7C5FA0020EC
:103A6800FDF7C2FA1C20FDF7BFFA0020FDF7BCFAEB
:103A78002120FDF7B9FA0020FDF7B6FA3620FDF748
:103A8800B3FA0020FDF7B0FA4620FDF7ADFA0020A2
:103A9800FDF7AAFA5220FDF7A7FA0020FDF7A4FACD
:103AA8006420FDF7A1FA0020FDF79EFA7A20FDF7C1
:103AB8009BFA0020FDF798FA8B20FDF795FA002075
:103AC800FDF792FA9920FDF78FFA0020FDF78CFA9E
:103AD800A820FDF789FA0020FDF786FAB920FDF73E
:103AE80083FA0020FDF780FAC420FDF77DFA002054
:103AF800FDF77AFACA20FDF777FA0020FDF774FA85
:103B0800D220FDF771FA0020FDF76EFAD920FDF7F3
:103B18006BFA0020FDF768FAE020FDF765FA00204F
:103B2800FDF762FAF320FDF75FFA0020FDF75CFA73
:103B3800E120FDF747FA1620FDF756FA0020FDF7B9
:103B480053FA1C20FDF750FA0020FDF74DFA222009
:103B5800FDF74AFA0020FDF747FA3620FDF744FA48
:103B68000020FDF741FA4520FDF73EFA0020FDF759
:103B78003BFA5220FDF738FA0020FDF735FA6420A9
:103B8800FDF732FA0020FDF72FFA7A20FDF72CFA1C
:103B98000020FDF729FA8B20FDF726FA0020FDF713
:103BA80023FA9920FDF720FA0020FDF71DFAA82036
:103BB800FDF71AFA0020FDF717FAB920FDF714FAF5
:103BC8000020FDF711FAC420FDF70EFA0020FDF7DA
:103BD8000BFACA20FDF708FA0020FDF705FAD220F3
:103BE800FDF702FA0020FDF7FFF9D820FDF7FCF9F0
:103BF8000020FDF7F9F9E020FDF7F6F90020FDF7C0
:103C0800F3F9F320FDF7F0F90020FDF7EDF9E220D4
:103C1800FDF7D8F90520FDF7E7F90020FDF7E4F9ED
:103C28000B20FDF7E1F90020FDF7DEF91B20FDF779
:103C3800DBF90020FDF7D8F93420FDF7D5F900208D
:103C4800FDF7D2F94420FDF7CFF90020FDF7CCF9B4
:103C58004F20FDF7C9F90020FDF7C6F96120FDF7EF
:103C6800C3F90020FDF7C0F97920FDF7BDF9002060
:103C7800FDF7BAF98820FDF7B7F90020FDF7B4F988
:103C88009720FDF7B1F90020FDF7AEF9A620FDF762
:103C9800ABF90020FDF7A8F9B720FDF7A5F900203A
:103CA800FDF7A2F9C220FDF79FF90020FDF79CF966
:103CB800C720FDF799F90020FDF796F9D120FDF707
:103CC80093F90020FDF790F9D620FDF78DF9002033
:103CD800FDF78AF9DD20FDF787F90020FDF784F963
:103CE800F320FDF781F90020FDF77EF9E320FDF7C9
:103CF80069F90520FDF778F90020FDF775F90A2024
:103D0800FDF772F90020FDF76FF91C20FDF76CF93B
:103D18000020FDF769F93320FDF766F90020FDF76B
:103D280063F94420FDF760F90020FDF75DF95020A4
:103D3800FDF75AF90020FDF757F96220FDF754F90D
:103D48000020FDF751F97820FDF74EF90020FDF726
:103D58004BF98820FDF748F90020FDF745F9972031
:103D6800FDF742F90020FDF73FF9A620FDF73CF9E1
:103D78000020FDF739F9B720FDF736F90020FDF7E7
:103D880033F9C220FDF730F90020FDF72DF9C720DF
:103D9800FDF72AF90020FDF727F9D120FDF724F9CE
:103DA8000020FDF721F9D520FDF71EF90020FDF7C9
:103DB8001BF9DD20FDF718F90020FDF715F9F320B0
:103DC800FDF712F90020FDF70FF9E420FDF7FAF8E6
:103DD8000120FDF709F90020FDF706F90120FDF79C
:103DE80003F90020FDF700F90220FDF7FDF8002097
:103DF800FDF7FAF82A20FDF7F7F80020FDF7F4F8A8
:103E08003C20FDF7F1F80020FDF7EEF84B20FDF718
:103E1800EBF80020FDF7E8F85D20FDF7E5F8002055
:103E2800FDF7E2F87420FDF7DFF80020FDF7DCF875
:103E38008420FDF7D9F80020FDF7D6F89320FDF788
:103E4800D3F80020FDF7D0F8A220FDF7CDF8002028
:103E5800FDF7CAF8B320FDF7C7F80020FDF7C4F84E
:103E6800BE20FDF7C1F80020FDF7BEF8C420FDF71D
:103E7800BBF80020FDF7B8F8CD20FDF7B5F8002015
:103E8800FDF7B2F8D320FDF7AFF80020FDF7ACF846
:103E9800DD20FDF7A9F80020FDF7A6F8F320FDF7CF
:103EA800A3F80020FDF7A0F8E520FDF78BF8002027
:103EB800FDF79AF80020FDF797F80020FDF794F831
:103EC8000020FDF791F80220FDF78EF80020FDF79D
:103ED8008BF82920FDF788F80020FDF785F83C20AD
:103EE800FDF782F80020FDF77FF84B20FDF77CF8FE
:103EF8000020FDF779F85D20FDF776F80020FDF742
:103F080073F87420FDF770F80020FDF76DF8842031
:103F1800FDF76AF80020FDF767F89320FDF764F8CD
:103F28000020FDF761F8A220FDF75EF80020FDF7FC
:103F38005BF8B320FDF758F80020FDF755F8BE20D0
:103F4800FDF752F80020FDF74FF8C420FDF74CF8B4
:103F58000020FDF749F8CD20FDF746F80020FDF7D1
:103F680043F8D320FDF740F80020FDF73DF8DC20AA
:103F7800FDF73AF80020FDF737F8F320FDF734F89D
:103F88000020FDF731F8E620FDF71CF81120FDF7B9
:103F98002BF80020FDF728F83420FDF725F800203D
:103FA800FDF722F85620FDF71FF80020FDF71CF852
:103FB8007620FDF719F80020FDF716F87720FDF7B1
:103FC80013F80020FDF710F86620FDF70DF8002023
:103FD800FDF70AF88820FDF707F80020FDF704F838
:103FE8009920FDF701F80020FCF7FEFFBB20FCF745
:103FF800FBFF0020FCF7F8FF9920FCF7F5FF0020F5
:10400800FCF7F2FF6620FCF7EFFF0020FCF7ECFF5F
:104018005520FCF7E9FF0020FCF7E6FF5520FCF7E8
:10402800E3FF0020FCF7E0FF4520FCF7DDFF002060
:10403800FCF7DAFF4320FCF7D7FF0020FCF7D4FF9A
:104048004420FCF7D1FF0020FCF7CEFFE720FCF767
:10405800B9FF3220FCF7C8FF0020FCF7C5FF552048
:10406800FCF7C2FF0020FCF7BFFF7620FCF7BCFF7F
:104078000020FCF7B9FF6620FCF7B6FF0020FCF72C
:10408800B3FF6720FCF7B0FF0020FCF7ADFF672007
:10409800FCF7AAFF0020FCF7A7FF8720FCF7A4FF86
:1040A8000020FCF7A1FF9920FCF79EFF0020FCF7F9
:1040B8009BFFBB20FCF798FF0020FCF795FF992099
:1040C800FCF792FF0020FCF78FFF7720FCF78CFFAE
:1040D8000020FCF789FF4420FCF786FF0020FCF74E
:1040E80083FF5620FCF780FF0020FCF77DFF23208C
:1040F800FCF77AFF0020FCF777FF3320FCF774FF0A
:104108000020FCF771FF4520FCF76EFF0020FCF74C
:104118006BFFE820FCF756FF0020FCF765FF002046
:10412800FCF762FF9920FCF75FFF0020FCF75CFFBB
:104138008720FCF759FF0020FCF756FF8820FCF782
:1041480053FF0020FCF750FF7720FCF74DFF0020BD
:10415800FCF74AFF6620FCF747FF0020FCF744FF06
:104168008820FCF741FF0020FCF73EFFAA20FCF75F
:104178003BFF0020FCF738FFBB20FCF735FF002091
:10418800FCF732FF9920FCF72FFF0020FCF72CFFEB
:104198006620FCF729FF0020FCF726FF5520FCF7D6
:1041A80023FF0020FCF720FF5520FCF71DFF00200F
:1041B800FCF71AFF4420FCF717FF0020FCF714FF58
:1041C8004420FCF711FF0020FCF70EFF5520FCF7F8
:1041D8000BFF0020FCF708FFE920FCF7F3FEAA20FC
:1041E800FCF702FF0020FCF7FFFE0020FCF7FCFEB6
:1041F8000020FCF7F9FE0020FCF7E4FEAA20FCF7FB
:10420800F3FECF20FCF7DEFE0020FCF7EDFE0020D9
:10421800FCF7EAFE0020FCF7E7FE0020FCF7E4FECE
:104228000020FCF7E1FE0020FCF7DEFE0020FCF792
:10423800DBFE0020FCF7D8FE0020FCF7D5FE0020AE
:10424800FCF7D2FE0020FCF7CFFE0020FCF7CCFEE6
:104258000020FCF7C9FE0020FCF7C6FE0020FCF792
:10426800C3FE0020FCF7C0FE0020FCF7BDFEF020D6
:10427800FCF7A8FE0020FCF7B7FE5020FCF7B4FEC0
:104288000020FCF7B1FE0020FCF7AEFE0020FCF792
:10429800ABFEF320FCF796FE0020FCF7A5FEF92004
:1042A800FCF790FE0620FCF79FFE1020FCF79CFE12
:1042B8002920FCF799FE0020FCF796FE3A20FCF72F
:1042C80081FE5520FCF790FE1120FCF77BFE642050
:1042D80002F0F2F82920FCF775FE3520FCF772FE93
:1042E8000020FCF781FE5120FCF76CFEFF20FCF754
:1042F8007BFE5320FCF766FE2C20FCF775FE55204C
:10430800FCF760FE8220FCF76FFE2C20FCF75AFEBB
:10431800FEF794BE49F23132934200F2F28049F23C
:10432800203293422CD3A3F51343203B112B3EF6A6
:1043380085AE01A252F823F0A94B000845300008C9
:10434800453000084530000845300008134800088B
:104358004530000845300008C149000845300008CC
:104368004530000845300008453000084530000851
:10437800453000084530000845300008034D000866
:1043880048F6891293427EF459AE01210020FCF7C9
:1043980071FE4AF6A4010320FCF76CFE00210C20F4
:1043A800FCF768FE40F60C010D20FCF763FE4FF4A5
:1043B8002C510E20FCF75EFEB0211E20FCF75AFEA1
:1043C80042F63F310120FCF755FE4FF4C061022050
:1043D800FCF750FE00211020FCF74CFE46F2780155
:1043E8001120FCF747FE00210520FCF743FE0021C1
:1043F8000620FCF73FFE4EF61C711620FCF73AFE2D
:1044080003211720FCF736FE40F233210720FCF782
:1044180031FE00210B20FCF72DFE00210F20FCF7B8
:1044280029FE00214120FCF725FE00214220FCF74F
:1044380021FE00214820FCF71DFE40F23F114920D3
:10444800FCF718FE00214A20FCF714FE00214B203F
:10445800FCF710FE4FF46F414420FCF70BFE0021DF
:104468004520FCF707FE40F23F114620FCF702FE0C
:1044780040F207713020FCF7FDFD4FF40171312047
:10448800FCF7F8FD4FF401713220FCF7F3FD40F220
:1044980002513320FCF7EEFD40F207513420FCF7BF
:1044A800E9FD4FF401713520FCF7E4FD4FF401718B
:1044B8003620FCF7DFFD40F202513720FCF7DAFD29
:1044C80040F202313A20FCF7D5FD40F202313B20A0
:1044D800FCF7D0FD00212320FCF7CCFD002124208F
:1044E800FCF7C8FD4FF400412520FCF7C3FD00216F
:1044F8004F20FCF7BFFD00214E20FCF7BBFDFEF767
:104508009DBD4BF20552934200F07D854CF2055259
:1045180093427EF493AD00210846FCF7ABFD0021E1
:104528000846FCF7A7FD142001F0C6FF0021084645
:10453800FCF7A0FD00210846FCF79CFD0021084679
:10454800FCF798FD00210846FCF794FD0121A42002
:10455800FCF790FD142001F0AFFF4FF41C516020D0
:10456800FCF788FD40F606010820FCF783FD40F2C1
:1045780003713020FCF77EFD01213120FCF77AFD24
:1045880004213220FCF776FD4FF481713320FCF7CB
:1045980071FD4FF440713420FCF76CFD40F20311BB
:1045A8003520FCF767FD1F213620FCF763FD40F23C
:1045B80003713720FCF75EFD01213820FCF75AFD16
:1045C80004213920FCF756FD15219020FCF752FDF7
:1045D8004FF482611020FCF74DFD40F24721112075
:1045E800FCF748FD4FF4DE711220FCF743FD4FF451
:1045F80060611320FCF73EFD782001F05DFF4FF469
:1046080080710120FCF736FD4FF400710220FCF7A1
:1046180031FD41F230010320FCF72CFD08210A206E
:10462800FCF728FD00210C20FCF724FD20210E209A
:10463800FCF720FD00210F20FCF71CFD00212020A5
:10464800FCF718FD00212120FCF714FD3D212A204C
:10465800FCF710FD142001F02FFF2D212920FCF775
:1046680009FD00215020FCF705FD4DF2EF01512016
:10467800FCF700FD00215220FCF7FCFC40F23F1142
:104688005320FCF7F7FC00216120FCF7F3FC002124
:104698006A20FCF7EFFC4FF440719220FCF7EAFC2B
:1046A80005219320FCF7E6FC4FF480710720FCF706
:1046B800E1FCFEF7C3BC1120FCF784FC142001F0D8
:1046C800FBFED020FCF77EFC0720FCF78DFC422087
:1046D800FCF78AFC1D20FCF787FCD120FCF772FC54
:1046E8000020FCF781FC1A20FCF77EFC0920FCF76F
:1046F8007BFCD220FCF766FC0120FCF775FC22202D
:10470800FCF772FCC020FCF75DFC1020FCF76CFC89
:104718003B20FCF769FC0020FCF766FC0220FCF754
:1047280063FC1120FCF760FCC520FCF74BFC032060
:10473800FCF75AFCC820FCF745FC0020FCF754FCA9
:104748002520FCF751FC2120FCF74EFC0520FCF746
:104758004BFC0020FCF748FC0A20FCF745FC6520D0
:10476800FCF742FC2520FCF73FFC7720FCF73CFCDB
:104778005020FCF739FC0F20FCF736FC0020FCF732
:1047880033FCF820FCF71EFC0120FCF72DFCFE2072
:10479800FCF718FC0020FCF727FC0220FCF724FC9F
:1047A8002020FCF70FFC3620FCF70CFC0820FCF757
:1047B8001BFC3A20FCF706FC5520FCF715FC2B20C7
:1047C800FCF700FC0020FCF70FFC0020FCF70CFCB9
:1047D8000120FCF709FC3F20FCF706FC2A20FCF727
:1047E800F1FB0020FCF700FC0020FCF7FDFB01209A
:1047F800FCF7FAFBDF20FCF7F7FB782001F05CFE02
:104808002920FCF7DFFBFEF719BC47F6F001E5208D
:10481800FCF730FC4FF480710120FCF72BFC4FF4BF
:10482800E0610220FCF726FC41F230010320FCF78E
:1048380021FC00210420FCF71DFC40F20221082085
:10484800FCF718FC00210920FCF714FC00210A20C1
:10485800FCF710FC00210C20FCF70CFC00210D20BB
:10486800FCF708FC00210F20FCF704FC00211020B5
:10487800FCF700FC07211120FCF7FCFB00211220AB
:10488800FCF7F8FB00211320FCF7F4FB00210720BC
:10489800FCF7F0FB41F290611020FCF7EBFB40F2D3
:1048A80027211120FCF7E6FB9D211220FCF7E2FBF3
:1048B8004FF4C8511320FCF7DDFB25212920FCF714
:1048C800D9FB0D212B20FCF7D5FB07213020FCF765
:1048D800D1FB40F203313120FCF7CCFB032132201D
:1048E800FCF7C8FB40F206213520FCF7C3FB082182
:1048F8003620FCF7BFFB40F206413720FCF7BAFB35
:104908004FF441713820FCF7B5FB07213920FCF73B
:10491800B1FB40F202613C20FCF7ACFB08213D20D2
:10492800FCF7A8FB00215020FCF7A4FBEF21512045
:10493800FCF7A0FB00215220FCF79CFB40F23F1142
:104948005320FCF797FB4FF427416020FCF792FBBC
:1049580001216120FCF78EFB00216A20FCF78AFB0D
:1049680000218020FCF786FB00218120FCF782FBD8
:1049780000218220FCF77EFB00218320FCF77AFBD4
:1049880000218420FCF776FB00218520FCF772FBD0
:1049980010219020FCF76EFB4FF4C0619220FCF7C9
:1049A80069FB40F233110720FCF764FB2221002049
:1049B800FCF760FBFEF742BB41F28F01EC20FCF7ED
:1049C80059FB41F23421EF20FCF754FB4FF480717E
:1049D8000120FCF74FFB4FF4E0610220FCF74AFB93
:1049E80041F230010320FCF745FB00210420FCF7CD
:1049F80041FB40F202210820FCF73CFB0021092082
:104A0800FCF738FB00210A20FCF734FB01210C20BD
:104A1800FCF730FB00210D20FCF72CFB00210F20B8
:104A2800FCF728FB00211020FCF724FB07211120AC
:104A3800FCF720FB00211220FCF71CFB00211320AF
:104A4800FCF718FB01210720FCF714FB322001F0CA
:104A580033FD41F290411020FCF70CFB40F2272176
:104A68001120FCF707FB322001F026FD8A211220D5
:104A7800FCF700FB322001F01FFD4FF4D05113204A
:104A8800FCF7F8FA06212920FCF7F4FA0D212B206F
:104A9800FCF7F0FA322001F00FFD00212020FCF78E
:104AA800E9FA00212120FCF7E5FA322001F004FDA3
:104AB80000213020FCF7DEFA40F204613120FCF7D7
:104AC800D9FA40F205313220FCF7D4FA002135201A
:104AD800FCF7D0FA40F609413620FCF7CBFA4FF440
:104AE80001713720FCF7C6FA40F201313820FCF793
:104AF800C1FA40F207713920FCF7BCFA00213C20CA
:104B0800FCF7B8FA40F60A213D20FCF7B3FA322048
:104B180001F0D2FC00215020FCF7ACFAEF21512023
:104B2800FCF7A8FA00215220FCF7A4FA40F23F1142
:104B38005320FCF79FFA4FF427416020FCF79AFABC
:104B480001216120FCF796FA00216A20FCF792FA0D
:104B580000218020FCF78EFA00218120FCF78AFAD8
:104B680000218220FCF786FA00218320FCF782FAD4
:104B780000218420FCF77EFA00218520FCF77AFAD0
:104B880010219020FCF776FA4FF4C0619220FCF7D0
:104B980071FA40F233110720FCF76CFAFEF74EBAAF
:104BA80000210846FCF766FA4FF480710120FCF7F3
:104BB80061FA4FF4E0610220FCF75CFA41F230013F
:104BC8000320FCF757FA00210420FCF753FA40F2BF
:104BD80002210820FCF74EFA00210920FCF74AFAC6
:104BE80000210A20FCF746FA01210C20FCF742FAC2
:104BF80000210D20FCF73EFA00210F20FCF73AFABD
:104C0800322001F059FC40F201110720FCF732FA7A
:104C1800322001F051FC4FF486511020FCF72AFA9B
:104C280007211120FCF726FA4FF488711220FCF7AF
:104C380021FA4FF430611320FCF71CFA00212920D7
:104C4800FCF718FA44F210012B20FCF713FA0021A4
:104C58005020FCF70FFAEF215120FCF70BFA002146
:104C68005220FCF707FA40F23F115320FCF702FAF2
:104C78004FF41C516020FCF7FDF901216120FCF77D
:104C8800F9F900216A20FCF7F5F900218020FCF7EA
:104C9800F1F900218120FCF7EDF900218220FCF7D1
:104CA800E9F900218320FCF7E5F900218420FCF7CD
:104CB800E1F900218520FCF7DDF910219020FCF7AF
:104CC800D9F900219220FCF7D5F901219320FCF7AE
:104CD800D1F94FF488719520FCF7CCF90021972081
:104CE800FCF7C8F900219820FCF7C4F940F27311C9
:104CF8000720FCF7BFF9FEF7A1B941F21401E7203C
:104D0800FCF7B8F94FF480710120FCF7B3F94FF4C0
:104D180000710220FCF7AEF941F238010320FCF7DC
:104D2800A9F940F202210820FCF7A4F90021092082
:104D3800FCF7A0F900210A20FCF79CF900210C20BF
:104D4800FCF798F900210D20FCF794F900210F20B9
:104D5800FCF790F900211020FCF78CF907211120AD
:104D6800FCF788F900211220FCF784F900211320B0
:104D7800FCF780F9C82001F09FFB41F290611020F8
:104D8800FCF778F940F227211120FCF773F932205B
:104D980001F092FB0C211220FCF76CF9322001F093
:104DA8008BFB4FF400611320FCF764F911212920D3
:104DB800FCF760F90B212B20FCF75CF9322001F09D
:104DC8007BFB00212020FCF755F940F23F11212000
:104DD800FCF750F900213020FCF74CF94FF48371AF
:104DE8003120FCF747F900213220FCF743F94FF452
:104DF80001713520FCF73EF941F20A613620FCF7D3
:104E080039F940F207713720FCF734F94FF4837110
:104E18003820FCF72FF940F207713920FCF72AF9FE
:104E280040F202413C20FCF725F940F60F413D20B5
:104E3800FCF720F900215020FCF71CF9EF21512044
:104E4800FCF718F900215220FCF714F940F23F1141
:104E58005320FCF70FF94FF41C516020FCF70AF9B6
:104E680001216120FCF706F900216A20FCF702F90C
:104E780000218020FCF7FEF800218120FCF7FAF8D9
:104E880000218220FCF7F6F800218320FCF7F2F8D5
:104E980000218420FCF7EEF800218520FCF7EAF8D1
:104EA80010219020FCF7E6F84FF4C0619220FCF73F
:104EB800E1F840F233110720FCF7DCF8FEF7BEB842
:104EC8004FF480710120FCF7D5F84FF4E06102201F
:104ED800FCF7D0F841F230010320FCF7CBF80021B1
:104EE8000420FCF7C7F840F207210820FCF7C2F8B5
:104EF80000210920FCF7BEF800210A20FCF7BAF8C7
:104F080000210C20FCF7B6F800210D20FCF7B2F8C0
:104F180000210F20FCF7AEF8142001F0CDFA41F281
:104F2800B0611020FCF7A6F801211120FCF7A2F8C7
:104F380001211720FCF79EF84FF49C711220FCF712
:104F480099F84FF400611320FCF794F809212920FF
:104F5800FCF790F809212A20FCF78CF80021A420FE
:104F6800FCF788F800215020FCF784F8EF21512045
:104F7800FCF780F800215220FCF77CF840F23F1142
:104F88005320FCF777F84FF41C516020FCF772F8B7
:104F980001216120FCF76EF800216A20FCF76AF80D
:104FA80000218020FCF766F800218120FCF762F8D8
:104FB80000218220FCF75EF800218320FCF75AF8D4
:104FC80000218420FCF756F800218520FCF752F8D0
:104FD80013219020FCF74EF800219220FCF74AF8A4
:104FE80003219320FCF746F84FF488719520FCF7CD
:104FF80041F840F273110720FCF73CF8322001F029
:105008005BFAFEF71BB800210846FCF733F80021CD
:105018000846FCF72FF800210846FCF72BF800217A
:105028000846FCF727F80121A420FCF723F81420F0
:1050380001F042FA4FF41C516020FCF71BF840F2D3
:1050480002210820FCF716F84FF405713020FCF710
:1050580011F843F215713120FCF70CF840F20461A5
:105068003220FCF707F840F616613320FCF702F807
:1050780042F211213420FBF7FDFF4FF4A8513520EF
:10508800FBF7F8FF48F207513620FBF7F3FF41F230
:1050980007413720FBF7EEFF41F203413820FBF7C9
:1050A800E9FF20213920FBF7E5FF1A219020FBF7C3
:1050B800E1FF00211020FBF7DDFF07211120FBF79E
:1050C800D9FF00211220FBF7D5FF00211320FBF7A1
:1050D800D1FF142001F0F0F94FF4E6611020FBF73E
:1050E800C9FF40F237111120FBF7C4FF142001F06B
:1050F800E3F94FF4DC711220FBF7BCFF142001F038
:10510800DBF94FF470611320FBF7B4FF80212A20EC
:10511800FBF7B0FF48212920FBF7ACFF142001F072
:10512800CBF94FF480710120FBF7A4FF4FF4E06145
:105138000220FBF79FFF41F238010320FBF79AFF9B
:1051480040F202210820FBF795FF00210A20FBF717
:1051580091FF00210C20FBF78DFF00210D20FBF7AC
:1051680089FF30210E20FBF785FF00215020FBF737
:1051780081FFEF215120FBF77DFF00215220FBF733
:1051880079FF40F23F115320FBF774FF4FF41C5195
:105198006020FBF76FFF01216120FBF76BFF002107
:1051A8006A20FBF767FF11219020FBF763FF4FF49C
:1051B800C0619220FBF75EFF40F202419320FBF7AB
:1051C80059FF02219420FBF755FF142001F074F9D0
:1051D80001210720FBF74EFF142001F06DF9612132
:1051E8000720FBF747FF40F273110720FBF742FF48
:1051F80000212020FBF73EFF00212120FBF73AFF8A
:1052080022210020FBF736FFFDF718BF30211520BB
:10521800FBF730FF10219A20FBF72CFF20211120EB
:10522800FBF728FF43F228411020FBF723FF022158
:105238001220FBF71FFF41F238011320FBF71AFF7A
:10524800282001F039F912210846FBF713FF28201E
:1052580001F032F943F220411020FBF70BFF43F233
:1052680038011320FBF706FF462001F025F900213D
:105278003020FBF7FFFE40F202413120FBF7FAFE37
:1052880040F207313220FBF7F5FE4FF4417133202D
:10529800FBF7F0FE04213420FBF7ECFE40F201415D
:1052A8003520FBF7E7FE40F207713620FBF7E2FEF8
:1052B80040F205313720FBF7DDFE4FF4C26138209C
:1052C800FBF7D8FE4FF4C2613920FBF7D3FE4FF449
:1052D80080710120FBF7CEFE4FF440710220FBF7EE
:1052E800C9FE41F230010320FBF7C4FE40F6080175
:1052F8000820FBF7BFFE08210A20FBF7BBFE4FF48E
:105308001C516020FBF7B6FE01216120FBF7B2FEBD
:105318004FF49F719020FBF7ADFE4FF480719220FF
:10532800FBF7A8FE4FF480719320FBF7A3FE4FF420
:105338004051A020FBF79EFE1021A320FBF79AFE08
:1053480001210720FBF796FE21210720FBF792FE9B
:1053580023210720FBF78EFE33210720FBF78AFE67
:1053680040F233110720FBF785FEFDF767BEE22008
:10537800FBF728FEAD4C4FF48078C4F810804FF44A
:1053880000756561AA4F1D23FB6080266661266152
:105398002561C4F8108065610223FB60666126619F
:1053A8002561C4F8108065610422FA60666126618F
:1053B8002561012001F080F8E020FBF703FEC4F826
:1053C800108065614FF0010AC7F80CA0666126617C
:1053D80025610A2001F070F8E020FBF7F3FDC4F81E
:1053E800108065614FF0030BC7F80CB06661266149
:1053F80025610C2001F060F85046FBF7E3FD0A2018
:1054080001F05AF8E620FBF7DDFDC4F8108065616D
:105418002F23FB60666126612561C4F810806561F1
:10542800FF23FB60666126612561C4F81080656111
:10543800FB60666126612561B020FBF7C3FDC4F8F7
:10544800108065612023FB60666126612561C4F8D0
:10545800108065614FF00009C7F80C9066612661FD
:105468002561C4F810806561C7F80CB066612661D3
:105478002561C4F81080656140F21F33FB606661E6
:1054880026612561C4F810806561C7F80CA06661C3
:1054980026612561C4F81080656140F2DF13FB6066
:1054A800666126612561C4F810806561C7F80C90B3
:1054B800666126612561B420FBF784FDC4F810807D
:1054C80065610422FA60666126612561C4F810806E
:1054D800656140F21F43FB60666126612561C4F87F
:1054E80010806561C7F80C90666126612561C4F873
:1054F800108065612E23FB60666126612561C4F812
:1055080010806561C7F80C90666126612561C4F852
:1055180010806561C7F80C90666126612561C4F842
:1055280010806561C7F80C90666126612561C4F832
:1055380010806561C7F80C90666126612561B62008
:10554800FBF740FDC4F8108065610223FB606661CB
:1055580026612561C4F8108065614FF40373FB6010
:10556800666126612561C4F810806561C7F80C90F2
:10557800666126612561C4F8108065611723FB60A8
:10558800666126612561C4F8108065611523FB609A
:10559800666126612561C4F810806561C7F80C90C2
:1055A800666126612561C4F810806561C7F80C90B2
:1055B800666126612561F020FBF704FDC4F81080C0
:1055C8006561C7F80CB06661266125612920FBF783
:1055D800F9FCD020FBF7F6FCC4F810806561C7F829
:1055E8000C90666126612561BE20FBF7EBFCC4F8D0
:1055F800108065610523FB60666126612561C4F83A
:1056080010806561FE23FB60666126612561C4F830
:1056180010806561C7F80CA0666126612561C4F831
:1056280010806561C7F80C9004E000BF00100140CD
:10563800000C0140666126612561C4F8108065612F
:10564800C7F80C90666126612561C4F81080656111
:10565800C7F80C90666126612561B820FBF7B2FC9B
:10566800C4F810806561C7F80CB0666126612561D1
:10567800C4F810806561C7F80CA0666126612561D1
:10568800BA20FBF79FFCC4F810806561C7F80CA02E
:105698006661266125616420FCF7EEF9FDF7CEBC52
:1056A8002DE9F04F83B0824688461F469DF830B0FA
:1056B80013F0070318BF012303EBD703790801FB95
:1056C80003F3DBB20093203AD3B2019344464FF080
:1056D80000093FE0019B03EB4302294B03EB8203E4
:1056E80013F8095047E0274B019A03EB021313F80C
:1056F800095040E0244B1A8821465046FCF71EF812
:105708006D00EDB20134A4B2204B5B88A34234D9BA
:10571800A4EB0803BB4210D00136F6B2072E15D809
:1057280015F0800FE6D1BBF1000FE9D1184B1A88AC
:1057380021465046FCF702F8E2E70AF1010A1FFA8F
:105748008AFA124B1B88534517D9444609F10109B7
:105758005FFA89F9009B99450FD20C2FBAD0102F08
:10576800C1D0182F09D1019B03EBC302094B03EBEE
:10577800820313F809500026D0E703B0BDE8F08F84
:1057880080C20008F4C60008480700204C07002023
:1057980000000020E4CC00082DE9F04782B08246E2
:1057A8000D469DF828700B9E02441FFA82F90B449F
:1057B8001FFA83F804460CE0454517D200230093EE
:1057C8003B4629462046FFF76BFF04EB5704A4B27B
:1057D80001363278A2F12003DBB25E2B06D84C45A5
:1057E800EAD35FFA8AF43D44ADB2E5E702B0BDE81A
:1057F800F08700002DE9F84F8246884616469B46FA
:10580800DDF828900C46002725E00134A4B2154B9A
:105818005B88A34223D9A4EB08039E4210D001352C
:10582800EDB2B54215D206FB075319F90330002B28
:10583800EBDA0D4B1A8821465046FBF77FFFE4E769
:105848000AF1010A1FFA8AFA064B1B88534506D942
:1058580044460137FFB25F4501D20025E1E7BDE8C4
:10586800F88F00BF4C0700204807002010B582B011
:10587800024C0094FFF7BEFF02B010BD5CE60008C2
:1058880010B582B0024C0094FFF7B4FF02B010BD0F
:1058980040DA000830B5ADF2244D384B1B685BBBCD
:1058A800374A0DF20C443749204602F06FFA01944A
:1058B80018230093C8220A210846FFF76DFF2F4BD3
:1058C8001B68DBB9304C314A3149204602F05EFA98
:1058D80001940C2400941823C8223C210A20FFF7C5
:1058E8005BFF2C4B019300941823C82278210A20CF
:1058F800FFF752FF00243AE0274AD2E7274C234A11
:105908002349204602F042FA01940C2400941823FB
:10591800C8223C210A20FFF73FFF1E4B0193009449
:105928001823C82278210A20FFF736FF0DEB04055B
:105938001B4A1C49284602F029FA019500941823AD
:10594800C82264210A20FFF727FFD3E7164B53F834
:10595800242004EB840399008C3189B201920C2332
:1059680000931823C8220A20FFF716FF01340F4BB3
:105978001B68A342EADC0DF2244D30BD741F0020E1
:1059880090EE0008A0EE000864070020701B0020BD
:10599800B0EE0008BCEE000898EE00086C1300207A
:1059A800640F0020C4EE0008781F0020782F002024
:1059B80072B6FEE700B597B0282200210CA802F0C5
:1059C80048FA00230793089309930A930B930193CA
:1059D8000293039304930593069309230C934FF4BE
:1059E80080330D9301221092129202221392149383
:1059F8004FF4E01315930CA800F03EFFC8B90F232D
:105A0800079302210891002309934FF480620A92B8
:105A18000B9307A801F062F968B9012301934FF4C9
:105A28000073029301A801F025FA30B917B05DF8A8
:105A380004FBFFF7BDFFFFF7BBFFFFF7B9FF08B592
:105A480000F016FDFCF772F9FFF7B4FFFBF72EFA2A
:105A580000F006F8FFF71EFF642000F02DFDF9E7BF
:105A680010B582B00023ADF804308DF806300093ED
:105A78002C482D4A02604FF0FF324260836001F0EB
:105A8800E7FD80BB0121274801F067FE46F2666307
:105A980098422BD017238DF8043005238DF8053054
:105AA80000238DF80630012201A91E4801F02FFCC1
:105AB80090BB02238DF8003011238DF801300723A5
:105AC8008DF8023023238DF80330012269461548EA
