:020000040800F2
:1000000000C00020A10700085D0400086304000888
:10001000690400086F04000875040008000000006F
:100020000000000000000000000000007B04000849
:100030008704000800000000930400089F040008E3
:10004000E9070008E9070008E9070008E9070008D0
:10005000E9070008E9070008E9070008E9070008C0
:10006000E9070008E9070008E9070008E9070008B0
:10007000E9070008E9070008E9070008E9070008A0
:10008000E9070008E9070008E9070008E907000890
:10009000E9070008E9070008E9070008E907000880
:1000A000E9070008E9070008E9070008E907000870
:1000B000E9070008AD040008E9070008E90700089F
:1000C000E9070008E9070008E9070008E907000850
:1000D000E9070008E1040008E9070008E90700084B
:1000E000F5040008E9070008E9070008E907000827
:1000F000E9070008E9070008E9070008E907000820
:10010000E9070008E9070008E9070008E90700080F
:10011000E9070008E9070008E9070008E9070008FF
:10012000E9070008E9070008E9070008E9070008EF
:1001300000000000000000000000000000000000BF
:1001400000000000000000000000000000000000AF
:10015000000000000000000000000000000000009F
:10016000000000000000000000000000000000008F
:10017000000000000000000000000000000000007F
:10018000000000000000000000000000000000006F
:10019000000000000000000000000000000000005F
:1001A000000000000000000000000000000000004F
:1001B000000000000000000000000000000000003F
:1001C000000000000000000000000000000000002F
:1001D000000000000000000000000000000000001F
:0401E0005FF8E0F1F3
:1001E40010B5054C237833B9044B13B10448AFF36D
:1001F40000800123237010BD5C000020000000007B
:100204004437000808B5034B1BB103490348AFF357
:10021400008008BD00000000600000204437000892
:10022400034613F8012B002AFBD1181A0138704732
:1002340080B586B000AF07F1080300221A605A6047
:100244009A60DA60184B9B69174A43F02003936164
:10025400154B9B6903F020037B607B68124B9B6901
:10026400114A43F0040393610F4B9B6903F00403A9
:100274003B603B684FF40043BB600C4BFB600123C5
:100284003B6107F108031946094800F083FD002289
:100294000121282000F005FC282000F01EFC00BFEE
:1002A4001837BD4680BD00BF001002400000211079
:1002B4000008014080B500AF094B0A4A1A60084B98
:1002C40004225A60064B40F2E2429A60044800F06D
:1002D40025FF0346002B01D000F085F800BF80BD48
:1002E400780000200030004080B59AB000AF00F0E4
:1002F4007BFA00F031F8FFF79BFF00F0D1F9FFF72C
:10030400D9FF00F059F900237B664FF0FF3309222F
:100314000E490F4801F08EFF7B6E01337B663B462E
:100324007A6E0C49184602F059FD3B461846FFF711
:1003340077FF03469AB239464FF0FF33044801F081
:1003440079FF4FF47A7000F0B1FAE5E75C37000802
:10035400D00000206837000880B590B000AF07F1E6
:10036400180328220021184602F058FD3B1D0022E4
:100374001A605A609A60DA601A610923BB614FF40B
:100384008033FB6100233B620123BB6201233B6397
:1003940002237B634FF48033BB634FF4E013FB63AE
:1003A40007F11803184600F00BFF0346002B01D099
:1003B40000F019F80F237B600223BB600023FB606D
:1003C4004FF480633B6100237B613B1D022118468F
:1003D40001F078F90346002B01D000F004F800BFC7
:1003E4004037BD4680BD80B400AF72B600BFFEE7A3
:1003F40080B584B000AF164B9B69154A43F00103E6
:100404009361134B9B6903F00103BB60BB68104B02
:10041400DB690F4A43F08053D3610D4BDB6903F072
:1004240080537B607B68052000F030FB094B5B68E0
:10043400FB60FB6823F0E063FB60FB6843F0007340
:10044400FB60044AFB68536000BF1037BD4680BDA3
:10045400001002400000014080B400AFFEE780B409
:1004640000AFFEE780B400AFFEE780B400AFFEE764
:1004740080B400AFFEE780B400AF00BFBD4680BCCF
:10048400704780B400AF00BFBD4680BC704780B4E5
:1004940000AF00BFBD4680BC704780B500AF00F020
:1004A400E9F900BF80BD000080B500AF4FF0FF3315
:1004B40014220649064801F0BDFE064801F0DFFAA1
:1004C400054800F06DFE00BF80BD00BF7437000812
:1004D400D0000020880000207800002080B500AF04
:1004E400024801F02BFF00BF80BD00BFD0000020F8
:1004F40080B500AF4FF4004000F0F8FD00BF80BDB0
:1005040080B582B000AF0346FB80FB88B3F5004F93
:100514000BD14FF40041084800F0D0FD0346002BF6
:1005240005D1064800F03CFE01E000BF00E000BF3A
:1005340000BF0837BD4680BD000801407800002098
:1005440080B586B000AF7860144A154BD31A7B612E
:100554007B693B61134B1B68002B02D1114B124A80
:100564001A60104B1A687B6813443A699A4207D29E
:1005740002F05CFC03460C221A604FF0FF3309E0E2
:10058400084B1B68FB60074B1A687B681344054AD9
:100594001360FB6818461837BD4680BD00C00020B4
:1005A40000040000840000206802002080B400AF32
:1005B40000BFBD4680BC704780B586B000AF07F170
:1005C400080300221A605A609A60DA603B460022EF
:1005D4001A605A601D4B1E4A1A601C4B41F61F429A
:1005E4005A601A4B00229A60184B42F20F72DA607A
:1005F400164B00221A61154B00229A61134801F030
:10060400EFF90346002B01D0FFF7EDFE4FF48053C2
:10061400BB6007F1080319460C4801F038FB034698
:10062400002B01D0FFF7DFFE00233B6000237B603B
:100634003B461946054801F02FFD0346002B01D027
:10064400FFF7D1FE00BF1837BD4680BD88000020EB
:100654000004004080B584B000AF78607B681B68FC
:100664000D4A934213D10D4BDB690C4A43F002034C
:10067400D3610A4BDB6903F00203FB60FB680022D1
:1006840001211D2000F00DFA1D2000F026FA00BF04
:100694001037BD4680BD00BF00040040001002407A
:1006A40080B500AF114B124A1A60104B4FF4E1327F
:1006B4005A600E4B00229A600C4B0022DA600B4BFE
:1006C40000221A61094B0C225A61084B00229A61DC
:1006D400064B0022DA61054801F05CFD0346002B5D
:1006E40001D0FFF780FE00BF80BD00BFD000002016
:1006F4000038014080B588B000AF786007F110037E
:1007040000221A605A609A60DA607B681B68204A8B
:10071400934239D11F4B9B691E4A43F48043936132
:100724001C4B9B6903F48043FB60FB68194B9B697A
:10073400184A43F004039361164B9B6903F00403C6
:10074400BB60BB684FF400733B6102237B610323EE
:10075400FB6107F1100319460F4800F01BFB4FF42F
:1007640080633B6100237B610023BB6107F11003BD
:100774001946094800F00EFB00220121252000F053
:1007840090F9252000F0A9F900BF2037BD4680BDAF
:10079400003801400010024000080140FFF706FF46
:1007A4000B480C490C4A002302E0D458C4500433CB
:1007B400C4188C42F9D3094A094C002301E01360A0
:1007C4000432A242FBD302F037FBFFF78DFD7047E2
:1007D400000000205C000020F03700085C000020CE
:1007E40064020020FEE7000080B500AF084B1B68E0
:1007F400074A43F010031360032000F047F9002078
:1008040000F008F8FFF7F4FD0023184680BD00BF90
:100814000020024080B582B000AF7860124B1A68A5
:10082400124B1B7819464FF47A73B3FBF1F3B2FB06
:10083400F3F3184600F05FF90346002B01D00123BF
:100844000EE07B680F2B0AD8002279684FF0FF3046
:1008540000F027F9064A7B681360002300E00123B7
:1008640018460837BD4680BD00000020080000205F
:100874000400002080B400AF054B1B781A46054BDA
:100884001B681344034A136000BFBD4680BC704715
:10089400080000201801002080B400AF024B1B6840
:1008A4001846BD4680BC70471801002080B584B04E
:1008B40000AF7860FFF7F0FFB8607B68FB60FB680F
:1008C400B3F1FF3F05D00A4B1B781A46FB6813446B
:1008D400FB6000BFFFF7E0FF0246BB68D31AFA686B
:1008E4009A42F7D800BF00BF1037BD4680BD00BF95
:1008F4000800002080B485B000AF78607B6803F006
:100904000703FB600C4BDB68BB60BA684FF6FF0360
:100914001340BB60FB681A02BB68134343F0BF6318
:1009240043F40033BB60044ABB68D36000BF143790
:10093400BD4680BC704700BF00ED00E080B400AF4E
:10094400044BDB681B0A03F007031846BD4680BC52
:10095400704700BF00ED00E080B483B000AF0346F1
:10096400FB7197F90730002B0BDBFB7903F01F02B7
:10097400064997F907305B09012000FA02F241F8B1
:10098400232000BF0C37BD4680BC704700E100E067
:1009940080B483B000AF03463960FB7197F9073028
:1009A400002B0ADB3B68DAB20C4997F907301201D5
:1009B400D2B20B4483F800230AE03B68DAB2084958
:1009C400FB7903F00F03043B1201D2B20B441A76F5
:1009D40000BF0C37BD4680BC704700BF00E100E09B
:1009E40000ED00E080B489B000AFF860B9607A60CF
:1009F400FB6803F00703FB61FB69C3F10703042BE6
:100A040028BF0423BB61FB690433062B02D9FB69AD
:100A1400033B00E000237B614FF0FF32BB6902FA25
:100A240003F3DA43BB681A407B699A404FF0FF3105
:100A34007B6901FA03F3D9437B680B4013431846DF
:100A44002437BD4680BC704780B582B000AF786063
:100A54007B68013BB3F1807F01D301230FE00A4A95
:100A64007B68013B53600F214FF0FF30FFF790FF8D
:100A7400054B00229A60044B07221A600023184693
:100A84000837BD4680BD00BF10E000E080B582B0ED
:100A940000AF78607868FFF72DFF00BF0837BD46C8
:100AA40080BD80B586B000AF0346B9607A60FB7341
:100AB40000237B61FFF742FF78617A68B96878693F
:100AC400FFF790FF024697F90F3011461846FFF7DB
:100AD4005FFF00BF1837BD4680BD80B582B000AF50
:100AE4000346FB7197F907301846FFF735FF00BF3F
:100AF4000837BD4680BD80B582B000AF78607868A5
:100B0400FFF7A2FF034618460837BD4680BD80B4F0
:100B140085B000AF78600023FB737B6893F82130C5
:100B2400DBB2022B08D07B6804229A637B68002224
:100B340083F82020012320E07B681B681A687B6807
:100B44001B6822F00E021A607B681B681A687B68B7
:100B54001B6822F001021A607B681A6C7B68DB6BED
:100B6400012101FA02F25A607B68012283F82120F4
:100B74007B68002283F82020FB7B18461437BD468F
:100B840080BC704780B584B000AF78600023FB73ED
:100B94007B6893F82130DBB2022B05D07B680422FA
:100BA4009A630123FB73D6E07B681B681A687B6831
:100BB4001B6822F00E021A607B681B681A687B6847
:100BC4001B6822F001021A607B681B681A46644B9A
:100BD4009A4258D97B681B68624A93424FD07B681B
:100BE4001B68614A934248D07B681B685F4A934202
:100BF40040D07B681B685E4A934238D07B681B6890
:100C04005C4A934230D07B681B685B4A934228D08D
:100C14007B681B68524A934220D07B681B68574A02
:100C2400934219D07B681B68554A934212D07B6863
:100C34001B68544A93420AD07B681B68524A934209
:100C440002D14FF480531BE04FF4803318E04FF48B
:100C5400807315E0102313E0012311E04FF080733B
:100C64000EE04FF480130BE04FF4803308E04FF4B0
:100C7400805305E04FF4807302E0102300E0012369
:100C8400424A536057E07B681B68364A93424FD010
:100C94007B681B68344A934248D07B681B68334A9C
:100CA400934240D07B681B68314A934238D07B68BA
:100CB4001B68304A934230D07B681B682E4A9342AB
:100CC40028D07B681B68264A934220D07B681B6827
:100CD4002A4A934219D07B681B68294A934212D04E
:100CE4007B681B68274A93420AD07B681B68264AA4
:100CF400934202D14FF480531BE04FF4803318E049
:100D04004FF4807315E0102313E0012311E04FF03A
:100D140080730EE04FF480130BE04FF4803308E04F
:100D24004FF4805305E04FF4807302E0102300E099
:100D34000123174A53607B68012283F821207B68D2
:100D4400002283F820207B685B6B002B03D07B6838
:100D54005B6B78689847FB7B18461037BD4680BDAF
:100D640080000240080002401C00024030000240A3
:100D740044000240580002406C0002400804024053
:100D84001C040240300402404404024000040240B7
:100D94000000024080B48BB000AF7860396000235B
:100DA4007B6200233B6279E101227B6A02FA03F34E
:100DB400FB613B681B68FA691340BB61BA69FB6954
:100DC4009A4240F068813B685B68964A93425ED0E1
:100DD400944A934275D8944A934258D0924A934283
:100DE4006FD8924A934252D0904A934269D8904A1B
:100DF40093424CD08E4A934263D88E4A934246D053
:100E04008C4A93425DD8122B2AD8122B59D801A2AE
:100E140052F823F0930E00086D0E00087F0E0008B0
:100E2400C10E0008C70E0008C70E0008C70E000850
:100E3400C70E0008C70E0008C70E0008C70E00083A
:100E4400C70E0008C70E0008C70E0008C70E00082A
:100E5400C70E0008C70E0008750E0008890E0008AA
:100E6400754A934213D02CE03B68DB683B6229E06F
:100E74003B68DB6804333B6224E03B68DB6808338F
:100E84003B621FE03B68DB680C333B621AE03B6863
:100E94009B68002B02D104233B6213E03B689B68F0
:100EA400012B05D108233B627B68FA691A6109E0CA
:100EB40008233B627B68FA695A6103E000233B62C2
:100EC40000E000BFBB69FF2B01D87B6801E07B68B1
:100ED40004337B61BB69FF2B02D87B6A9B0002E071
:100EE4007B6A083B9B003B617B691A680F213B6965
:100EF40001FA03F3DB431A40396A3B6901FA03F34D
:100F04001A437B691A603B685B6803F08053002BCB
:100F140000F0C180494B9B69484A43F00103936147
:100F2400464B9B6903F00103BB60BB68444A7B6A80
:100F34009B08023352F82330FB607B6A03F00303FF
:100F44009B000F2202FA03F3DB43FA681340FB60B1
:100F54007B683C4A93421FD07B683B4A934219D03A
:100F64007B683A4A934213D07B68394A93420DD046
:100F74007B68384A934207D07B68374A934201D151
:100F840005230AE0062308E0042306E0032304E023
:100F9400022302E0012300E000237A6A02F0030244
:100FA40092009340FA681343FB6025497B6A9B08CF
:100FB4000233FA6841F823203B685B6803F480132A
:100FC400002B06D0254B9A682449BB6913438B60D8
:100FD40006E0224B9A68BB69DB43204913408B60CF
:100FE4003B685B6803F40013002B06D01B4BDA68E4
:100FF4001A49BB691343CB6006E0184BDA68BB6936
:10100400DB4316491340CB603B685B6803F4003351
:10101400002B25D0114B5A681049BB6913434B6010
:1010240025E000BF00003210000031100000221043
:1010340000002110000012100000111000100240E6
:101044000000014000080140000C01400010014074
:101054000014014000180140001C0140000401403C
:10106400154B5A68BB69DB43134913404B603B681B
:101074005B6803F48033002B06D00F4B1A680E49CB
:10108400BB6913430B6006E00B4B1A68BB69DB4377
:10109400094913400B607B6A01337B623B681A6821
:1010A4007B6A22FA03F3002B7FF47EAE00BF00BFFD
:1010B4002C37BD4680BC70470004014080B485B025
:1010C40000AF78600B467B807B689A687B8813400E
:1010D400002B02D00123FB7301E00023FB73FB7B95
:1010E40018461437BD4680BC7047000080B582B0F6
:1010F40000AF0346FB80084B5A69FB881340002B62
:1011040006D0054AFB885361FB881846FFF7F8F9B7
:1011140000BF0837BD4680BD0004014080B584B0DF
:1011240000AF78607B68002B01D1012334E07B6839
:101134001B684CF6CC421A607B681B6845F255521A
:101144001A607B681B687A6852685A607B681B68FF
:101154007A6892689A60FFF79FFBF8600FE0FFF7E8
:101164009BFB0246FB68D31A272B08D97B681B68B4
:10117400DB6803F00303002B01D003230CE07B683E
:101184001B68DB6803F00303002BE8D17B681B6852
:101194004AF6AA221A60002318461037BD4680BDBD
:1011A40080B483B000AF78607B681B684AF6AA22DB
:1011B4001A60002318460C37BD4680BC70470000F7
:1011C40080B586B000AF78607B68002B01D1012325
:1011D40072E27B681B6803F00103002B00F0878038
:1011E400924B5B6803F00C03042B0CD08F4B5B68B1
:1011F40003F00C03082B12D18C4B5B6803F480338F
:10120400B3F5803F0BD1894B1B6803F40033002BEB
:101214006CD07B685B68002B68D101234CE27B684F
:101224005B68B3F5803F06D1804B1B687F4A43F46B
:10123400803313602EE07B685B68002B0CD17B4B02
:101244001B687A4A23F480331360784B1B68774A0F
:1012540023F4802313601DE07B685B68B3F5A02F43
:101264000CD1724B1B68714A43F4802313606F4B9B
:101274001B686E4A43F4803313600BE06B4B1B68AE
:101284006A4A23F480331360684B1B68674A23F46B
:10129400802313607B685B68002B13D0FFF7FCFA94
:1012A400386108E0FFF7F8FA02463B69D31A642B69
:1012B40001D9032300E25D4B1B6803F40033002BC8
:1012C400F0D014E0FFF7E8FA386108E0FFF7E4FA39
:1012D40002463B69D31A642B01D90323ECE1534B37
:1012E4001B6803F40033002BF0D100E000BF7B68DF
:1012F4001B6803F00203002B63D04C4B5B6803F0C4
:101304000C03002B0BD0494B5B6803F00C03082B38
:101314001CD1464B5B6803F48033002B16D1434B3E
:101324001B6803F00203002B05D07B681B69012BAB
:1013340001D00123C0E13D4B1B6823F0F8027B6818
:101344005B69DB00394913430B603AE07B681B6936
:10135400002B20D0364B01221A60FFF79DFA38612A
:1013640008E0FFF799FA02463B69D31A022B01D928
:101374000323A1E12D4B1B6803F00203002BF0D0E3
:101384002A4B1B6823F0F8027B685B69DB00274962
:1013940013430B6015E0264B00221A60FFF77CFA1A
:1013A400386108E0FFF778FA02463B69D31A022B4A
:1013B40001D9032380E11D4B1B6803F00203002BBA
:1013C400F0D17B681B6803F00803002B3AD07B68DC
:1013D4009B69002B19D0174B01221A60FFF75CFAA6
:1013E400386108E0FFF758FA02463B69D31A022B2A
:1013F40001D9032360E10D4B5B6A03F00203002B68
:10140400F0D0012000F0CEFA1CE00A4B00221A6052
:10141400FFF742FA38610FE0FFF73EFA02463B69F4
:10142400D31A022B08D9032346E100BF001002405F
:101434000000424280044242924B5B6A03F0020382
:10144400002BE9D17B681B6803F00403002B00F038
:10145400A6800023FB758B4BDB6903F08053002BC4
:101464000DD1884BDB69874A43F08053D361854BA8
:10147400DB6903F08053BB60BB680123FB75824BBF
:101484001B6803F48073002B18D17F4B1B687E4AC2
:1014940043F480731360FFF7FFF9386108E0FFF746
:1014A400FBF902463B69D31A642B01D9032303E1F8
:1014B400754B1B6803F48073002BF0D07B68DB68EA
:1014C400012B06D16F4B1B6A6E4A43F00103136272
:1014D4002DE07B68DB68002B0CD16A4B1B6A694AE0
:1014E40023F001031362674B1B6A664A23F004036B
:1014F40013621CE07B68DB68052B0CD1614B1B6A13
:10150400604A43F0040313625E4B1B6A5D4A43F076
:10151400010313620BE05B4B1B6A5A4A23F001037D
:101524001362584B1B6A574A23F0040313627B6807
:10153400DB68002B15D0FFF7AFF938610AE0FFF73D
:10154400ABF902463B69D31A41F28832934201D97E
:101554000323B1E04B4B1B6A03F00203002BEED0D4
:1015640014E0FFF799F938610AE0FFF795F90246AC
:101574003B69D31A41F28832934201D903239BE099
:10158400404B1B6A03F00203002BEED1FB7D012BC1
:1015940005D13C4BDB693B4A23F08053D3617B6824
:1015A400DB69002B00F08780364B5B6803F00C038B
:1015B400082B61D07B68DB69022B46D1334B0022B8
:1015C4001A60FFF769F9386108E0FFF765F9024628
:1015D4003B69D31A022B01D903236DE0294B1B6805
:1015E40003F00073002BF0D17B681B6AB3F5803FD6
:1015F40008D1244B5B6823F400327B689B68214943
:1016040013434B601F4B5B6823F474127B68196AA5
:101614007B685B6A0B431B4913434B601B4B0122E2
:101624001A60FFF739F9386108E0FFF735F9024627
:101634003B69D31A022B01D903233DE0114B1B68EC
:1016440003F00073002BF0D035E0104B00221A6039
:10165400FFF722F9386108E0FFF71EF902463B69FB
:10166400D31A022B01D9032326E0064B1B6803F08F
:101674000073002BF0D11EE07B68DB69012B07D1DE
:10168400012319E000100240007000406000424253
:101694000B4B5B68FB60FB6803F480327B681B6A5E
:1016A4009A4206D1FB6803F470127B685B6A9A4223
:1016B40001D0012300E0002318461837BD4680BD41
:1016C4000010024080B584B000AF786039607B6858
:1016D400002B01D10123D0E06A4B1B6803F0070300
:1016E4003A689A4210D9674B1B6823F00702654990
:1016F4003B6813430B60634B1B6803F007033A68B2
:101704009A4201D00123B8E07B681B6803F002030E
:10171400002B20D07B681B6803F00403002B05D04A
:10172400594B5B68584A43F4E06353607B681B6819
:1017340003F00803002B05D0534B5B68524A43F473
:1017440060535360504B5B6823F0F0027B689B68E6
:101754004D4913434B607B681B6803F00103002B66
:1017640040D07B685B68012B07D1474B1B6803F4AF
:101774000033002B15D101237FE07B685B68022BCB
:1017840007D1414B1B6803F00073002B09D10123DF
:1017940073E03D4B1B6803F00203002B01D10123CE
:1017A4006BE0394B5B6823F003027B685B68364966
:1017B40013434B60FFF770F8F8600AE0FFF76CF82A
:1017C4000246FB68D31A41F28832934201D90323BB
:1017D40053E02D4B5B6803F00C027B685B689B0055
:1017E4009A42EBD1274B1B6803F007033A689A42ED
:1017F40010D2244B1B6823F0070222493B68134391
:101804000B60204B1B6803F007033A689A4201D02F
:10181400012332E07B681B6803F00403002B08D02B
:10182400194B5B6823F4E0627B68DB681649134359
:101834004B607B681B6803F00803002B09D0124B34
:101844005B6823F460527B681B69DB000E49134319
:101854004B6000F021F802460B4B5B681B0903F058
:101864000F030A49CB5C22FA03F3094A1360094BBC
:101874001B681846FEF7CEFF002318461037BD46F6
:1018840080BD00BF002002400010024088370008DD
:10189400000000200400002080B487B000AF0023C3
:1018A400FB600023BB6000237B6100237B6000237B
:1018B4003B611E4B5B68FB60FB6803F00C03042B6D
:1018C40002D0082B03D027E0194B3B6127E0FB68CB
:1018D4009B0C03F00F03174AD35C7B60FB6803F493
:1018E4008033002B10D0114B5B685B0C03F00103B9
:1018F400114AD35CBB607B680D4A03FB02F2BB68F0
:10190400B2FBF3F37B6104E07B680C4A02FB03F354
:101914007B617B693B6102E0054B3B6100BF3B6936
:1019240018461C37BD4680BC704700BF00100240FB
:1019340000127A00A0370008B037000800093D0003
:1019440080B400AF024B1B681846BD4680BC70478C
:101954000000002080B500AFFFF7F2FF0246054B00
:101964005B681B0A03F007030349CB5C22FA03F309
:10197400184680BD001002409837000880B500AFBB
:10198400FFF7DEFF0246054B5B68DB0A03F0070343
:101994000349CB5C22FA03F3184680BD00100240D1
:1019A4009837000880B485B000AF78600A4B1B6894
:1019B4000A4AA2FB03235B0A7A6802FB03F3FB6077
:1019C40000BFFB685A1EFA60002BF9D100BF00BFAC
:1019D4001437BD4680BC704700000020D34D621010
:1019E40080B582B000AF78607B68002B01D1012301
:1019F40041E07B6893F83D30DBB2002B06D17B6875
:101A0400002283F83C207868FEF724FE7B680222DB
:101A140083F83D207B681A687B68043319461046B6
:101A240000F02AFA7B68012283F846207B680122B1
:101A340083F83E207B68012283F83F207B680122E3
:101A440083F840207B68012283F841207B680122CF
:101A540083F842207B68012283F843207B680122BB
:101A640083F844207B68012283F845207B680122A7
:101A740083F83D20002318460837BD4680BD80B555
:101A840082B000AF78607B681B681B6903F00203B7
:101A9400022B22D17B681B68DB6803F00203022B54
:101AA4001BD17B681B686FF002021A617B680122FC
:101AB4001A777B681B689B6903F00303002B03D030
:101AC400786800F0BDF905E0786800F0B0F978684E
:101AD40000F0BFF97B6800221A777B681B681B69DA
:101AE40003F00403042B22D17B681B68DB6803F03A
:101AF4000403042B1BD17B681B686FF004021A617A
:101B04007B6802221A777B681B689B6903F4407325
:101B1400002B03D0786800F093F905E0786800F0B2
:101B240086F9786800F095F97B6800221A777B685B
:101B34001B681B6903F00803082B22D17B681B6810
:101B4400DB6803F00803082B1BD17B681B686FF06C
:101B540008021A617B6804221A777B681B68DB69B8
:101B640003F00303002B03D0786800F069F905E063
:101B7400786800F05CF9786800F06BF97B68002203
:101B84001A777B681B681B6903F01003102B22D1A2
:101B94007B681B68DB6803F01003102B1BD17B6888
:101BA4001B686FF010021A617B6808221A777B6841
:101BB4001B68DB6903F44073002B03D0786800F0E2
:101BC4003FF905E0786800F032F9786800F041F9EF
:101BD4007B6800221A777B681B681B6903F001038A
:101BE400012B0ED17B681B68DB6803F00103012B1A
:101BF40007D17B681B686FF001021A61786800F0F6
:101C04000DF97B681B681B6903F08003802B0ED1E0
:101C14007B681B68DB6803F08003802B07D17B683B
:101C24001B686FF080021A61786800F0AAFA7B687A
:101C34001B681B6903F04003402B0ED17B681B68B3
:101C4400DB6803F04003402B07D17B681B686FF00F
:101C540040021A61786800F005F97B681B681B690B
:101C640003F02003202B0ED17B681B68DB6803F094
:101C74002003202B07D17B681B686FF020021A61B8
:101C8400786800F075FA00BF0837BD4680BD80B59E
:101C940084B000AF786039600023FB737B6893F8ED
:101CA4003C30012B01D10223B4E07B68012283F88C
:101CB4003C207B68022283F83D207B681B689B687C
:101CC400BB60BB6823F07703BB60BB6823F47F432E
:101CD400BB607B681B68BA689A603B681B68B3F595
:101CE400005F3ED0B3F5005F00F28780B3F5805FFC
:101CF40000F08680B3F5805F7FD8702B1AD0702BEC
:101D04007BD8602B50D0602B77D8502B3CD0502BF5
:101D140073D8402B58D0402B6FD8302B64D0302B45
:101D24006BD8202B60D0202B67D8002B5CD0102BD5
:101D34005AD062E07B6818683B6899683B685A68C7
:101D44003B68DB6800F089F97B681B689B68BB60B3
:101D5400BB6843F07703BB607B681B68BA689A6012
:101D64004FE07B6818683B6899683B685A683B6831
:101D7400DB6800F072F97B681B689A687B681B68F3
:101D840042F480429A603CE07B6818683B6859687A
:101D94003B68DB681A4600F0E9F87B681B68502151
:101DA400184600F040F92CE07B6818683B685968D5
:101DB4003B68DB681A4600F007F97B681B68602102
:101DC400184600F030F91CE07B6818683B685968D5
:101DD4003B68DB681A4600F0C9F87B681B68402141
:101DE400184600F020F90CE07B681A683B681B6811
:101DF4001946104600F017F903E00123FB7300E0D5
:101E040000BF7B68012283F83D207B68002283F8B1
:101E14003C20FB7B18461037BD4680BD80B483B0A0
:101E240000AF786000BF0C37BD4680BC704780B4FB
:101E340083B000AF786000BF0C37BD4680BC7047EC
:101E440080B483B000AF786000BF0C37BD4680BC5F
:101E5400704780B483B000AF786000BF0C37BD46D4
:101E640080BC704780B483B000AF786000BF0C378B
:101E7400BD4680BC7047000080B485B000AF786078
:101E840039607B681B68FB607B68334A934213D0DC
:101E94007B68324A93420FD07B68B3F1804F0BD0FA
:101EA4007B682F4A934207D07B682E4A934203D023
:101EB4007B682D4A934208D1FB6823F07003FB60D2
:101EC4003B685B68FA681343FB607B68224A934271
:101ED40013D07B68214A93420FD07B68B3F1804FC3
:101EE4000BD07B681E4A934207D07B681D4A9342FD
:101EF40003D07B681C4A934208D1FB6823F44073E7
:101F0400FB603B68DB68FA681343FB60FB6823F003
:101F140080023B685B691343FB607B68FA681A6064
:101F24003B689A687B68DA623B681A687B689A62E5
:101F34007B68094A934203D07B68084A934203D1E1
:101F44003B681A697B681A637B6801225A6100BF87
:101F54001437BD4680BC7047002C0140003401405A
:101F64000004004000080040000C004080B487B02A
:101F740000AFF860B9607A60FB681B6A7B61FB683C
:101F84001B6A23F00102FB681A62FB689B693B61D0
:101F94003B6923F0F0033B617B681B013A691343FF
:101FA4003B617B6923F00A037B617A69BB68134355
:101FB4007B61FB683A699A61FB687A691A6200BFBF
:101FC4001C37BD4680BC704780B487B000AFF86052
:101FD400B9607A60FB681B6A7B61FB681B6A23F04B
:101FE4001002FB681A62FB689B693B613B6923F43E
:101FF40070433B617B681B033A6913433B617B6914
:1020040023F0A0037B61BB681B017A6913437B61E6
:10201400FB683A699A61FB687A691A6200BF1C37E7
:10202400BD4680BC704780B485B000AF786039602D
:102034007B689B68FB60FB6823F07003FB603A6875
:10204400FB68134343F00703FB607B68FA689A60FC
:1020540000BF1437BD4680BC704780B487B000AF62
:10206400F860B9607A603B60FB689B687B617B6960
:1020740023F47F437B613B681A027B681A43BB6885
:1020840013437A6913437B61FB687A699A6000BFE2
:102094001C37BD4680BC704780B485B000AF786003
:1020A40039607B6893F83C30012B01D1022350E066
:1020B4007B68012283F83C207B68022283F83D2060
:1020C4007B681B685B68FB607B681B689B68BB6004
:1020D400FB6823F07003FB603B681B68FA681343DA
:1020E400FB607B681B68FA685A607B681B681B4A44
:1020F400934218D07B681B68194A934213D07B68BB
:102104001B68B3F1804F0ED07B681B68154A93425D
:1021140009D07B681B68144A934204D07B681B680F
:10212400124A93420CD1BB6823F08003BB603B6826
:102134005B68BA681343BB607B681B68BA689A60C3
:102144007B68012283F83D207B68002283F83C20D1
:10215400002318461437BD4680BC7047002C01404C
:10216400003401400004004000080040000C00401E
:1021740080B483B000AF786000BF0C37BD4680BC2C
:10218400704780B483B000AF786000BF0C37BD46A1
:1021940080BC704780B582B000AF78607B68002B4C
:1021A40001D1012342E07B6893F84130DBB2002B7C
:1021B40006D17B68002283F840207868FEF79AFAFB
:1021C4007B68242283F841207B681B68DA687B687B
:1021D4001B6822F40052DA60786800F071FD7B68B5
:1021E4001B681A697B681B6822F490421A617B6839
:1021F4001B685A697B681B6822F02A025A617B6853
:102204001B68DA687B681B6842F40052DA607B68FA
:1022140000225A647B68202283F841207B682022B4
:1022240083F842207B6800225A630023184608374B
:10223400BD4680BD80B58AB002AFF860B9603B602E
:102244001346FB8000237B61FB6893F84130DBB2CB
:10225400202B6DD1BB68002B02D0FB88002B01D151
:10226400012366E0FB6800225A64FB68212283F89C
:102274004120FEF711FB7861FB68FA889A84FB68B9
:10228400FA88DA84FB689B68B3F5805F08D1FB6841
:102294001B69002B04D10023FB61BB68BB6103E015
:1022A400BB68FB610023BB612AE03B6800937B6948
:1022B40000228021F86800F0F9FA0346002B01D0CF
:1022C400032336E0FB69002B0BD1BB691B881A463C
:1022D400FB681B68C2F308025A60BB690233BB6126
:1022E40007E0FB691A78FB681B685A60FB690133D5
:1022F400FB61FB68DB8C9BB2013B9AB2FB68DA841E
:10230400FB68DB8C9BB2002BCFD13B6800937B69CD
:1023140000224021F86800F0C9FA0346002B01D0DE
:10232400032306E0FB68202283F84120002300E019
:10233400022318462037BD4680BD000080B5BAB0E0
:1023440000AF78607B681B681B68C7F8E4307B6863
:102354001B68DB68C7F8E0307B681B685B69C7F8FB
:10236400DC300023C7F8D8300023C7F8D430D7F8BE
:10237400E43003F00F03C7F8D830D7F8D830002B77
:102384000FD1D7F8E43003F02003002B09D0D7F89D
:10239400E03003F02003002B03D0786800F0D1FB79
:1023A4005BE2D7F8D830002B00F0DE80D7F8DC30C1
:1023B40003F00103002B06D1D7F8E03003F4907347
:1023C400002B00F0D180D7F8E43003F00103002B98
:1023D4000BD0D7F8E03003F48073002B05D07B6872
:1023E4005B6C43F001027B685A64D7F8E43003F075
:1023F4000403002B0BD0D7F8DC3003F00103002BCF
:1024040005D07B685B6C43F002027B685A64D7F8A2
:10241400E43003F00203002B0BD0D7F8DC3003F0D8
:102424000103002B05D07B685B6C43F004027B68DE
:102434005A64D7F8E43003F00803002B11D0D7F81E
:10244400E03003F02003002B05D1D7F8DC3003F093
:102454000103002B05D07B685B6C43F008027B68AA
:102464005A647B685B6C002B00F0F281D7F8E4308F
:1024740003F02003002B08D0D7F8E03003F020034A
:10248400002B02D0786800F05CFB7B681B685B69FA
:1024940003F04003002B14BF01230023DBB2C7F871
:1024A400D4307B685B6C03F00803002B03D1D7F8AE
:1024B400D430002B4FD0786800F066FA7B681B6834
:1024C4005B6903F04003002B41D07B681B68143325
:1024D400C7F89C30D7F89C3053E8003FC7F89830D1
:1024E400D7F8983023F04003C7F8D0307B681B68D6
:1024F4001433D7F8D020C7F8A820C7F8A430D7F8E9
:10250400A410D7F8A82041E80023C7F8A030D7F8D2
:10251400A030002BD9D17B68DB6B002B13D07B68F8
:10252400DB6B7E4A5A637B68DB6B1846FEF72AFB3B
:102534000346002B16D07B68DB6B5B6B7A68D26B2F
:10254400104698470EE0786800F09CF90AE0786835
:1025540000F098F906E0786800F094F97B680022AE
:102564005A6475E100BF73E17B681B6B012B40F07B
:102574004F81D7F8E43003F01003002B00F04881BA
:10258400D7F8E03003F01003002B00F04181002362
:10259400BB607B681B681B68BB607B681B685B68EF
:1025A400BB60BB687B681B685B6903F04003002B5E
:1025B40000F0B6807B68DB6B1B685B68A7F8BE30F5
:1025C400B7F8BE30002B00F045817B689B8DB7F8CF
:1025D400BE209A4280F03E817B68B7F8BE20DA853F
:1025E4007B68DB6B9B69202B00F088807B681B6811
:1025F4000C33C7F88830D7F8883053E8003FC7F861
:102604008430D7F8843023F48073C7F8B8307B68FB
:102614001B680C33D7F8B820C7F89420C7F890305B
:10262400D7F89010D7F8942041E80023C7F88C30ED
:10263400D7F88C30002BD9D17B681B6814337B67A7
:102644007B6F53E8003F3B673B6F23F00103C7F800
:10265400B4307B681B681433D7F8B420C7F88020E3
:10266400FB67F96FD7F8802041E80023BB67BB6F95
:10267400002BE1D17B681B6814333B663B6E53E847
:10268400003FFB65FB6D23F04003C7F8B0307B6867
:102694001B681433D7F8B020FA66BB66B96EFA6EBD
:1026A40041E800237B667B6E002BE3D17B6820220C
:1026B40083F842207B6800221A637B681B680C3312
:1026C400FB64FB6C53E8003FBB64BB6C23F010035A
:1026D400C7F8AC307B681B680C33D7F8AC20BA65FC
:1026E4007B65796DBA6D41E800233B653B6D002B3A
:1026F400E3D17B68DB6B1846FEF709FA7B6802229C
:102704005A637B689A8D7B68DB8D9BB2D31A9BB22C
:102714001946786800F0BFF89CE000BF512A000811
:102724007B689A8D7B68DB8D9BB2D31AA7F8CE3079
:102734007B68DB8D9BB2002B00F08E80B7F8CE3027
:10274400002B00F089807B681B680C33BB63BB6B78
:1027540053E8003F7B637B6B23F49073C7F8C83066
:102764007B681B680C33D7F8C8207A643B64396CE7
:102774007A6C41E80023FB63FB6B002BE3D17B689D
:102784001B6814337B627B6A53E8003F3B623B6AFD
:1027940023F00103C7F8C4307B681B681433D7F8EF
:1027A400C4203A63FB62F96A3A6B41E80023BB62D6
:1027B400BB6A002BE3D17B68202283F842207B682C
:1027C40000221A637B681B680C333B613B6953E846
:1027D400003FFB60FB6823F01003C7F8C0307B6840
:1027E4001B680C33D7F8C020FA61BB61B969FA6978
:1027F40041E800237B617B69002BE3D17B680222E3
:102804005A63B7F8CE301946786800F044F823E0EC
:10281400D7F8E43003F08003002B09D0D7F8E03078
:1028240003F08003002B03D0786800F023F914E050
:10283400D7F8E43003F04003002B0ED0D7F8E03093
:1028440003F04003002B08D0786800F062F904E03C
:1028540000BF02E000BF00E000BFE837BD4680BD16
:1028640080B483B000AF786000BF0C37BD4680BC35
:10287400704780B483B000AF786000BF0C37BD46AA
:1028840080BC704780B483B000AF786000BF0C3761
:10289400BD4680BC704780B483B000AF78600B46FF
:1028A4007B8000BF0C37BD4680BC704780B590B0BC
:1028B40000AFF860B9603B601346FB7150E0BB6C3D
:1028C400B3F1FF3F4CD0BB6C002B07D0FDF7E4FF06
:1028D40002463B68D31ABA6C9A4241D2FB681B6821
:1028E4000C33BB62BB6A53E8003F7B627B6A23F410
:1028F400D073FB63FB681B680C33FA6B7A633B632E
:10290400396B7A6B41E80023FB62FB6A002BE5D14B
:10291400FB681B6814337B617B6953E8003F3B61B0
:102924003B6923F00103BB63FB681B681433BA6B78
:102934003A62FB61F9693A6A41E80023BB61BB6909
:10294400002BE5D1FB68202283F84120FB6820227C
:1029540083F84220FB68002283F8402003230FE021
:10296400FB681B681A68BB681340BA689A420CBFBC
:1029740001230023DBB21A46FB799A429FD000233D
:1029840018464037BD4680BD80B495B000AF78602E
:102994007B681B680C337B637B6B53E8003F3B63B2
:1029A4003B6B23F49073FB647B681B680C33FA6CF9
:1029B4003A64FB63F96B3A6C41E80023BB63BB6B7D
:1029C400002BE5D17B681B6814333B623B6A53E8F8
:1029D400003FFB61FB6923F00103BB647B681B6858
:1029E4001433BA6CFA62BB62B96AFA6A41E800232A
:1029F4007B627B6A002BE5D17B681B6B012B19D1B1
:102A04007B681B680C33FB60FB6853E8003FBB60CA
:102A1400BB6823F010037B647B681B680C337A6CFF
:102A2400BA617B617969BA6941E800233B613B691A
:102A3400002BE5D17B68202283F842207B680022AA
:102A44001A6300BF5437BD4680BC704780B584B05C
:102A540000AF78607B685B6AFB60FB680022DA8504
:102A6400FB680022DA84F868FFF70CFF00BF103718
:102A7400BD4680BD80B485B000AF78607B6893F8B4
:102A84004130DBB2212B3ED17B689B68B3F5805F7C
:102A940014D17B681B69002B10D17B681B6AFB6017
:102AA400FB681B881A467B681B68C2F308025A60DD
:102AB4007B681B6A9A1C7B681A6208E07B681B6A45
:102AC400591C7A6811621A787B681B685A607B68A3
:102AD400DB8C9BB2013B9BB27A681946D184002BF4
:102AE4000FD17B681B68DA687B681B6822F0800260
:102AF400DA607B681B68DA687B681B6842F0400216
:102B0400DA60002300E0022318461437BD4680BC77
:102B1400704780B582B000AF78607B681B68DA6864
:102B24007B681B6822F04002DA607B68202283F80D
:102B340041207868FFF794FE002318460837BD4605
:102B440080BD80B58CB000AF78607B6893F842306C
:102B5400DBB2222B40F0AE807B689B68B3F5805FCC
:102B640017D17B681B69002B13D10023FB627B68A0
:102B74009B6ABB627B681B685B689BB2C3F30803F8
:102B84009AB2BB6A1A807B689B6A9A1C7B689A62B9
:102B940026E07B689B6AFB620023BB627B689B68C0
:102BA400B3F5805F07D07B689B68002B0AD17B68F4
:102BB4001B69002B06D17B681B685B68DAB2FB6A71
:102BC4001A7008E07B681B685B68DBB203F07F0364
:102BD400DAB2FB6A1A707B689B6A5A1C7B689A6239
:102BE4007B68DB8D9BB2013B9BB27A681946D18529
:102BF400002B5DD17B681B68DA687B681B6822F058
:102C04002002DA607B681B68DA687B681B6822F440
:102C14008072DA607B681B685A697B681B6822F0E3
:102C240001025A617B68202283F842207B680022DB
:102C34005A637B681B6B012B35D17B6800221A63B6
:102C44007B681B680C337B617B6953E8003F3B6105
:102C54003B6923F010037B627B681B680C337A6A40
:102C64003A62FB61F9693A6A41E80023BB61BB69D6
:102C7400002BE5D17B681B681B6803F01003102B45
:102C84000AD10023FB607B681B681B68FB607B68C0
:102C94001B685B68FB60FB687B689B8D19467868E2
:102CA400FFF7F9FD02E07868FFF7E3FD002302E097
:102CB400002300E0022318463037BD4680BD0000E3
:102CC40080B584B000AF78607B681B681B6923F40F
:102CD40040517B68DA687B681B680A431A617B6829
:102CE4009A687B681B691A437B685B691343BB6002
:102CF4007B681B68DB6823F4B05323F00C037A6809
:102D04001268B9680B43D3607B681B685B6923F462
:102D140040717B689A697B681B680A435A617B68C7
:102D24001B682C4A934203D1FEF728FEF86002E0A8
:102D3400FEF710FEF860FA6813469B0013449A00ED
:102D44001A447B685B689B00B2FBF3F3224AA2FB44
:102D540003235B091901FA6813469B0013449A0084
:102D64001A447B685B689B00B2FBF3F21A4BA3FB2B
:102D740002035B09642000FB03F3D31A1B01323303
:102D8400154AA2FB03235B0903F0F0031944FA6814
:102D940013469B0013449A001A447B685B689B00AB
:102DA400B2FBF3F20C4BA3FB02035B09642000FBB0
:102DB40003F3D31A1B013233074AA2FB03235B0933
:102DC40003F00F027B681B680A449A6000BF103747
:102DD400BD4680BD003801401F85EB510EB46FF035
:102DE400004100B59CB01DAB029006900791049180
:102DF4000848094953F8042B0591006802A9019376
:102E040000F08EF90022029B1A701CB05DF804EBEE
:102E140003B07047580000200802FFFF0346024435
:102E2400934200D1704703F8011BF9E7014B18687E
:102E3400704700BF5800002070B500260C4D0D4CA3
:102E4400641BA410A64209D100F07AFC00260A4DA6
:102E54000A4C641BA410A64205D170BD55F8043B6E
:102E640098470136EEE755F8043B98470136F2E7F8
:102E7400E8370008E8370008E8370008EC370008AE
:102E84007047704738B50546002940D051F8043CD6
:102E94000C1F002BB8BFE41800F0DCF81C4A1368C0
:102EA40033B9636014602846BDE8384000F0D8B8F0
:102EB400A34208D9206821188B4201BF19685B68B6
:102EC40009182160EDE71A465B680BB1A342FAD9F1
:102ED40011685018A0420BD1206801445018834255
:102EE4001160E0D118685B68084410605360DAE749
:102EF40002D90C232B60D6E7206821188B4201BF2E
:102F040019685B680918216063605460CBE738BDB9
:102F14005C02002070B50E4E0C463168054611B9AE
:102F240000F0AAFB30602146284600F0A5FB431CB4
:102F34000AD0C41C24F00304A04207D0211A284656
:102F440000F09AFB013001D14FF0FF34204670BDF0
:102F5400600200202DE9F843CD1C25F00305083557
:102F64000C2D38BF0C25002D074601DBA94205D9DD
:102F74000C2300263B603046BDE8F883DFF8D080A0
:102F840000F068F8D8F800301C465CBB2946384687
:102F9400FFF7C0FF431C044655D1D8F8004026462D
:102FA400002E45D1002C48D023683146384604EB26
:102FB400030900F061FB81453FD1216838466D1A51
:102FC4002946FFF7A7FF013037D023682B4423603D
:102FD400D8F80030002B38D05A68A2422BD10022F6
:102FE4005A600FE02268521B1FD40B2A17D96119AB
:102FF400A342256018BF5960636808BFC8F8001071
:1030040062514B60384604F10B0600F029F826F0B3
:103014000706231DF21AAED09B1BA350ABE7A342B5
:103024006268DDD1C8F80020ECE723466468ACE7A9
:1030340034467668B4E71346CCE70C2338463B6045
:1030440000F00EF897E72560DCE75B60FFDE00BF69
:103054005C0200200148FFF713BF00BF58020020A4
:103064000148FFF70EBF00BF580200202DE9F047CA
:103074001F468E688246BE420C4690460B682CD88A
:103084008A8912F4906F26D06569096905EB4505B4
:10309400A3EB010905EBD5757B1C4B446D109D42D8
:1030A40038BF1D46530527D52946FFF753FF06466B
:1030B40060B34A46216900F0FDFAA38923F49063C2
:1030C40043F08003A38126614E4426603E46656139
:1030D400A5EB0905A560BE4200D93E4632464146ED
:1030E400206800F0AFFA0020A3689B1BA36023684C
:1030F40033442360BDE8F0872A4600F0E9FA064627
:103104000028E0D150462169FFF7BCFE0C23CAF821
:103114000030A3894FF0FF3043F04003A381E9E777
:103124002DE9F04F98468B8907461B060D46144639
:103134009DB00ED50B6963B94021FFF70BFF2860E2
:10314400286120B90C233B604FF0FF30D0E04023CE
:103154006B610023099320238DF8293030234FF02D
:103164000109CDF80C80DFF8A0818DF82A302346C0
:103174009A4613F8012B0AB1252AF9D1BAEB040BAC
:103184000BD05B46224629463846FFF76FFF0130D5
:1031940000F0A980099A5A4409929AF80030002B49
:1031A40000F0A18000234FF0FF32CDE905230AF19E
:1031B400010A049307938DF853301A935446052259
:1031C40014F8011B504800F067FA049AD8B9D006E5
:1031D40044BF20238DF85330110744BF2B238DF8AF
:1031E40053309AF800302A2B15D0544600204FF063
:1031F4000A0C079A214611F8013B303B092B4DD9A3
:10320400B0B1079214E0A0EB080309FA03F31343E7
:10321400A2460493D2E7039B191D1B680391002B5C
:10322400BBBF5B4242F0020207930793B8BF04920C
:1032340023782E2B0CD163782A2B34D1039B0234B0
:103244001A1D1B680392002BB8BF4FF0FF33059380
:10325400DFF8B8A003225046217800F01DFA38B1F7
:103264004022049BA0EB0A008240134301340493E0
:1032740014F8011B062226488DF8281000F00CFAD9
:10328400002838D0234B1BBB039B073323F00703D1
:1032940008330393099B3344099368E70C460120E0
:1032A4000CFB0232A6E700234FF00A0C1946013446
:1032B4000593204610F8012B303A092A03D9002B34
:1032C400C6D00591C4E7044601230CFB0121F0E7B5
:1032D40003AB00932A4638460F4B04A9AFF3008092
:1032E400421C0646D6D1AB895B063FF52DAF099843
:1032F4001DB0BDE8F08F03AB00932A463846064B59
:1033040004A900F07DF8EBE7B2370008B8370008ED
:10331400BC37000800000000713000082DE9F047B8
:10332400164699468A680B6907469342B8BF134606
:10333400336091F843200C46DDF820800AB1013354
:1033440033602368990642BF3368023333602568CB
:1033540015F0060506D104F1190AE36832689B1AD0
:10336400AB422BDC94F84320131E226818BF0123C0
:10337400920630D44946384604F14302C04701302E
:1033840023D02368226903F00603042B14BF00250D
:1033940033684FF0000608BFE56804F11A0408BF5B
:1033A400ED1A54F8123C08BF25EAE5759342C4BFF0
:1033B4009B1AED18B5421AD1002008E001235246A9
:1033C40049463846C047013003D14FF0FF30BDE8CD
:1033D400F0870135C1E73020E11881F843005A1C19
:1033E40094F845102244023382F84310C2E70123C3
:1033F400224649463846C0470130E6D00136D9E76F
:103404002DE9FF470F7E9146782F80460C469A4659
:103414000C9D01F1430207D8622F0AD8002F00F057
:10342400D580582F00F0C18004F1420584F8427021
:103434003AE0A7F16303152BF6D801A151F823F064
:103444009D340008B13400082D3400082D340008E0
:103454002D3400082D340008B13400082D34000840
:103464002D3400082D3400082D340008B735000829
:10347400DD340008713500082D3400082D340008AF
:10348400D93500082D340008DD3400082D34000837
:103494002D340008793500082B681A1D1B682A6032
:1034A40004F1420584F842300123A0E020682B682F
:1034B400070603F10401296001D51E6803E04606EE
:1034C400FBD5B3F90060002E03DA2D23764284F88D
:1034D40043300A23594812E02B682068191D2960DB
:1034E400050601D51E6802E04106FBD51E886F2F34
:1034F4000CBF08230A235148002184F8431065684F
:10350400002DA8BF2168A560A4BF21F0040121609B
:103514000EB9002D4BD01546B6FBF3F103FB116732
:10352400C75D05F8017D3746BB420E46F4D9082B2A
:103534000BD12368DE0708D5236961689942DEBF91
:10354400302305F8013C05F1FF35521B22614B463F
:1035540021464046CDF800A003AAFFF7DFFE013064
:103564004AD14FF0FF3004B0BDE8F087236843F040
:10357400200323607827324884F84570236829683B
:103584001F0651F8046B02D45F0648BFB6B2DF07CA
:1035940048BF43F02003296048BF23601EB9236855
:1035A40023F0200323601023A6E72448E4E715460C
:1035B400BDE72B682668181D6169286035061B68FD
:1035C40001D5196002E07006FBD519800023154669
:1035D4002361BCE72B6800211A1D2A601D686268FC
:1035E400284600F059F808B1401B60606368236105
:1035F400002384F84330AAE72A4649464046236913
:10360400D0470130ADD023689B0713D4E068039BF7
:103614009842B8BF1846A6E70123324649464046B9
:10362400D04701309DD00135E36803995B1AAB4262
:10363400F2DCEBE7002504F11906F5E7C3370008CF
:10364400D4370008884210B501EB020402D9844241
:10365400234607D8431EA14208D011F8012B03F8D2
:10366400012FF8E7014602448A4200D110BD13F845
:10367400014D02F8014DF7E738B50023054D044626
:1036840008462B60FCF75CFF431C02D12B6803B196
:10369400236038BD54020020034610B5C9B2024469
:1036A4009342184601D1002003E0047801338C4290
:1036B400F6D110BD0A44914200F1FF3300D17047A6
:1036C40010B511F8014B914203F8014FF9D110BD27
:1036D4002DE9F041804614460E4621B91146BDE855
:1036E400F041FFF737BC2AB9FFF7CCFB2546284643
:1036F400BDE8F08100F01BF88442074602D8B4EB21
:10370400500F12D821464046FFF724FC05460028F6
:10371400EDD0BC422246314628BF3A46FFF7CAFFE5
:1037240031464046FFF7AEFBE1E73546DFE751F8A7
:10373400043C181F002BBCBF0B58C0187047000076
:10374400F8B500BFF8BC08BC9E467047F8B500BF8A
:08375400F8BC08BC9E4670475A
:10375C00526573746172740D0A00000069203D207B
:10376C0025640D0A0000000054494D335F49525145
:10377C0048616E646C65720D0A0000000000000068
:10378C000000000001020304060708090000000005
:10379C000102030402030405060708090A0B0C0DB9
:1037AC000E0F10100102232D302B2000686C4C00E2
:1037BC006566674546470030313233343536373825
:1037CC003941424344454600303132333435363783
:0C37DC003839616263646566000000001B
:0437E80009020008CA
:0437EC00E5010008EB
:1037F0000024F400100000000100000000000000A0
:103800001C01002084010020EC01002000000000C9
:1038100000000000000000000000000000000000A8
:103820000000000000000000000000000000000098
:103830000000000000000000000000000000000088
:0C38400000000000000000000C00002050
:04000005080007A147
:00000001FF
