:020000040800F2
:1000000000C00020055C00082D5B00082F5B000885
:10001000315B0008335B0008355B0008000000001E
:10002000000000000000000000000000375B000836
:10003000395B0008000000003B5B00083D5B0008E6
:100040004D5C00084D5C00084D5C00084D5C0008EC
:100050004D5C00084D5C00084D5C00084D5C0008DC
:100060004D5C00084D5C00084D5C00084D5C0008CC
:100070004D5C00084D5C00084D5C00084D5C0008BC
:100080004D5C00084D5C00084D5C00084D5C0008AC
:100090004D5C00084D5C00084D5C00084D5C00089C
:1000A0004D5C00084D5C00084D5C00084D5C00088C
:1000B0004D5C00084D5C00084D5C00084D5C00087C
:1000C0004D5C00084D5C00084D5C00084D5C00086C
:1000D0004D5C00084D5C00084D5C00084D5C00085C
:1000E0004D5C00084D5C00084D5C00084D5C00084C
:1000F0004D5C00084D5C00084D5C00084D5C00083C
:100100004D5C00084D5C00084D5C00084D5C00082B
:100110004D5C00084D5C00084D5C00084D5C00081B
:100120004D5C00084D5C00084D5C00084D5C00080B
:1001300000000000000000000000000000000000BF
:1001400000000000000000000000000000000000AF
:10015000000000000000000000000000000000009F
:10016000000000000000000000000000000000008F
:10017000000000000000000000000000000000007F
:10018000000000000000000000000000000000006F
:10019000000000000000000000000000000000005F
:1001A000000000000000000000000000000000004F
:1001B000000000000000000000000000000000003F
:1001C000000000000000000000000000000000002F
:1001D000000000000000000000000000000000001F
:0401E0005FF8E0F1F3
:1001E80010B5054C237833B9044B13B10448AFF369
:1001F80000800123237010BDC40600200000000009
:1002080088B0000808B5034B1BB103490348AFF396
:10021800008008BD00000000C806002088B0000863
:1002280081F0004102E000BF83F0004330B54FEA9F
:1002380041044FEA430594EA050F08BF90EA020F0C
:100248001FBF54EA000C55EA020C7FEA645C7FEA9F
:10025800655C00F0E2804FEA5454D4EB5555B8BFC2
:100268006D420CDD2C4480EA020281EA030382EA33
:10027800000083EA010180EA020281EA0303362DC5
:1002880088BF30BD11F0004F4FEA01314FF4801C98
:100298004CEA113102D0404261EB410113F0004FAA
:1002A8004FEA03334CEA133302D0524263EB430361
:1002B80094EA050F00F0A780A4F10104D5F1200EFF
:1002C8000DDB02FA0EFC22FA05F2801841F100015A
:1002D80003FA0EF2801843FA05F359410EE0A5F12E
:1002E80020050EF1200E012A03FA0EFC28BF4CF05F
:1002F800020C43FA05F3C01851EBE37101F0004515
:1003080007D54FF0000EDCF1000C7EEB00006EEB21
:100318000101B1F5801F1BD3B1F5001F0CD34908AB
:100328005FEA30004FEA3C0C04F101044FEA445202
:1003380012F5800F80F09A80BCF1004F08BF5FEA89
:10034800500C50F1000041EB045141EA050130BD69
:100358005FEA4C0C404141EB0101013C28BFB1F57B
:10036800801FE9D291F0000F04BF01460020B1FAC6
:1003780081F308BF2033A3F10B03B3F120020CDA99
:100388000C3208DD02F1140CC2F10C0201FA0CF077
:1003980021FA02F10CE002F11402D8BFC2F1200CDC
:1003A80001FA02F120FA0CFCDCBF41EA0C01904092
:1003B800E41AA2BF01EB0451294330BD6FEA0404DB
:1003C8001F3C1CDA0C340EDC04F11404C4F12002C6
:1003D80020FA04F001FA02F340EA030021FA04F3D8
:1003E80045EA030130BDC4F10C04C4F1200220FA2F
:1003F80002F001FA04F340EA0300294630BD21FA6D
:1004080004F0294630BD94F0000F83F4801306BF32
:1004180081F480110134013D4EE77FEA645C18BF26
:100428007FEA655C29D094EA050F08BF90EA020FBD
:1004380005D054EA000C04BF1946104630BD91EAB5
:10044800030F1EBF0021002030BD5FEA545C05D1B8
:100458004000494128BF41F0004130BD14F58004F7
:100468003CBF01F5801130BD01F0004545F0FE416B
:1004780041F470014FF0000030BD7FEA645C1ABFA0
:10048800194610467FEA655C1CBF0B46024650EAD7
:10049800013406BF52EA033591EA030F41F4002103
:1004A80030BD00BF90F0000F04BF0021704730B589
:1004B8004FF4806404F132044FF000054FF000015E
:1004C80050E700BF90F0000F04BF0021704730B51F
:1004D8004FF4806404F1320410F0004548BF4042F4
:1004E8004FF000013EE700BF42004FEAE2014FEA49
:1004F80031014FEA02701FBF12F07F4393F07F4F24
:1005080081F06051704732F07F4208BF704793F026
:100518007F4F04BF41F40021704730B54FF4607439
:1005280001F0004521F000411CE700BF50EA01023C
:1005380008BF704730B54FF000050AE050EA0102E5
:1005480008BF704730B511F0004502D5404261EB55
:1005580041014FF4806404F132045FEA915C3FF496
:10056800D8AE4FF003025FEADC0C18BF03325FEA33
:10057800DC0C18BF033202EBDC02C2F1200300FAE4
:1005880003FC20FA02F001FA03FE40EA0E0021FA09
:1005980002F11444BDE600BF4A0011D212F5001260
:1005A80011D20DD56FF47873B3EB62520ED44FEAC3
:1005B800C12343F0004343EA505323FA02F0704743
:1005C8004FF00000704750EA013002D14FF0FF3081
:1005D80070474FF000007047034613F8012B002ABC
:1005E800FBD1181A0138704770B54FF0FF0C4CF466
:1005F800E06C1CEA11541DBF1CEA135594EA0C0F59
:1006080095EA0C0F00F0DEF82C4481EA030621EA93
:100618004C5123EA4C5350EA013518BF52EA0335CE
:1006280041F4801143F4801338D0A0FB02CE4FF080
:100638000005E1FB02E506F00042E0FB03E54FF0B0
:100648000006E1FB03569CF0000F18BF4EF0010EA8
:10065800A4F1FF04B6F5007F64F5407404D25FEAA4
:100668004E0E6D4146EB060642EAC62141EA555157
:100678004FEAC52040EA5E504FEACE2EB4F1FD0C99
:1006880088BFBCF5E06F1ED8BEF1004F08BF5FEA17
:10069800500E50F1000041EB045170BD06F00046C9
:1006A80046EA010140EA020081EA0301B4EB5C0476
:1006B800C2BFD4EB0C0541EA045170BD41F480116E
:1006C8004FF0000E013C00F3AB8014F1360FDEBF93
:1006D800002001F0004170BDC4F10004203C35DA6F
:1006E8000C341BDC04F11404C4F1200500FA05F3F2
:1006F80020FA04F001FA05F240EA020001F0004293
:1007080021F0004110EBD37021FA04F642EB060108
:100718005EEA430E08BF20EAD37070BDC4F10C0432
:10072800C4F1200500FA04F320FA05F001FA04F2F6
:1007380040EA020001F0004110EBD37041F10001E2
:100748005EEA430E08BF20EAD37070BDC4F12005ED
:1007580000FA05F24EEA020E20FA04F301FA05F255
:1007680043EA020321FA04F001F0004121FA04F2FD
:1007780020EA020000EBD3705EEA430E08BF20EACD
:10078800D37070BD94F0000F0FD101F00046400007
:1007980041EB010111F4801F08BF013CF7D041EA89
:1007A800060195F0000F18BF704703F0004652008D
:1007B80043EB030313F4801F08BF013DF7D043EA5E
:1007C8000603704794EA0C0F0CEA135518BF95EA14
:1007D8000C0F0CD050EA410618BF52EA4306D1D19B
:1007E80081EA030101F000414FF0000070BD50EABA
:1007F800410606BF1046194652EA430619D094EA44
:100808000C0F02D150EA013613D195EA0C0F05D12D
:1008180052EA03361CBF104619460AD181EA030181
:1008280001F0004141F0FE4141F470014FF0000039
:1008380070BD41F0FE4141F4780170BD70B54FF0D4
:10084800FF0C4CF4E06C1CEA11541DBF1CEA135554
:1008580094EA0C0F95EA0C0F00F0A7F8A4EB050436
:1008680081EA030E52EA03354FEA013100F088802D
:100878004FEA03334FF0805545EA131343EA1263F6
:100888004FEA022245EA111545EA10654FEA0026AB
:100898000EF000419D4208BF964244F1FD0404F564
:1008A800407402D25B084FEA3202B61A65EB0305C0
:1008B8005B084FEA32024FF480104FF4002CB6EB7D
:1008C800020E75EB030E22BFB61A754640EA0C00FD
:1008D8005B084FEA3202B6EB020E75EB030E22BF3D
:1008E800B61A754640EA5C005B084FEA3202B6EB7E
:1008F800020E75EB030E22BFB61A754640EA9C003D
:100908005B084FEA3202B6EB020E75EB030E22BF0C
:10091800B61A754640EADC0055EA060E18D04FEACA
:10092800051545EA16754FEA06164FEAC30343EA6A
:1009380052734FEAC2025FEA1C1CC0D111F4801F37
:100948000BD141EA00014FF000004FF0004CB6E730
:1009580011F4801F04BF01430020B4F1FD0C88BFCF
:10096800BCF5E06F3FF6AFAEB5EB030C04BFB6EBDA
:10097800020C5FEA500C50F1000041EB045170BDCD
:100988000EF0004E4EEA113114EB5C04C2BFD4EBFA
:100998000C0541EA045170BD41F480114FF0000E7E
:1009A800013C90E645EA060E8DE60CEA135594EAFA
:1009B8000C0F08BF95EA0C0F3FF43BAF94EA0C0FFD
:1009C8000AD150EA01347FF434AF95EA0C0F7FF472
:1009D80025AF104619462CE795EA0C0F06D152EAC6
:1009E80003353FF4FDAE1046194622E750EA4106AA
:1009F80018BF52EA43067FF4C5AE50EA41047FF4BB
:100A08000DAF52EA43057FF4EBAE12E74FF0FF3C1F
:100A180006E000BF4FF0010C02E000BF4FF0010CF0
:100A28004DF804CD4FEA410C7FEA6C5C4FEA430C69
:100A380018BF7FEA6C5C1BD001B050EA410C0CBFB8
:100A480052EA430C91EA030F02BF90EA020F00201A
:100A5800704710F1000F91EA030F58BF994208BF81
:100A680090422CBFD8176FEAE37040F0010070473E
:100A78004FEA410C7FEA6C5C02D150EA013C07D195
:100A88004FEA430C7FEA6C5CD6D152EA033CD3D0E0
:100A98005DF8040B704700BF8446104662468C46DA
:100AA8001946634600E000BF01B5FFF7B7FF00280D
:100AB80048BF10F1000F01BD4DF808EDFFF7F4FF36
:100AC8000CBF012000205DF808FB00BF4DF808EDC1
:100AD800FFF7EAFF34BF012000205DF808FB00BFE4
:100AE8004DF808EDFFF7E0FF94BF012000205DF806
:100AF80008FB00BF4DF808EDFFF7CEFF94BF0120BB
:100B080000205DF808FB00BF4DF808EDFFF7C4FFB3
:100B180034BF012000205DF808FB00BF4FEA410CFC
:100B28007FEA6C5C02D150EA013C0AD14FEA430CDF
:100B38007FEA6C5C02D152EA033C02D14FF000001C
:100B480070474FF0010070474FEA410212F500125A
:100B580015D211D56FF47873B3EB625212D94FEAFC
:100B6800C12343F0004343EA505311F0004F23FAE6
:100B780002F018BF404270474FF00000704750EA3B
:100B8800013005D111F0004008BF6FF000407047F8
:100B98004FF00000704700BF53B94AB9002908BF99
:100BA80000281CBF4FF0FF314FF0FF3000F072B942
:100BB800ADF1080C6DE904CE00F006F8DDF804E0AC
:100BC800DDE9022304B070472DE9F047089E0D4681
:100BD80004468E46002B4CD18A42944667D9B2FA15
:100BE80082F353B102FA03FCC3F1200201FA03FEB7
:100BF80020FA02F242EA0E0E9C404FEA1C47BEFB66
:100C0800F7F11FFA8CF507FB11EE01FB05F0220C3A
:100C180042EA0E4290420AD91CEB020201F1FF3E61
:100C280080F01981904240F2168102396244121A0A
:100C3800B2FBF7F007FB102200FB05F5A4B244EA6B
:100C48000244A5420AD91CEB040400F1FF3280F0EB
:100C58000481A54240F201816444023840EA01401F
:100C68000021641B1EB1DC400023C6E90043BDE837
:100C7800F0878B4208D9002E00F0EA800021C6E9EF
:100C880000050846BDE8F087B3FA83F1002948D18A
:100C9800AB4202D3824200F2F880841A65EB030269
:100CA80001209646002EE2D0C6E9004EDFE702B9E1
:100CB800FFDEB2FA82F3002B40F08E80881A012101
:100CC800170C1FFA82FEB0FBF7F507FB1500220C84
:100CD80042EA00420EFB05F0904208D91CEB0202E2
:100CE80005F1FF3802D2904200F2CC804546121A34
:100CF800B2FBF7F007FB10220EFB00FEA4B244EA99
:100D08000244A64508D91CEB040400F1FF3202D2C4
:100D1800A64500F2B4801046A4EB0E0440EA054054
:100D2800A0E7C1F120078B4022FA07FC4CEA030C2C
:100D380025FA07FA4FEA1C49BAFBF9F88D4020FA60
:100D480007F309FB18AA1FFA8CFE2B4300FA01F5DA
:100D580008FB0EF01C0C44EA0A44A04202FA01F215
:100D68000BD91CEB040408F1FF3A80F08680A042FE
:100D780040F28380A8F102086444241A98B2B4FBB4
:100D8800F9F309FB134403FB0EFE40EA0444A645AD
:100D980008D91CEB040403F1FF306AD2A64568D9D0
:100DA800023B644443EA0840A0FB0293A4EB0E0410
:100DB8009C42C8469E4654D351D0002E67D0B5EB0E
:100DC800080364EB0E04CB4004FA07F71F43CC403A
:100DD800C6E9007400214AE702FA03FCC3F12000C7
:100DE800C1409D4024FA00F04FEA1C472843B1FB5C
:100DF800F7F507FB15111FFA8CFE020C42EA0142B7
:100E080005FB0EF1914204FA03F408D91CEB020227
:100E180005F1FF382FD291422DD9023D6244521A72
:100E2800B2FBF7F107FB112280B240EA024001FB56
:100E38000EF2824208D91CEB000001F1FF3816D2ED
:100E4800824214D902396044801A41EA05413AE7DE
:100E5800314630460BE77146E9E61046FEE64D4559
:100E6800ABD2B9EB020863EB0C0E0138A5E741469B
:100E7800EAE7034696E74546D1E7D0467DE764446E
:100E8800023849E7023D624431E708460AE731463D
:100E9800EDE600BF704700BF82B00A4B9A6942F086
:100EA80020029A619A6902F020020092009A9A69D7
:100EB80042F004029A619B6903F004030193019BC9
:100EC80002B0704700100240064B4FF480725A611E
:100ED8004FF400725A610449C86080215961196150
:100EE8001A61704700100140000C0140064B4FF496
:100EF80080721A614FF400725A610449C8608021F7
:100F0800596119611A61704700100140000C0140D5
:100F180008B5164B4FF088321A605A600022DA6022
:100F280003F580634FF480721A614FF400725A61BE
:100F380040225A610E4B9A8848F689139A4210D07B
:100F48000A4B98680B4A402111614FF400711161F6
:100F58004FF033321A605A604FF6FF72DA6080B28F
:100F680008BD012004F0BAFEEAE700BF000C01400A
:100F7800E40600200010014010B50C46FFF7A4FF5E
:100F8800064B4FF480721A614FF400725A6104499B
:100F9800CC608021596119611A6110BD00100140AF
:100FA800000C014008B5FFF78FFFFFF7B1FF08BD40
:100FB80008B5024B1889FFF787FF08BDE406002033
:100FC8002DE9F84F05460E469C4B9B8849F2413265
:100FD800934220D045F2103293421CD046F60402C8
:100FE800934259D041F66312934200F0A08045F233
:100FF8001052934200F02881904B9B79012B00F00E
:101008006F818E4C29466089FFF7B6FF3146A0896B
:10101800FFF7B2FF3EE0DFF824B2BBF80A00FFF7A3
:1010280053FF874C4FF4807AC4F810A04FF4007730
:1010380067612B0ADFF80C92C9F80C304FF0800872
:10104800C4F81480C4F810802761C4F810A0676140
:10105800EDB2C9F80C50C4F81480C4F810802761A8
:10106800BBF80C00FFF730FFC4F810A06761330A23
:10107800C9F80C30C4F81480C4F810802761C4F88B
:1010880010A06761F6B2C9F80C60C4F81480C4F8FF
:1010980010802761BDE8F88F684B9B79012B3FD002
:1010A800DFF898B1BBF80A00FFF70EFF644C4FF465
:1010B800807AC4F810A04FF4007767612B0ADFF834
:1010C8008491C9F80C304FF08008C4F81480C4F833
:1010D80010802761C4F810A06761EDB2C9F80C5000
:1010E800C4F81480C4F810802761BBF80C00FFF71F
:1010F800EBFEC4F810A06761330AC9F80C30C4F8D5
:101108001480C4F810802761C4F810A06761F6B293
:10111800C9F80C60C4F81480C4F810802761B9E7D6
:10112800464B1B881B1A9BB2013B9DB2B8E7434B49
:101138009B79002B54D1414B1C88241AA4B2013C42
:10114800A4B25889FFF7C0FE3D4B4FF480751D616E
:101158004FF400725A613B480027C76080215961EB
:1011680019611A611D615A61C760596119611A6173
:101178001D615A61270AC760596119611A611D61A9
:101188005A61E4B2C460596119611A612B4FB88978
:10119800FFF79AFE2A4B4FF480751D614FF40072D9
:1011A8005A61310A274CE1608021596119611A613D
:1011B8001D615A61F6B2E660596119611A611D61D3
:1011C8005A61788801380612E660596119611A6116
:1011D8001D615A61C0B2E060596119611A6159E72D
:1011E800DFF85880B8F80A00FFF76EFE144B4FF48A
:1011F80080771F614FF400725A61290A114CE1602F
:101208008021596119611A611F615A61EDB2E56067
:10121800596119611A611F615A61B8F800000138F3
:101228000512E560596119611A611F615A61C0B2FE
:10123800E060596119611A61A8E700BFE40600205F
:1012480000100140000C0140DFF8A4B0BBF80A0010
:10125800FFF73AFE274C4FF4807AC4F810A04FF4F9
:10126800007767612B0ADFF89090C9F80C304FF0CF
:101278008008C4F81480C4F810802761BBF80A00FD
:10128800013080B2FFF720FEC4F810A06761EDB20C
:10129800C9F80C50C4F81480C4F810802761BBF852
:1012A8000C00FFF711FEC4F810A06761330AC9F8F3
:1012B8000C30C4F81480C4F810802761BBF80C0007
:1012C800013080B2FFF700FEC4F810A06761F6B2E3
:1012D800C9F80C60C4F81480C4F810802761D9E6F6
:1012E800034B1B881B1A9BB2013B9DB289E600BFCA
:1012F800E406002000100140000C01402DE9F047F1
:10130800804B9B79012B29D02BB97E4B9A8841F6CB
:1013180063139A422CD07B4B9A8849F241339A4204
:101328003ED046F604039A423AD045F210339A4228
:1013380036D045F210539A4232D041F663139A429E
:101348002ED0072800F26081DFE810F06C01600100
:1013580062015E016401660168016A01694A928856
:1013680046F604018A42CFD041F663118A42CBD0B7
:101378000728D0D8DFE800F0120406080A0C0E107F
:101388000720C8E70420C6E70520C4E70120C2E714
:101398000020C0E70320BEE70220BCE70620BAE72A
:1013A8000138062805D8DFE800F01206080A0C0EF6
:1013B800100000240CE040240AE0C02408E02024A7
:1013C80006E0602404E0A02402E0E02400E0802499
:1013D80045F210539A4200F08680362045F21033C9
:1013E8009A4209D045F210539A4205D041F6631348
:1013F8009A4201D044F0080446F604039A4275D094
:101408002146FFF7B9FD3F4B9B8841F66312934293
:101418000AD014F0200F6CD03A4A118852889142B1
:1014280002D238480280418045F2105293426FD070
:10143800DFF8D090B9F80A00FFF746FD324C4FF4B8
:101448008078C4F810804FF4007565612F4F4FF015
:10145800000AC7F80CA08026666126612561C4F8D9
:1014680010806561C7F80CA0666126612561C4F823
:1014780010806561B9F80030013B1A12FA606661A4
:1014880026612561C4F810806561DBB2FB60666186
:1014980026612561B9F80C00FFF716FDC4F8108025
:1014A8006561C7F80CA0666126612561C4F81080E3
:1014B8006561C7F80CA0666126612561C4F81080D3
:1014C8006561B9F80230013B1A12FA60666126615B
:1014D8002561C4F810806561DBB2FB606661266136
:1014E8002561BDE8F0874FF4585077E744F00204CF
:1014F80086E7044A11885288914295D901480280AA
:10150800418091E7E406002000100140000C0140F2
:10151800484F7889FFF7D8FC474C4FF48079C4F8D6
:1015280010904FF400756561DFF810814FF0000AE4
:10153800C8F80CA08026666126612561788901308B
:1015480080B2FFF7C1FCC4F810906561C8F80CA020
:101558006661266125617889023080B2FFF7B4FCA4
:10156800C4F8109065613B88013B1B12C8F80C3029
:101578006661266125617889033080B2FFF7A4FC93
:10158800C4F8109065613B88013BDBB2C8F80C30A9
:10159800666126612561B889FFF796FCC4F810904A
:1015A8006561C8F80CA0666126612561B8890130BB
:1015B80080B2FFF789FCC4F810906561C8F80CA0E8
:1015C800666126612561B889023080B2FFF77CFC2C
:1015D800C4F8109065617B88013B1B12C8F80C3079
:1015E800666126612561B889033080B2FFF76CFC1B
:1015F800C4F8109065617B88013BDBB2C8F80C30F9
:101608006661266125616CE700210CE010210AE083
:10161800202108E0382106E0282104E0182102E012
:10162800082100E0302141F480510320FFF7A4FC99
:1016380057E700BFE406002000100140000C0140FD
:1016480008B5FFF7BDFCFFF7B3FC084B4FF48072F9
:101658001A614FF400725A61054908880549C86043
:101668008021596119611A6108BD00BF001001404D
:10167800E0060020000C01402DE9F04F83B005463C
:101688000E460192C34B9B8849F24132934220D0C7
:1016980045F2103293421CD045F21052934270D05A
:1016A80041F66312934200F0B88046F60402934272
:1016B80000F02481B74B9B79012B00F07181B54C68
:1016C80029466089FFF758FC3146A089FFF754FC8A
:1016D8003EE0DFF8C0B2BBF80A00FFF7F5FBAE4CFE
:1016E8004FF4807AC4F810A04FF4007767612B0A92
:1016F800DFF8A892C9F80C304FF08008C4F81480BD
:10170800C4F810802761C4F810A06761EDB2C9F869
:101718000C50C4F81480C4F810802761BBF80C0082
:10172800FFF7D2FBC4F810A06761330AC9F80C3080
:10173800C4F81480C4F810802761C4F810A0676149
:10174800F6B2C9F80C60C4F81480C4F81080276198
:10175800914B4FF480745C614FF400725A618D496B
:1017680009898E48C1608021596119611A611C611B
:101778005A61019CC460596119611A6103B0BDE8DE
:10178800F08FDFF810A2BAF80A00FFF79DFB824C31
:101798004FF48079C4F810904FF4007767612B0AF2
:1017A800DFF8F8B1CBF80C304FF08008C4F814809B
:1017B800C4F810802761BAF80A00013080B2FFF738
:1017C80083FBC4F810906761EDB2CBF80C50C4F8F5
:1017D8001480C4F810802761BAF80C00FFF774FB76
:1017E800C4F810906761330ACBF80C30C4F8148041
:1017F800C4F810802761BAF80C00013080B2FFF7F6
:1018080063FBC4F810906761F6B2CBF80C60C4F8BB
:101818001480C4F8108027619AE75E4B9B792BB936
:101828005C4B1B881B1A9BB2013B9DB2DFF864B16D
:10183800BBF80A00FFF748FB574C4FF4807AC4F80E
:1018480010A04FF4007767612B0ADFF85091C9F8B0
:101858000C304FF08008C4F81480C4F81080276159
:10186800C4F810A06761EDB2C9F80C50C4F8148030
:10187800C4F810802761C4F810A06761C9F80C305B
:10188800C4F81480C4F810802761C4F810A06761F8
:10189800C9F80C50C4F81480C4F810802761BBF84C
:1018A8000C00FFF711FBC4F810A06761330AC9F8F0
:1018B8000C30C4F81480C4F810802761C4F810A054
:1018C8006761F6B2C9F80C60C4F81480C4F81080D7
:1018D8002761C4F810A06761C9F80C30C4F81480F7
:1018E800C4F810802761C4F810A06761C9F80C60BB
:1018F800C4F81480C4F81080276129E7254B9B7928
:10190800012B3FD0DFF88CB0BBF80A00FFF7DCFAF8
:10191800214C4FF4807AC4F810A04FF40077676127
:101928002B0ADFF87890C9F80C304FF08008C4F81B
:101938001480C4F810802761C4F810A06761EDB264
:10194800C9F80C50C4F81480C4F810802761BBF89B
:101958000C00FFF7B9FAC4F810A06761330AC9F898
:101968000C30C4F81480C4F810802761C4F810A0A3
:101978006761F6B2C9F80C60C4F81480C4F8108026
:101988002761E5E6034B1B881B1A9BB2013B9DB2FE
:10199800B8E700BFE406002000100140000C014039
:1019A800034B1B881B1A9BB2013B9DB287E600BF05
:1019B800E4060020000000002DE9F8438146BE201F
:1019C800FFF782FA224C4FF48078C4F810804FF465
:1019D800007565611F4F0523FB60802666612661DF
:1019E8002561C4F8108065614846FEF76BFD16A3B3
:1019F800D3E90023FEF7F8FDFEF7CEFDF860666137
:101A080026612561C4F8108065610123FB60666169
:101A180026612561C4F810806561FF23FB6066615B
:101A280026612561C4F8108065610023FB6066614A
:101A380026612561C4F810806561FB6066612661D6
:101A48002561BDE8F88300BF666666666666044081
:101A580000100140000C014008B500285AD1604B25
:101A680000229A71F0221A804FF4A0725A809B8843
:101A780049F24132934217D046F60402934213D0FA
:101A880045F2103293420FD045F21052934222D0C1
:101A980041F6631293422FD0514B22221A81202201
:101AA8005A8121229A8170E04D4A2C2111812A21E4
:101AB80051812B21918146F60402934203D045F2CD
:101AC8001032934261D1464B4FF4A0721A804FF402
:101AD800F0725A8059E0424B4FF430521A814FF459
:101AE80028525A814FF42C529A814FF4F0721A807E
:101AF8004FF448725A8048E0394B2C221A812B2225
:101B08005A812A229A814FF4F0721A804FF448724F
:101B18005A803AE0324B01229A714FF4A0721A802F
:101B2800F0225A809B8849F24132934217D045F2FD
:101B38001032934213D046F60402934229D045F25C
:101B4800105293422DD041F6631293423AD0244A60
:101B580022211181212151812021918106E0204AF1
:101B68002C2111812A2151812B21918146F60402D1
:101B7800934203D045F21032934206D1184B4FF4EA
:101B8800F0721A804FF4A0725A800020FFF7B6FB5B
:101B980008BD134A2C2111812B2151812A219181C1
:101BA800E4E70F4A4FF4305111814FF42851518125
:101BB8004FF42C5191814FF4487111804FF4F0711A
:101BC8005180D3E7064A2C2111812A2151812B21EA
:101BD80091814FF4487111804FF4F0715180C5E73D
:101BE800E40600202DE9F04106461D4B1A885D8861
:101BF80002FB05F59A8846F604039A4203D1184B6E
:101C08009B79012B07D000210846FFF7D9F9FFF788
:101C1800CFF900221FE0124C0020A0712A2767810B
:101C28004FF02B08A4F80C800146FFF7C9F90123EF
:101C3800A371A4F80A80A781E9E70A4B4FF48071E1
:101C480019614FF400715961074CE66080245C61AA
:101C58001C6119610132AA42EFD3BDE8F08100BFCF
:101C6800E406002000100140000C01402DE9F04F6F
:101C780087B0304B9A6942F008029A619A6902F07B
:101C880008020092009A9A6942F010029A619B69D0
:101C980003F010030193019B4FF4F86302930124AE
:101CA800039404940323059302A9234804F088F8B5
:101CB8004FF6FF73029302A9204804F081F83220FE
:101CC80004F00CF821460020FFF756F9322004F002
:101CD80005F80020FFF766F9194B9880A0F1FF037B
:101CE8009BB2B3F57F4F80F0AA87B0F5134F00F091
:101CF800A687134B9B8849F24132934201F02A8010
:101D080046F60402934202F0768402F2A38244F279
:101D18003552934203F01A8241F2428145F2084259
:101D2800934203F06D8045F21052934241F01483C0
:101D380008E000BF0010024000100140000C014004
:101D4800E406002055214FF47040FFF715F9AA2149
:101D58004FF20100FFF710F952214FF20200FFF78E
:101D68000BF908214FF20300FFF706F901214FF2A2
:101D78000400FFF701F90D214FF43040FFF7FCF89C
:101D88000D214BF20100FFF7F7F80D214BF202008D
:101D9800FFF7F2F834214FF43640FFF7EDF834211D
:101DA8004BF20160FFF7E8F834214BF20260FFF7CD
:101DB800E3F80D214FF43140FFF7DEF80D214BF227
:101DC8000110FFF7D9F80D214BF20210FFF7D4F8F4
:101DD80034214FF43740FFF7CFF834214BF201702C
:101DE800FFF7CAF834214BF20270FFF7C5F800215B
:101DF8004FF43240FFF7C0F800214BF20120FFF703
:101E0800BBF800214BF20220FFF7B6F824214FF46B
:101E18003840FFF7B1F824214BF60100FFF7ACF882
:101E280024214BF60200FFF7A7F801214FF43F40A9
:101E3800FFF7A2F80F214FF43340FFF79DF80F2169
:101E48004BF20130FFF798F80F214BF20230FFF701
:101E580093F834214FF43940FFF78EF834214BF6CC
:101E68000110FFF789F834214BF60210FFF784F8C8
:101E780008214FF43540FFF77FF808214BF2015055
:101E8800FFF77AF808214BF20250FFF775F80321A3
:101E98004FF44240FFF770F824214FF43A40FFF71F
:101EA8006BF824214BF60120FFF766F824214BF646
:101EB8000220FFF761F800214FF43C40FFF75CF87F
:101EC80078214BF60140FFF757F800214BF6024006
:101ED800FFF752F800214FF43D40FFF74DF8782105
:101EE8004BF60150FFF748F800214BF60250FFF778
:101EF80043F800214FF43E40FFF73EF864214BF6CB
:101F08000160FFF739F800214FF45140FFF734F82A
:101F180033214DF20110FFF72FF800214DF2021086
:101F2800FFF72AF834214DF20310FFF725F80021B6
:101F38004DF20410FFF720F83A214DF20510FFF793
:101F48001BF800214DF20610FFF716F84A214DF252
:101F58000710FFF711F800214DF20810FFF70CF8F1
:101F68005C214DF20910FFF707F800214DF20A1025
:101F7800FFF702F881214DF20B10FEF7FDFF00215B
:101F88004DF20C10FEF7F8FFA6214DF20D10FEF7EA
:101F9800F3FF00214DF20E10FEF7EEFFE5214DF2A2
:101FA8000F10FEF7E9FF01214DF21010FEF7E4FFD4
:101FB80013214DF21110FEF7DFFF01214DF212102F
:101FC800FEF7DAFF54214DF21310FEF7D5FF012179
:101FD8004DF21410FEF7D0FF82214DF21510FEF7D6
:101FE800CBFF01214DF21610FEF7C6FFCA214DF2B4
:101FF8001710FEF7C1FF02214DF21810FEF7BCFFC3
:1020080000214DF21910FEF7B7FF02214DF21A1008
:10201800FEF7B2FF01214DF21B10FEF7ADFF0221C2
:102028004DF21C10FEF7A8FF34214DF21D10FEF7EB
:10203800A3FF02214DF21E10FEF79EFF67214DF20D
:102048001F10FEF799FF02214DF22010FEF794FFB2
:1020580084214DF22110FEF78FFF02214DF222104C
:10206800FEF78AFFA4214DF22310FEF785FF022117
:102078004DF22410FEF780FFB7214DF22510FEF730
:102088007BFF02214DF22610FEF776FFCF214DF29D
:102098002710FEF771FF02214DF22810FEF76CFFA2
:1020A800DE214DF22910FEF767FF02214DF22A10BA
:1020B800FEF762FFF2214DF22B10FEF75DFF0221C1
:1020C8004DF22C10FEF758FFFE214DF22D10FEF7B1
:1020D80053FF03214DF22E10FEF74EFF10214DF253
:1020E8002F10FEF749FF03214DF23010FEF744FF91
:1020F80033214DF23110FEF73FFF03214DF232102C
:10210800FEF73AFF6D214DF23310FEF735FF00213F
:102118004FF45240FEF730FF33214DF20120FEF715
:102128002BFF00214DF20220FEF726FF34214DF24D
:102138000320FEF721FF00214DF20420FEF71CFFCB
:102148003A214DF20520FEF717FF00214DF2062037
:10215800FEF712FF4A214DF20720FEF70DFF00217E
:102168004DF20820FEF708FF5C214DF20920FEF72A
:1021780003FF00214DF20A20FEF7FEFE81214DF2F9
:102188000B20FEF7F9FE00214DF20C20FEF7F4FEBD
:10219800A6214DF20D20FEF7EFFE00214DF20E2094
:1021A800FEF7EAFEE5214DF20F20FEF7E5FE0121DC
:1021B8004DF21020FEF7E0FE13214DF21120FEF73C
:1021C800DBFE01214DF21220FEF7D6FE54214DF21E
:1021D8001320FEF7D1FE01214DF21420FEF7CCFEAC
:1021E80082214DF21520FEF7C7FE01214DF216207F
:1021F800FEF7C2FECA214DF21720FEF7BDFE0221EE
:102208004DF21820FEF7B8FE00214DF21920FEF716
:10221800B3FE02214DF21A20FEF7AEFE01214DF267
:102228001B20FEF7A9FE02214DF21C20FEF7A4FE9A
:1022380034214DF21D20FEF79FFE02214DF21E2093
:10224800FEF79AFE67214DF21F20FEF795FE022148
:102258004DF22020FEF790FE84214DF22120FEF75A
:102268008BFE02214DF22220FEF786FEA4214DF2BC
:102278002320FEF781FE02214DF22420FEF77CFE8A
:10228800B7214DF22520FEF777FE02214DF22620D8
:10229800FEF772FECF214DF22720FEF76DFE0221D8
:1022A8004DF22820FEF768FEDE214DF22920FEF7C8
:1022B80063FE02214DF22A20FEF75EFEF2214DF266
:1022C8002B20FEF759FE02214DF22C20FEF754FE7A
:1022D800FE214DF22D20FEF74FFE03214DF22E2058
:1022E800FEF74AFE10214DF22F20FEF745FE03218E
:1022F8004DF23020FEF740FE33214DF23120FEF73B
:102308003BFE03214DF23220FEF736FE6D214DF2E1
:102318003320FEF731FE00214FF45340FEF72CFE28
:1023280033214DF20130FEF727FE00214DF2023035
:10233800FEF722FE34214DF20330FEF71DFE002188
:102348004DF20430FEF718FE3A214DF20530FEF743
:1023580013FE00214DF20630FEF70EFE4A214DF223
:102368000730FEF709FE00214DF20830FEF704FEA3
:102378005C214DF20930FEF7FFFD00214DF20A30D5
:10238800FEF7FAFD81214DF20B30FEF7F5FD002135
:102398004DF20C30FEF7F0FDA6214DF20D30FEF7A0
:1023A800EBFD00214DF20E30FEF7E6FDE5214DF282
:1023B8000F30FEF7E1FD01214DF21030FEF7DCFD94
:1023C80013214DF21130FEF7D7FD01214DF21230E5
:1023D800FEF7D2FD54214DF21330FEF7CDFD012159
:1023E8004DF21430FEF7C8FD82214DF21530FEF78C
:1023F800C3FD01214DF21630FEF7BEFDCA214DF294
:102408001730FEF7B9FD02214DF21830FEF7B4FD82
:1024180000214DF21930FEF7AFFD02214DF21A30BE
:10242800FEF7AAFD01214DF21B30FEF7A5FD0221A2
:102438004DF21C30FEF7A0FD34214DF21D30FEF7A1
:102448009BFD02214DF21E30FEF796FD67214DF2ED
:102458001F30FEF791FD02214DF22030FEF78CFD72
:1024680084214DF22130FEF787FD02214DF2223002
:10247800FEF782FDA4214DF22330FEF77DFD0221F7
:102488004DF22430FEF778FDB7214DF22530FEF7E6
:1024980073FD02214DF22630FEF76EFDCF214DF27D
:1024A8002730FEF769FD02214DF22830FEF764FD62
:1024B800DE214DF22930FEF75FFD02214DF22A3070
:1024C800FEF75AFDF2214DF22B30FEF755FD0221A1
:1024D8004DF22C30FEF750FDFE214DF22D30FEF767
:1024E8004BFD03214DF22E30FEF746FD10214DF233
:1024F8002F30FEF741FD03214DF23030FEF73CFD51
:1025080033214DF23130FEF737FD03214DF23230E1
:10251800FEF732FD6D214DF23330FEF72DFD00211F
:102528004FF45440FEF728FD33214DF20140FEF7E9
:1025380023FD00214DF20240FEF71EFD34214DF22D
:102548000340FEF719FD00214DF20440FEF714FD8B
:102558003A214DF20540FEF70FFD00214DF20640ED
:10256800FEF70AFD4A214DF20740FEF705FD00215E
:102578004DF20840FEF700FD5C214DF20940FEF7E0
:10258800FBFC00214DF20A40FEF7F6FC81214DF2DA
:102598000B40FEF7F1FC00214DF20C40FEF7ECFC7D
:1025A800A6214DF20D40FEF7E7FC00214DF20E404A
:1025B800FEF7E2FCE5214DF20F40FEF7DDFC0121BC
:1025C8004DF21040FEF7D8FC13214DF21140FEF7F2
:1025D800D3FC01214DF21240FEF7CEFC54214DF2FE
:1025E8001340FEF7C9FC01214DF21440FEF7C4FC6C
:1025F80082214DF21540FEF7BFFC01214DF2164035
:10260800FEF7BAFCCA214DF21740FEF7B5FC0221CD
:102618004DF21840FEF7B0FC00214DF21940FEF7CC
:10262800ABFC02214DF21A40FEF7A6FC01214DF247
:102638001B40FEF7A1FC02214DF21C40FEF79CFC5A
:1026480034214DF21D40FEF797FC02214DF21E4049
:10265800FEF792FC67214DF21F40FEF78DFC022128
:102668004DF22040FEF788FC84214DF22140FEF710
:1026780083FC02214DF22240FEF77EFCA4214DF29C
:102688002340FEF779FC02214DF22440FEF774FC4A
:10269800B7214DF22540FEF76FFC02214DF226408E
:1026A800FEF76AFCCF214DF22740FEF765FC0221B8
:1026B8004DF22840FEF760FCDE214DF22940FEF77E
:1026C8005BFC02214DF22A40FEF756FCF2214DF246
:1026D8002B40FEF751FC02214DF22C40FEF74CFC3A
:1026E800FE214DF22D40FEF747FC03214DF22E400E
:1026F800FEF742FC10214DF22F40FEF73DFC03216E
:102708004DF23040FEF738FC33214DF23140FEF7F0
:1027180033FC03214DF23240FEF72EFC6D214DF2C1
:102728003340FEF729FC00214FF45540FEF724FC06
:1027380033214DF20150FEF71FFC00214DF20250EB
:10274800FEF71AFC34214DF20350FEF715FC002168
:102758004DF20450FEF710FC3A214DF20550FEF7F9
:102768000BFC00214DF20650FEF706FC4A214DF203
:102778000750FEF701FC00214DF20850FEF7FCFB64
:102788005C214DF20950FEF7F7FB00214DF20A508B
:10279800FEF7F2FB81214DF20B50FEF7EDFB002115
:1027A8004DF20C50FEF7E8FBA6214DF20D50FEF756
:1027B800E3FB00214DF20E50FEF7DEFBE5214DF262
:1027C8000F50FEF7D9FB01214DF21050FEF7D4FB54
:1027D80013214DF21150FEF7CFFB01214DF212509B
:1027E800FEF7CAFB54214DF21350FEF7C5FB012139
:1027F8004DF21450FEF7C0FB82214DF21550FEF742
:10280800BBFB01214DF21650FEF7B6FBCA214DF273
:102818001750FEF7B1FB02214DF21850FEF7ACFB42
:1028280000214DF21950FEF7A7FB02214DF21A5074
:10283800FEF7A2FB01214DF21B50FEF79DFB022182
:102848004DF21C50FEF798FB34214DF21D50FEF757
:1028580093FB02214DF21E50FEF78EFB67214DF2CD
:102868001F50FEF789FB02214DF22050FEF784FB32
:1028780084214DF22150FEF77FFB02214DF22250B8
:10288800FEF77AFBA4214DF22350FEF775FB0221D7
:102898004DF22450FEF770FBB7214DF22550FEF79C
:1028A8006BFB02214DF22650FEF766FBCF214DF25D
:1028B8002750FEF761FB02214DF22850FEF75CFB22
:1028C800DE214DF22950FEF757FB02214DF22A5026
:1028D800FEF752FBF2214DF22B50FEF74DFB022181
:1028E8004DF22C50FEF748FBFE214DF22D50FEF71D
:1028F80043FB03214DF22E50FEF73EFB10214DF213
:102908002F50FEF739FB03214DF23050FEF734FB10
:1029180033214DF23150FEF72FFB03214DF2325097
:10292800FEF72AFB6D214DF23350FEF725FB0021FF
:102938004FF45640FEF720FB33214DF20160FEF7BD
:102948001BFB00214DF20260FEF716FB34214DF20D
:102958000360FEF711FB00214DF20460FEF70CFB4B
:102968003A214DF20560FEF707FB00214DF20660A3
:10297800FEF702FB4A214DF20760FEF7FDFA00213F
:102988004DF20860FEF7F8FA5C214DF20960FEF797
:10299800F3FA00214DF20A60FEF7EEFA81214DF2BA
:1029A8000B60FEF7E9FA00214DF20C60FEF7E4FA3D
:1029B800A6214DF20D60FEF7DFFA00214DF20E6000
:1029C800FEF7DAFAE5214DF20F60FEF7D5FA01219C
:1029D8004DF21060FEF7D0FA13214DF21160FEF7A8
:1029E800CBFA01214DF21260FEF7C6FA54214DF2DE
:1029F8001360FEF7C1FA01214DF21460FEF7BCFA2C
:102A080082214DF21560FEF7B7FA01214DF21660EA
:102A1800FEF7B2FACA214DF21760FEF7ADFA0221AD
:102A28004DF21860FEF7A8FA00214DF21960FEF782
:102A3800A3FA02214DF21A60FEF79EFA01214DF227
:102A48001B60FEF799FA02214DF21C60FEF794FA1A
:102A580034214DF21D60FEF78FFA02214DF21E60FF
:102A6800FEF78AFA67214DF21F60FEF785FA022108
:102A78004DF22060FEF780FA84214DF22160FEF7C6
:102A88007BFA02214DF22260FEF776FAA4214DF27C
:102A98002360FEF771FA02214DF22460FEF76CFA0A
:102AA800B7214DF22560FEF767FA02214DF2266044
:102AB800FEF762FACF214DF22760FEF75DFA022198
:102AC8004DF22860FEF758FADE214DF22960FEF734
:102AD80053FA02214DF22A60FEF74EFAF2214DF226
:102AE8002B60FEF749FA02214DF22C60FEF744FAFA
:102AF800FE214DF22D60FEF73FFA03214DF22E60C4
:102B0800FEF73AFA10214DF22F60FEF735FA03214D
:102B18004DF23060FEF730FA33214DF23160FEF7A6
:102B28002BFA03214DF23260FEF726FA6D214DF2A1
:102B38003360FEF721FA55214FF47040FEF71CFA76
:102B4800AA214FF20100FEF717FA52214FF20200B4
:102B5800FEF712FA08214FF20300FEF70DFA0021E2
:102B68004FF20400FEF708FACC214FF43140FEF78B
:102B780003FA00214BF20110FEF7FEF905214FF48C
:102B88003640FEF7F9F970214FF43740FEF7F4F9B3
:102B980070214BF20170FEF7EFF901214FF4384034
:102BA800FEF7EAF903214BF60100FEF7E5F90321E8
:102BB8004BF60200FEF7E0F903214BF60300FEF79F
:102BC800DBF902214FF43C40FEF7D6F900214BF621
:102BD8000140FEF7D1F900214BF60240FEF7CCF98F
:102BE800D0214FF44940FEF7C7F902214CF60110F5
:102BF800FEF7C2F950214CF60210FEF7BDF950213C
:102C08004CF60310FEF7B8F950214CF60410FEF705
:102C1800B3F900214FF45450FEF7AEF955214FF4A3
:102C28006850FEF7A9F94FF48850FEF74DF90120D6
:102C380003F054F84FF42450FEF746F99EE1D320F0
:102C4800FEF742F9FEF764F9FEF762F9FEF760F95C
:102C5800D14CA0800002A080FEF75AF9A38818433F
:102C680080B2A08049F2413398423FF442A8BF2085
:102C7800FEF72AF9FEF74CF9FEF74AF9FEF748F98C
:102C8800FEF746F9A0800002A080FEF741F9A3886C
:102C9800184380B2A08046F6040398423FF429A85E
:102CA800D420FEF711F9FEF733F9FEF731F9FEF7F4
:102CB8002FF9A0800002A080FEF72AF9A388184304
:102CC80080B2A08045F2103398423FF412A84FF426
:102CD8005A40FEF7F9F8FEF71BF94FF45B40FEF790
:102CE800F3F8FEF715F9A0800002A0804FF45C40CD
:102CF800FEF7EAF8FEF70CF9A388184380B2A08023
:102D0800B0F5004F22D0A44B9A8845F210539A424E
:102D18003EF4EFAFA120FEF7D7F8FEF7F9F89E4C86
:102D2800A080FEF7F5F8A0800002A080FEF7F0F87A
:102D3800A38803439BB2A38045F2617293427EF459
:102D4800D8AF41F66312A280FEF7D3BF45F2105206
:102D5800A280D8E7CF20FEF7B7F80020FEF7C6F824
:102D6800C120FEF7C3F83020FEF7C0F8ED20FEF7CB
:102D7800ABF86420FEF7BAF80320FEF7B7F8122084
:102D8800FEF7B4F88120FEF7B1F8E820FEF79CF8CA
:102D98008520FEF7ABF81020FEF7A8F87A20FEF79A
:102DA800A5F8CB20FEF790F83920FEF79FF82C20E5
:102DB800FEF79CF80020FEF799F83420FEF796F805
:102DC8000220FEF793F8F720FEF77EF82020FEF7A2
:102DD8008DF8EA20FEF778F80020FEF787F8002043
:102DE800FEF784F8C020FEF76FF81B20FEF77EF888
:102DF800C120FEF769F80120FEF778F8C520FEF734
:102E080063F83020FEF772F83020FEF76FF8C7201D
:102E1800FEF75AF8B720FEF769F83620FEF754F89F
:102E28004820FEF763F83A20FEF74EF85520FEF7E3
:102E38005DF8B120FEF748F80020FEF757F81A2091
:102E4800FEF754F8B620FEF73FF80A20FEF74EF8D2
:102E5800A220FEF74BF8F220FEF736F80020FEF726
:102E680045F82620FEF730F80120FEF73FF8E0206D
:102E7800FEF72AF80F20FEF739F82A20FEF736F871
:102E88002820FEF733F80820FEF730F80E20FEF76A
:102E98002DF80820FEF72AF85420FEF727F8A92075
:102EA800FEF724F84320FEF721F80A20FEF71EF863
:102EB8000F20FEF71BF80020FEF718F80020FEF799
:102EC80015F80020FEF712F80020FEF70FF8E120B1
:102ED800FDF7FAFF0020FEF709F81520FEF706F8BF
:102EE8001720FEF703F80720FEF700F81120FDF77A
:102EF800FDFF0620FDF7FAFF2B20FDF7F7FF562010
:102F0800FDF7F4FF3C20FDF7F1FF0520FDF7EEFF8C
:102F18001020FDF7EBFF0F20FDF7E8FF3F20FDF73E
:102F2800E5FF3F20FDF7E2FF0F20FDF7DFFF2B2035
:102F3800FDF7CAFF0020FDF7D9FF0020FDF7D6FFF7
:102F48000120FDF7D3FF3F20FDF7D0FF2A20FDF732
:102F5800BBFF0020FDF7CAFF0020FDF7C7FF0020D8
:102F6800FDF7C4FFEF20FDF7C1FF1120FDF7ACFF0F
:102F7800782002F0B3FE2920FDF7A6FF0020FEF717
:102F88006BFD064B0122C3F8A8214FF6FF70FEF730
:102F980029FE07B0BDE8F08FE406002000002242B9
:102FA80041F66312934202F0828144F23152934215
:102FB80040F0BA8001210020FDF7DEFF0A2002F070
:102FC8008DFE41F228611020FDF7D6FF0E21122058
:102FD800FDF7D2FF40F639211320FDF7CDFF0A2077
:102FE80002F07CFE40211120FDF7C6FF502115207C
:102FF800FDF7C2FF0A2002F071FE1E211220FDF724
:10300800BBFF0A2002F06AFE4FF4B1511020FDF711
:10301800B3FF42F639211320FDF7AEFF0A2002F074
:103028005DFE4FF480710120FDF7A6FF4FF440715B
:103038000220FDF7A1FF41F238010320FDF79CFFB4
:1030480040F202210820FDF797FF08210A20FDF72A
:1030580093FF00213020FDF78FFF40F2024131201D
:10306800FDF78AFF4FF483713220FDF785FF40F2A8
:1030780003513320FDF780FF4FF482713420FDF7B0
:103088007BFF40F201313520FDF776FF40F20771F2
:103098003620FDF771FF40F205313720FDF76CFF50
:1030A8004FF402713820FDF767FF40F60B713920A5
:1030B800FDF762FF02214120FDF75EFF4FF41C512E
:1030C8006020FDF759FF01216120FDF755FF4FF4FE
:1030D80004719020FDF750FF4FF485719220FDF7A1
:1030E8004BFF04219320FDF747FF4FF48071A02088
:1030F800FDF742FF01210720FDF73EFF21210720B0
:10310800FDF73AFF23210720FDF736FF332107207B
:10311800FDF732FF40F233110720FDF72DFF0021A4
:10312800A020FDF729FF29E741F2055293427FF4D9
:1031380025AF00210720FDF71FFF322002F0CEFD4A
:103148004FF48E711220FDF717FF0121A420FDF71F
:1031580013FF0F210820FDF70FFF08210A20FDF7B4
:103168000BFF08210D20FDF707FF40F20771302003
:10317800FDF702FF07213120FDF7FEFE40F2036153
:103188003220FDF7F9FE4FF4E0613320FDF7F4FE3D
:1031980040F202213420FDF7EFFE02213520FDF731
:1031A800EBFE41F60F713620FDF7E6FE40F207719F
:1031B8003720FDF7E1FE00213820FDF7DDFE002174
:1031C8003920FDF7D9FE40F207713A20FDF7D4FE09
:1031D80000213B20FDF7D0FE07213C20FDF7CCFE67
:1031E80000213D20FDF7C8FE322002F077FD0121C5
:1031F8000720FDF7C1FE01211720FDF7BDFE322093
:1032080002F06CFD4FF4BD511020FDF7B5FE40F201
:1032180017211120FDF7B0FE4FF48F711220FDF732
:10322800ABFE4FF470611320FDF7A6FE00212A20A3
:10323800FDF7A2FE0A212920FDF79EFE4FF49F719B
:103248001220FDF799FE00215020FDF795FEEF2191
:103258005120FDF791FE00215220FDF78DFE40F22E
:103268003F115320FDF788FE4FF41C516020FDF7F5
:1032780083FE01216120FDF77FFE00216A20FDF712
:103288007BFE00218020FDF777FE00218120FDF7DD
:1032980073FE00218220FDF76FFE00218320FDF7D9
:1032A8006BFE00218420FDF767FE00218520FDF7D5
:1032B80063FE13219020FDF75FFE4FF440719220CA
:1032C800FDF75AFE05219320FDF756FE00219520B3
:1032D800FDF752FE00219720FDF74EFE00219820B1
:1032E800FDF74AFE4FF480710120FDF745FE4FF4CB
:1032F800E0610220FDF740FE41F238010320FDF7AE
:103308003BFE00210420FDF737FE00210C20FDF7CD
:1033180033FE00210F20FDF72FFE00212020FDF7AE
:103328002BFE00212120FDF727FE21210720FDF794
:1033380023FE142002F0D2FC61210720FDF71CFEB9
:10334800142002F0CBFC40F273110720FDF714FEA5
:10335800142002F0C3FC11E645F2103293427FF4C8
:103368000DAEED20FDF7B0FD0120FDF7BFFDFE20FD
:10337800FDF7BCFDEE20FDF7A7FDDE20FDF7B6FD4D
:103388002120FDF7B3FDF120FDF79EFD0120FDF79B
:10339800ADFDDF20FDF798FD1020FDF7A7FDC42047
:1033A800FDF792FD8F20FDF7A1FDC620FDF78CFDEE
:1033B8000020FDF79BFDE220FDF798FDE220FDF7D8
:1033C80095FDE220FDF792FDBF20FDF77DFDAA20C7
:1033D800FDF78CFDB020FDF777FD0D20FDF786FD8C
:1033E8000020FDF783FD0D20FDF780FD0020FDF78F
:1033F8007DFD1120FDF77AFD0020FDF777FD1920EE
:10340800FDF774FD0020FDF771FD2120FDF76EFD2D
:103418000020FDF76BFD2D20FDF768FD0020FDF76E
:1034280065FD3D20FDF762FD0020FDF75FFD5D2095
:10343800FDF75CFD0020FDF759FD5D20FDF756FD09
:103448000020FDF753FDB120FDF73EFD8020FDF77C
:103458004DFD0020FDF74AFD8B20FDF747FD0020BC
:10346800FDF744FD9620FDF741FD0020FDF73EFDE8
:10347800B220FDF729FD0020FDF738FD0020FDF7FB
:1034880035FD0220FDF732FD0020FDF72FFD03205A
:10349800FDF72CFD0020FDF729FDB320FDF714FDF5
:1034A8000020FDF723FD0020FDF720FD0020FDF79B
:1034B8001DFD0020FDF71AFD0020FDF717FD002077
:1034C800FDF714FD0020FDF711FD0020FDF70EFDAE
:1034D8000020FDF70BFD0020FDF708FD0020FDF79B
:1034E80005FD0020FDF702FD0020FDF7FFFC002090
:1034F800FDF7FCFC0020FDF7F9FC0020FDF7F6FCC9
:103508000020FDF7F3FC0020FDF7F0FC0020FDF79C
:10351800EDFC0020FDF7EAFC0020FDF7E7FC0020A9
:10352800FDF7E4FC0020FDF7E1FC0020FDF7DEFCE0
:10353800B420FDF7C9FC8B20FDF7D8FC0020FDF76F
:10354800D5FC9620FDF7D2FC0020FDF7CFFCA1208A
:10355800FDF7CCFC0020FDF7C9FCB520FDF7B4FC55
:103568000220FDF7C3FC0020FDF7C0FC0320FDF797
:10357800BDFC0020FDF7BAFC0420FDF7B7FC0020D5
:10358800FDF7B4FCB620FDF79FFC0020FDF7AEFC6C
:103598000020FDF7ABFCB720FDF796FC0020FDF7F7
:1035A800A5FC0020FDF7A2FC3F20FDF79FFC0020B2
:1035B800FDF79CFC5E20FDF799FC0020FDF796FCCA
:1035C8006420FDF793FC0020FDF790FC8C20FDF7AC
:1035D8008DFC0020FDF78AFCAC20FDF787FC00205D
:1035E800FDF784FCDC20FDF781FC0020FDF77EFC64
:1035F8007020FDF77BFC0020FDF778FC9020FDF79C
:1036080075FC0020FDF772FCEB20FDF76FFC002035
:10361800FDF76CFCDC20FDF769FC0020FDF766FC7B
:10362800B820FDF751FC0020FDF760FC0020FDF7F5
:103638005DFC0020FDF75AFC0020FDF757FC002038
:10364800FDF754FC0020FDF751FC0020FDF74EFC6F
:103658000020FDF74BFCBA20FDF736FC2420FDF7CF
:1036680045FC0020FDF742FC0020FDF73FFC002050
:10367800FDF73CFCC120FDF727FC2020FDF736FCB8
:103688000020FDF733FC5420FDF730FC0020FDF747
:103698002DFCFF20FDF72AFC0020FDF727FCC220A7
:1036A800FDF712FC0A20FDF721FC0020FDF71EFCA7
:1036B8000420FDF71BFC0020FDF718FCC320FDF7D4
:1036C80003FC3C20FDF712FC0020FDF70FFC3A201C
:1036D800FDF70CFC0020FDF709FC3920FDF706FC7E
:1036E8000020FDF703FC3720FDF700FC0020FDF764
:1036F800FDFB3C20FDF7FAFB0020FDF7F7FB362029
:10370800FDF7F4FB0020FDF7F1FB3220FDF7EEFB9F
:103718000020FDF7EBFB2F20FDF7E8FB0020FDF76D
:10372800E5FB2C20FDF7E2FB0020FDF7DFFB29205D
:10373800FDF7DCFB0020FDF7D9FB2620FDF7D6FBC3
:103748000020FDF7D3FB2420FDF7D0FB0020FDF778
:10375800CDFB2420FDF7CAFB0020FDF7C7FB232083
:10376800FDF7C4FB0020FDF7C1FB3C20FDF7BEFBC5
:103778000020FDF7BBFB3620FDF7B8FB0020FDF766
:10378800B5FB3220FDF7B2FB0020FDF7AFFB2F2081
:10379800FDF7ACFB0020FDF7A9FB2C20FDF7A6FBED
:1037A8000020FDF7A3FB2920FDF7A0FB0020FDF773
:1037B8009DFB2620FDF79AFB0020FDF797FB2420B0
:1037C800FDF794FB0020FDF791FB2420FDF78EFB0D
:1037D8000020FDF78BFB2320FDF788FB0020FDF779
:1037E80085FBC420FDF770FB6220FDF77FFB0020FE
:1037F800FDF77CFB0520FDF779FB0020FDF776FB44
:103808008420FDF773FB0020FDF770FBF020FDF727
:103818006DFB0020FDF76AFB1820FDF767FB002011
:10382800FDF764FBA420FDF761FB0020FDF75EFBBC
:103838001820FDF75BFB0020FDF758FB5020FDF733
:1038480055FB0020FDF752FB0C20FDF74FFB002035
:10385800FDF74CFB1720FDF749FB0020FDF746FB61
:103868009520FDF743FB0020FDF740FBF320FDF713
:103878003DFB0020FDF73AFBE620FDF737FB002073
:10388800FDF734FBC520FDF71FFB3220FDF72EFBAB
:103898000020FDF72BFB4420FDF728FB0020FDF757
:1038A80025FB6520FDF722FB0020FDF71FFB762096
:1038B800FDF71CFB0020FDF719FB8820FDF716FB20
:1038C8000020FDF713FBC620FDF7FEFA2020FDF7C8
:1038D8000DFB0020FDF70AFB1720FDF707FB002072
:1038E800FDF704FB0120FDF701FB0020FDF7FEFAC0
:1038F800C720FDF7E9FA0020FDF7F8FA0020FDF7E8
:10390800F5FA0020FDF7F2FA0020FDF7EFFAC820DB
:10391800FDF7DAFA0020FDF7E9FA0020FDF7E6FAEC
:103928000020FDF7E3FA0020FDF7E0FAC920FDF7D3
:10393800CBFA0020FDF7DAFA0020FDF7D7FA0020CD
:10394800FDF7D4FA0020FDF7D1FA0020FDF7CEFAF2
:103958000020FDF7CBFA0020FDF7C8FA0020FDF79C
:10396800C5FA0020FDF7C2FA0020FDF7BFFA0020D3
:10397800FDF7BCFA0020FDF7B9FA0020FDF7B6FA0A
:103988000020FDF7B3FA0020FDF7B0FA0020FDF79C
:10399800ADFAE020FDF798FA1620FDF7A7FA002007
:1039A800FDF7A4FA1C20FDF7A1FA0020FDF79EFA06
:1039B8002120FDF79BFA0020FDF798FA3620FDF745
:1039C80095FA0020FDF792FA4620FDF78FFA0020BD
:1039D800FDF78CFA5220FDF789FA0020FDF786FAE8
:1039E8006420FDF783FA0020FDF780FA7A20FDF7BE
:1039F8007DFA0020FDF77AFA8B20FDF777FA002090
:103A0800FDF774FA9920FDF771FA0020FDF76EFAB8
:103A1800A820FDF76BFA0020FDF768FAB920FDF73A
:103A280065FA0020FDF762FAC420FDF75FFA00206E
:103A3800FDF75CFACA20FDF759FA0020FDF756FA9F
:103A4800D220FDF753FA0020FDF750FAD920FDF7F0
:103A58004DFA0020FDF74AFAE020FDF747FA00206A
:103A6800FDF744FAF320FDF741FA0020FDF73EFA8E
:103A7800E120FDF729FA1620FDF738FA0020FDF7B6
:103A880035FA1C20FDF732FA0020FDF72FFA222024
:103A9800FDF72CFA0020FDF729FA3620FDF726FA63
:103AA8000020FDF723FA4520FDF720FA0020FDF756
:103AB8001DFA5220FDF71AFA0020FDF717FA6420C4
:103AC800FDF714FA0020FDF711FA7A20FDF70EFA37
:103AD8000020FDF70BFA8B20FDF708FA0020FDF710
:103AE80005FA9920FDF702FA0020FDF7FFF9A82052
:103AF800FDF7FCF90020FDF7F9F9B920FDF7F6F913
:103B08000020FDF7F3F9C420FDF7F0F90020FDF7D8
:103B1800EDF9CA20FDF7EAF90020FDF7E7F9D22010
:103B2800FDF7E4F90020FDF7E1F9D820FDF7DEF90B
:103B38000020FDF7DBF9E020FDF7D8F90020FDF7BC
:103B4800D5F9F320FDF7D2F90020FDF7CFF9E220EF
:103B5800FDF7BAF90520FDF7C9F90020FDF7C6F908
:103B68000B20FDF7C3F90020FDF7C0F91B20FDF776
:103B7800BDF90020FDF7BAF93420FDF7B7F90020A8
:103B8800FDF7B4F94420FDF7B1F90020FDF7AEF9CF
:103B98004F20FDF7ABF90020FDF7A8F96120FDF7EC
:103BA800A5F90020FDF7A2F97920FDF79FF900207B
:103BB800FDF79CF98820FDF799F90020FDF796F9A3
:103BC8009720FDF793F90020FDF790F9A620FDF75F
:103BD8008DF90020FDF78AF9B720FDF787F9002055
:103BE800FDF784F9C220FDF781F90020FDF77EF981
:103BF800C720FDF77BF90020FDF778F9D120FDF704
:103C080075F90020FDF772F9D620FDF76FF900204D
:103C1800FDF76CF9DD20FDF769F90020FDF766F97D
:103C2800F320FDF763F90020FDF760F9E320FDF7C5
:103C38004BF90520FDF75AF90020FDF757F90A203E
:103C4800FDF754F90020FDF751F91C20FDF74EF956
:103C58000020FDF74BF93320FDF748F90020FDF768
:103C680045F94420FDF742F90020FDF73FF95020BF
:103C7800FDF73CF90020FDF739F96220FDF736F928
:103C88000020FDF733F97820FDF730F90020FDF723
:103C98002DF98820FDF72AF90020FDF727F997204C
:103CA800FDF724F90020FDF721F9A620FDF71EF9FC
:103CB8000020FDF71BF9B720FDF718F90020FDF7E4
:103CC80015F9C220FDF712F90020FDF70FF9C720FA
:103CD800FDF70CF90020FDF709F9D120FDF706F9E9
:103CE8000020FDF703F9D520FDF700F90020FDF7C6
:103CF800FDF8DD20FDF7FAF80020FDF7F7F8F320CE
:103D0800FDF7F4F80020FDF7F1F8E420FDF7DCF802
:103D18000120FDF7EBF80020FDF7E8F80120FDF79A
:103D2800E5F80020FDF7E2F80220FDF7DFF80020B3
:103D3800FDF7DCF82A20FDF7D9F80020FDF7D6F8C2
:103D48003C20FDF7D3F80020FDF7D0F84B20FDF715
:103D5800CDF80020FDF7CAF85D20FDF7C7F8002070
:103D6800FDF7C4F87420FDF7C1F80020FDF7BEF890
:103D78008420FDF7BBF80020FDF7B8F89320FDF785
:103D8800B5F80020FDF7B2F8A220FDF7AFF8002043
:103D9800FDF7ACF8B320FDF7A9F80020FDF7A6F869
:103DA800BE20FDF7A3F80020FDF7A0F8C420FDF71A
:103DB8009DF80020FDF79AF8CD20FDF797F8002030
:103DC800FDF794F8D320FDF791F80020FDF78EF861
:103DD800DD20FDF78BF80020FDF788F8F320FDF7CC
:103DE80085F80020FDF782F8E520FDF76DF8002042
:103DF800FDF77CF80020FDF779F80020FDF776F84C
:103E08000020FDF773F80220FDF770F80020FDF799
:103E18006DF82920FDF76AF80020FDF767F83C20C7
:103E2800FDF764F80020FDF761F84B20FDF75EF818
:103E38000020FDF75BF85D20FDF758F80020FDF73E
:103E480055F87420FDF752F80020FDF74FF884204C
:103E5800FDF74CF80020FDF749F89320FDF746F8E8
:103E68000020FDF743F8A220FDF740F80020FDF7F9
:103E78003DF8B320FDF73AF80020FDF737F8BE20EB
:103E8800FDF734F80020FDF731F8C420FDF72EF8CF
:103E98000020FDF72BF8CD20FDF728F80020FDF7CE
:103EA80025F8D320FDF722F80020FDF71FF8DC20C5
:103EB800FDF71CF80020FDF719F8F320FDF716F8B8
:103EC8000020FDF713F8E620FCF7FEFF1120FDF7B0
:103ED8000DF80020FDF70AF83420FDF707F8002058
:103EE800FDF704F85620FDF701F80020FCF7FEFF67
:103EF8007620FCF7FBFF0020FCF7F8FF7720FCF7A3
:103F0800F5FF0020FCF7F2FF6620FCF7EFFF00202A
:103F1800FCF7ECFF8820FCF7E9FF0020FCF7E6FF40
:103F28009920FCF7E3FF0020FCF7E0FFBB20FCF73B
:103F3800DDFF0020FCF7DAFF9920FCF7D7FF00200F
:103F4800FCF7D4FF6620FCF7D1FF0020FCF7CEFF7A
:103F58005520FCF7CBFF0020FCF7C8FF5520FCF7E5
:103F6800C5FF0020FCF7C2FF4520FCF7BFFF00207B
:103F7800FCF7BCFF4320FCF7B9FF0020FCF7B6FFB5
:103F88004420FCF7B3FF0020FCF7B0FFE720FCF764
:103F98009BFF3220FCF7AAFF0020FCF7A7FF552063
:103FA800FCF7A4FF0020FCF7A1FF7620FCF79EFF9A
:103FB8000020FCF79BFF6620FCF798FF0020FCF729
:103FC80095FF6720FCF792FF0020FCF78FFF672022
:103FD800FCF78CFF0020FCF789FF8720FCF786FFA1
:103FE8000020FCF783FF9920FCF780FF0020FCF7F6
:103FF8007DFFBB20FCF77AFF0020FCF777FF9920B4
:10400800FCF774FF0020FCF771FF7720FCF76EFFC8
:104018000020FCF76BFF4420FCF768FF0020FCF74A
:1040280065FF5620FCF762FF0020FCF75FFF2320A6
:10403800FCF75CFF0020FCF759FF3320FCF756FF24
:104048000020FCF753FF4520FCF750FF0020FCF749
:104058004DFFE820FCF738FF0020FCF747FF002061
:10406800FCF744FF9920FCF741FF0020FCF73EFFD6
:104078008720FCF73BFF0020FCF738FF8820FCF77F
:1040880035FF0020FCF732FF7720FCF72FFF0020D8
:10409800FCF72CFF6620FCF729FF0020FCF726FF21
:1040A8008820FCF723FF0020FCF720FFAA20FCF75C
:1040B8001DFF0020FCF71AFFBB20FCF717FF0020AC
:1040C800FCF714FF9920FCF711FF0020FCF70EFF06
:1040D8006620FCF70BFF0020FCF708FF5520FCF7D3
:1040E80005FF0020FCF702FF5520FCF7FFFE00202B
:1040F800FCF7FCFE4420FCF7F9FE0020FCF7F6FE76
:104108004420FCF7F3FE0020FCF7F0FE5520FCF7F6
:10411800EDFE0020FCF7EAFEE920FCF7D5FEAA2018
:10412800FCF7E4FE0020FCF7E1FE0020FCF7DEFED1
:104138000020FCF7DBFE0020FCF7C6FEAA20FCF7F7
:10414800D5FECF20FCF7C0FE0020FCF7CFFE0020F4
:10415800FCF7CCFE0020FCF7C9FE0020FCF7C6FEE9
:104168000020FCF7C3FE0020FCF7C0FE0020FCF78F
:10417800BDFE0020FCF7BAFE0020FCF7B7FE0020C9
:10418800FCF7B4FE0020FCF7B1FE0020FCF7AEFE01
:104198000020FCF7ABFE0020FCF7A8FE0020FCF78F
:1041A800A5FE0020FCF7A2FE0020FCF79FFEF020F1
:1041B800FCF78AFE0020FCF799FE5020FCF796FEDB
:1041C8000020FCF793FE0020FCF790FE0020FCF78F
:1041D8008DFEF320FCF778FE0020FCF787FEF9201F
:1041E800FCF772FE0620FCF781FE1020FCF77EFE2D
:1041F8002920FCF77BFE0020FCF778FE3A20FCF72C
:1042080063FE5520FCF772FE1120FCF75DFE64206A
:1042180001F064FD2920FCF757FE3520FCF754FE19
:104228000020FCF763FE5120FCF74EFEFF20FCF750
:104238005DFE5320FCF748FE2C20FCF757FE552066
:10424800FCF742FE8220FCF751FE2C20FCF73CFED6
:10425800FEF794BE49F23132934200F2F28049F2FD
:10426800203293422CD3A3F51343203B112B3EF667
:1042780085AE01A252F823F0E94A0008852F00080C
:10428800852F0008852F0008852F00085347000850
:10429800852F0008852F000801490008852F000890
:1042A800852F0008852F0008852F0008852F000816
:1042B800852F0008852F0008852F0008434C00082B
:1042C80048F6891293427EF459AE01210020FCF78A
:1042D80053FE4AF6A4010320FCF74EFE00210C20F1
:1042E800FCF74AFE40F60C010D20FCF745FE4FF4A2
:1042F8002C510E20FCF740FEB0211E20FCF73CFE9E
:1043080042F63F310120FCF737FE4FF4C06102202E
:10431800FCF732FE00211020FCF72EFE46F2780151
:104328001120FCF729FE00210520FCF725FE0021BD
:104338000620FCF721FE4EF61C711620FCF71CFE29
:1043480003211720FCF718FE40F233210720FCF761
:1043580013FE00210B20FCF70FFE00210F20FCF7B5
:104368000BFE00214120FCF707FE00214220FCF74C
:1043780003FE00214820FCF7FFFD40F23F114920D1
:10438800FCF7FAFD00214A20FCF7F6FD00214B203E
:10439800FCF7F2FD4FF46F414420FCF7EDFD0021DE
:1043A8004520FCF7E9FD40F23F114620FCF7E4FD0B
:1043B80040F207713020FCF7DFFD4FF40171312026
:1043C800FCF7DAFD4FF401713220FCF7D5FD40F21D
:1043D80002513320FCF7D0FD40F207513420FCF79E
:1043E800CBFD4FF401713520FCF7C6FD4FF4017188
:1043F8003620FCF7C1FD40F202513720FCF7BCFD26
:1044080040F202313A20FCF7B7FD40F202313B207E
:10441800FCF7B2FD00212320FCF7AEFD002124208B
:10442800FCF7AAFD4FF400412520FCF7A5FD00216B
:104438004F20FCF7A1FD00214E20FCF79DFDFEF763
:104448009DBD4BF20552934200F07D854CF205521A
:1044580093427EF493AD00210846FCF78DFD0021C0
:104468000846FCF789FD142001F038FC00210846B5
:10447800FCF782FD00210846FCF77EFD0021084676
:10448800FCF77AFD00210846FCF776FD0121A420FF
:10449800FCF772FD142001F021FC4FF41C51602040
:1044A800FCF76AFD40F606010820FCF765FD40F2BE
:1044B80003713020FCF760FD01213120FCF75CFD21
:1044C80004213220FCF758FD4FF481713320FCF7AA
:1044D80053FD4FF440713420FCF74EFD40F20311B8
:1044E8003520FCF749FD1F213620FCF745FD40F239
:1044F80003713720FCF740FD01213820FCF73CFD13
:1045080004213920FCF738FD15219020FCF734FDF3
:104518004FF482611020FCF72FFD40F24721112053
:10452800FCF72AFD4FF4DE711220FCF725FD4FF44D
:1045380060611320FCF720FD782001F0CFFB4FF4D9
:1045480080710120FCF718FD4FF400710220FCF780
:1045580013FD41F230010320FCF70EFD08210A206B
:10456800FCF70AFD00210C20FCF706FD20210E2097
:10457800FCF702FD00210F20FCF7FEFC00212020A3
:10458800FCF7FAFC00212120FCF7F6FC3D212A204B
:10459800FCF7F2FC142001F0A1FB2D212920FCF7E7
:1045A800EBFC00215020FCF7E7FC4DF2EF01512015
:1045B800FCF7E2FC00215220FCF7DEFC40F23F1140
:1045C8005320FCF7D9FC00216120FCF7D5FC002121
:1045D8006A20FCF7D1FC4FF440719220FCF7CCFC28
:1045E80005219320FCF7C8FC4FF480710720FCF7E5
:1045F800C3FCFEF7C3BC1120FCF766FC142001F0D5
:104608006DFBD020FCF760FC0720FCF76FFC422014
:10461800FCF76CFC1D20FCF769FCD120FCF754FC6E
:104628000020FCF763FC1A20FCF760FC0920FCF76B
:104638005DFCD220FCF748FC0120FCF757FC222047
:10464800FCF754FCC020FCF73FFC1020FCF74EFCA4
:104658003B20FCF74BFC0020FCF748FC0220FCF751
:1046680045FC1120FCF742FCC520FCF72DFC03207B
:10467800FCF73CFCC820FCF727FC0020FCF736FCC4
:104688002520FCF733FC2120FCF730FC0520FCF743
:104698002DFC0020FCF72AFC0A20FCF727FC6520EB
:1046A800FCF724FC2520FCF721FC7720FCF71EFCF6
:1046B8005020FCF71BFC0F20FCF718FC0020FCF72F
:1046C80015FCF820FCF700FC0120FCF70FFCFE208D
:1046D800FCF7FAFB0020FCF709FC0220FCF706FCBB
:1046E8002020FCF7F1FB3620FCF7EEFB0820FCF756
:1046F800FDFB3A20FCF7E8FB5520FCF7F7FB2B20E5
:10470800FCF7E2FB0020FCF7F1FB0020FCF7EEFBD6
:104718000120FCF7EBFB3F20FCF7E8FB2A20FCF725
:10472800D3FB0020FCF7E2FB0020FCF7DFFB0120B5
:10473800FCF7DCFBDF20FCF7D9FB782001F0CEFA90
:104748002920FCF7C1FBFEF719BC47F6F001E5206C
:10475800FCF712FC4FF480710120FCF70DFC4FF4BC
:10476800E0610220FCF708FC41F230010320FCF76D
:1047780003FC00210420FCF7FFFB40F20221082083
:10478800FCF7FAFB00210920FCF7F6FB00210A20C0
:10479800FCF7F2FB00210C20FCF7EEFB00210D20BA
:1047A800FCF7EAFB00210F20FCF7E6FB00211020B4
:1047B800FCF7E2FB07211120FCF7DEFB00211220A9
:1047C800FCF7DAFB00211320FCF7D6FB00210720B9
:1047D800FCF7D2FB41F290611020FCF7CDFB40F2D0
:1047E80027211120FCF7C8FB9D211220FCF7C4FBF0
:1047F8004FF4C8511320FCF7BFFB25212920FCF7F3
:10480800BBFB0D212B20FCF7B7FB07213020FCF761
:10481800B3FB40F203313120FCF7AEFB0321322019
:10482800FCF7AAFB40F206213520FCF7A5FB08217E
:104838003620FCF7A1FB40F206413720FCF79CFB31
:104848004FF441713820FCF797FB07213920FCF71A
:1048580093FB40F202613C20FCF78EFB08213D20CF
:10486800FCF78AFB00215020FCF786FBEF21512042
:10487800FCF782FB00215220FCF77EFB40F23F113F
:104888005320FCF779FB4FF427416020FCF774FBB9
:1048980001216120FCF770FB00216A20FCF76CFB0A
:1048A80000218020FCF768FB00218120FCF764FBD5
:1048B80000218220FCF760FB00218320FCF75CFBD1
:1048C80000218420FCF758FB00218520FCF754FBCD
:1048D80010219020FCF750FB4FF4C0619220FCF7A8
:1048E8004BFB40F233110720FCF746FB2221002046
:1048F800FCF742FBFEF742BB41F28F01EC20FCF7CC
:104908003BFB41F23421EF20FCF736FB4FF480717A
:104918000120FCF731FB4FF4E0610220FCF72CFB8F
:1049280041F230010320FCF727FB00210420FCF7AB
:1049380023FB40F202210820FCF71EFB002109207E
:10494800FCF71AFB00210A20FCF716FB01210C20BA
:10495800FCF712FB00210D20FCF70EFB00210F20B5
:10496800FCF70AFB00211020FCF706FB07211120A9
:10497800FCF702FB00211220FCF7FEFA00211320AD
:10498800FCF7FAFA01210720FCF7F6FA322001F0C9
:10499800A5F941F290411020FCF7EEFA40F22721E8
:1049A8001120FCF7E9FA322001F098F98A21122047
:1049B800FCF7E2FA322001F091F94FF4D0511320BC
:1049C800FCF7DAFA06212920FCF7D6FA0D212B206C
:1049D800FCF7D2FA322001F081F900212020FCF7FF
:1049E800CBFA00212120FCF7C7FA322001F076F932
:1049F80000213020FCF7C0FA40F204613120FCF7B6
:104A0800BBFA40F205313220FCF7B6FA0021352016
:104A1800FCF7B2FA40F609413620FCF7ADFA4FF43C
:104A280001713720FCF7A8FA40F201313820FCF771
:104A3800A3FA40F207713920FCF79EFA00213C20C6
:104A4800FCF79AFA40F60A213D20FCF795FA322045
:104A580001F044F900215020FCF78EFAEF21512093
:104A6800FCF78AFA00215220FCF786FA40F23F113F
:104A78005320FCF781FA4FF427416020FCF77CFAB9
:104A880001216120FCF778FA00216A20FCF774FA0A
:104A980000218020FCF770FA00218120FCF76CFAD5
:104AA80000218220FCF768FA00218320FCF764FAD1
:104AB80000218420FCF760FA00218520FCF75CFACD
:104AC80010219020FCF758FA4FF4C0619220FCF7AF
:104AD80053FA40F233110720FCF74EFAFEF74EBAAC
:104AE80000210846FCF748FA4FF480710120FCF7D2
:104AF80043FA4FF4E0610220FCF73EFA41F230013C
:104B08000320FCF739FA00210420FCF735FA40F2BB
:104B180002210820FCF730FA00210920FCF72CFAC2
:104B280000210A20FCF728FA01210C20FCF724FABE
:104B380000210D20FCF720FA00210F20FCF71CFAB9
:104B4800322001F0CBF840F201110720FCF714FAEB
:104B5800322001F0C3F84FF486511020FCF70CFA0C
:104B680007211120FCF708FA4FF488711220FCF78E
:104B780003FA4FF430611320FCF7FEF900212920D5
:104B8800FCF7FAF944F210012B20FCF7F5F90021A3
:104B98005020FCF7F1F9EF215120FCF7EDF9002145
:104BA8005220FCF7E9F940F23F115320FCF7E4F9F1
:104BB8004FF41C516020FCF7DFF901216120FCF75C
:104BC800DBF900216A20FCF7D7F900218020FCF7E7
:104BD800D3F900218120FCF7CFF900218220FCF7CE
:104BE800CBF900218320FCF7C7F900218420FCF7CA
:104BF800C3F900218520FCF7BFF910219020FCF7AC
:104C0800BBF900219220FCF7B7F901219320FCF7AA
:104C1800B3F94FF488719520FCF7AEF9002197207D
:104C2800FCF7AAF900219820FCF7A6F940F27311C5
:104C38000720FCF7A1F9FEF7A1B941F21401E7201A
:104C4800FCF79AF94FF480710120FCF795F94FF4BD
:104C580000710220FCF790F941F238010320FCF7BB
:104C68008BF940F202210820FCF786F9002109207F
:104C7800FCF782F900210A20FCF77EF900210C20BC
:104C8800FCF77AF900210D20FCF776F900210F20B6
:104C9800FCF772F900211020FCF76EF907211120AA
:104CA800FCF76AF900211220FCF766F900211320AD
:104CB800FCF762F9C82001F011F841F29061102068
:104CC800FCF75AF940F227211120FCF755F9322058
:104CD80001F004F80C211220FCF74EF9322000F004
:104CE800FDFF4FF400611320FCF746F9112129203C
:104CF800FCF742F90B212B20FCF73EF9322000F09B
:104D0800EDFF00212020FCF737F940F23F11212068
:104D1800FCF732F900213020FCF72EF94FF48371AB
:104D28003120FCF729F900213220FCF725F94FF44E
:104D380001713520FCF720F941F20A613620FCF7B1
:104D48001BF940F207713720FCF716F94FF483710D
:104D58003820FCF711F940F207713920FCF70CF9FB
:104D680040F202413C20FCF707F940F60F413D2094
:104D7800FCF702F900215020FCF7FEF8EF21512042
:104D8800FCF7FAF800215220FCF7F6F840F23F1140
:104D98005320FCF7F1F84FF41C516020FCF7ECF8B5
:104DA80001216120FCF7E8F800216A20FCF7E4F80B
:104DB80000218020FCF7E0F800218120FCF7DCF8D6
:104DC80000218220FCF7D8F800218320FCF7D4F8D2
:104DD80000218420FCF7D0F800218520FCF7CCF8CE
:104DE80010219020FCF7C8F84FF4C0619220FCF71E
:104DF800C3F840F233110720FCF7BEF8FEF7BEB83F
:104E08004FF480710120FCF7B7F84FF4E0610220FD
:104E1800FCF7B2F841F230010320FCF7ADF80021AD
:104E28000420FCF7A9F840F207210820FCF7A4F8B1
:104E380000210920FCF7A0F800210A20FCF79CF8C3
:104E480000210C20FCF798F800210D20FCF794F8BD
:104E580000210F20FCF790F8142000F03FFF41F2EA
:104E6800B0611020FCF788F801211120FCF784F8C4
:104E780001211720FCF780F84FF49C711220FCF7F1
:104E88007BF84FF400611320FCF776F809212920FC
:104E9800FCF772F809212A20FCF76EF80021A420FB
:104EA800FCF76AF800215020FCF766F8EF21512042
:104EB800FCF762F800215220FCF75EF840F23F113F
:104EC8005320FCF759F84FF41C516020FCF754F8B4
:104ED80001216120FCF750F800216A20FCF74CF80A
:104EE80000218020FCF748F800218120FCF744F8D5
:104EF80000218220FCF740F800218320FCF73CF8D1
:104F080000218420FCF738F800218520FCF734F8CC
:104F180013219020FCF730F800219220FCF72CF8A0
:104F280003219320FCF728F84FF488719520FCF7AB
:104F380023F840F273110720FCF71EF8322000F026
:104F4800CDFEFEF71BB800210846FCF715F8002136
:104F58000846FCF711F800210846FCF70DF8002177
:104F68000846FCF709F80121A420FCF705F81420ED
:104F780000F0B4FE4FF41C516020FBF7FDFF40F237
:104F880002210820FBF7F8FF4FF405713020FBF7EA
:104F9800F3FF43F215713120FBF7EEFF40F2046195
:104FA8003220FBF7E9FF40F616613320FBF7E4FFF8
:104FB80042F211213420FBF7DFFF4FF4A8513520CE
:104FC800FBF7DAFF48F207513620FBF7D5FF41F22D
:104FD80007413720FBF7D0FF41F203413820FBF7A8
:104FE800CBFF20213920FBF7C7FF1A219020FBF7C0
:104FF800C3FF00211020FBF7BFFF07211120FBF79B
:10500800BBFF00211220FBF7B7FF00211320FBF79D
:10501800B3FF142000F062FE4FF4E6611020FBF7A6
:10502800ABFF40F237111120FBF7A6FF142000F068
:1050380055FE4FF4DC711220FBF79EFF142000F0A0
:105048004DFE4FF470611320FBF796FF80212A2054
:10505800FBF792FF48212920FBF78EFF142000F070
:105068003DFE4FF480710120FBF786FF4FF4E061AD
:105078000220FBF781FF41F238010320FBF77CFF98
:1050880040F202210820FBF777FF00210A20FBF7F6
:1050980073FF00210C20FBF76FFF00210D20FBF7A9
:1050A8006BFF30210E20FBF767FF00215020FBF734
:1050B80063FFEF215120FBF75FFF00215220FBF730
:1050C8005BFF40F23F115320FBF756FF4FF41C5192
:1050D8006020FBF751FF01216120FBF74DFF002104
:1050E8006A20FBF749FF11219020FBF745FF4FF499
:1050F800C0619220FBF740FF40F202419320FBF78A
:105108003BFF02219420FBF737FF142000F0E6FD57
:1051180001210720FBF730FF142000F0DFFD61219B
:105128000720FBF729FF40F273110720FBF724FF44
:1051380000212020FBF720FF00212120FBF71CFF86
:1051480022210020FBF718FFFDF718BF302115209A
:10515800FBF712FF10219A20FBF70EFF20211120E8
:10516800FBF70AFF43F228411020FBF705FF022155
:105178001220FBF701FF41F238011320FBF7FCFE78
:10518800282000F0ABFD12210846FBF7F5FE282089
:1051980000F0A4FD43F220411020FBF7EDFE43F29E
:1051A80038011320FBF7E8FE462000F097FD0021A8
:1051B8003020FBF7E1FE40F202413120FBF7DCFE34
:1051C80040F207313220FBF7D7FE4FF4417133200C
:1051D800FBF7D2FE04213420FBF7CEFE40F201415A
:1051E8003520FBF7C9FE40F207713620FBF7C4FEF5
:1051F80040F205313720FBF7BFFE4FF4C26138207B
:10520800FBF7BAFE4FF4C2613920FBF7B5FE4FF445
:1052180080710120FBF7B0FE4FF440710220FBF7CC
:10522800ABFE41F230010320FBF7A6FE40F6080171
:105238000820FBF7A1FE08210A20FBF79DFE4FF48A
:105248001C516020FBF798FE01216120FBF794FEBA
:105258004FF49F719020FBF78FFE4FF480719220DE
:10526800FBF78AFE4FF480719320FBF785FE4FF41D
:105278004051A020FBF780FE1021A320FBF77CFE05
:1052880001210720FBF778FE21210720FBF774FE98
:1052980023210720FBF770FE33210720FBF76CFE64
:1052A80040F233110720FBF767FEFDF767BEE220E7
:1052B800FBF70AFEAD4C4FF48078C4F810804FF429
:1052C80000756561AA4F1D23FB6080266661266113
:1052D8002561C4F8108065610223FB606661266160
:1052E8002561C4F8108065610422FA606661266150
:1052F8002561012000F0F2FCE020FBF7E5FDC4F891
:10530800108065614FF0010AC7F80CA0666126613C
:1053180025610A2000F0E2FCE020FBF7D5FDC4F887
:10532800108065614FF0030BC7F80CB06661266109
:1053380025610C2000F0D2FC5046FBF7C5FD0A2081
:1053480000F0CCFCE620FBF7BFFDC4F810806561D7
:105358002F23FB60666126612561C4F810806561B2
:10536800FF23FB60666126612561C4F810806561D2
:10537800FB60666126612561B020FBF7A5FDC4F8D6
:10538800108065612023FB60666126612561C4F891
:10539800108065614FF00009C7F80C9066612661BE
:1053A8002561C4F810806561C7F80CB06661266194
:1053B8002561C4F81080656140F21F33FB606661A7
:1053C80026612561C4F810806561C7F80CA0666184
:1053D80026612561C4F81080656140F2DF13FB6027
:1053E800666126612561C4F810806561C7F80C9074
:1053F800666126612561B420FBF766FDC4F810805C
:1054080065610422FA60666126612561C4F810802E
:10541800656140F21F43FB60666126612561C4F83F
:1054280010806561C7F80C90666126612561C4F833
:10543800108065612E23FB60666126612561C4F8D2
:1054480010806561C7F80C90666126612561C4F813
:1054580010806561C7F80C90666126612561C4F803
:1054680010806561C7F80C90666126612561C4F8F3
:1054780010806561C7F80C90666126612561B620C9
:10548800FBF722FDC4F8108065610223FB606661AA
:1054980026612561C4F8108065614FF40373FB60D1
:1054A800666126612561C4F810806561C7F80C90B3
:1054B800666126612561C4F8108065611723FB6069
:1054C800666126612561C4F8108065611523FB605B
:1054D800666126612561C4F810806561C7F80C9083
:1054E800666126612561C4F810806561C7F80C9073
:1054F800666126612561F020FBF7E6FCC4F81080A0
:105508006561C7F80CB06661266125612920FBF743
:10551800DBFCD020FBF7D8FCC4F810806561C7F825
:105528000C90666126612561BE20FBF7CDFCC4F8AE
:10553800108065610523FB60666126612561C4F8FA
:1055480010806561FE23FB60666126612561C4F8F1
:1055580010806561C7F80CA0666126612561C4F8F2
:1055680010806561C7F80C9004E000BF001001408E
:10557800000C0140666126612561C4F810806561F0
:10558800C7F80C90666126612561C4F810806561D2
:10559800C7F80C90666126612561B820FBF794FC7A
:1055A800C4F810806561C7F80CB066612661256192
:1055B800C4F810806561C7F80CA066612661256192
:1055C800BA20FBF781FCC4F810806561C7F80CA00D
:1055D8006661266125616420FCF7EEF9FDF7CEBC13
:1055E8002DE9F04383B007460E469846BDF828508B
:1055F800264B998846F60403994204D0D41BA4B2DA
:105608000134A4B237E0214B9B79012BF6D11F4C12
:105618002388991A89B201391B1A9BB2013B0022CF
:10562800A2712A2767814FF02B09A4F80C900095E6
:105638009BB2424689B23046FFF7D2FF0123A371DD
:10564800A4F80A90A78103B0BDE8F083104A4FF48C
:10565800807313614FF4007353610E49CD6080214C
:105668005161116113610CF1010C1FFA8CFCA44506
:10567800ECD30136B6B24645E5D831463846FBF795
:105688009FFCFBF795FC4FF0000CF0E7E4060020C8
:1056980000100140000C01402DE9F04F83B0804616
:1056A800A2EB000A8946A3EB010BBAF1000F0DDD4E
:1056B80001220092BBF1000F14DD01230193DA45AA
:1056C8001CDD564600252F462C461BE0BAF1000F7C
:1056D80005D0A0EB020A4FF0FF320092EAE7CDF8BE
:1056E80000A0E7E7BBF1000F05D0A1EB030B4FF0DB
:1056F800FF330193E3E7CDF804B0E0E75E46E1E766
:105708000134A4B2731C9C4212DC1FFA89F11FFAFF
:1057180088F0FBF795FF57445D44BE4202DABF1B91
:10572800009B9844AE42EBDAAD1B019B9944E7E736
:1057380003B0BDE8F08FF8B507460E4615461C467F
:105748000B46FFF7A9FF23463A4631463846FFF78E
:10575800A3FF23462A4621463846FFF79DFF2346E6
:105768002A4631462846FFF797FFF8BD2DE9F04F46
:1057780083B0824688461F469DF830B013F0070371
:1057880018BF012303EBD703790801FB03F3DBB24E
:105798000093203AD3B2019344464FF000093FE00A
:1057A800019B03EB4302294B03EB820313F80950D7
:1057B80047E0274B019A03EB021313F8095040E026
:1057C800244B1A8821465046FBF756FF6D00EDB270
:1057D8000134A4B2204B5B88A34234D9A4EB08035C
:1057E800BB4210D00136F6B2072E15D815F0800F3F
:1057F800E6D1BBF1000FE9D1184B1A882146504673
:10580800FBF73AFFE2E70AF1010A1FFA8AFA124B9C
:105818001B88534517D9444609F101095FFA89F9EC
:10582800009B99450FD20C2FBAD0102FC1D0182F3A
:1058380009D1019B03EBC302094B03EB820313F865
:1058480009500026D0E703B0BDE8F08FA0B00008EB
:1058580014B50008E0060020E4060020000000203F
:1058680004BB00082DE9F04782B082460D469DF83A
:1058780028700B9E02441FFA82F90B441FFA83F822
:1058880004460CE0454517D2002300933B462946C1
:105898002046FFF76BFF04EB5704A4B201363278B9
:1058A800A2F12003DBB25E2B06D84C45EAD35FFA9F
:1058B8008AF43D44ADB2E5E702B0BDE8F08772B6C0
:1058C800FEE700B591B02822002106A800F0BBFF32
:1058D80000230193029303930493059301220692F4
:1058E8004FF4803307930A9202220D920E934FF4DD
:1058F800E0130F9306A800F099FB80B90F230193DA
:1059080002210291002303934FF4806204920593CD
:1059180001A800F0BDFD20B911B05DF804FBFFF748
:10592800CEFFFFF7CCFF0000F0B591B000F0B2F960
:10593800FFF7C7FFFCF79AF9FBF7AEFA002446E039
:105948004FF6FF70FCF74EF95F4B4FF6FF721A8067
:105958005E4E4FF4784333805D4B019318230093D8
:10596800C82228211E20FFF77DFF5A4B01931025DE
:1059780000952B46C82246211E20FFF773FF03AF70
:10598800554A5649384600F0FBFE019700952B46CC
:10599800C82264211E20FFF765FF00233380BE2341
:1059A800D22296211E20FFF7C6FE4FF6E073009321
:1059B800BD23D12297211F20FFF712FE0134E4B244
:1059C8000C2C00D100244FF4FA6000F087F90B2C5E
:1059D800BED801A353F824F049590008115A000809
:1059E8001F5A00082D5A00083F5A0008515A00084B
:1059F800635A0008755A0008875A0008995A00081F
:105A0800AB5A0008BD5A00080020FCF7EBF82E4BF3
:105A180000221A809CE71F20FCF7E4F82A4B1F227B
:105A28001A8095E74FF47840FCF7DCF8264B4FF4E2
:105A380078421A808CE74FF61F00FCF7D3F8224B08
:105A48004FF61F021A8083E74FF4FC60FCF7CAF890
:105A58001D4B4FF4FC621A807AE747F6FF70FCF79B
:105A6800C1F8194B47F6FF721A8071E74FF6E070DC
:105A7800FCF7B8F8144B4FF6E0721A8068E74FF657
:105A88000740FCF7AFF8104B4FF607421A805FE764
:105A980048F23040FCF7A6F80B4B48F230421A8027
:105AA80056E74CF21860FCF79DF8074B4CF2186269
:105AB8001A804DE74BF64040FCF794F8024B4BF642
:105AC80040421A8044E700BF00000020E0060020A2
